{"contracts/ZodiacNFT.sol":{"ZodiacNFT":{"abi":[{"inputs":[],"stateMutability":"nonpayable","type":"constructor"},{"inputs":[{"internalType":"address","name":"sender","type":"address"},{"internalType":"uint256","name":"tokenId","type":"uint256"},{"internalType":"address","name":"owner","type":"address"}],"name":"ERC721IncorrectOwner","type":"error"},{"inputs":[{"internalType":"address","name":"operator","type":"address"},{"internalType":"uint256","name":"tokenId","type":"uint256"}],"name":"ERC721InsufficientApproval","type":"error"},{"inputs":[{"internalType":"address","name":"approver","type":"address"}],"name":"ERC721InvalidApprover","type":"error"},{"inputs":[{"internalType":"address","name":"operator","type":"address"}],"name":"ERC721InvalidOperator","type":"error"},{"inputs":[{"internalType":"address","name":"owner","type":"address"}],"name":"ERC721InvalidOwner","type":"error"},{"inputs":[{"internalType":"address","name":"receiver","type":"address"}],"name":"ERC721InvalidReceiver","type":"error"},{"inputs":[{"internalType":"address","name":"sender","type":"address"}],"name":"ERC721InvalidSender","type":"error"},{"inputs":[{"internalType":"uint256","name":"tokenId","type":"uint256"}],"name":"ERC721NonexistentToken","type":"error"},{"inputs":[],"name":"EnforcedPause","type":"error"},{"inputs":[],"name":"ExpectedPause","type":"error"},{"anonymous":false,"inputs":[{"indexed":true,"internalType":"address","name":"owner","type":"address"},{"indexed":true,"internalType":"address","name":"approved","type":"address"},{"indexed":true,"internalType":"uint256","name":"tokenId","type":"uint256"}],"name":"Approval","type":"event"},{"anonymous":false,"inputs":[{"indexed":true,"internalType":"address","name":"owner","type":"address"},{"indexed":true,"internalType":"address","name":"operator","type":"address"},{"indexed":false,"internalType":"bool","name":"approved","type":"bool"}],"name":"ApprovalForAll","type":"event"},{"anonymous":false,"inputs":[{"indexed":false,"internalType":"address","name":"account","type":"address"}],"name":"Paused","type":"event"},{"anonymous":false,"inputs":[{"indexed":true,"internalType":"address","name":"from","type":"address"},{"indexed":true,"internalType":"address","name":"to","type":"address"},{"indexed":true,"internalType":"uint256","name":"tokenId","type":"uint256"}],"name":"Transfer","type":"event"},{"anonymous":false,"inputs":[{"indexed":false,"internalType":"address","name":"account","type":"address"}],"name":"Unpaused","type":"event"},{"inputs":[],"name":"MAX_SPECIAL_SUPPLY","outputs":[{"internalType":"uint256","name":"","type":"uint256"}],"stateMutability":"view","type":"function"},{"inputs":[],"name":"MINT_PRICE","outputs":[{"internalType":"uint256","name":"","type":"uint256"}],"stateMutability":"view","type":"function"},{"inputs":[{"internalType":"address","name":"to","type":"address"},{"internalType":"uint256","name":"tokenId","type":"uint256"}],"name":"approve","outputs":[],"stateMutability":"nonpayable","type":"function"},{"inputs":[{"internalType":"address","name":"owner","type":"address"}],"name":"balanceOf","outputs":[{"internalType":"uint256","name":"","type":"uint256"}],"stateMutability":"view","type":"function"},{"inputs":[],"name":"combineZodiac","outputs":[],"stateMutability":"nonpayable","type":"function"},{"inputs":[{"internalType":"uint256","name":"tokenId","type":"uint256"}],"name":"getApproved","outputs":[{"internalType":"address","name":"","type":"address"}],"stateMutability":"view","type":"function"},{"inputs":[{"internalType":"address","name":"owner","type":"address"},{"internalType":"address","name":"operator","type":"address"}],"name":"isApprovedForAll","outputs":[{"internalType":"bool","name":"","type":"bool"}],"stateMutability":"view","type":"function"},{"inputs":[],"name":"mint","outputs":[],"stateMutability":"payable","type":"function"},{"inputs":[],"name":"name","outputs":[{"internalType":"string","name":"","type":"string"}],"stateMutability":"view","type":"function"},{"inputs":[{"internalType":"uint256","name":"tokenId","type":"uint256"}],"name":"ownerOf","outputs":[{"internalType":"address","name":"","type":"address"}],"stateMutability":"view","type":"function"},{"inputs":[],"name":"paused","outputs":[{"internalType":"bool","name":"","type":"bool"}],"stateMutability":"view","type":"function"},{"inputs":[{"internalType":"address","name":"from","type":"address"},{"internalType":"address","name":"to","type":"address"},{"internalType":"uint256","name":"tokenId","type":"uint256"}],"name":"safeTransferFrom","outputs":[],"stateMutability":"nonpayable","type":"function"},{"inputs":[{"internalType":"address","name":"from","type":"address"},{"internalType":"address","name":"to","type":"address"},{"internalType":"uint256","name":"tokenId","type":"uint256"},{"internalType":"bytes","name":"data","type":"bytes"}],"name":"safeTransferFrom","outputs":[],"stateMutability":"nonpayable","type":"function"},{"inputs":[{"internalType":"address","name":"operator","type":"address"},{"internalType":"bool","name":"approved","type":"bool"}],"name":"setApprovalForAll","outputs":[],"stateMutability":"nonpayable","type":"function"},{"inputs":[],"name":"specialTokenIdCounter","outputs":[{"internalType":"uint256","name":"","type":"uint256"}],"stateMutability":"view","type":"function"},{"inputs":[{"internalType":"bytes4","name":"interfaceId","type":"bytes4"}],"name":"supportsInterface","outputs":[{"internalType":"bool","name":"","type":"bool"}],"stateMutability":"view","type":"function"},{"inputs":[],"name":"symbol","outputs":[{"internalType":"string","name":"","type":"string"}],"stateMutability":"view","type":"function"},{"inputs":[],"name":"tokenIdCounter","outputs":[{"internalType":"uint256","name":"","type":"uint256"}],"stateMutability":"view","type":"function"},{"inputs":[{"internalType":"uint256","name":"tokenId","type":"uint256"}],"name":"tokenURI","outputs":[{"internalType":"string","name":"","type":"string"}],"stateMutability":"view","type":"function"},{"inputs":[{"internalType":"uint256","name":"","type":"uint256"}],"name":"tokenZodiac","outputs":[{"internalType":"uint256","name":"","type":"uint256"}],"stateMutability":"view","type":"function"},{"inputs":[{"internalType":"address","name":"from","type":"address"},{"internalType":"address","name":"to","type":"address"},{"internalType":"uint256","name":"tokenId","type":"uint256"}],"name":"transferFrom","outputs":[],"stateMutability":"nonpayable","type":"function"},{"inputs":[{"internalType":"address","name":"","type":"address"},{"internalType":"uint256","name":"","type":"uint256"}],"name":"userZodiacCollection","outputs":[{"internalType":"uint256","name":"","type":"uint256"}],"stateMutability":"view","type":"function"}],"evm":{"bytecode":{"linkReferences":{},"object":"60806040526040518061018001604052806040518060400160405280600381526020017f526174000000000000000000000000000000000000000000000000000000000081525081526020016040518060400160405280600281526020017f4f7800000000000000000000000000000000000000000000000000000000000081525081526020016040518060400160405280600581526020017f546967657200000000000000000000000000000000000000000000000000000081525081526020016040518060400160405280600681526020017f526162626974000000000000000000000000000000000000000000000000000081525081526020016040518060400160405280600681526020017f447261676f6e000000000000000000000000000000000000000000000000000081525081526020016040518060400160405280600581526020017f536e616b6500000000000000000000000000000000000000000000000000000081525081526020016040518060400160405280600581526020017f486f72736500000000000000000000000000000000000000000000000000000081525081526020016040518060400160405280600481526020017f476f61740000000000000000000000000000000000000000000000000000000081525081526020016040518060400160405280600681526020017f4d6f6e6b6579000000000000000000000000000000000000000000000000000081525081526020016040518060400160405280600781526020017f526f6f737465720000000000000000000000000000000000000000000000000081525081526020016040518060400160405280600381526020017f446f67000000000000000000000000000000000000000000000000000000000081525081526020016040518060400160405280600381526020017f5069670000000000000000000000000000000000000000000000000000000000815250815250600b90600c6102e2929190610650565b50604051806101800160405280604051806101800160405280610151815260200161395a610151913981526020016040518061018001604052806101518152602001613fe96101519139815260200160405180610180016040528061014f8152602001613bf861014f9139815260200160405180610180016040528061014d815260200161452561014d9139815260200160405180610180016040528061014d8152602001613aab61014d9139815260200160405180610180016040528061014f815260200161413a61014f9139815260200160405180610180016040528061014f815260200161428961014f9139815260200160405180610180016040528061014f815260200161380b61014f9139815260200160405180610180016040528061014d81526020016143d861014d9139815260200160405180610180016040528061014d815260200161467261014d913981526020016040518061018001604052806101518152602001613e98610151913981526020016040518061018001604052806101518152602001613d476101519139815250601790600c610489929190610650565b506040518060a00160405280606b81526020016137a0606b9139602390816104b1919061096d565b503480156104be57600080fd5b506040518060400160405280600981526020017f5a6f646961634e465400000000000000000000000000000000000000000000008152506040518060400160405280600481526020017f5a4e465400000000000000000000000000000000000000000000000000000000815250816000908161053a919061096d565b50806001908161054a919061096d565b5050506000600660006101000a81548160ff02191690831515021790555061057661057b60201b60201c565b610a9b565b6105896105ea60201b60201c565b6001600660006101000a81548160ff0219169083151502179055507f62e78cea01bee320cd4e420270b5ea74000d11b0c9f74754ebdbfc544b05a2586105d361063160201b60201c565b6040516105e09190610a80565b60405180910390a1565b6105f861063960201b60201c565b1561062f576040517fd93c066500000000000000000000000000000000000000000000000000000000815260040160405180910390fd5b565b600033905090565b6000600660009054906101000a900460ff16905090565b82600c810192821561068b579160200282015b8281111561068a57825182908161067a919061096d565b5091602001919060010190610663565b5b509050610698919061069c565b5090565b5b808211156106bc57600081816106b391906106c0565b5060010161069d565b5090565b5080546106cc90610786565b6000825580601f106106de57506106fd565b601f0160209004906000526020600020908101906106fc9190610700565b5b50565b5b80821115610719576000816000905550600101610701565b5090565b600081519050919050565b7f4e487b7100000000000000000000000000000000000000000000000000000000600052604160045260246000fd5b7f4e487b7100000000000000000000000000000000000000000000000000000000600052602260045260246000fd5b6000600282049050600182168061079e57607f821691505b6020821081036107b1576107b0610757565b5b50919050565b60008190508160005260206000209050919050565b60006020601f8301049050919050565b600082821b905092915050565b6000600883026108197fffffffffffffffffffffffffffffffffffffffffffffffffffffffffffffffff826107dc565b61082386836107dc565b95508019841693508086168417925050509392505050565b6000819050919050565b6000819050919050565b600061086a6108656108608461083b565b610845565b61083b565b9050919050565b6000819050919050565b6108848361084f565b61089861089082610871565b8484546107e9565b825550505050565b600090565b6108ad6108a0565b6108b881848461087b565b505050565b5b818110156108dc576108d16000826108a5565b6001810190506108be565b5050565b601f821115610921576108f2816107b7565b6108fb846107cc565b8101602085101561090a578190505b61091e610916856107cc565b8301826108bd565b50505b505050565b600082821c905092915050565b600061094460001984600802610926565b1980831691505092915050565b600061095d8383610933565b9150826002028217905092915050565b6109768261071d565b67ffffffffffffffff81111561098f5761098e610728565b5b6109998254610786565b6109a48282856108e0565b600060209050601f8311600181146109d757600084156109c5578287015190505b6109cf8582610951565b865550610a37565b601f1984166109e5866107b7565b60005b82811015610a0d578489015182556001820191506020850194506020810190506109e8565b86831015610a2a5784890151610a26601f891682610933565b8355505b6001600288020188555050505b505050505050565b600073ffffffffffffffffffffffffffffffffffffffff82169050919050565b6000610a6a82610a3f565b9050919050565b610a7a81610a5f565b82525050565b6000602082019050610a956000830184610a71565b92915050565b612cf680610aaa6000396000f3fe6080604052600436106101355760003560e01c806370a08231116100ab578063b88d4fde1161006f578063b88d4fde14610407578063bad66d1614610430578063c002d23d1461046d578063c87b56dd14610498578063e985e9c5146104d5578063ea1088b71461051257610135565b806370a08231146103205780637c9efa891461035d57806395d89b411461038857806398bdf6f5146103b3578063a22cb465146103de57610135565b806323b872dd116100fd57806323b872dd1461021257806338518d651461023b5780633fa1fc6e1461025257806342842e0e1461028f5780635c975abb146102b85780636352211e146102e357610135565b806301ffc9a71461013a57806306fdde0314610177578063081812fc146101a2578063095ea7b3146101df5780631249c58b14610208575b600080fd5b34801561014657600080fd5b50610161600480360381019061015c9190611f5f565b61053d565b60405161016e9190611fa7565b60405180910390f35b34801561018357600080fd5b5061018c61061f565b6040516101999190612052565b60405180910390f35b3480156101ae57600080fd5b506101c960048036038101906101c491906120aa565b6106b1565b6040516101d69190612118565b60405180910390f35b3480156101eb57600080fd5b506102066004803603810190610201919061215f565b6106cd565b005b6102106106e3565b005b34801561021e57600080fd5b506102396004803603810190610234919061219f565b61085f565b005b34801561024757600080fd5b50610250610961565b005b34801561025e57600080fd5b50610279600480360381019061027491906120aa565b610b7b565b6040516102869190612201565b60405180910390f35b34801561029b57600080fd5b506102b660048036038101906102b1919061219f565b610b93565b005b3480156102c457600080fd5b506102cd610bb3565b6040516102da9190611fa7565b60405180910390f35b3480156102ef57600080fd5b5061030a600480360381019061030591906120aa565b610bca565b6040516103179190612118565b60405180910390f35b34801561032c57600080fd5b506103476004803603810190610342919061221c565b610bdc565b6040516103549190612201565b60405180910390f35b34801561036957600080fd5b50610372610c96565b60405161037f9190612201565b60405180910390f35b34801561039457600080fd5b5061039d610c9c565b6040516103aa9190612052565b60405180910390f35b3480156103bf57600080fd5b506103c8610d2e565b6040516103d59190612201565b60405180910390f35b3480156103ea57600080fd5b5061040560048036038101906104009190612275565b610d34565b005b34801561041357600080fd5b5061042e600480360381019061042991906123ea565b610d4a565b005b34801561043c57600080fd5b506104576004803603810190610452919061215f565b610d67565b6040516104649190612201565b60405180910390f35b34801561047957600080fd5b50610482610d8f565b60405161048f9190612201565b60405180910390f35b3480156104a457600080fd5b506104bf60048036038101906104ba91906120aa565b610d9b565b6040516104cc9190612052565b60405180910390f35b3480156104e157600080fd5b506104fc60048036038101906104f7919061246d565b6110c0565b6040516105099190611fa7565b60405180910390f35b34801561051e57600080fd5b50610527611154565b6040516105349190612201565b60405180910390f35b60007f80ac58cd000000000000000000000000000000000000000000000000000000007bffffffffffffffffffffffffffffffffffffffffffffffffffffffff1916827bffffffffffffffffffffffffffffffffffffffffffffffffffffffff1916148061060857507f5b5e139f000000000000000000000000000000000000000000000000000000007bffffffffffffffffffffffffffffffffffffffffffffffffffffffff1916827bffffffffffffffffffffffffffffffffffffffffffffffffffffffff1916145b80610618575061061782611159565b5b9050919050565b60606000805461062e906124dc565b80601f016020809104026020016040519081016040528092919081815260200182805461065a906124dc565b80156106a75780601f1061067c576101008083540402835291602001916106a7565b820191906000526020600020905b81548152906001019060200180831161068a57829003601f168201915b5050505050905090565b60006106bc826111c3565b506106c68261124b565b9050919050565b6106df82826106da611288565b611290565b5050565b67016345785d8a000034101561072e576040517f08c379a000000000000000000000000000000000000000000000000000000000815260040161072590612559565b60405180910390fd5b600060076000815480929190610743906125a8565b9190505590506000600c42338460405160200161076293929190612659565b6040516020818303038152906040528051906020012060001c61078591906126c5565b905061079133836112a2565b80600a6000848152602001908152602001600020819055506000600960003373ffffffffffffffffffffffffffffffffffffffff1673ffffffffffffffffffffffffffffffffffffffff16815260200190815260200160002082600c81106107fc576107fb6126f6565b5b01540361085b5781600960003373ffffffffffffffffffffffffffffffffffffffff1673ffffffffffffffffffffffffffffffffffffffff16815260200190815260200160002082600c8110610855576108546126f6565b5b01819055505b5050565b600073ffffffffffffffffffffffffffffffffffffffff168273ffffffffffffffffffffffffffffffffffffffff16036108d15760006040517f64a0ae920000000000000000000000000000000000000000000000000000000081526004016108c89190612118565b60405180910390fd5b60006108e583836108e0611288565b6112c0565b90508373ffffffffffffffffffffffffffffffffffffffff168173ffffffffffffffffffffffffffffffffffffffff161461095b578382826040517f64283d7b00000000000000000000000000000000000000000000000000000000815260040161095293929190612725565b60405180910390fd5b50505050565b600a600854106109a6576040517f08c379a000000000000000000000000000000000000000000000000000000000815260040161099d906127a8565b60405180910390fd5b60005b600c811015610a54576000600960003373ffffffffffffffffffffffffffffffffffffffff1673ffffffffffffffffffffffffffffffffffffffff16815260200190815260200160002082600c8110610a0557610a046126f6565b5b015403610a47576040517f08c379a0000000000000000000000000000000000000000000000000000000008152600401610a3e90612814565b60405180910390fd5b80806001019150506109a9565b5060005b600c811015610b2157610abc600960003373ffffffffffffffffffffffffffffffffffffffff1673ffffffffffffffffffffffffffffffffffffffff16815260200190815260200160002082600c8110610ab557610ab46126f6565b5b01546112de565b6000600960003373ffffffffffffffffffffffffffffffffffffffff1673ffffffffffffffffffffffffffffffffffffffff16815260200190815260200160002082600c8110610b0f57610b0e6126f6565b5b01819055508080600101915050610a58565b50600060076000815480929190610b37906125a8565b91905055905060086000815480929190610b50906125a8565b9190505550610b5f33826112a2565b600c600a60008381526020019081526020016000208190555050565b600a6020528060005260406000206000915090505481565b610bae83838360405180602001604052806000815250610d4a565b505050565b6000600660009054906101000a900460ff16905090565b6000610bd5826111c3565b9050919050565b60008073ffffffffffffffffffffffffffffffffffffffff168273ffffffffffffffffffffffffffffffffffffffff1603610c4f5760006040517f89c62b64000000000000000000000000000000000000000000000000000000008152600401610c469190612118565b60405180910390fd5b600360008373ffffffffffffffffffffffffffffffffffffffff1673ffffffffffffffffffffffffffffffffffffffff168152602001908152602001600020549050919050565b60085481565b606060018054610cab906124dc565b80601f0160208091040260200160405190810160405280929190818152602001828054610cd7906124dc565b8015610d245780601f10610cf957610100808354040283529160200191610d24565b820191906000526020600020905b815481529060010190602001808311610d0757829003601f168201915b5050505050905090565b60075481565b610d46610d3f611288565b8383611364565b5050565b610d5584848461085f565b610d61848484846114d3565b50505050565b600960205281600052604060002081600c8110610d8357600080fd5b01600091509150505481565b67016345785d8a000081565b606060075482101580610dc157506000600a600084815260200190815260200160002054145b15610e01576040517f08c379a0000000000000000000000000000000000000000000000000000000008152600401610df890612880565b60405180910390fd5b606080600c600a60008681526020019081526020016000205403610ee95760238054610e2c906124dc565b80601f0160208091040260200160405190810160405280929190818152602001828054610e58906124dc565b8015610ea55780601f10610e7a57610100808354040283529160200191610ea5565b820191906000526020600020905b815481529060010190602001808311610e8857829003601f168201915b505050505091506040518060400160405280601981526020017f4368696e657365205a6f6469616320436f6c6c656374696f6e000000000000008152509050611068565b60176001600a600087815260200190815260200160002054610f0b91906128a0565b600c8110610f1c57610f1b6126f6565b5b018054610f28906124dc565b80601f0160208091040260200160405190810160405280929190818152602001828054610f54906124dc565b8015610fa15780601f10610f7657610100808354040283529160200191610fa1565b820191906000526020600020905b815481529060010190602001808311610f8457829003601f168201915b50505050509150600b6001600a600087815260200190815260200160002054610fca91906128a0565b600c8110610fdb57610fda6126f6565b5b018054610fe7906124dc565b80601f0160208091040260200160405190810160405280929190818152602001828054611013906124dc565b80156110605780601f1061103557610100808354040283529160200191611060565b820191906000526020600020905b81548152906001019060200180831161104357829003601f168201915b505050505090505b60006110948284604051602001611080929190612a1a565b60405160208183030381529060405261168a565b9050806040516020016110a79190612aab565b6040516020818303038152906040529350505050919050565b6000600560008473ffffffffffffffffffffffffffffffffffffffff1673ffffffffffffffffffffffffffffffffffffffff16815260200190815260200160002060008373ffffffffffffffffffffffffffffffffffffffff1673ffffffffffffffffffffffffffffffffffffffff16815260200190815260200160002060009054906101000a900460ff16905092915050565b600a81565b60007f01ffc9a7000000000000000000000000000000000000000000000000000000007bffffffffffffffffffffffffffffffffffffffffffffffffffffffff1916827bffffffffffffffffffffffffffffffffffffffffffffffffffffffff1916149050919050565b6000806111cf836117fc565b9050600073ffffffffffffffffffffffffffffffffffffffff168173ffffffffffffffffffffffffffffffffffffffff160361124257826040517f7e2732890000000000000000000000000000000000000000000000000000000081526004016112399190612201565b60405180910390fd5b80915050919050565b60006004600083815260200190815260200160002060009054906101000a900473ffffffffffffffffffffffffffffffffffffffff169050919050565b600033905090565b61129d8383836001611839565b505050565b6112bc8282604051806020016040528060008152506119fe565b5050565b60006112ca611a1a565b6112d5848484611a5b565b90509392505050565b60006112ed60008360006112c0565b9050600073ffffffffffffffffffffffffffffffffffffffff168173ffffffffffffffffffffffffffffffffffffffff160361136057816040517f7e2732890000000000000000000000000000000000000000000000000000000081526004016113579190612201565b60405180910390fd5b5050565b600073ffffffffffffffffffffffffffffffffffffffff168273ffffffffffffffffffffffffffffffffffffffff16036113d557816040517f5b08ba180000000000000000000000000000000000000000000000000000000081526004016113cc9190612118565b60405180910390fd5b80600560008573ffffffffffffffffffffffffffffffffffffffff1673ffffffffffffffffffffffffffffffffffffffff16815260200190815260200160002060008473ffffffffffffffffffffffffffffffffffffffff1673ffffffffffffffffffffffffffffffffffffffff16815260200190815260200160002060006101000a81548160ff0219169083151502179055508173ffffffffffffffffffffffffffffffffffffffff168373ffffffffffffffffffffffffffffffffffffffff167f17307eab39ab6107e8899845ad3d59bd9653f200f220920489ca2b5937696c31836040516114c69190611fa7565b60405180910390a3505050565b60008373ffffffffffffffffffffffffffffffffffffffff163b1115611684578273ffffffffffffffffffffffffffffffffffffffff1663150b7a02611517611288565b8685856040518563ffffffff1660e01b81526004016115399493929190612b22565b6020604051808303816000875af192505050801561157557506040513d601f19601f820116820180604052508101906115729190612b83565b60015b6115f9573d80600081146115a5576040519150601f19603f3d011682016040523d82523d6000602084013e6115aa565b606091505b5060008151036115f157836040517f64a0ae920000000000000000000000000000000000000000000000000000000081526004016115e89190612118565b60405180910390fd5b805181602001fd5b63150b7a0260e01b7bffffffffffffffffffffffffffffffffffffffffffffffffffffffff1916817bffffffffffffffffffffffffffffffffffffffffffffffffffffffff19161461168257836040517f64a0ae920000000000000000000000000000000000000000000000000000000081526004016116799190612118565b60405180910390fd5b505b50505050565b606060008251036116ac576040518060200160405280600081525090506117f7565b6000604051806060016040528060408152602001612c8160409139905060006003600285516116db9190612bb0565b6116e59190612be4565b60046116f19190612c15565b67ffffffffffffffff81111561170a576117096122bf565b5b6040519080825280601f01601f19166020018201604052801561173c5781602001600182028036833780820191505090505b50905060018201602082018586518701602081018051600082525b828410156117b2576003840193508351603f8160121c168701518653600186019550603f81600c1c168701518653600186019550603f8160061c168701518653600186019550603f8116870151865360018601955050611757565b80825260038a5106600181146117cf57600281146117e2576117ea565b603d6001870353603d60028703536117ea565b603d60018703535b5050505050505080925050505b919050565b60006002600083815260200190815260200160002060009054906101000a900473ffffffffffffffffffffffffffffffffffffffff169050919050565b80806118725750600073ffffffffffffffffffffffffffffffffffffffff168273ffffffffffffffffffffffffffffffffffffffff1614155b156119a6576000611882846111c3565b9050600073ffffffffffffffffffffffffffffffffffffffff168373ffffffffffffffffffffffffffffffffffffffff16141580156118ed57508273ffffffffffffffffffffffffffffffffffffffff168173ffffffffffffffffffffffffffffffffffffffff1614155b801561190057506118fe81846110c0565b155b1561194257826040517fa9fbf51f0000000000000000000000000000000000000000000000000000000081526004016119399190612118565b60405180910390fd5b81156119a457838573ffffffffffffffffffffffffffffffffffffffff168273ffffffffffffffffffffffffffffffffffffffff167f8c5be1e5ebec7d5bd14f71427d1e84f3dd0314c0f7b2291e5b200ac8c7c3b92560405160405180910390a45b505b836004600085815260200190815260200160002060006101000a81548173ffffffffffffffffffffffffffffffffffffffff021916908373ffffffffffffffffffffffffffffffffffffffff16021790555050505050565b611a088383611c75565b611a1560008484846114d3565b505050565b611a22610bb3565b15611a59576040517fd93c066500000000000000000000000000000000000000000000000000000000815260040160405180910390fd5b565b600080611a67846117fc565b9050600073ffffffffffffffffffffffffffffffffffffffff168373ffffffffffffffffffffffffffffffffffffffff1614611aa957611aa8818486611d6e565b5b600073ffffffffffffffffffffffffffffffffffffffff168173ffffffffffffffffffffffffffffffffffffffff1614611b3a57611aeb600085600080611839565b6001600360008373ffffffffffffffffffffffffffffffffffffffff1673ffffffffffffffffffffffffffffffffffffffff168152602001908152602001600020600082825403925050819055505b600073ffffffffffffffffffffffffffffffffffffffff168573ffffffffffffffffffffffffffffffffffffffff1614611bbd576001600360008773ffffffffffffffffffffffffffffffffffffffff1673ffffffffffffffffffffffffffffffffffffffff168152602001908152602001600020600082825401925050819055505b846002600086815260200190815260200160002060006101000a81548173ffffffffffffffffffffffffffffffffffffffff021916908373ffffffffffffffffffffffffffffffffffffffff160217905550838573ffffffffffffffffffffffffffffffffffffffff168273ffffffffffffffffffffffffffffffffffffffff167fddf252ad1be2c89b69c2b068fc378daa952ba7f163c4a11628f55a4df523b3ef60405160405180910390a4809150509392505050565b600073ffffffffffffffffffffffffffffffffffffffff168273ffffffffffffffffffffffffffffffffffffffff1603611ce75760006040517f64a0ae92000000000000000000000000000000000000000000000000000000008152600401611cde9190612118565b60405180910390fd5b6000611cf5838360006112c0565b9050600073ffffffffffffffffffffffffffffffffffffffff168173ffffffffffffffffffffffffffffffffffffffff1614611d695760006040517f73c6ac6e000000000000000000000000000000000000000000000000000000008152600401611d609190612118565b60405180910390fd5b505050565b611d79838383611e32565b611e2d57600073ffffffffffffffffffffffffffffffffffffffff168373ffffffffffffffffffffffffffffffffffffffff1603611dee57806040517f7e273289000000000000000000000000000000000000000000000000000000008152600401611de59190612201565b60405180910390fd5b81816040517f177e802f000000000000000000000000000000000000000000000000000000008152600401611e24929190612c57565b60405180910390fd5b505050565b60008073ffffffffffffffffffffffffffffffffffffffff168373ffffffffffffffffffffffffffffffffffffffff1614158015611eea57508273ffffffffffffffffffffffffffffffffffffffff168473ffffffffffffffffffffffffffffffffffffffff161480611eab5750611eaa84846110c0565b5b80611ee957508273ffffffffffffffffffffffffffffffffffffffff16611ed18361124b565b73ffffffffffffffffffffffffffffffffffffffff16145b5b90509392505050565b6000604051905090565b600080fd5b600080fd5b60007fffffffff0000000000000000000000000000000000000000000000000000000082169050919050565b611f3c81611f07565b8114611f4757600080fd5b50565b600081359050611f5981611f33565b92915050565b600060208284031215611f7557611f74611efd565b5b6000611f8384828501611f4a565b91505092915050565b60008115159050919050565b611fa181611f8c565b82525050565b6000602082019050611fbc6000830184611f98565b92915050565b600081519050919050565b600082825260208201905092915050565b60005b83811015611ffc578082015181840152602081019050611fe1565b60008484015250505050565b6000601f19601f8301169050919050565b600061202482611fc2565b61202e8185611fcd565b935061203e818560208601611fde565b61204781612008565b840191505092915050565b6000602082019050818103600083015261206c8184612019565b905092915050565b6000819050919050565b61208781612074565b811461209257600080fd5b50565b6000813590506120a48161207e565b92915050565b6000602082840312156120c0576120bf611efd565b5b60006120ce84828501612095565b91505092915050565b600073ffffffffffffffffffffffffffffffffffffffff82169050919050565b6000612102826120d7565b9050919050565b612112816120f7565b82525050565b600060208201905061212d6000830184612109565b92915050565b61213c816120f7565b811461214757600080fd5b50565b60008135905061215981612133565b92915050565b6000806040838503121561217657612175611efd565b5b60006121848582860161214a565b925050602061219585828601612095565b9150509250929050565b6000806000606084860312156121b8576121b7611efd565b5b60006121c68682870161214a565b93505060206121d78682870161214a565b92505060406121e886828701612095565b9150509250925092565b6121fb81612074565b82525050565b600060208201905061221660008301846121f2565b92915050565b60006020828403121561223257612231611efd565b5b60006122408482850161214a565b91505092915050565b61225281611f8c565b811461225d57600080fd5b50565b60008135905061226f81612249565b92915050565b6000806040838503121561228c5761228b611efd565b5b600061229a8582860161214a565b92505060206122ab85828601612260565b9150509250929050565b600080fd5b600080fd5b7f4e487b7100000000000000000000000000000000000000000000000000000000600052604160045260246000fd5b6122f782612008565b810181811067ffffffffffffffff82111715612316576123156122bf565b5b80604052505050565b6000612329611ef3565b905061233582826122ee565b919050565b600067ffffffffffffffff821115612355576123546122bf565b5b61235e82612008565b9050602081019050919050565b82818337600083830152505050565b600061238d6123888461233a565b61231f565b9050828152602081018484840111156123a9576123a86122ba565b5b6123b484828561236b565b509392505050565b600082601f8301126123d1576123d06122b5565b5b81356123e184826020860161237a565b91505092915050565b6000806000806080858703121561240457612403611efd565b5b60006124128782880161214a565b94505060206124238782880161214a565b935050604061243487828801612095565b925050606085013567ffffffffffffffff81111561245557612454611f02565b5b612461878288016123bc565b91505092959194509250565b6000806040838503121561248457612483611efd565b5b60006124928582860161214a565b92505060206124a38582860161214a565b9150509250929050565b7f4e487b7100000000000000000000000000000000000000000000000000000000600052602260045260246000fd5b600060028204905060018216806124f457607f821691505b602082108103612507576125066124ad565b5b50919050565b7f496e73756666696369656e74207061796d656e74000000000000000000000000600082015250565b6000612543601483611fcd565b915061254e8261250d565b602082019050919050565b6000602082019050818103600083015261257281612536565b9050919050565b7f4e487b7100000000000000000000000000000000000000000000000000000000600052601160045260246000fd5b60006125b382612074565b91507fffffffffffffffffffffffffffffffffffffffffffffffffffffffffffffffff82036125e5576125e4612579565b5b600182019050919050565b6000819050919050565b61260b61260682612074565b6125f0565b82525050565b60008160601b9050919050565b600061262982612611565b9050919050565b600061263b8261261e565b9050919050565b61265361264e826120f7565b612630565b82525050565b600061266582866125fa565b6020820191506126758285612642565b60148201915061268582846125fa565b602082019150819050949350505050565b7f4e487b7100000000000000000000000000000000000000000000000000000000600052601260045260246000fd5b60006126d082612074565b91506126db83612074565b9250826126eb576126ea612696565b5b828206905092915050565b7f4e487b7100000000000000000000000000000000000000000000000000000000600052603260045260246000fd5b600060608201905061273a6000830186612109565b61274760208301856121f2565b6127546040830184612109565b949350505050565b7f4d6178696d756d207370656369616c204e465473207265616368656400000000600082015250565b6000612792601c83611fcd565b915061279d8261275c565b602082019050919050565b600060208201905081810360008301526127c181612785565b9050919050565b7f496e636f6d706c657465207a6f6469616320636f6c6c656374696f6e00000000600082015250565b60006127fe601c83611fcd565b9150612809826127c8565b602082019050919050565b6000602082019050818103600083015261282d816127f1565b9050919050565b7f546f6b656e20646f6573206e6f74206578697374000000000000000000000000600082015250565b600061286a601483611fcd565b915061287582612834565b602082019050919050565b600060208201905081810360008301526128998161285d565b9050919050565b60006128ab82612074565b91506128b683612074565b92508282039050818111156128ce576128cd612579565b5b92915050565b600081905092915050565b7f7b226e616d65223a202200000000000000000000000000000000000000000000600082015250565b6000612915600a836128d4565b9150612920826128df565b600a82019050919050565b600061293682611fc2565b61294081856128d4565b9350612950818560208601611fde565b80840191505092915050565b7f222c20226465736372697074696f6e223a20224368696e657365205a6f64696160008201527f63204e4654222c2022696d616765223a20220000000000000000000000000000602082015250565b60006129b86032836128d4565b91506129c38261295c565b603282019050919050565b7f227d000000000000000000000000000000000000000000000000000000000000600082015250565b6000612a046002836128d4565b9150612a0f826129ce565b600282019050919050565b6000612a2582612908565b9150612a31828561292b565b9150612a3c826129ab565b9150612a48828461292b565b9150612a53826129f7565b91508190509392505050565b7f646174613a6170706c69636174696f6e2f6a736f6e3b6261736536342c000000600082015250565b6000612a95601d836128d4565b9150612aa082612a5f565b601d82019050919050565b6000612ab682612a88565b9150612ac2828461292b565b915081905092915050565b600081519050919050565b600082825260208201905092915050565b6000612af482612acd565b612afe8185612ad8565b9350612b0e818560208601611fde565b612b1781612008565b840191505092915050565b6000608082019050612b376000830187612109565b612b446020830186612109565b612b5160408301856121f2565b8181036060830152612b638184612ae9565b905095945050505050565b600081519050612b7d81611f33565b92915050565b600060208284031215612b9957612b98611efd565b5b6000612ba784828501612b6e565b91505092915050565b6000612bbb82612074565b9150612bc683612074565b9250828201905080821115612bde57612bdd612579565b5b92915050565b6000612bef82612074565b9150612bfa83612074565b925082612c0a57612c09612696565b5b828204905092915050565b6000612c2082612074565b9150612c2b83612074565b9250828202612c3981612074565b91508282048414831517612c5057612c4f612579565b5b5092915050565b6000604082019050612c6c6000830185612109565b612c7960208301846121f2565b939250505056fe4142434445464748494a4b4c4d4e4f505152535455565758595a6162636465666768696a6b6c6d6e6f707172737475767778797a303132333435363738392b2fa2646970667358221220bd8d3f5437ffc83724c60133d94ceeb73c89e3504f3986e8718a2d0cac10b66164736f6c634300081b003368747470733a2f2f62616679626569687232766a36716d69356372787761367272716e7070766e726c673765376f646570376a7778757534336268626d7074646f78712e697066732e7733732e6c696e6b2f323032342d31302d303225323031362e32372e32322e6a706768747470733a2f2f62616679626569687232766a36716d69356372787761367272716e7070766e726c673765376f646570376a7778757534336268626d7074646f78712e697066732e7733732e6c696e6b2f44414c4c25433225423745253230323032342d31302d303225323031362e30392e30362532302d253230506978656c2532306172742532306f6625323061253230676f6174253243253230726570726573656e74696e672532307468652532304368696e6573652532307a6f646961632e253230546865253230676f617425323073686f756c64253230626525323064697374696e637425324325323076696272616e74253243253230616e6425323073696d706c6966696564253230696e253230636c6173736963253230706978656c2532306172742532307374796c652532432532307375697461626c65253230666f72253230616e2e7765627068747470733a2f2f62616679626569687232766a36716d69356372787761367272716e7070766e726c673765376f646570376a7778757534336268626d7074646f78712e697066732e7733732e6c696e6b2f44414c4c25433225423745253230323032342d31302d303225323031362e30342e33322532302d253230506978656c2532306172742532306f6625323061253230726174253243253230726570726573656e74696e672532307468652532304368696e6573652532307a6f646961632e25323054686525323072617425323073686f756c64253230626525323064697374696e637425324325323076696272616e74253243253230616e6425323073696d706c6966696564253230696e253230636c6173736963253230706978656c2532306172742532307374796c652532432532307375697461626c65253230666f72253230616e2532304e2e7765627068747470733a2f2f62616679626569687232766a36716d69356372787761367272716e7070766e726c673765376f646570376a7778757534336268626d7074646f78712e697066732e7733732e6c696e6b2f44414c4c25433225423745253230323032342d31302d303225323031362e30372e32382532302d253230506978656c2532306172742532306f6625323061253230647261676f6e253243253230726570726573656e74696e672532307468652532304368696e6573652532307a6f646961632e253230546865253230647261676f6e25323073686f756c64253230626525323064697374696e637425324325323076696272616e74253243253230616e6425323073696d706c6966696564253230696e253230636c6173736963253230706978656c2532306172742532307374796c652532432532307375697461626c65253230666f2e7765627068747470733a2f2f62616679626569687232766a36716d69356372787761367272716e7070766e726c673765376f646570376a7778757534336268626d7074646f78712e697066732e7733732e6c696e6b2f44414c4c25433225423745253230323032342d31302d303225323031362e30342e33382532302d253230506978656c2532306172742532306f66253230612532307469676572253243253230726570726573656e74696e672532307468652532304368696e6573652532307a6f646961632e253230546865253230746967657225323073686f756c64253230626525323064697374696e637425324325323076696272616e74253243253230616e6425323073696d706c6966696564253230696e253230636c6173736963253230706978656c2532306172742532307374796c652532432532307375697461626c65253230666f722532302e7765627068747470733a2f2f62616679626569687232766a36716d69356372787761367272716e7070766e726c673765376f646570376a7778757534336268626d7074646f78712e697066732e7733732e6c696e6b2f44414c4c25433225423745253230323032342d31302d303225323031362e31302e31332532302d253230506978656c2532306172742532306f6625323061253230706967253243253230726570726573656e74696e672532307468652532304368696e6573652532307a6f646961632e25323054686525323070696725323073686f756c64253230626525323064697374696e637425324325323076696272616e74253243253230616e6425323073696d706c6966696564253230696e253230636c6173736963253230706978656c2532306172742532307374796c652532432532307375697461626c65253230666f72253230616e2532304e2e7765627068747470733a2f2f62616679626569687232766a36716d69356372787761367272716e7070766e726c673765376f646570376a7778757534336268626d7074646f78712e697066732e7733732e6c696e6b2f44414c4c25433225423745253230323032342d31302d303225323031362e31302e30322532302d253230506978656c2532306172742532306f6625323061253230646f67253243253230726570726573656e74696e672532307468652532304368696e6573652532307a6f646961632e253230546865253230646f6725323073686f756c64253230626525323064697374696e637425324325323076696272616e74253243253230616e6425323073696d706c6966696564253230696e253230636c6173736963253230706978656c2532306172742532307374796c652532432532307375697461626c65253230666f72253230616e2532304e2e7765627068747470733a2f2f62616679626569687232766a36716d69356372787761367272716e7070766e726c673765376f646570376a7778757534336268626d7074646f78712e697066732e7733732e6c696e6b2f44414c4c25433225423745253230323032342d31302d303225323031362e30342e33362532302d253230506978656c2532306172742532306f66253230616e2532306f78253243253230726570726573656e74696e672532307468652532304368696e6573652532307a6f646961632e2532305468652532306f7825323073686f756c64253230626525323064697374696e637425324325323076696272616e74253243253230616e6425323073696d706c6966696564253230696e253230636c6173736963253230706978656c2532306172742532307374796c652532432532307375697461626c65253230666f72253230616e2532304e462e7765627068747470733a2f2f62616679626569687232766a36716d69356372787761367272716e7070766e726c673765376f646570376a7778757534336268626d7074646f78712e697066732e7733732e6c696e6b2f44414c4c25433225423745253230323032342d31302d303225323031362e30382e34312532302d253230506978656c2532306172742532306f6625323061253230736e616b65253243253230726570726573656e74696e672532307468652532304368696e6573652532307a6f646961632e253230546865253230736e616b6525323073686f756c64253230626525323064697374696e637425324325323076696272616e74253243253230616e6425323073696d706c6966696564253230696e253230636c6173736963253230706978656c2532306172742532307374796c652532432532307375697461626c65253230666f722532302e7765627068747470733a2f2f62616679626569687232766a36716d69356372787761367272716e7070766e726c673765376f646570376a7778757534336268626d7074646f78712e697066732e7733732e6c696e6b2f44414c4c25433225423745253230323032342d31302d303225323031362e30382e34352532302d253230506978656c2532306172742532306f6625323061253230686f727365253243253230726570726573656e74696e672532307468652532304368696e6573652532307a6f646961632e253230546865253230686f72736525323073686f756c64253230626525323064697374696e637425324325323076696272616e74253243253230616e6425323073696d706c6966696564253230696e253230636c6173736963253230706978656c2532306172742532307374796c652532432532307375697461626c65253230666f722532302e7765627068747470733a2f2f62616679626569687232766a36716d69356372787761367272716e7070766e726c673765376f646570376a7778757534336268626d7074646f78712e697066732e7733732e6c696e6b2f44414c4c25433225423745253230323032342d31302d303225323031362e30392e34342532302d253230506978656c2532306172742532306f66253230612532306d6f6e6b6579253243253230726570726573656e74696e672532307468652532304368696e6573652532307a6f646961632e2532305468652532306d6f6e6b657925323073686f756c64253230626525323064697374696e637425324325323076696272616e74253243253230616e6425323073696d706c6966696564253230696e253230636c6173736963253230706978656c2532306172742532307374796c652532432532307375697461626c65253230666f2e7765627068747470733a2f2f62616679626569687232766a36716d69356372787761367272716e7070766e726c673765376f646570376a7778757534336268626d7074646f78712e697066732e7733732e6c696e6b2f44414c4c25433225423745253230323032342d31302d303225323031362e30372e32312532302d253230506978656c2532306172742532306f6625323061253230726162626974253243253230726570726573656e74696e672532307468652532304368696e6573652532307a6f646961632e25323054686525323072616262697425323073686f756c64253230626525323064697374696e637425324325323076696272616e74253243253230616e6425323073696d706c6966696564253230696e253230636c6173736963253230706978656c2532306172742532307374796c652532432532307375697461626c65253230666f2e7765627068747470733a2f2f62616679626569687232766a36716d69356372787761367272716e7070766e726c673765376f646570376a7778757534336268626d7074646f78712e697066732e7733732e6c696e6b2f44414c4c25433225423745253230323032342d31302d303225323031362e30392e35322532302d253230506978656c2532306172742532306f6625323061253230726f6f73746572253243253230726570726573656e74696e672532307468652532304368696e6573652532307a6f646961632e253230546865253230726f6f7374657225323073686f756c64253230626525323064697374696e637425324325323076696272616e74253243253230616e6425323073696d706c6966696564253230696e253230636c6173736963253230706978656c2532306172742532307374796c652532432532307375697461626c652532302e77656270","opcodes":"PUSH1 0x80 PUSH1 0x40 MSTORE PUSH1 0x40 MLOAD DUP1 PUSH2 0x180 ADD PUSH1 0x40 MSTORE DUP1 PUSH1 0x40 MLOAD DUP1 PUSH1 0x40 ADD PUSH1 0x40 MSTORE DUP1 PUSH1 0x3 DUP2 MSTORE PUSH1 0x20 ADD PUSH32 0x5261740000000000000000000000000000000000000000000000000000000000 DUP2 MSTORE POP DUP2 MSTORE PUSH1 0x20 ADD PUSH1 0x40 MLOAD DUP1 PUSH1 0x40 ADD PUSH1 0x40 MSTORE DUP1 PUSH1 0x2 DUP2 MSTORE PUSH1 0x20 ADD PUSH32 0x4F78000000000000000000000000000000000000000000000000000000000000 DUP2 MSTORE POP DUP2 MSTORE PUSH1 0x20 ADD PUSH1 0x40 MLOAD DUP1 PUSH1 0x40 ADD PUSH1 0x40 MSTORE DUP1 PUSH1 0x5 DUP2 MSTORE PUSH1 0x20 ADD PUSH32 0x5469676572000000000000000000000000000000000000000000000000000000 DUP2 MSTORE POP DUP2 MSTORE PUSH1 0x20 ADD PUSH1 0x40 MLOAD DUP1 PUSH1 0x40 ADD PUSH1 0x40 MSTORE DUP1 PUSH1 0x6 DUP2 MSTORE PUSH1 0x20 ADD PUSH32 0x5261626269740000000000000000000000000000000000000000000000000000 DUP2 MSTORE POP DUP2 MSTORE PUSH1 0x20 ADD PUSH1 0x40 MLOAD DUP1 PUSH1 0x40 ADD PUSH1 0x40 MSTORE DUP1 PUSH1 0x6 DUP2 MSTORE PUSH1 0x20 ADD PUSH32 0x447261676F6E0000000000000000000000000000000000000000000000000000 DUP2 MSTORE POP DUP2 MSTORE PUSH1 0x20 ADD PUSH1 0x40 MLOAD DUP1 PUSH1 0x40 ADD PUSH1 0x40 MSTORE DUP1 PUSH1 0x5 DUP2 MSTORE PUSH1 0x20 ADD PUSH32 0x536E616B65000000000000000000000000000000000000000000000000000000 DUP2 MSTORE POP DUP2 MSTORE PUSH1 0x20 ADD PUSH1 0x40 MLOAD DUP1 PUSH1 0x40 ADD PUSH1 0x40 MSTORE DUP1 PUSH1 0x5 DUP2 MSTORE PUSH1 0x20 ADD PUSH32 0x486F727365000000000000000000000000000000000000000000000000000000 DUP2 MSTORE POP DUP2 MSTORE PUSH1 0x20 ADD PUSH1 0x40 MLOAD DUP1 PUSH1 0x40 ADD PUSH1 0x40 MSTORE DUP1 PUSH1 0x4 DUP2 MSTORE PUSH1 0x20 ADD PUSH32 0x476F617400000000000000000000000000000000000000000000000000000000 DUP2 MSTORE POP DUP2 MSTORE PUSH1 0x20 ADD PUSH1 0x40 MLOAD DUP1 PUSH1 0x40 ADD PUSH1 0x40 MSTORE DUP1 PUSH1 0x6 DUP2 MSTORE PUSH1 0x20 ADD PUSH32 0x4D6F6E6B65790000000000000000000000000000000000000000000000000000 DUP2 MSTORE POP DUP2 MSTORE PUSH1 0x20 ADD PUSH1 0x40 MLOAD DUP1 PUSH1 0x40 ADD PUSH1 0x40 MSTORE DUP1 PUSH1 0x7 DUP2 MSTORE PUSH1 0x20 ADD PUSH32 0x526F6F7374657200000000000000000000000000000000000000000000000000 DUP2 MSTORE POP DUP2 MSTORE PUSH1 0x20 ADD PUSH1 0x40 MLOAD DUP1 PUSH1 0x40 ADD PUSH1 0x40 MSTORE DUP1 PUSH1 0x3 DUP2 MSTORE PUSH1 0x20 ADD PUSH32 0x446F670000000000000000000000000000000000000000000000000000000000 DUP2 MSTORE POP DUP2 MSTORE PUSH1 0x20 ADD PUSH1 0x40 MLOAD DUP1 PUSH1 0x40 ADD PUSH1 0x40 MSTORE DUP1 PUSH1 0x3 DUP2 MSTORE PUSH1 0x20 ADD PUSH32 0x5069670000000000000000000000000000000000000000000000000000000000 DUP2 MSTORE POP DUP2 MSTORE POP PUSH1 0xB SWAP1 PUSH1 0xC PUSH2 0x2E2 SWAP3 SWAP2 SWAP1 PUSH2 0x650 JUMP JUMPDEST POP PUSH1 0x40 MLOAD DUP1 PUSH2 0x180 ADD PUSH1 0x40 MSTORE DUP1 PUSH1 0x40 MLOAD DUP1 PUSH2 0x180 ADD PUSH1 0x40 MSTORE DUP1 PUSH2 0x151 DUP2 MSTORE PUSH1 0x20 ADD PUSH2 0x395A PUSH2 0x151 SWAP2 CODECOPY DUP2 MSTORE PUSH1 0x20 ADD PUSH1 0x40 MLOAD DUP1 PUSH2 0x180 ADD PUSH1 0x40 MSTORE DUP1 PUSH2 0x151 DUP2 MSTORE PUSH1 0x20 ADD PUSH2 0x3FE9 PUSH2 0x151 SWAP2 CODECOPY DUP2 MSTORE PUSH1 0x20 ADD PUSH1 0x40 MLOAD DUP1 PUSH2 0x180 ADD PUSH1 0x40 MSTORE DUP1 PUSH2 0x14F DUP2 MSTORE PUSH1 0x20 ADD PUSH2 0x3BF8 PUSH2 0x14F SWAP2 CODECOPY DUP2 MSTORE PUSH1 0x20 ADD PUSH1 0x40 MLOAD DUP1 PUSH2 0x180 ADD PUSH1 0x40 MSTORE DUP1 PUSH2 0x14D DUP2 MSTORE PUSH1 0x20 ADD PUSH2 0x4525 PUSH2 0x14D SWAP2 CODECOPY DUP2 MSTORE PUSH1 0x20 ADD PUSH1 0x40 MLOAD DUP1 PUSH2 0x180 ADD PUSH1 0x40 MSTORE DUP1 PUSH2 0x14D DUP2 MSTORE PUSH1 0x20 ADD PUSH2 0x3AAB PUSH2 0x14D SWAP2 CODECOPY DUP2 MSTORE PUSH1 0x20 ADD PUSH1 0x40 MLOAD DUP1 PUSH2 0x180 ADD PUSH1 0x40 MSTORE DUP1 PUSH2 0x14F DUP2 MSTORE PUSH1 0x20 ADD PUSH2 0x413A PUSH2 0x14F SWAP2 CODECOPY DUP2 MSTORE PUSH1 0x20 ADD PUSH1 0x40 MLOAD DUP1 PUSH2 0x180 ADD PUSH1 0x40 MSTORE DUP1 PUSH2 0x14F DUP2 MSTORE PUSH1 0x20 ADD PUSH2 0x4289 PUSH2 0x14F SWAP2 CODECOPY DUP2 MSTORE PUSH1 0x20 ADD PUSH1 0x40 MLOAD DUP1 PUSH2 0x180 ADD PUSH1 0x40 MSTORE DUP1 PUSH2 0x14F DUP2 MSTORE PUSH1 0x20 ADD PUSH2 0x380B PUSH2 0x14F SWAP2 CODECOPY DUP2 MSTORE PUSH1 0x20 ADD PUSH1 0x40 MLOAD DUP1 PUSH2 0x180 ADD PUSH1 0x40 MSTORE DUP1 PUSH2 0x14D DUP2 MSTORE PUSH1 0x20 ADD PUSH2 0x43D8 PUSH2 0x14D SWAP2 CODECOPY DUP2 MSTORE PUSH1 0x20 ADD PUSH1 0x40 MLOAD DUP1 PUSH2 0x180 ADD PUSH1 0x40 MSTORE DUP1 PUSH2 0x14D DUP2 MSTORE PUSH1 0x20 ADD PUSH2 0x4672 PUSH2 0x14D SWAP2 CODECOPY DUP2 MSTORE PUSH1 0x20 ADD PUSH1 0x40 MLOAD DUP1 PUSH2 0x180 ADD PUSH1 0x40 MSTORE DUP1 PUSH2 0x151 DUP2 MSTORE PUSH1 0x20 ADD PUSH2 0x3E98 PUSH2 0x151 SWAP2 CODECOPY DUP2 MSTORE PUSH1 0x20 ADD PUSH1 0x40 MLOAD DUP1 PUSH2 0x180 ADD PUSH1 0x40 MSTORE DUP1 PUSH2 0x151 DUP2 MSTORE PUSH1 0x20 ADD PUSH2 0x3D47 PUSH2 0x151 SWAP2 CODECOPY DUP2 MSTORE POP PUSH1 0x17 SWAP1 PUSH1 0xC PUSH2 0x489 SWAP3 SWAP2 SWAP1 PUSH2 0x650 JUMP JUMPDEST POP PUSH1 0x40 MLOAD DUP1 PUSH1 0xA0 ADD PUSH1 0x40 MSTORE DUP1 PUSH1 0x6B DUP2 MSTORE PUSH1 0x20 ADD PUSH2 0x37A0 PUSH1 0x6B SWAP2 CODECOPY PUSH1 0x23 SWAP1 DUP2 PUSH2 0x4B1 SWAP2 SWAP1 PUSH2 0x96D JUMP JUMPDEST POP CALLVALUE DUP1 ISZERO PUSH2 0x4BE JUMPI PUSH1 0x0 DUP1 REVERT JUMPDEST POP PUSH1 0x40 MLOAD DUP1 PUSH1 0x40 ADD PUSH1 0x40 MSTORE DUP1 PUSH1 0x9 DUP2 MSTORE PUSH1 0x20 ADD PUSH32 0x5A6F646961634E46540000000000000000000000000000000000000000000000 DUP2 MSTORE POP PUSH1 0x40 MLOAD DUP1 PUSH1 0x40 ADD PUSH1 0x40 MSTORE DUP1 PUSH1 0x4 DUP2 MSTORE PUSH1 0x20 ADD PUSH32 0x5A4E465400000000000000000000000000000000000000000000000000000000 DUP2 MSTORE POP DUP2 PUSH1 0x0 SWAP1 DUP2 PUSH2 0x53A SWAP2 SWAP1 PUSH2 0x96D JUMP JUMPDEST POP DUP1 PUSH1 0x1 SWAP1 DUP2 PUSH2 0x54A SWAP2 SWAP1 PUSH2 0x96D JUMP JUMPDEST POP POP POP PUSH1 0x0 PUSH1 0x6 PUSH1 0x0 PUSH2 0x100 EXP DUP2 SLOAD DUP2 PUSH1 0xFF MUL NOT AND SWAP1 DUP4 ISZERO ISZERO MUL OR SWAP1 SSTORE POP PUSH2 0x576 PUSH2 0x57B PUSH1 0x20 SHL PUSH1 0x20 SHR JUMP JUMPDEST PUSH2 0xA9B JUMP JUMPDEST PUSH2 0x589 PUSH2 0x5EA PUSH1 0x20 SHL PUSH1 0x20 SHR JUMP JUMPDEST PUSH1 0x1 PUSH1 0x6 PUSH1 0x0 PUSH2 0x100 EXP DUP2 SLOAD DUP2 PUSH1 0xFF MUL NOT AND SWAP1 DUP4 ISZERO ISZERO MUL OR SWAP1 SSTORE POP PUSH32 0x62E78CEA01BEE320CD4E420270B5EA74000D11B0C9F74754EBDBFC544B05A258 PUSH2 0x5D3 PUSH2 0x631 PUSH1 0x20 SHL PUSH1 0x20 SHR JUMP JUMPDEST PUSH1 0x40 MLOAD PUSH2 0x5E0 SWAP2 SWAP1 PUSH2 0xA80 JUMP JUMPDEST PUSH1 0x40 MLOAD DUP1 SWAP2 SUB SWAP1 LOG1 JUMP JUMPDEST PUSH2 0x5F8 PUSH2 0x639 PUSH1 0x20 SHL PUSH1 0x20 SHR JUMP JUMPDEST ISZERO PUSH2 0x62F JUMPI PUSH1 0x40 MLOAD PUSH32 0xD93C066500000000000000000000000000000000000000000000000000000000 DUP2 MSTORE PUSH1 0x4 ADD PUSH1 0x40 MLOAD DUP1 SWAP2 SUB SWAP1 REVERT JUMPDEST JUMP JUMPDEST PUSH1 0x0 CALLER SWAP1 POP SWAP1 JUMP JUMPDEST PUSH1 0x0 PUSH1 0x6 PUSH1 0x0 SWAP1 SLOAD SWAP1 PUSH2 0x100 EXP SWAP1 DIV PUSH1 0xFF AND SWAP1 POP SWAP1 JUMP JUMPDEST DUP3 PUSH1 0xC DUP2 ADD SWAP3 DUP3 ISZERO PUSH2 0x68B JUMPI SWAP2 PUSH1 0x20 MUL DUP3 ADD JUMPDEST DUP3 DUP2 GT ISZERO PUSH2 0x68A JUMPI DUP3 MLOAD DUP3 SWAP1 DUP2 PUSH2 0x67A SWAP2 SWAP1 PUSH2 0x96D JUMP JUMPDEST POP SWAP2 PUSH1 0x20 ADD SWAP2 SWAP1 PUSH1 0x1 ADD SWAP1 PUSH2 0x663 JUMP JUMPDEST JUMPDEST POP SWAP1 POP PUSH2 0x698 SWAP2 SWAP1 PUSH2 0x69C JUMP JUMPDEST POP SWAP1 JUMP JUMPDEST JUMPDEST DUP1 DUP3 GT ISZERO PUSH2 0x6BC JUMPI PUSH1 0x0 DUP2 DUP2 PUSH2 0x6B3 SWAP2 SWAP1 PUSH2 0x6C0 JUMP JUMPDEST POP PUSH1 0x1 ADD PUSH2 0x69D JUMP JUMPDEST POP SWAP1 JUMP JUMPDEST POP DUP1 SLOAD PUSH2 0x6CC SWAP1 PUSH2 0x786 JUMP JUMPDEST PUSH1 0x0 DUP3 SSTORE DUP1 PUSH1 0x1F LT PUSH2 0x6DE JUMPI POP PUSH2 0x6FD JUMP JUMPDEST PUSH1 0x1F ADD PUSH1 0x20 SWAP1 DIV SWAP1 PUSH1 0x0 MSTORE PUSH1 0x20 PUSH1 0x0 KECCAK256 SWAP1 DUP2 ADD SWAP1 PUSH2 0x6FC SWAP2 SWAP1 PUSH2 0x700 JUMP JUMPDEST JUMPDEST POP JUMP JUMPDEST JUMPDEST DUP1 DUP3 GT ISZERO PUSH2 0x719 JUMPI PUSH1 0x0 DUP2 PUSH1 0x0 SWAP1 SSTORE POP PUSH1 0x1 ADD PUSH2 0x701 JUMP JUMPDEST POP SWAP1 JUMP JUMPDEST PUSH1 0x0 DUP2 MLOAD SWAP1 POP SWAP2 SWAP1 POP JUMP JUMPDEST PUSH32 0x4E487B7100000000000000000000000000000000000000000000000000000000 PUSH1 0x0 MSTORE PUSH1 0x41 PUSH1 0x4 MSTORE PUSH1 0x24 PUSH1 0x0 REVERT JUMPDEST PUSH32 0x4E487B7100000000000000000000000000000000000000000000000000000000 PUSH1 0x0 MSTORE PUSH1 0x22 PUSH1 0x4 MSTORE PUSH1 0x24 PUSH1 0x0 REVERT JUMPDEST PUSH1 0x0 PUSH1 0x2 DUP3 DIV SWAP1 POP PUSH1 0x1 DUP3 AND DUP1 PUSH2 0x79E JUMPI PUSH1 0x7F DUP3 AND SWAP2 POP JUMPDEST PUSH1 0x20 DUP3 LT DUP2 SUB PUSH2 0x7B1 JUMPI PUSH2 0x7B0 PUSH2 0x757 JUMP JUMPDEST JUMPDEST POP SWAP2 SWAP1 POP JUMP JUMPDEST PUSH1 0x0 DUP2 SWAP1 POP DUP2 PUSH1 0x0 MSTORE PUSH1 0x20 PUSH1 0x0 KECCAK256 SWAP1 POP SWAP2 SWAP1 POP JUMP JUMPDEST PUSH1 0x0 PUSH1 0x20 PUSH1 0x1F DUP4 ADD DIV SWAP1 POP SWAP2 SWAP1 POP JUMP JUMPDEST PUSH1 0x0 DUP3 DUP3 SHL SWAP1 POP SWAP3 SWAP2 POP POP JUMP JUMPDEST PUSH1 0x0 PUSH1 0x8 DUP4 MUL PUSH2 0x819 PUSH32 0xFFFFFFFFFFFFFFFFFFFFFFFFFFFFFFFFFFFFFFFFFFFFFFFFFFFFFFFFFFFFFFFF DUP3 PUSH2 0x7DC JUMP JUMPDEST PUSH2 0x823 DUP7 DUP4 PUSH2 0x7DC JUMP JUMPDEST SWAP6 POP DUP1 NOT DUP5 AND SWAP4 POP DUP1 DUP7 AND DUP5 OR SWAP3 POP POP POP SWAP4 SWAP3 POP POP POP JUMP JUMPDEST PUSH1 0x0 DUP2 SWAP1 POP SWAP2 SWAP1 POP JUMP JUMPDEST PUSH1 0x0 DUP2 SWAP1 POP SWAP2 SWAP1 POP JUMP JUMPDEST PUSH1 0x0 PUSH2 0x86A PUSH2 0x865 PUSH2 0x860 DUP5 PUSH2 0x83B JUMP JUMPDEST PUSH2 0x845 JUMP JUMPDEST PUSH2 0x83B JUMP JUMPDEST SWAP1 POP SWAP2 SWAP1 POP JUMP JUMPDEST PUSH1 0x0 DUP2 SWAP1 POP SWAP2 SWAP1 POP JUMP JUMPDEST PUSH2 0x884 DUP4 PUSH2 0x84F JUMP JUMPDEST PUSH2 0x898 PUSH2 0x890 DUP3 PUSH2 0x871 JUMP JUMPDEST DUP5 DUP5 SLOAD PUSH2 0x7E9 JUMP JUMPDEST DUP3 SSTORE POP POP POP POP JUMP JUMPDEST PUSH1 0x0 SWAP1 JUMP JUMPDEST PUSH2 0x8AD PUSH2 0x8A0 JUMP JUMPDEST PUSH2 0x8B8 DUP2 DUP5 DUP5 PUSH2 0x87B JUMP JUMPDEST POP POP POP JUMP JUMPDEST JUMPDEST DUP2 DUP2 LT ISZERO PUSH2 0x8DC JUMPI PUSH2 0x8D1 PUSH1 0x0 DUP3 PUSH2 0x8A5 JUMP JUMPDEST PUSH1 0x1 DUP2 ADD SWAP1 POP PUSH2 0x8BE JUMP JUMPDEST POP POP JUMP JUMPDEST PUSH1 0x1F DUP3 GT ISZERO PUSH2 0x921 JUMPI PUSH2 0x8F2 DUP2 PUSH2 0x7B7 JUMP JUMPDEST PUSH2 0x8FB DUP5 PUSH2 0x7CC JUMP JUMPDEST DUP2 ADD PUSH1 0x20 DUP6 LT ISZERO PUSH2 0x90A JUMPI DUP2 SWAP1 POP JUMPDEST PUSH2 0x91E PUSH2 0x916 DUP6 PUSH2 0x7CC JUMP JUMPDEST DUP4 ADD DUP3 PUSH2 0x8BD JUMP JUMPDEST POP POP JUMPDEST POP POP POP JUMP JUMPDEST PUSH1 0x0 DUP3 DUP3 SHR SWAP1 POP SWAP3 SWAP2 POP POP JUMP JUMPDEST PUSH1 0x0 PUSH2 0x944 PUSH1 0x0 NOT DUP5 PUSH1 0x8 MUL PUSH2 0x926 JUMP JUMPDEST NOT DUP1 DUP4 AND SWAP2 POP POP SWAP3 SWAP2 POP POP JUMP JUMPDEST PUSH1 0x0 PUSH2 0x95D DUP4 DUP4 PUSH2 0x933 JUMP JUMPDEST SWAP2 POP DUP3 PUSH1 0x2 MUL DUP3 OR SWAP1 POP SWAP3 SWAP2 POP POP JUMP JUMPDEST PUSH2 0x976 DUP3 PUSH2 0x71D JUMP JUMPDEST PUSH8 0xFFFFFFFFFFFFFFFF DUP2 GT ISZERO PUSH2 0x98F JUMPI PUSH2 0x98E PUSH2 0x728 JUMP JUMPDEST JUMPDEST PUSH2 0x999 DUP3 SLOAD PUSH2 0x786 JUMP JUMPDEST PUSH2 0x9A4 DUP3 DUP3 DUP6 PUSH2 0x8E0 JUMP JUMPDEST PUSH1 0x0 PUSH1 0x20 SWAP1 POP PUSH1 0x1F DUP4 GT PUSH1 0x1 DUP2 EQ PUSH2 0x9D7 JUMPI PUSH1 0x0 DUP5 ISZERO PUSH2 0x9C5 JUMPI DUP3 DUP8 ADD MLOAD SWAP1 POP JUMPDEST PUSH2 0x9CF DUP6 DUP3 PUSH2 0x951 JUMP JUMPDEST DUP7 SSTORE POP PUSH2 0xA37 JUMP JUMPDEST PUSH1 0x1F NOT DUP5 AND PUSH2 0x9E5 DUP7 PUSH2 0x7B7 JUMP JUMPDEST PUSH1 0x0 JUMPDEST DUP3 DUP2 LT ISZERO PUSH2 0xA0D JUMPI DUP5 DUP10 ADD MLOAD DUP3 SSTORE PUSH1 0x1 DUP3 ADD SWAP2 POP PUSH1 0x20 DUP6 ADD SWAP5 POP PUSH1 0x20 DUP2 ADD SWAP1 POP PUSH2 0x9E8 JUMP JUMPDEST DUP7 DUP4 LT ISZERO PUSH2 0xA2A JUMPI DUP5 DUP10 ADD MLOAD PUSH2 0xA26 PUSH1 0x1F DUP10 AND DUP3 PUSH2 0x933 JUMP JUMPDEST DUP4 SSTORE POP JUMPDEST PUSH1 0x1 PUSH1 0x2 DUP9 MUL ADD DUP9 SSTORE POP POP POP JUMPDEST POP POP POP POP POP POP JUMP JUMPDEST PUSH1 0x0 PUSH20 0xFFFFFFFFFFFFFFFFFFFFFFFFFFFFFFFFFFFFFFFF DUP3 AND SWAP1 POP SWAP2 SWAP1 POP JUMP JUMPDEST PUSH1 0x0 PUSH2 0xA6A DUP3 PUSH2 0xA3F JUMP JUMPDEST SWAP1 POP SWAP2 SWAP1 POP JUMP JUMPDEST PUSH2 0xA7A DUP2 PUSH2 0xA5F JUMP JUMPDEST DUP3 MSTORE POP POP JUMP JUMPDEST PUSH1 0x0 PUSH1 0x20 DUP3 ADD SWAP1 POP PUSH2 0xA95 PUSH1 0x0 DUP4 ADD DUP5 PUSH2 0xA71 JUMP JUMPDEST SWAP3 SWAP2 POP POP JUMP JUMPDEST PUSH2 0x2CF6 DUP1 PUSH2 0xAAA PUSH1 0x0 CODECOPY PUSH1 0x0 RETURN INVALID PUSH1 0x80 PUSH1 0x40 MSTORE PUSH1 0x4 CALLDATASIZE LT PUSH2 0x135 JUMPI PUSH1 0x0 CALLDATALOAD PUSH1 0xE0 SHR DUP1 PUSH4 0x70A08231 GT PUSH2 0xAB JUMPI DUP1 PUSH4 0xB88D4FDE GT PUSH2 0x6F JUMPI DUP1 PUSH4 0xB88D4FDE EQ PUSH2 0x407 JUMPI DUP1 PUSH4 0xBAD66D16 EQ PUSH2 0x430 JUMPI DUP1 PUSH4 0xC002D23D EQ PUSH2 0x46D JUMPI DUP1 PUSH4 0xC87B56DD EQ PUSH2 0x498 JUMPI DUP1 PUSH4 0xE985E9C5 EQ PUSH2 0x4D5 JUMPI DUP1 PUSH4 0xEA1088B7 EQ PUSH2 0x512 JUMPI PUSH2 0x135 JUMP JUMPDEST DUP1 PUSH4 0x70A08231 EQ PUSH2 0x320 JUMPI DUP1 PUSH4 0x7C9EFA89 EQ PUSH2 0x35D JUMPI DUP1 PUSH4 0x95D89B41 EQ PUSH2 0x388 JUMPI DUP1 PUSH4 0x98BDF6F5 EQ PUSH2 0x3B3 JUMPI DUP1 PUSH4 0xA22CB465 EQ PUSH2 0x3DE JUMPI PUSH2 0x135 JUMP JUMPDEST DUP1 PUSH4 0x23B872DD GT PUSH2 0xFD JUMPI DUP1 PUSH4 0x23B872DD EQ PUSH2 0x212 JUMPI DUP1 PUSH4 0x38518D65 EQ PUSH2 0x23B JUMPI DUP1 PUSH4 0x3FA1FC6E EQ PUSH2 0x252 JUMPI DUP1 PUSH4 0x42842E0E EQ PUSH2 0x28F JUMPI DUP1 PUSH4 0x5C975ABB EQ PUSH2 0x2B8 JUMPI DUP1 PUSH4 0x6352211E EQ PUSH2 0x2E3 JUMPI PUSH2 0x135 JUMP JUMPDEST DUP1 PUSH4 0x1FFC9A7 EQ PUSH2 0x13A JUMPI DUP1 PUSH4 0x6FDDE03 EQ PUSH2 0x177 JUMPI DUP1 PUSH4 0x81812FC EQ PUSH2 0x1A2 JUMPI DUP1 PUSH4 0x95EA7B3 EQ PUSH2 0x1DF JUMPI DUP1 PUSH4 0x1249C58B EQ PUSH2 0x208 JUMPI JUMPDEST PUSH1 0x0 DUP1 REVERT JUMPDEST CALLVALUE DUP1 ISZERO PUSH2 0x146 JUMPI PUSH1 0x0 DUP1 REVERT JUMPDEST POP PUSH2 0x161 PUSH1 0x4 DUP1 CALLDATASIZE SUB DUP2 ADD SWAP1 PUSH2 0x15C SWAP2 SWAP1 PUSH2 0x1F5F JUMP JUMPDEST PUSH2 0x53D JUMP JUMPDEST PUSH1 0x40 MLOAD PUSH2 0x16E SWAP2 SWAP1 PUSH2 0x1FA7 JUMP JUMPDEST PUSH1 0x40 MLOAD DUP1 SWAP2 SUB SWAP1 RETURN JUMPDEST CALLVALUE DUP1 ISZERO PUSH2 0x183 JUMPI PUSH1 0x0 DUP1 REVERT JUMPDEST POP PUSH2 0x18C PUSH2 0x61F JUMP JUMPDEST PUSH1 0x40 MLOAD PUSH2 0x199 SWAP2 SWAP1 PUSH2 0x2052 JUMP JUMPDEST PUSH1 0x40 MLOAD DUP1 SWAP2 SUB SWAP1 RETURN JUMPDEST CALLVALUE DUP1 ISZERO PUSH2 0x1AE JUMPI PUSH1 0x0 DUP1 REVERT JUMPDEST POP PUSH2 0x1C9 PUSH1 0x4 DUP1 CALLDATASIZE SUB DUP2 ADD SWAP1 PUSH2 0x1C4 SWAP2 SWAP1 PUSH2 0x20AA JUMP JUMPDEST PUSH2 0x6B1 JUMP JUMPDEST PUSH1 0x40 MLOAD PUSH2 0x1D6 SWAP2 SWAP1 PUSH2 0x2118 JUMP JUMPDEST PUSH1 0x40 MLOAD DUP1 SWAP2 SUB SWAP1 RETURN JUMPDEST CALLVALUE DUP1 ISZERO PUSH2 0x1EB JUMPI PUSH1 0x0 DUP1 REVERT JUMPDEST POP PUSH2 0x206 PUSH1 0x4 DUP1 CALLDATASIZE SUB DUP2 ADD SWAP1 PUSH2 0x201 SWAP2 SWAP1 PUSH2 0x215F JUMP JUMPDEST PUSH2 0x6CD JUMP JUMPDEST STOP JUMPDEST PUSH2 0x210 PUSH2 0x6E3 JUMP JUMPDEST STOP JUMPDEST CALLVALUE DUP1 ISZERO PUSH2 0x21E JUMPI PUSH1 0x0 DUP1 REVERT JUMPDEST POP PUSH2 0x239 PUSH1 0x4 DUP1 CALLDATASIZE SUB DUP2 ADD SWAP1 PUSH2 0x234 SWAP2 SWAP1 PUSH2 0x219F JUMP JUMPDEST PUSH2 0x85F JUMP JUMPDEST STOP JUMPDEST CALLVALUE DUP1 ISZERO PUSH2 0x247 JUMPI PUSH1 0x0 DUP1 REVERT JUMPDEST POP PUSH2 0x250 PUSH2 0x961 JUMP JUMPDEST STOP JUMPDEST CALLVALUE DUP1 ISZERO PUSH2 0x25E JUMPI PUSH1 0x0 DUP1 REVERT JUMPDEST POP PUSH2 0x279 PUSH1 0x4 DUP1 CALLDATASIZE SUB DUP2 ADD SWAP1 PUSH2 0x274 SWAP2 SWAP1 PUSH2 0x20AA JUMP JUMPDEST PUSH2 0xB7B JUMP JUMPDEST PUSH1 0x40 MLOAD PUSH2 0x286 SWAP2 SWAP1 PUSH2 0x2201 JUMP JUMPDEST PUSH1 0x40 MLOAD DUP1 SWAP2 SUB SWAP1 RETURN JUMPDEST CALLVALUE DUP1 ISZERO PUSH2 0x29B JUMPI PUSH1 0x0 DUP1 REVERT JUMPDEST POP PUSH2 0x2B6 PUSH1 0x4 DUP1 CALLDATASIZE SUB DUP2 ADD SWAP1 PUSH2 0x2B1 SWAP2 SWAP1 PUSH2 0x219F JUMP JUMPDEST PUSH2 0xB93 JUMP JUMPDEST STOP JUMPDEST CALLVALUE DUP1 ISZERO PUSH2 0x2C4 JUMPI PUSH1 0x0 DUP1 REVERT JUMPDEST POP PUSH2 0x2CD PUSH2 0xBB3 JUMP JUMPDEST PUSH1 0x40 MLOAD PUSH2 0x2DA SWAP2 SWAP1 PUSH2 0x1FA7 JUMP JUMPDEST PUSH1 0x40 MLOAD DUP1 SWAP2 SUB SWAP1 RETURN JUMPDEST CALLVALUE DUP1 ISZERO PUSH2 0x2EF JUMPI PUSH1 0x0 DUP1 REVERT JUMPDEST POP PUSH2 0x30A PUSH1 0x4 DUP1 CALLDATASIZE SUB DUP2 ADD SWAP1 PUSH2 0x305 SWAP2 SWAP1 PUSH2 0x20AA JUMP JUMPDEST PUSH2 0xBCA JUMP JUMPDEST PUSH1 0x40 MLOAD PUSH2 0x317 SWAP2 SWAP1 PUSH2 0x2118 JUMP JUMPDEST PUSH1 0x40 MLOAD DUP1 SWAP2 SUB SWAP1 RETURN JUMPDEST CALLVALUE DUP1 ISZERO PUSH2 0x32C JUMPI PUSH1 0x0 DUP1 REVERT JUMPDEST POP PUSH2 0x347 PUSH1 0x4 DUP1 CALLDATASIZE SUB DUP2 ADD SWAP1 PUSH2 0x342 SWAP2 SWAP1 PUSH2 0x221C JUMP JUMPDEST PUSH2 0xBDC JUMP JUMPDEST PUSH1 0x40 MLOAD PUSH2 0x354 SWAP2 SWAP1 PUSH2 0x2201 JUMP JUMPDEST PUSH1 0x40 MLOAD DUP1 SWAP2 SUB SWAP1 RETURN JUMPDEST CALLVALUE DUP1 ISZERO PUSH2 0x369 JUMPI PUSH1 0x0 DUP1 REVERT JUMPDEST POP PUSH2 0x372 PUSH2 0xC96 JUMP JUMPDEST PUSH1 0x40 MLOAD PUSH2 0x37F SWAP2 SWAP1 PUSH2 0x2201 JUMP JUMPDEST PUSH1 0x40 MLOAD DUP1 SWAP2 SUB SWAP1 RETURN JUMPDEST CALLVALUE DUP1 ISZERO PUSH2 0x394 JUMPI PUSH1 0x0 DUP1 REVERT JUMPDEST POP PUSH2 0x39D PUSH2 0xC9C JUMP JUMPDEST PUSH1 0x40 MLOAD PUSH2 0x3AA SWAP2 SWAP1 PUSH2 0x2052 JUMP JUMPDEST PUSH1 0x40 MLOAD DUP1 SWAP2 SUB SWAP1 RETURN JUMPDEST CALLVALUE DUP1 ISZERO PUSH2 0x3BF JUMPI PUSH1 0x0 DUP1 REVERT JUMPDEST POP PUSH2 0x3C8 PUSH2 0xD2E JUMP JUMPDEST PUSH1 0x40 MLOAD PUSH2 0x3D5 SWAP2 SWAP1 PUSH2 0x2201 JUMP JUMPDEST PUSH1 0x40 MLOAD DUP1 SWAP2 SUB SWAP1 RETURN JUMPDEST CALLVALUE DUP1 ISZERO PUSH2 0x3EA JUMPI PUSH1 0x0 DUP1 REVERT JUMPDEST POP PUSH2 0x405 PUSH1 0x4 DUP1 CALLDATASIZE SUB DUP2 ADD SWAP1 PUSH2 0x400 SWAP2 SWAP1 PUSH2 0x2275 JUMP JUMPDEST PUSH2 0xD34 JUMP JUMPDEST STOP JUMPDEST CALLVALUE DUP1 ISZERO PUSH2 0x413 JUMPI PUSH1 0x0 DUP1 REVERT JUMPDEST POP PUSH2 0x42E PUSH1 0x4 DUP1 CALLDATASIZE SUB DUP2 ADD SWAP1 PUSH2 0x429 SWAP2 SWAP1 PUSH2 0x23EA JUMP JUMPDEST PUSH2 0xD4A JUMP JUMPDEST STOP JUMPDEST CALLVALUE DUP1 ISZERO PUSH2 0x43C JUMPI PUSH1 0x0 DUP1 REVERT JUMPDEST POP PUSH2 0x457 PUSH1 0x4 DUP1 CALLDATASIZE SUB DUP2 ADD SWAP1 PUSH2 0x452 SWAP2 SWAP1 PUSH2 0x215F JUMP JUMPDEST PUSH2 0xD67 JUMP JUMPDEST PUSH1 0x40 MLOAD PUSH2 0x464 SWAP2 SWAP1 PUSH2 0x2201 JUMP JUMPDEST PUSH1 0x40 MLOAD DUP1 SWAP2 SUB SWAP1 RETURN JUMPDEST CALLVALUE DUP1 ISZERO PUSH2 0x479 JUMPI PUSH1 0x0 DUP1 REVERT JUMPDEST POP PUSH2 0x482 PUSH2 0xD8F JUMP JUMPDEST PUSH1 0x40 MLOAD PUSH2 0x48F SWAP2 SWAP1 PUSH2 0x2201 JUMP JUMPDEST PUSH1 0x40 MLOAD DUP1 SWAP2 SUB SWAP1 RETURN JUMPDEST CALLVALUE DUP1 ISZERO PUSH2 0x4A4 JUMPI PUSH1 0x0 DUP1 REVERT JUMPDEST POP PUSH2 0x4BF PUSH1 0x4 DUP1 CALLDATASIZE SUB DUP2 ADD SWAP1 PUSH2 0x4BA SWAP2 SWAP1 PUSH2 0x20AA JUMP JUMPDEST PUSH2 0xD9B JUMP JUMPDEST PUSH1 0x40 MLOAD PUSH2 0x4CC SWAP2 SWAP1 PUSH2 0x2052 JUMP JUMPDEST PUSH1 0x40 MLOAD DUP1 SWAP2 SUB SWAP1 RETURN JUMPDEST CALLVALUE DUP1 ISZERO PUSH2 0x4E1 JUMPI PUSH1 0x0 DUP1 REVERT JUMPDEST POP PUSH2 0x4FC PUSH1 0x4 DUP1 CALLDATASIZE SUB DUP2 ADD SWAP1 PUSH2 0x4F7 SWAP2 SWAP1 PUSH2 0x246D JUMP JUMPDEST PUSH2 0x10C0 JUMP JUMPDEST PUSH1 0x40 MLOAD PUSH2 0x509 SWAP2 SWAP1 PUSH2 0x1FA7 JUMP JUMPDEST PUSH1 0x40 MLOAD DUP1 SWAP2 SUB SWAP1 RETURN JUMPDEST CALLVALUE DUP1 ISZERO PUSH2 0x51E JUMPI PUSH1 0x0 DUP1 REVERT JUMPDEST POP PUSH2 0x527 PUSH2 0x1154 JUMP JUMPDEST PUSH1 0x40 MLOAD PUSH2 0x534 SWAP2 SWAP1 PUSH2 0x2201 JUMP JUMPDEST PUSH1 0x40 MLOAD DUP1 SWAP2 SUB SWAP1 RETURN JUMPDEST PUSH1 0x0 PUSH32 0x80AC58CD00000000000000000000000000000000000000000000000000000000 PUSH28 0xFFFFFFFFFFFFFFFFFFFFFFFFFFFFFFFFFFFFFFFFFFFFFFFFFFFFFFFF NOT AND DUP3 PUSH28 0xFFFFFFFFFFFFFFFFFFFFFFFFFFFFFFFFFFFFFFFFFFFFFFFFFFFFFFFF NOT AND EQ DUP1 PUSH2 0x608 JUMPI POP PUSH32 0x5B5E139F00000000000000000000000000000000000000000000000000000000 PUSH28 0xFFFFFFFFFFFFFFFFFFFFFFFFFFFFFFFFFFFFFFFFFFFFFFFFFFFFFFFF NOT AND DUP3 PUSH28 0xFFFFFFFFFFFFFFFFFFFFFFFFFFFFFFFFFFFFFFFFFFFFFFFFFFFFFFFF NOT AND EQ JUMPDEST DUP1 PUSH2 0x618 JUMPI POP PUSH2 0x617 DUP3 PUSH2 0x1159 JUMP JUMPDEST JUMPDEST SWAP1 POP SWAP2 SWAP1 POP JUMP JUMPDEST PUSH1 0x60 PUSH1 0x0 DUP1 SLOAD PUSH2 0x62E SWAP1 PUSH2 0x24DC JUMP JUMPDEST DUP1 PUSH1 0x1F ADD PUSH1 0x20 DUP1 SWAP2 DIV MUL PUSH1 0x20 ADD PUSH1 0x40 MLOAD SWAP1 DUP2 ADD PUSH1 0x40 MSTORE DUP1 SWAP3 SWAP2 SWAP1 DUP2 DUP2 MSTORE PUSH1 0x20 ADD DUP3 DUP1 SLOAD PUSH2 0x65A SWAP1 PUSH2 0x24DC JUMP JUMPDEST DUP1 ISZERO PUSH2 0x6A7 JUMPI DUP1 PUSH1 0x1F LT PUSH2 0x67C JUMPI PUSH2 0x100 DUP1 DUP4 SLOAD DIV MUL DUP4 MSTORE SWAP2 PUSH1 0x20 ADD SWAP2 PUSH2 0x6A7 JUMP JUMPDEST DUP3 ADD SWAP2 SWAP1 PUSH1 0x0 MSTORE PUSH1 0x20 PUSH1 0x0 KECCAK256 SWAP1 JUMPDEST DUP2 SLOAD DUP2 MSTORE SWAP1 PUSH1 0x1 ADD SWAP1 PUSH1 0x20 ADD DUP1 DUP4 GT PUSH2 0x68A JUMPI DUP3 SWAP1 SUB PUSH1 0x1F AND DUP3 ADD SWAP2 JUMPDEST POP POP POP POP POP SWAP1 POP SWAP1 JUMP JUMPDEST PUSH1 0x0 PUSH2 0x6BC DUP3 PUSH2 0x11C3 JUMP JUMPDEST POP PUSH2 0x6C6 DUP3 PUSH2 0x124B JUMP JUMPDEST SWAP1 POP SWAP2 SWAP1 POP JUMP JUMPDEST PUSH2 0x6DF DUP3 DUP3 PUSH2 0x6DA PUSH2 0x1288 JUMP JUMPDEST PUSH2 0x1290 JUMP JUMPDEST POP POP JUMP JUMPDEST PUSH8 0x16345785D8A0000 CALLVALUE LT ISZERO PUSH2 0x72E JUMPI PUSH1 0x40 MLOAD PUSH32 0x8C379A000000000000000000000000000000000000000000000000000000000 DUP2 MSTORE PUSH1 0x4 ADD PUSH2 0x725 SWAP1 PUSH2 0x2559 JUMP JUMPDEST PUSH1 0x40 MLOAD DUP1 SWAP2 SUB SWAP1 REVERT JUMPDEST PUSH1 0x0 PUSH1 0x7 PUSH1 0x0 DUP2 SLOAD DUP1 SWAP3 SWAP2 SWAP1 PUSH2 0x743 SWAP1 PUSH2 0x25A8 JUMP JUMPDEST SWAP2 SWAP1 POP SSTORE SWAP1 POP PUSH1 0x0 PUSH1 0xC TIMESTAMP CALLER DUP5 PUSH1 0x40 MLOAD PUSH1 0x20 ADD PUSH2 0x762 SWAP4 SWAP3 SWAP2 SWAP1 PUSH2 0x2659 JUMP JUMPDEST PUSH1 0x40 MLOAD PUSH1 0x20 DUP2 DUP4 SUB SUB DUP2 MSTORE SWAP1 PUSH1 0x40 MSTORE DUP1 MLOAD SWAP1 PUSH1 0x20 ADD KECCAK256 PUSH1 0x0 SHR PUSH2 0x785 SWAP2 SWAP1 PUSH2 0x26C5 JUMP JUMPDEST SWAP1 POP PUSH2 0x791 CALLER DUP4 PUSH2 0x12A2 JUMP JUMPDEST DUP1 PUSH1 0xA PUSH1 0x0 DUP5 DUP2 MSTORE PUSH1 0x20 ADD SWAP1 DUP2 MSTORE PUSH1 0x20 ADD PUSH1 0x0 KECCAK256 DUP2 SWAP1 SSTORE POP PUSH1 0x0 PUSH1 0x9 PUSH1 0x0 CALLER PUSH20 0xFFFFFFFFFFFFFFFFFFFFFFFFFFFFFFFFFFFFFFFF AND PUSH20 0xFFFFFFFFFFFFFFFFFFFFFFFFFFFFFFFFFFFFFFFF AND DUP2 MSTORE PUSH1 0x20 ADD SWAP1 DUP2 MSTORE PUSH1 0x20 ADD PUSH1 0x0 KECCAK256 DUP3 PUSH1 0xC DUP2 LT PUSH2 0x7FC JUMPI PUSH2 0x7FB PUSH2 0x26F6 JUMP JUMPDEST JUMPDEST ADD SLOAD SUB PUSH2 0x85B JUMPI DUP2 PUSH1 0x9 PUSH1 0x0 CALLER PUSH20 0xFFFFFFFFFFFFFFFFFFFFFFFFFFFFFFFFFFFFFFFF AND PUSH20 0xFFFFFFFFFFFFFFFFFFFFFFFFFFFFFFFFFFFFFFFF AND DUP2 MSTORE PUSH1 0x20 ADD SWAP1 DUP2 MSTORE PUSH1 0x20 ADD PUSH1 0x0 KECCAK256 DUP3 PUSH1 0xC DUP2 LT PUSH2 0x855 JUMPI PUSH2 0x854 PUSH2 0x26F6 JUMP JUMPDEST JUMPDEST ADD DUP2 SWAP1 SSTORE POP JUMPDEST POP POP JUMP JUMPDEST PUSH1 0x0 PUSH20 0xFFFFFFFFFFFFFFFFFFFFFFFFFFFFFFFFFFFFFFFF AND DUP3 PUSH20 0xFFFFFFFFFFFFFFFFFFFFFFFFFFFFFFFFFFFFFFFF AND SUB PUSH2 0x8D1 JUMPI PUSH1 0x0 PUSH1 0x40 MLOAD PUSH32 0x64A0AE9200000000000000000000000000000000000000000000000000000000 DUP2 MSTORE PUSH1 0x4 ADD PUSH2 0x8C8 SWAP2 SWAP1 PUSH2 0x2118 JUMP JUMPDEST PUSH1 0x40 MLOAD DUP1 SWAP2 SUB SWAP1 REVERT JUMPDEST PUSH1 0x0 PUSH2 0x8E5 DUP4 DUP4 PUSH2 0x8E0 PUSH2 0x1288 JUMP JUMPDEST PUSH2 0x12C0 JUMP JUMPDEST SWAP1 POP DUP4 PUSH20 0xFFFFFFFFFFFFFFFFFFFFFFFFFFFFFFFFFFFFFFFF AND DUP2 PUSH20 0xFFFFFFFFFFFFFFFFFFFFFFFFFFFFFFFFFFFFFFFF AND EQ PUSH2 0x95B JUMPI DUP4 DUP3 DUP3 PUSH1 0x40 MLOAD PUSH32 0x64283D7B00000000000000000000000000000000000000000000000000000000 DUP2 MSTORE PUSH1 0x4 ADD PUSH2 0x952 SWAP4 SWAP3 SWAP2 SWAP1 PUSH2 0x2725 JUMP JUMPDEST PUSH1 0x40 MLOAD DUP1 SWAP2 SUB SWAP1 REVERT JUMPDEST POP POP POP POP JUMP JUMPDEST PUSH1 0xA PUSH1 0x8 SLOAD LT PUSH2 0x9A6 JUMPI PUSH1 0x40 MLOAD PUSH32 0x8C379A000000000000000000000000000000000000000000000000000000000 DUP2 MSTORE PUSH1 0x4 ADD PUSH2 0x99D SWAP1 PUSH2 0x27A8 JUMP JUMPDEST PUSH1 0x40 MLOAD DUP1 SWAP2 SUB SWAP1 REVERT JUMPDEST PUSH1 0x0 JUMPDEST PUSH1 0xC DUP2 LT ISZERO PUSH2 0xA54 JUMPI PUSH1 0x0 PUSH1 0x9 PUSH1 0x0 CALLER PUSH20 0xFFFFFFFFFFFFFFFFFFFFFFFFFFFFFFFFFFFFFFFF AND PUSH20 0xFFFFFFFFFFFFFFFFFFFFFFFFFFFFFFFFFFFFFFFF AND DUP2 MSTORE PUSH1 0x20 ADD SWAP1 DUP2 MSTORE PUSH1 0x20 ADD PUSH1 0x0 KECCAK256 DUP3 PUSH1 0xC DUP2 LT PUSH2 0xA05 JUMPI PUSH2 0xA04 PUSH2 0x26F6 JUMP JUMPDEST JUMPDEST ADD SLOAD SUB PUSH2 0xA47 JUMPI PUSH1 0x40 MLOAD PUSH32 0x8C379A000000000000000000000000000000000000000000000000000000000 DUP2 MSTORE PUSH1 0x4 ADD PUSH2 0xA3E SWAP1 PUSH2 0x2814 JUMP JUMPDEST PUSH1 0x40 MLOAD DUP1 SWAP2 SUB SWAP1 REVERT JUMPDEST DUP1 DUP1 PUSH1 0x1 ADD SWAP2 POP POP PUSH2 0x9A9 JUMP JUMPDEST POP PUSH1 0x0 JUMPDEST PUSH1 0xC DUP2 LT ISZERO PUSH2 0xB21 JUMPI PUSH2 0xABC PUSH1 0x9 PUSH1 0x0 CALLER PUSH20 0xFFFFFFFFFFFFFFFFFFFFFFFFFFFFFFFFFFFFFFFF AND PUSH20 0xFFFFFFFFFFFFFFFFFFFFFFFFFFFFFFFFFFFFFFFF AND DUP2 MSTORE PUSH1 0x20 ADD SWAP1 DUP2 MSTORE PUSH1 0x20 ADD PUSH1 0x0 KECCAK256 DUP3 PUSH1 0xC DUP2 LT PUSH2 0xAB5 JUMPI PUSH2 0xAB4 PUSH2 0x26F6 JUMP JUMPDEST JUMPDEST ADD SLOAD PUSH2 0x12DE JUMP JUMPDEST PUSH1 0x0 PUSH1 0x9 PUSH1 0x0 CALLER PUSH20 0xFFFFFFFFFFFFFFFFFFFFFFFFFFFFFFFFFFFFFFFF AND PUSH20 0xFFFFFFFFFFFFFFFFFFFFFFFFFFFFFFFFFFFFFFFF AND DUP2 MSTORE PUSH1 0x20 ADD SWAP1 DUP2 MSTORE PUSH1 0x20 ADD PUSH1 0x0 KECCAK256 DUP3 PUSH1 0xC DUP2 LT PUSH2 0xB0F JUMPI PUSH2 0xB0E PUSH2 0x26F6 JUMP JUMPDEST JUMPDEST ADD DUP2 SWAP1 SSTORE POP DUP1 DUP1 PUSH1 0x1 ADD SWAP2 POP POP PUSH2 0xA58 JUMP JUMPDEST POP PUSH1 0x0 PUSH1 0x7 PUSH1 0x0 DUP2 SLOAD DUP1 SWAP3 SWAP2 SWAP1 PUSH2 0xB37 SWAP1 PUSH2 0x25A8 JUMP JUMPDEST SWAP2 SWAP1 POP SSTORE SWAP1 POP PUSH1 0x8 PUSH1 0x0 DUP2 SLOAD DUP1 SWAP3 SWAP2 SWAP1 PUSH2 0xB50 SWAP1 PUSH2 0x25A8 JUMP JUMPDEST SWAP2 SWAP1 POP SSTORE POP PUSH2 0xB5F CALLER DUP3 PUSH2 0x12A2 JUMP JUMPDEST PUSH1 0xC PUSH1 0xA PUSH1 0x0 DUP4 DUP2 MSTORE PUSH1 0x20 ADD SWAP1 DUP2 MSTORE PUSH1 0x20 ADD PUSH1 0x0 KECCAK256 DUP2 SWAP1 SSTORE POP POP JUMP JUMPDEST PUSH1 0xA PUSH1 0x20 MSTORE DUP1 PUSH1 0x0 MSTORE PUSH1 0x40 PUSH1 0x0 KECCAK256 PUSH1 0x0 SWAP2 POP SWAP1 POP SLOAD DUP2 JUMP JUMPDEST PUSH2 0xBAE DUP4 DUP4 DUP4 PUSH1 0x40 MLOAD DUP1 PUSH1 0x20 ADD PUSH1 0x40 MSTORE DUP1 PUSH1 0x0 DUP2 MSTORE POP PUSH2 0xD4A JUMP JUMPDEST POP POP POP JUMP JUMPDEST PUSH1 0x0 PUSH1 0x6 PUSH1 0x0 SWAP1 SLOAD SWAP1 PUSH2 0x100 EXP SWAP1 DIV PUSH1 0xFF AND SWAP1 POP SWAP1 JUMP JUMPDEST PUSH1 0x0 PUSH2 0xBD5 DUP3 PUSH2 0x11C3 JUMP JUMPDEST SWAP1 POP SWAP2 SWAP1 POP JUMP JUMPDEST PUSH1 0x0 DUP1 PUSH20 0xFFFFFFFFFFFFFFFFFFFFFFFFFFFFFFFFFFFFFFFF AND DUP3 PUSH20 0xFFFFFFFFFFFFFFFFFFFFFFFFFFFFFFFFFFFFFFFF AND SUB PUSH2 0xC4F JUMPI PUSH1 0x0 PUSH1 0x40 MLOAD PUSH32 0x89C62B6400000000000000000000000000000000000000000000000000000000 DUP2 MSTORE PUSH1 0x4 ADD PUSH2 0xC46 SWAP2 SWAP1 PUSH2 0x2118 JUMP JUMPDEST PUSH1 0x40 MLOAD DUP1 SWAP2 SUB SWAP1 REVERT JUMPDEST PUSH1 0x3 PUSH1 0x0 DUP4 PUSH20 0xFFFFFFFFFFFFFFFFFFFFFFFFFFFFFFFFFFFFFFFF AND PUSH20 0xFFFFFFFFFFFFFFFFFFFFFFFFFFFFFFFFFFFFFFFF AND DUP2 MSTORE PUSH1 0x20 ADD SWAP1 DUP2 MSTORE PUSH1 0x20 ADD PUSH1 0x0 KECCAK256 SLOAD SWAP1 POP SWAP2 SWAP1 POP JUMP JUMPDEST PUSH1 0x8 SLOAD DUP2 JUMP JUMPDEST PUSH1 0x60 PUSH1 0x1 DUP1 SLOAD PUSH2 0xCAB SWAP1 PUSH2 0x24DC JUMP JUMPDEST DUP1 PUSH1 0x1F ADD PUSH1 0x20 DUP1 SWAP2 DIV MUL PUSH1 0x20 ADD PUSH1 0x40 MLOAD SWAP1 DUP2 ADD PUSH1 0x40 MSTORE DUP1 SWAP3 SWAP2 SWAP1 DUP2 DUP2 MSTORE PUSH1 0x20 ADD DUP3 DUP1 SLOAD PUSH2 0xCD7 SWAP1 PUSH2 0x24DC JUMP JUMPDEST DUP1 ISZERO PUSH2 0xD24 JUMPI DUP1 PUSH1 0x1F LT PUSH2 0xCF9 JUMPI PUSH2 0x100 DUP1 DUP4 SLOAD DIV MUL DUP4 MSTORE SWAP2 PUSH1 0x20 ADD SWAP2 PUSH2 0xD24 JUMP JUMPDEST DUP3 ADD SWAP2 SWAP1 PUSH1 0x0 MSTORE PUSH1 0x20 PUSH1 0x0 KECCAK256 SWAP1 JUMPDEST DUP2 SLOAD DUP2 MSTORE SWAP1 PUSH1 0x1 ADD SWAP1 PUSH1 0x20 ADD DUP1 DUP4 GT PUSH2 0xD07 JUMPI DUP3 SWAP1 SUB PUSH1 0x1F AND DUP3 ADD SWAP2 JUMPDEST POP POP POP POP POP SWAP1 POP SWAP1 JUMP JUMPDEST PUSH1 0x7 SLOAD DUP2 JUMP JUMPDEST PUSH2 0xD46 PUSH2 0xD3F PUSH2 0x1288 JUMP JUMPDEST DUP4 DUP4 PUSH2 0x1364 JUMP JUMPDEST POP POP JUMP JUMPDEST PUSH2 0xD55 DUP5 DUP5 DUP5 PUSH2 0x85F JUMP JUMPDEST PUSH2 0xD61 DUP5 DUP5 DUP5 DUP5 PUSH2 0x14D3 JUMP JUMPDEST POP POP POP POP JUMP JUMPDEST PUSH1 0x9 PUSH1 0x20 MSTORE DUP2 PUSH1 0x0 MSTORE PUSH1 0x40 PUSH1 0x0 KECCAK256 DUP2 PUSH1 0xC DUP2 LT PUSH2 0xD83 JUMPI PUSH1 0x0 DUP1 REVERT JUMPDEST ADD PUSH1 0x0 SWAP2 POP SWAP2 POP POP SLOAD DUP2 JUMP JUMPDEST PUSH8 0x16345785D8A0000 DUP2 JUMP JUMPDEST PUSH1 0x60 PUSH1 0x7 SLOAD DUP3 LT ISZERO DUP1 PUSH2 0xDC1 JUMPI POP PUSH1 0x0 PUSH1 0xA PUSH1 0x0 DUP5 DUP2 MSTORE PUSH1 0x20 ADD SWAP1 DUP2 MSTORE PUSH1 0x20 ADD PUSH1 0x0 KECCAK256 SLOAD EQ JUMPDEST ISZERO PUSH2 0xE01 JUMPI PUSH1 0x40 MLOAD PUSH32 0x8C379A000000000000000000000000000000000000000000000000000000000 DUP2 MSTORE PUSH1 0x4 ADD PUSH2 0xDF8 SWAP1 PUSH2 0x2880 JUMP JUMPDEST PUSH1 0x40 MLOAD DUP1 SWAP2 SUB SWAP1 REVERT JUMPDEST PUSH1 0x60 DUP1 PUSH1 0xC PUSH1 0xA PUSH1 0x0 DUP7 DUP2 MSTORE PUSH1 0x20 ADD SWAP1 DUP2 MSTORE PUSH1 0x20 ADD PUSH1 0x0 KECCAK256 SLOAD SUB PUSH2 0xEE9 JUMPI PUSH1 0x23 DUP1 SLOAD PUSH2 0xE2C SWAP1 PUSH2 0x24DC JUMP JUMPDEST DUP1 PUSH1 0x1F ADD PUSH1 0x20 DUP1 SWAP2 DIV MUL PUSH1 0x20 ADD PUSH1 0x40 MLOAD SWAP1 DUP2 ADD PUSH1 0x40 MSTORE DUP1 SWAP3 SWAP2 SWAP1 DUP2 DUP2 MSTORE PUSH1 0x20 ADD DUP3 DUP1 SLOAD PUSH2 0xE58 SWAP1 PUSH2 0x24DC JUMP JUMPDEST DUP1 ISZERO PUSH2 0xEA5 JUMPI DUP1 PUSH1 0x1F LT PUSH2 0xE7A JUMPI PUSH2 0x100 DUP1 DUP4 SLOAD DIV MUL DUP4 MSTORE SWAP2 PUSH1 0x20 ADD SWAP2 PUSH2 0xEA5 JUMP JUMPDEST DUP3 ADD SWAP2 SWAP1 PUSH1 0x0 MSTORE PUSH1 0x20 PUSH1 0x0 KECCAK256 SWAP1 JUMPDEST DUP2 SLOAD DUP2 MSTORE SWAP1 PUSH1 0x1 ADD SWAP1 PUSH1 0x20 ADD DUP1 DUP4 GT PUSH2 0xE88 JUMPI DUP3 SWAP1 SUB PUSH1 0x1F AND DUP3 ADD SWAP2 JUMPDEST POP POP POP POP POP SWAP2 POP PUSH1 0x40 MLOAD DUP1 PUSH1 0x40 ADD PUSH1 0x40 MSTORE DUP1 PUSH1 0x19 DUP2 MSTORE PUSH1 0x20 ADD PUSH32 0x4368696E657365205A6F6469616320436F6C6C656374696F6E00000000000000 DUP2 MSTORE POP SWAP1 POP PUSH2 0x1068 JUMP JUMPDEST PUSH1 0x17 PUSH1 0x1 PUSH1 0xA PUSH1 0x0 DUP8 DUP2 MSTORE PUSH1 0x20 ADD SWAP1 DUP2 MSTORE PUSH1 0x20 ADD PUSH1 0x0 KECCAK256 SLOAD PUSH2 0xF0B SWAP2 SWAP1 PUSH2 0x28A0 JUMP JUMPDEST PUSH1 0xC DUP2 LT PUSH2 0xF1C JUMPI PUSH2 0xF1B PUSH2 0x26F6 JUMP JUMPDEST JUMPDEST ADD DUP1 SLOAD PUSH2 0xF28 SWAP1 PUSH2 0x24DC JUMP JUMPDEST DUP1 PUSH1 0x1F ADD PUSH1 0x20 DUP1 SWAP2 DIV MUL PUSH1 0x20 ADD PUSH1 0x40 MLOAD SWAP1 DUP2 ADD PUSH1 0x40 MSTORE DUP1 SWAP3 SWAP2 SWAP1 DUP2 DUP2 MSTORE PUSH1 0x20 ADD DUP3 DUP1 SLOAD PUSH2 0xF54 SWAP1 PUSH2 0x24DC JUMP JUMPDEST DUP1 ISZERO PUSH2 0xFA1 JUMPI DUP1 PUSH1 0x1F LT PUSH2 0xF76 JUMPI PUSH2 0x100 DUP1 DUP4 SLOAD DIV MUL DUP4 MSTORE SWAP2 PUSH1 0x20 ADD SWAP2 PUSH2 0xFA1 JUMP JUMPDEST DUP3 ADD SWAP2 SWAP1 PUSH1 0x0 MSTORE PUSH1 0x20 PUSH1 0x0 KECCAK256 SWAP1 JUMPDEST DUP2 SLOAD DUP2 MSTORE SWAP1 PUSH1 0x1 ADD SWAP1 PUSH1 0x20 ADD DUP1 DUP4 GT PUSH2 0xF84 JUMPI DUP3 SWAP1 SUB PUSH1 0x1F AND DUP3 ADD SWAP2 JUMPDEST POP POP POP POP POP SWAP2 POP PUSH1 0xB PUSH1 0x1 PUSH1 0xA PUSH1 0x0 DUP8 DUP2 MSTORE PUSH1 0x20 ADD SWAP1 DUP2 MSTORE PUSH1 0x20 ADD PUSH1 0x0 KECCAK256 SLOAD PUSH2 0xFCA SWAP2 SWAP1 PUSH2 0x28A0 JUMP JUMPDEST PUSH1 0xC DUP2 LT PUSH2 0xFDB JUMPI PUSH2 0xFDA PUSH2 0x26F6 JUMP JUMPDEST JUMPDEST ADD DUP1 SLOAD PUSH2 0xFE7 SWAP1 PUSH2 0x24DC JUMP JUMPDEST DUP1 PUSH1 0x1F ADD PUSH1 0x20 DUP1 SWAP2 DIV MUL PUSH1 0x20 ADD PUSH1 0x40 MLOAD SWAP1 DUP2 ADD PUSH1 0x40 MSTORE DUP1 SWAP3 SWAP2 SWAP1 DUP2 DUP2 MSTORE PUSH1 0x20 ADD DUP3 DUP1 SLOAD PUSH2 0x1013 SWAP1 PUSH2 0x24DC JUMP JUMPDEST DUP1 ISZERO PUSH2 0x1060 JUMPI DUP1 PUSH1 0x1F LT PUSH2 0x1035 JUMPI PUSH2 0x100 DUP1 DUP4 SLOAD DIV MUL DUP4 MSTORE SWAP2 PUSH1 0x20 ADD SWAP2 PUSH2 0x1060 JUMP JUMPDEST DUP3 ADD SWAP2 SWAP1 PUSH1 0x0 MSTORE PUSH1 0x20 PUSH1 0x0 KECCAK256 SWAP1 JUMPDEST DUP2 SLOAD DUP2 MSTORE SWAP1 PUSH1 0x1 ADD SWAP1 PUSH1 0x20 ADD DUP1 DUP4 GT PUSH2 0x1043 JUMPI DUP3 SWAP1 SUB PUSH1 0x1F AND DUP3 ADD SWAP2 JUMPDEST POP POP POP POP POP SWAP1 POP JUMPDEST PUSH1 0x0 PUSH2 0x1094 DUP3 DUP5 PUSH1 0x40 MLOAD PUSH1 0x20 ADD PUSH2 0x1080 SWAP3 SWAP2 SWAP1 PUSH2 0x2A1A JUMP JUMPDEST PUSH1 0x40 MLOAD PUSH1 0x20 DUP2 DUP4 SUB SUB DUP2 MSTORE SWAP1 PUSH1 0x40 MSTORE PUSH2 0x168A JUMP JUMPDEST SWAP1 POP DUP1 PUSH1 0x40 MLOAD PUSH1 0x20 ADD PUSH2 0x10A7 SWAP2 SWAP1 PUSH2 0x2AAB JUMP JUMPDEST PUSH1 0x40 MLOAD PUSH1 0x20 DUP2 DUP4 SUB SUB DUP2 MSTORE SWAP1 PUSH1 0x40 MSTORE SWAP4 POP POP POP POP SWAP2 SWAP1 POP JUMP JUMPDEST PUSH1 0x0 PUSH1 0x5 PUSH1 0x0 DUP5 PUSH20 0xFFFFFFFFFFFFFFFFFFFFFFFFFFFFFFFFFFFFFFFF AND PUSH20 0xFFFFFFFFFFFFFFFFFFFFFFFFFFFFFFFFFFFFFFFF AND DUP2 MSTORE PUSH1 0x20 ADD SWAP1 DUP2 MSTORE PUSH1 0x20 ADD PUSH1 0x0 KECCAK256 PUSH1 0x0 DUP4 PUSH20 0xFFFFFFFFFFFFFFFFFFFFFFFFFFFFFFFFFFFFFFFF AND PUSH20 0xFFFFFFFFFFFFFFFFFFFFFFFFFFFFFFFFFFFFFFFF AND DUP2 MSTORE PUSH1 0x20 ADD SWAP1 DUP2 MSTORE PUSH1 0x20 ADD PUSH1 0x0 KECCAK256 PUSH1 0x0 SWAP1 SLOAD SWAP1 PUSH2 0x100 EXP SWAP1 DIV PUSH1 0xFF AND SWAP1 POP SWAP3 SWAP2 POP POP JUMP JUMPDEST PUSH1 0xA DUP2 JUMP JUMPDEST PUSH1 0x0 PUSH32 0x1FFC9A700000000000000000000000000000000000000000000000000000000 PUSH28 0xFFFFFFFFFFFFFFFFFFFFFFFFFFFFFFFFFFFFFFFFFFFFFFFFFFFFFFFF NOT AND DUP3 PUSH28 0xFFFFFFFFFFFFFFFFFFFFFFFFFFFFFFFFFFFFFFFFFFFFFFFFFFFFFFFF NOT AND EQ SWAP1 POP SWAP2 SWAP1 POP JUMP JUMPDEST PUSH1 0x0 DUP1 PUSH2 0x11CF DUP4 PUSH2 0x17FC JUMP JUMPDEST SWAP1 POP PUSH1 0x0 PUSH20 0xFFFFFFFFFFFFFFFFFFFFFFFFFFFFFFFFFFFFFFFF AND DUP2 PUSH20 0xFFFFFFFFFFFFFFFFFFFFFFFFFFFFFFFFFFFFFFFF AND SUB PUSH2 0x1242 JUMPI DUP3 PUSH1 0x40 MLOAD PUSH32 0x7E27328900000000000000000000000000000000000000000000000000000000 DUP2 MSTORE PUSH1 0x4 ADD PUSH2 0x1239 SWAP2 SWAP1 PUSH2 0x2201 JUMP JUMPDEST PUSH1 0x40 MLOAD DUP1 SWAP2 SUB SWAP1 REVERT JUMPDEST DUP1 SWAP2 POP POP SWAP2 SWAP1 POP JUMP JUMPDEST PUSH1 0x0 PUSH1 0x4 PUSH1 0x0 DUP4 DUP2 MSTORE PUSH1 0x20 ADD SWAP1 DUP2 MSTORE PUSH1 0x20 ADD PUSH1 0x0 KECCAK256 PUSH1 0x0 SWAP1 SLOAD SWAP1 PUSH2 0x100 EXP SWAP1 DIV PUSH20 0xFFFFFFFFFFFFFFFFFFFFFFFFFFFFFFFFFFFFFFFF AND SWAP1 POP SWAP2 SWAP1 POP JUMP JUMPDEST PUSH1 0x0 CALLER SWAP1 POP SWAP1 JUMP JUMPDEST PUSH2 0x129D DUP4 DUP4 DUP4 PUSH1 0x1 PUSH2 0x1839 JUMP JUMPDEST POP POP POP JUMP JUMPDEST PUSH2 0x12BC DUP3 DUP3 PUSH1 0x40 MLOAD DUP1 PUSH1 0x20 ADD PUSH1 0x40 MSTORE DUP1 PUSH1 0x0 DUP2 MSTORE POP PUSH2 0x19FE JUMP JUMPDEST POP POP JUMP JUMPDEST PUSH1 0x0 PUSH2 0x12CA PUSH2 0x1A1A JUMP JUMPDEST PUSH2 0x12D5 DUP5 DUP5 DUP5 PUSH2 0x1A5B JUMP JUMPDEST SWAP1 POP SWAP4 SWAP3 POP POP POP JUMP JUMPDEST PUSH1 0x0 PUSH2 0x12ED PUSH1 0x0 DUP4 PUSH1 0x0 PUSH2 0x12C0 JUMP JUMPDEST SWAP1 POP PUSH1 0x0 PUSH20 0xFFFFFFFFFFFFFFFFFFFFFFFFFFFFFFFFFFFFFFFF AND DUP2 PUSH20 0xFFFFFFFFFFFFFFFFFFFFFFFFFFFFFFFFFFFFFFFF AND SUB PUSH2 0x1360 JUMPI DUP2 PUSH1 0x40 MLOAD PUSH32 0x7E27328900000000000000000000000000000000000000000000000000000000 DUP2 MSTORE PUSH1 0x4 ADD PUSH2 0x1357 SWAP2 SWAP1 PUSH2 0x2201 JUMP JUMPDEST PUSH1 0x40 MLOAD DUP1 SWAP2 SUB SWAP1 REVERT JUMPDEST POP POP JUMP JUMPDEST PUSH1 0x0 PUSH20 0xFFFFFFFFFFFFFFFFFFFFFFFFFFFFFFFFFFFFFFFF AND DUP3 PUSH20 0xFFFFFFFFFFFFFFFFFFFFFFFFFFFFFFFFFFFFFFFF AND SUB PUSH2 0x13D5 JUMPI DUP2 PUSH1 0x40 MLOAD PUSH32 0x5B08BA1800000000000000000000000000000000000000000000000000000000 DUP2 MSTORE PUSH1 0x4 ADD PUSH2 0x13CC SWAP2 SWAP1 PUSH2 0x2118 JUMP JUMPDEST PUSH1 0x40 MLOAD DUP1 SWAP2 SUB SWAP1 REVERT JUMPDEST DUP1 PUSH1 0x5 PUSH1 0x0 DUP6 PUSH20 0xFFFFFFFFFFFFFFFFFFFFFFFFFFFFFFFFFFFFFFFF AND PUSH20 0xFFFFFFFFFFFFFFFFFFFFFFFFFFFFFFFFFFFFFFFF AND DUP2 MSTORE PUSH1 0x20 ADD SWAP1 DUP2 MSTORE PUSH1 0x20 ADD PUSH1 0x0 KECCAK256 PUSH1 0x0 DUP5 PUSH20 0xFFFFFFFFFFFFFFFFFFFFFFFFFFFFFFFFFFFFFFFF AND PUSH20 0xFFFFFFFFFFFFFFFFFFFFFFFFFFFFFFFFFFFFFFFF AND DUP2 MSTORE PUSH1 0x20 ADD SWAP1 DUP2 MSTORE PUSH1 0x20 ADD PUSH1 0x0 KECCAK256 PUSH1 0x0 PUSH2 0x100 EXP DUP2 SLOAD DUP2 PUSH1 0xFF MUL NOT AND SWAP1 DUP4 ISZERO ISZERO MUL OR SWAP1 SSTORE POP DUP2 PUSH20 0xFFFFFFFFFFFFFFFFFFFFFFFFFFFFFFFFFFFFFFFF AND DUP4 PUSH20 0xFFFFFFFFFFFFFFFFFFFFFFFFFFFFFFFFFFFFFFFF AND PUSH32 0x17307EAB39AB6107E8899845AD3D59BD9653F200F220920489CA2B5937696C31 DUP4 PUSH1 0x40 MLOAD PUSH2 0x14C6 SWAP2 SWAP1 PUSH2 0x1FA7 JUMP JUMPDEST PUSH1 0x40 MLOAD DUP1 SWAP2 SUB SWAP1 LOG3 POP POP POP JUMP JUMPDEST PUSH1 0x0 DUP4 PUSH20 0xFFFFFFFFFFFFFFFFFFFFFFFFFFFFFFFFFFFFFFFF AND EXTCODESIZE GT ISZERO PUSH2 0x1684 JUMPI DUP3 PUSH20 0xFFFFFFFFFFFFFFFFFFFFFFFFFFFFFFFFFFFFFFFF AND PUSH4 0x150B7A02 PUSH2 0x1517 PUSH2 0x1288 JUMP JUMPDEST DUP7 DUP6 DUP6 PUSH1 0x40 MLOAD DUP6 PUSH4 0xFFFFFFFF AND PUSH1 0xE0 SHL DUP2 MSTORE PUSH1 0x4 ADD PUSH2 0x1539 SWAP5 SWAP4 SWAP3 SWAP2 SWAP1 PUSH2 0x2B22 JUMP JUMPDEST PUSH1 0x20 PUSH1 0x40 MLOAD DUP1 DUP4 SUB DUP2 PUSH1 0x0 DUP8 GAS CALL SWAP3 POP POP POP DUP1 ISZERO PUSH2 0x1575 JUMPI POP PUSH1 0x40 MLOAD RETURNDATASIZE PUSH1 0x1F NOT PUSH1 0x1F DUP3 ADD AND DUP3 ADD DUP1 PUSH1 0x40 MSTORE POP DUP2 ADD SWAP1 PUSH2 0x1572 SWAP2 SWAP1 PUSH2 0x2B83 JUMP JUMPDEST PUSH1 0x1 JUMPDEST PUSH2 0x15F9 JUMPI RETURNDATASIZE DUP1 PUSH1 0x0 DUP2 EQ PUSH2 0x15A5 JUMPI PUSH1 0x40 MLOAD SWAP2 POP PUSH1 0x1F NOT PUSH1 0x3F RETURNDATASIZE ADD AND DUP3 ADD PUSH1 0x40 MSTORE RETURNDATASIZE DUP3 MSTORE RETURNDATASIZE PUSH1 0x0 PUSH1 0x20 DUP5 ADD RETURNDATACOPY PUSH2 0x15AA JUMP JUMPDEST PUSH1 0x60 SWAP2 POP JUMPDEST POP PUSH1 0x0 DUP2 MLOAD SUB PUSH2 0x15F1 JUMPI DUP4 PUSH1 0x40 MLOAD PUSH32 0x64A0AE9200000000000000000000000000000000000000000000000000000000 DUP2 MSTORE PUSH1 0x4 ADD PUSH2 0x15E8 SWAP2 SWAP1 PUSH2 0x2118 JUMP JUMPDEST PUSH1 0x40 MLOAD DUP1 SWAP2 SUB SWAP1 REVERT JUMPDEST DUP1 MLOAD DUP2 PUSH1 0x20 ADD REVERT JUMPDEST PUSH4 0x150B7A02 PUSH1 0xE0 SHL PUSH28 0xFFFFFFFFFFFFFFFFFFFFFFFFFFFFFFFFFFFFFFFFFFFFFFFFFFFFFFFF NOT AND DUP2 PUSH28 0xFFFFFFFFFFFFFFFFFFFFFFFFFFFFFFFFFFFFFFFFFFFFFFFFFFFFFFFF NOT AND EQ PUSH2 0x1682 JUMPI DUP4 PUSH1 0x40 MLOAD PUSH32 0x64A0AE9200000000000000000000000000000000000000000000000000000000 DUP2 MSTORE PUSH1 0x4 ADD PUSH2 0x1679 SWAP2 SWAP1 PUSH2 0x2118 JUMP JUMPDEST PUSH1 0x40 MLOAD DUP1 SWAP2 SUB SWAP1 REVERT JUMPDEST POP JUMPDEST POP POP POP POP JUMP JUMPDEST PUSH1 0x60 PUSH1 0x0 DUP3 MLOAD SUB PUSH2 0x16AC JUMPI PUSH1 0x40 MLOAD DUP1 PUSH1 0x20 ADD PUSH1 0x40 MSTORE DUP1 PUSH1 0x0 DUP2 MSTORE POP SWAP1 POP PUSH2 0x17F7 JUMP JUMPDEST PUSH1 0x0 PUSH1 0x40 MLOAD DUP1 PUSH1 0x60 ADD PUSH1 0x40 MSTORE DUP1 PUSH1 0x40 DUP2 MSTORE PUSH1 0x20 ADD PUSH2 0x2C81 PUSH1 0x40 SWAP2 CODECOPY SWAP1 POP PUSH1 0x0 PUSH1 0x3 PUSH1 0x2 DUP6 MLOAD PUSH2 0x16DB SWAP2 SWAP1 PUSH2 0x2BB0 JUMP JUMPDEST PUSH2 0x16E5 SWAP2 SWAP1 PUSH2 0x2BE4 JUMP JUMPDEST PUSH1 0x4 PUSH2 0x16F1 SWAP2 SWAP1 PUSH2 0x2C15 JUMP JUMPDEST PUSH8 0xFFFFFFFFFFFFFFFF DUP2 GT ISZERO PUSH2 0x170A JUMPI PUSH2 0x1709 PUSH2 0x22BF JUMP JUMPDEST JUMPDEST PUSH1 0x40 MLOAD SWAP1 DUP1 DUP3 MSTORE DUP1 PUSH1 0x1F ADD PUSH1 0x1F NOT AND PUSH1 0x20 ADD DUP3 ADD PUSH1 0x40 MSTORE DUP1 ISZERO PUSH2 0x173C JUMPI DUP2 PUSH1 0x20 ADD PUSH1 0x1 DUP3 MUL DUP1 CALLDATASIZE DUP4 CALLDATACOPY DUP1 DUP3 ADD SWAP2 POP POP SWAP1 POP JUMPDEST POP SWAP1 POP PUSH1 0x1 DUP3 ADD PUSH1 0x20 DUP3 ADD DUP6 DUP7 MLOAD DUP8 ADD PUSH1 0x20 DUP2 ADD DUP1 MLOAD PUSH1 0x0 DUP3 MSTORE JUMPDEST DUP3 DUP5 LT ISZERO PUSH2 0x17B2 JUMPI PUSH1 0x3 DUP5 ADD SWAP4 POP DUP4 MLOAD PUSH1 0x3F DUP2 PUSH1 0x12 SHR AND DUP8 ADD MLOAD DUP7 MSTORE8 PUSH1 0x1 DUP7 ADD SWAP6 POP PUSH1 0x3F DUP2 PUSH1 0xC SHR AND DUP8 ADD MLOAD DUP7 MSTORE8 PUSH1 0x1 DUP7 ADD SWAP6 POP PUSH1 0x3F DUP2 PUSH1 0x6 SHR AND DUP8 ADD MLOAD DUP7 MSTORE8 PUSH1 0x1 DUP7 ADD SWAP6 POP PUSH1 0x3F DUP2 AND DUP8 ADD MLOAD DUP7 MSTORE8 PUSH1 0x1 DUP7 ADD SWAP6 POP POP PUSH2 0x1757 JUMP JUMPDEST DUP1 DUP3 MSTORE PUSH1 0x3 DUP11 MLOAD MOD PUSH1 0x1 DUP2 EQ PUSH2 0x17CF JUMPI PUSH1 0x2 DUP2 EQ PUSH2 0x17E2 JUMPI PUSH2 0x17EA JUMP JUMPDEST PUSH1 0x3D PUSH1 0x1 DUP8 SUB MSTORE8 PUSH1 0x3D PUSH1 0x2 DUP8 SUB MSTORE8 PUSH2 0x17EA JUMP JUMPDEST PUSH1 0x3D PUSH1 0x1 DUP8 SUB MSTORE8 JUMPDEST POP POP POP POP POP POP POP DUP1 SWAP3 POP POP POP JUMPDEST SWAP2 SWAP1 POP JUMP JUMPDEST PUSH1 0x0 PUSH1 0x2 PUSH1 0x0 DUP4 DUP2 MSTORE PUSH1 0x20 ADD SWAP1 DUP2 MSTORE PUSH1 0x20 ADD PUSH1 0x0 KECCAK256 PUSH1 0x0 SWAP1 SLOAD SWAP1 PUSH2 0x100 EXP SWAP1 DIV PUSH20 0xFFFFFFFFFFFFFFFFFFFFFFFFFFFFFFFFFFFFFFFF AND SWAP1 POP SWAP2 SWAP1 POP JUMP JUMPDEST DUP1 DUP1 PUSH2 0x1872 JUMPI POP PUSH1 0x0 PUSH20 0xFFFFFFFFFFFFFFFFFFFFFFFFFFFFFFFFFFFFFFFF AND DUP3 PUSH20 0xFFFFFFFFFFFFFFFFFFFFFFFFFFFFFFFFFFFFFFFF AND EQ ISZERO JUMPDEST ISZERO PUSH2 0x19A6 JUMPI PUSH1 0x0 PUSH2 0x1882 DUP5 PUSH2 0x11C3 JUMP JUMPDEST SWAP1 POP PUSH1 0x0 PUSH20 0xFFFFFFFFFFFFFFFFFFFFFFFFFFFFFFFFFFFFFFFF AND DUP4 PUSH20 0xFFFFFFFFFFFFFFFFFFFFFFFFFFFFFFFFFFFFFFFF AND EQ ISZERO DUP1 ISZERO PUSH2 0x18ED JUMPI POP DUP3 PUSH20 0xFFFFFFFFFFFFFFFFFFFFFFFFFFFFFFFFFFFFFFFF AND DUP2 PUSH20 0xFFFFFFFFFFFFFFFFFFFFFFFFFFFFFFFFFFFFFFFF AND EQ ISZERO JUMPDEST DUP1 ISZERO PUSH2 0x1900 JUMPI POP PUSH2 0x18FE DUP2 DUP5 PUSH2 0x10C0 JUMP JUMPDEST ISZERO JUMPDEST ISZERO PUSH2 0x1942 JUMPI DUP3 PUSH1 0x40 MLOAD PUSH32 0xA9FBF51F00000000000000000000000000000000000000000000000000000000 DUP2 MSTORE PUSH1 0x4 ADD PUSH2 0x1939 SWAP2 SWAP1 PUSH2 0x2118 JUMP JUMPDEST PUSH1 0x40 MLOAD DUP1 SWAP2 SUB SWAP1 REVERT JUMPDEST DUP2 ISZERO PUSH2 0x19A4 JUMPI DUP4 DUP6 PUSH20 0xFFFFFFFFFFFFFFFFFFFFFFFFFFFFFFFFFFFFFFFF AND DUP3 PUSH20 0xFFFFFFFFFFFFFFFFFFFFFFFFFFFFFFFFFFFFFFFF AND PUSH32 0x8C5BE1E5EBEC7D5BD14F71427D1E84F3DD0314C0F7B2291E5B200AC8C7C3B925 PUSH1 0x40 MLOAD PUSH1 0x40 MLOAD DUP1 SWAP2 SUB SWAP1 LOG4 JUMPDEST POP JUMPDEST DUP4 PUSH1 0x4 PUSH1 0x0 DUP6 DUP2 MSTORE PUSH1 0x20 ADD SWAP1 DUP2 MSTORE PUSH1 0x20 ADD PUSH1 0x0 KECCAK256 PUSH1 0x0 PUSH2 0x100 EXP DUP2 SLOAD DUP2 PUSH20 0xFFFFFFFFFFFFFFFFFFFFFFFFFFFFFFFFFFFFFFFF MUL NOT AND SWAP1 DUP4 PUSH20 0xFFFFFFFFFFFFFFFFFFFFFFFFFFFFFFFFFFFFFFFF AND MUL OR SWAP1 SSTORE POP POP POP POP POP JUMP JUMPDEST PUSH2 0x1A08 DUP4 DUP4 PUSH2 0x1C75 JUMP JUMPDEST PUSH2 0x1A15 PUSH1 0x0 DUP5 DUP5 DUP5 PUSH2 0x14D3 JUMP JUMPDEST POP POP POP JUMP JUMPDEST PUSH2 0x1A22 PUSH2 0xBB3 JUMP JUMPDEST ISZERO PUSH2 0x1A59 JUMPI PUSH1 0x40 MLOAD PUSH32 0xD93C066500000000000000000000000000000000000000000000000000000000 DUP2 MSTORE PUSH1 0x4 ADD PUSH1 0x40 MLOAD DUP1 SWAP2 SUB SWAP1 REVERT JUMPDEST JUMP JUMPDEST PUSH1 0x0 DUP1 PUSH2 0x1A67 DUP5 PUSH2 0x17FC JUMP JUMPDEST SWAP1 POP PUSH1 0x0 PUSH20 0xFFFFFFFFFFFFFFFFFFFFFFFFFFFFFFFFFFFFFFFF AND DUP4 PUSH20 0xFFFFFFFFFFFFFFFFFFFFFFFFFFFFFFFFFFFFFFFF AND EQ PUSH2 0x1AA9 JUMPI PUSH2 0x1AA8 DUP2 DUP5 DUP7 PUSH2 0x1D6E JUMP JUMPDEST JUMPDEST PUSH1 0x0 PUSH20 0xFFFFFFFFFFFFFFFFFFFFFFFFFFFFFFFFFFFFFFFF AND DUP2 PUSH20 0xFFFFFFFFFFFFFFFFFFFFFFFFFFFFFFFFFFFFFFFF AND EQ PUSH2 0x1B3A JUMPI PUSH2 0x1AEB PUSH1 0x0 DUP6 PUSH1 0x0 DUP1 PUSH2 0x1839 JUMP JUMPDEST PUSH1 0x1 PUSH1 0x3 PUSH1 0x0 DUP4 PUSH20 0xFFFFFFFFFFFFFFFFFFFFFFFFFFFFFFFFFFFFFFFF AND PUSH20 0xFFFFFFFFFFFFFFFFFFFFFFFFFFFFFFFFFFFFFFFF AND DUP2 MSTORE PUSH1 0x20 ADD SWAP1 DUP2 MSTORE PUSH1 0x20 ADD PUSH1 0x0 KECCAK256 PUSH1 0x0 DUP3 DUP3 SLOAD SUB SWAP3 POP POP DUP2 SWAP1 SSTORE POP JUMPDEST PUSH1 0x0 PUSH20 0xFFFFFFFFFFFFFFFFFFFFFFFFFFFFFFFFFFFFFFFF AND DUP6 PUSH20 0xFFFFFFFFFFFFFFFFFFFFFFFFFFFFFFFFFFFFFFFF AND EQ PUSH2 0x1BBD JUMPI PUSH1 0x1 PUSH1 0x3 PUSH1 0x0 DUP8 PUSH20 0xFFFFFFFFFFFFFFFFFFFFFFFFFFFFFFFFFFFFFFFF AND PUSH20 0xFFFFFFFFFFFFFFFFFFFFFFFFFFFFFFFFFFFFFFFF AND DUP2 MSTORE PUSH1 0x20 ADD SWAP1 DUP2 MSTORE PUSH1 0x20 ADD PUSH1 0x0 KECCAK256 PUSH1 0x0 DUP3 DUP3 SLOAD ADD SWAP3 POP POP DUP2 SWAP1 SSTORE POP JUMPDEST DUP5 PUSH1 0x2 PUSH1 0x0 DUP7 DUP2 MSTORE PUSH1 0x20 ADD SWAP1 DUP2 MSTORE PUSH1 0x20 ADD PUSH1 0x0 KECCAK256 PUSH1 0x0 PUSH2 0x100 EXP DUP2 SLOAD DUP2 PUSH20 0xFFFFFFFFFFFFFFFFFFFFFFFFFFFFFFFFFFFFFFFF MUL NOT AND SWAP1 DUP4 PUSH20 0xFFFFFFFFFFFFFFFFFFFFFFFFFFFFFFFFFFFFFFFF AND MUL OR SWAP1 SSTORE POP DUP4 DUP6 PUSH20 0xFFFFFFFFFFFFFFFFFFFFFFFFFFFFFFFFFFFFFFFF AND DUP3 PUSH20 0xFFFFFFFFFFFFFFFFFFFFFFFFFFFFFFFFFFFFFFFF AND PUSH32 0xDDF252AD1BE2C89B69C2B068FC378DAA952BA7F163C4A11628F55A4DF523B3EF PUSH1 0x40 MLOAD PUSH1 0x40 MLOAD DUP1 SWAP2 SUB SWAP1 LOG4 DUP1 SWAP2 POP POP SWAP4 SWAP3 POP POP POP JUMP JUMPDEST PUSH1 0x0 PUSH20 0xFFFFFFFFFFFFFFFFFFFFFFFFFFFFFFFFFFFFFFFF AND DUP3 PUSH20 0xFFFFFFFFFFFFFFFFFFFFFFFFFFFFFFFFFFFFFFFF AND SUB PUSH2 0x1CE7 JUMPI PUSH1 0x0 PUSH1 0x40 MLOAD PUSH32 0x64A0AE9200000000000000000000000000000000000000000000000000000000 DUP2 MSTORE PUSH1 0x4 ADD PUSH2 0x1CDE SWAP2 SWAP1 PUSH2 0x2118 JUMP JUMPDEST PUSH1 0x40 MLOAD DUP1 SWAP2 SUB SWAP1 REVERT JUMPDEST PUSH1 0x0 PUSH2 0x1CF5 DUP4 DUP4 PUSH1 0x0 PUSH2 0x12C0 JUMP JUMPDEST SWAP1 POP PUSH1 0x0 PUSH20 0xFFFFFFFFFFFFFFFFFFFFFFFFFFFFFFFFFFFFFFFF AND DUP2 PUSH20 0xFFFFFFFFFFFFFFFFFFFFFFFFFFFFFFFFFFFFFFFF AND EQ PUSH2 0x1D69 JUMPI PUSH1 0x0 PUSH1 0x40 MLOAD PUSH32 0x73C6AC6E00000000000000000000000000000000000000000000000000000000 DUP2 MSTORE PUSH1 0x4 ADD PUSH2 0x1D60 SWAP2 SWAP1 PUSH2 0x2118 JUMP JUMPDEST PUSH1 0x40 MLOAD DUP1 SWAP2 SUB SWAP1 REVERT JUMPDEST POP POP POP JUMP JUMPDEST PUSH2 0x1D79 DUP4 DUP4 DUP4 PUSH2 0x1E32 JUMP JUMPDEST PUSH2 0x1E2D JUMPI PUSH1 0x0 PUSH20 0xFFFFFFFFFFFFFFFFFFFFFFFFFFFFFFFFFFFFFFFF AND DUP4 PUSH20 0xFFFFFFFFFFFFFFFFFFFFFFFFFFFFFFFFFFFFFFFF AND SUB PUSH2 0x1DEE JUMPI DUP1 PUSH1 0x40 MLOAD PUSH32 0x7E27328900000000000000000000000000000000000000000000000000000000 DUP2 MSTORE PUSH1 0x4 ADD PUSH2 0x1DE5 SWAP2 SWAP1 PUSH2 0x2201 JUMP JUMPDEST PUSH1 0x40 MLOAD DUP1 SWAP2 SUB SWAP1 REVERT JUMPDEST DUP2 DUP2 PUSH1 0x40 MLOAD PUSH32 0x177E802F00000000000000000000000000000000000000000000000000000000 DUP2 MSTORE PUSH1 0x4 ADD PUSH2 0x1E24 SWAP3 SWAP2 SWAP1 PUSH2 0x2C57 JUMP JUMPDEST PUSH1 0x40 MLOAD DUP1 SWAP2 SUB SWAP1 REVERT JUMPDEST POP POP POP JUMP JUMPDEST PUSH1 0x0 DUP1 PUSH20 0xFFFFFFFFFFFFFFFFFFFFFFFFFFFFFFFFFFFFFFFF AND DUP4 PUSH20 0xFFFFFFFFFFFFFFFFFFFFFFFFFFFFFFFFFFFFFFFF AND EQ ISZERO DUP1 ISZERO PUSH2 0x1EEA JUMPI POP DUP3 PUSH20 0xFFFFFFFFFFFFFFFFFFFFFFFFFFFFFFFFFFFFFFFF AND DUP5 PUSH20 0xFFFFFFFFFFFFFFFFFFFFFFFFFFFFFFFFFFFFFFFF AND EQ DUP1 PUSH2 0x1EAB JUMPI POP PUSH2 0x1EAA DUP5 DUP5 PUSH2 0x10C0 JUMP JUMPDEST JUMPDEST DUP1 PUSH2 0x1EE9 JUMPI POP DUP3 PUSH20 0xFFFFFFFFFFFFFFFFFFFFFFFFFFFFFFFFFFFFFFFF AND PUSH2 0x1ED1 DUP4 PUSH2 0x124B JUMP JUMPDEST PUSH20 0xFFFFFFFFFFFFFFFFFFFFFFFFFFFFFFFFFFFFFFFF AND EQ JUMPDEST JUMPDEST SWAP1 POP SWAP4 SWAP3 POP POP POP JUMP JUMPDEST PUSH1 0x0 PUSH1 0x40 MLOAD SWAP1 POP SWAP1 JUMP JUMPDEST PUSH1 0x0 DUP1 REVERT JUMPDEST PUSH1 0x0 DUP1 REVERT JUMPDEST PUSH1 0x0 PUSH32 0xFFFFFFFF00000000000000000000000000000000000000000000000000000000 DUP3 AND SWAP1 POP SWAP2 SWAP1 POP JUMP JUMPDEST PUSH2 0x1F3C DUP2 PUSH2 0x1F07 JUMP JUMPDEST DUP2 EQ PUSH2 0x1F47 JUMPI PUSH1 0x0 DUP1 REVERT JUMPDEST POP JUMP JUMPDEST PUSH1 0x0 DUP2 CALLDATALOAD SWAP1 POP PUSH2 0x1F59 DUP2 PUSH2 0x1F33 JUMP JUMPDEST SWAP3 SWAP2 POP POP JUMP JUMPDEST PUSH1 0x0 PUSH1 0x20 DUP3 DUP5 SUB SLT ISZERO PUSH2 0x1F75 JUMPI PUSH2 0x1F74 PUSH2 0x1EFD JUMP JUMPDEST JUMPDEST PUSH1 0x0 PUSH2 0x1F83 DUP5 DUP3 DUP6 ADD PUSH2 0x1F4A JUMP JUMPDEST SWAP2 POP POP SWAP3 SWAP2 POP POP JUMP JUMPDEST PUSH1 0x0 DUP2 ISZERO ISZERO SWAP1 POP SWAP2 SWAP1 POP JUMP JUMPDEST PUSH2 0x1FA1 DUP2 PUSH2 0x1F8C JUMP JUMPDEST DUP3 MSTORE POP POP JUMP JUMPDEST PUSH1 0x0 PUSH1 0x20 DUP3 ADD SWAP1 POP PUSH2 0x1FBC PUSH1 0x0 DUP4 ADD DUP5 PUSH2 0x1F98 JUMP JUMPDEST SWAP3 SWAP2 POP POP JUMP JUMPDEST PUSH1 0x0 DUP2 MLOAD SWAP1 POP SWAP2 SWAP1 POP JUMP JUMPDEST PUSH1 0x0 DUP3 DUP3 MSTORE PUSH1 0x20 DUP3 ADD SWAP1 POP SWAP3 SWAP2 POP POP JUMP JUMPDEST PUSH1 0x0 JUMPDEST DUP4 DUP2 LT ISZERO PUSH2 0x1FFC JUMPI DUP1 DUP3 ADD MLOAD DUP2 DUP5 ADD MSTORE PUSH1 0x20 DUP2 ADD SWAP1 POP PUSH2 0x1FE1 JUMP JUMPDEST PUSH1 0x0 DUP5 DUP5 ADD MSTORE POP POP POP POP JUMP JUMPDEST PUSH1 0x0 PUSH1 0x1F NOT PUSH1 0x1F DUP4 ADD AND SWAP1 POP SWAP2 SWAP1 POP JUMP JUMPDEST PUSH1 0x0 PUSH2 0x2024 DUP3 PUSH2 0x1FC2 JUMP JUMPDEST PUSH2 0x202E DUP2 DUP6 PUSH2 0x1FCD JUMP JUMPDEST SWAP4 POP PUSH2 0x203E DUP2 DUP6 PUSH1 0x20 DUP7 ADD PUSH2 0x1FDE JUMP JUMPDEST PUSH2 0x2047 DUP2 PUSH2 0x2008 JUMP JUMPDEST DUP5 ADD SWAP2 POP POP SWAP3 SWAP2 POP POP JUMP JUMPDEST PUSH1 0x0 PUSH1 0x20 DUP3 ADD SWAP1 POP DUP2 DUP2 SUB PUSH1 0x0 DUP4 ADD MSTORE PUSH2 0x206C DUP2 DUP5 PUSH2 0x2019 JUMP JUMPDEST SWAP1 POP SWAP3 SWAP2 POP POP JUMP JUMPDEST PUSH1 0x0 DUP2 SWAP1 POP SWAP2 SWAP1 POP JUMP JUMPDEST PUSH2 0x2087 DUP2 PUSH2 0x2074 JUMP JUMPDEST DUP2 EQ PUSH2 0x2092 JUMPI PUSH1 0x0 DUP1 REVERT JUMPDEST POP JUMP JUMPDEST PUSH1 0x0 DUP2 CALLDATALOAD SWAP1 POP PUSH2 0x20A4 DUP2 PUSH2 0x207E JUMP JUMPDEST SWAP3 SWAP2 POP POP JUMP JUMPDEST PUSH1 0x0 PUSH1 0x20 DUP3 DUP5 SUB SLT ISZERO PUSH2 0x20C0 JUMPI PUSH2 0x20BF PUSH2 0x1EFD JUMP JUMPDEST JUMPDEST PUSH1 0x0 PUSH2 0x20CE DUP5 DUP3 DUP6 ADD PUSH2 0x2095 JUMP JUMPDEST SWAP2 POP POP SWAP3 SWAP2 POP POP JUMP JUMPDEST PUSH1 0x0 PUSH20 0xFFFFFFFFFFFFFFFFFFFFFFFFFFFFFFFFFFFFFFFF DUP3 AND SWAP1 POP SWAP2 SWAP1 POP JUMP JUMPDEST PUSH1 0x0 PUSH2 0x2102 DUP3 PUSH2 0x20D7 JUMP JUMPDEST SWAP1 POP SWAP2 SWAP1 POP JUMP JUMPDEST PUSH2 0x2112 DUP2 PUSH2 0x20F7 JUMP JUMPDEST DUP3 MSTORE POP POP JUMP JUMPDEST PUSH1 0x0 PUSH1 0x20 DUP3 ADD SWAP1 POP PUSH2 0x212D PUSH1 0x0 DUP4 ADD DUP5 PUSH2 0x2109 JUMP JUMPDEST SWAP3 SWAP2 POP POP JUMP JUMPDEST PUSH2 0x213C DUP2 PUSH2 0x20F7 JUMP JUMPDEST DUP2 EQ PUSH2 0x2147 JUMPI PUSH1 0x0 DUP1 REVERT JUMPDEST POP JUMP JUMPDEST PUSH1 0x0 DUP2 CALLDATALOAD SWAP1 POP PUSH2 0x2159 DUP2 PUSH2 0x2133 JUMP JUMPDEST SWAP3 SWAP2 POP POP JUMP JUMPDEST PUSH1 0x0 DUP1 PUSH1 0x40 DUP4 DUP6 SUB SLT ISZERO PUSH2 0x2176 JUMPI PUSH2 0x2175 PUSH2 0x1EFD JUMP JUMPDEST JUMPDEST PUSH1 0x0 PUSH2 0x2184 DUP6 DUP3 DUP7 ADD PUSH2 0x214A JUMP JUMPDEST SWAP3 POP POP PUSH1 0x20 PUSH2 0x2195 DUP6 DUP3 DUP7 ADD PUSH2 0x2095 JUMP JUMPDEST SWAP2 POP POP SWAP3 POP SWAP3 SWAP1 POP JUMP JUMPDEST PUSH1 0x0 DUP1 PUSH1 0x0 PUSH1 0x60 DUP5 DUP7 SUB SLT ISZERO PUSH2 0x21B8 JUMPI PUSH2 0x21B7 PUSH2 0x1EFD JUMP JUMPDEST JUMPDEST PUSH1 0x0 PUSH2 0x21C6 DUP7 DUP3 DUP8 ADD PUSH2 0x214A JUMP JUMPDEST SWAP4 POP POP PUSH1 0x20 PUSH2 0x21D7 DUP7 DUP3 DUP8 ADD PUSH2 0x214A JUMP JUMPDEST SWAP3 POP POP PUSH1 0x40 PUSH2 0x21E8 DUP7 DUP3 DUP8 ADD PUSH2 0x2095 JUMP JUMPDEST SWAP2 POP POP SWAP3 POP SWAP3 POP SWAP3 JUMP JUMPDEST PUSH2 0x21FB DUP2 PUSH2 0x2074 JUMP JUMPDEST DUP3 MSTORE POP POP JUMP JUMPDEST PUSH1 0x0 PUSH1 0x20 DUP3 ADD SWAP1 POP PUSH2 0x2216 PUSH1 0x0 DUP4 ADD DUP5 PUSH2 0x21F2 JUMP JUMPDEST SWAP3 SWAP2 POP POP JUMP JUMPDEST PUSH1 0x0 PUSH1 0x20 DUP3 DUP5 SUB SLT ISZERO PUSH2 0x2232 JUMPI PUSH2 0x2231 PUSH2 0x1EFD JUMP JUMPDEST JUMPDEST PUSH1 0x0 PUSH2 0x2240 DUP5 DUP3 DUP6 ADD PUSH2 0x214A JUMP JUMPDEST SWAP2 POP POP SWAP3 SWAP2 POP POP JUMP JUMPDEST PUSH2 0x2252 DUP2 PUSH2 0x1F8C JUMP JUMPDEST DUP2 EQ PUSH2 0x225D JUMPI PUSH1 0x0 DUP1 REVERT JUMPDEST POP JUMP JUMPDEST PUSH1 0x0 DUP2 CALLDATALOAD SWAP1 POP PUSH2 0x226F DUP2 PUSH2 0x2249 JUMP JUMPDEST SWAP3 SWAP2 POP POP JUMP JUMPDEST PUSH1 0x0 DUP1 PUSH1 0x40 DUP4 DUP6 SUB SLT ISZERO PUSH2 0x228C JUMPI PUSH2 0x228B PUSH2 0x1EFD JUMP JUMPDEST JUMPDEST PUSH1 0x0 PUSH2 0x229A DUP6 DUP3 DUP7 ADD PUSH2 0x214A JUMP JUMPDEST SWAP3 POP POP PUSH1 0x20 PUSH2 0x22AB DUP6 DUP3 DUP7 ADD PUSH2 0x2260 JUMP JUMPDEST SWAP2 POP POP SWAP3 POP SWAP3 SWAP1 POP JUMP JUMPDEST PUSH1 0x0 DUP1 REVERT JUMPDEST PUSH1 0x0 DUP1 REVERT JUMPDEST PUSH32 0x4E487B7100000000000000000000000000000000000000000000000000000000 PUSH1 0x0 MSTORE PUSH1 0x41 PUSH1 0x4 MSTORE PUSH1 0x24 PUSH1 0x0 REVERT JUMPDEST PUSH2 0x22F7 DUP3 PUSH2 0x2008 JUMP JUMPDEST DUP2 ADD DUP2 DUP2 LT PUSH8 0xFFFFFFFFFFFFFFFF DUP3 GT OR ISZERO PUSH2 0x2316 JUMPI PUSH2 0x2315 PUSH2 0x22BF JUMP JUMPDEST JUMPDEST DUP1 PUSH1 0x40 MSTORE POP POP POP JUMP JUMPDEST PUSH1 0x0 PUSH2 0x2329 PUSH2 0x1EF3 JUMP JUMPDEST SWAP1 POP PUSH2 0x2335 DUP3 DUP3 PUSH2 0x22EE JUMP JUMPDEST SWAP2 SWAP1 POP JUMP JUMPDEST PUSH1 0x0 PUSH8 0xFFFFFFFFFFFFFFFF DUP3 GT ISZERO PUSH2 0x2355 JUMPI PUSH2 0x2354 PUSH2 0x22BF JUMP JUMPDEST JUMPDEST PUSH2 0x235E DUP3 PUSH2 0x2008 JUMP JUMPDEST SWAP1 POP PUSH1 0x20 DUP2 ADD SWAP1 POP SWAP2 SWAP1 POP JUMP JUMPDEST DUP3 DUP2 DUP4 CALLDATACOPY PUSH1 0x0 DUP4 DUP4 ADD MSTORE POP POP POP JUMP JUMPDEST PUSH1 0x0 PUSH2 0x238D PUSH2 0x2388 DUP5 PUSH2 0x233A JUMP JUMPDEST PUSH2 0x231F JUMP JUMPDEST SWAP1 POP DUP3 DUP2 MSTORE PUSH1 0x20 DUP2 ADD DUP5 DUP5 DUP5 ADD GT ISZERO PUSH2 0x23A9 JUMPI PUSH2 0x23A8 PUSH2 0x22BA JUMP JUMPDEST JUMPDEST PUSH2 0x23B4 DUP5 DUP3 DUP6 PUSH2 0x236B JUMP JUMPDEST POP SWAP4 SWAP3 POP POP POP JUMP JUMPDEST PUSH1 0x0 DUP3 PUSH1 0x1F DUP4 ADD SLT PUSH2 0x23D1 JUMPI PUSH2 0x23D0 PUSH2 0x22B5 JUMP JUMPDEST JUMPDEST DUP2 CALLDATALOAD PUSH2 0x23E1 DUP5 DUP3 PUSH1 0x20 DUP7 ADD PUSH2 0x237A JUMP JUMPDEST SWAP2 POP POP SWAP3 SWAP2 POP POP JUMP JUMPDEST PUSH1 0x0 DUP1 PUSH1 0x0 DUP1 PUSH1 0x80 DUP6 DUP8 SUB SLT ISZERO PUSH2 0x2404 JUMPI PUSH2 0x2403 PUSH2 0x1EFD JUMP JUMPDEST JUMPDEST PUSH1 0x0 PUSH2 0x2412 DUP8 DUP3 DUP9 ADD PUSH2 0x214A JUMP JUMPDEST SWAP5 POP POP PUSH1 0x20 PUSH2 0x2423 DUP8 DUP3 DUP9 ADD PUSH2 0x214A JUMP JUMPDEST SWAP4 POP POP PUSH1 0x40 PUSH2 0x2434 DUP8 DUP3 DUP9 ADD PUSH2 0x2095 JUMP JUMPDEST SWAP3 POP POP PUSH1 0x60 DUP6 ADD CALLDATALOAD PUSH8 0xFFFFFFFFFFFFFFFF DUP2 GT ISZERO PUSH2 0x2455 JUMPI PUSH2 0x2454 PUSH2 0x1F02 JUMP JUMPDEST JUMPDEST PUSH2 0x2461 DUP8 DUP3 DUP9 ADD PUSH2 0x23BC JUMP JUMPDEST SWAP2 POP POP SWAP3 SWAP6 SWAP2 SWAP5 POP SWAP3 POP JUMP JUMPDEST PUSH1 0x0 DUP1 PUSH1 0x40 DUP4 DUP6 SUB SLT ISZERO PUSH2 0x2484 JUMPI PUSH2 0x2483 PUSH2 0x1EFD JUMP JUMPDEST JUMPDEST PUSH1 0x0 PUSH2 0x2492 DUP6 DUP3 DUP7 ADD PUSH2 0x214A JUMP JUMPDEST SWAP3 POP POP PUSH1 0x20 PUSH2 0x24A3 DUP6 DUP3 DUP7 ADD PUSH2 0x214A JUMP JUMPDEST SWAP2 POP POP SWAP3 POP SWAP3 SWAP1 POP JUMP JUMPDEST PUSH32 0x4E487B7100000000000000000000000000000000000000000000000000000000 PUSH1 0x0 MSTORE PUSH1 0x22 PUSH1 0x4 MSTORE PUSH1 0x24 PUSH1 0x0 REVERT JUMPDEST PUSH1 0x0 PUSH1 0x2 DUP3 DIV SWAP1 POP PUSH1 0x1 DUP3 AND DUP1 PUSH2 0x24F4 JUMPI PUSH1 0x7F DUP3 AND SWAP2 POP JUMPDEST PUSH1 0x20 DUP3 LT DUP2 SUB PUSH2 0x2507 JUMPI PUSH2 0x2506 PUSH2 0x24AD JUMP JUMPDEST JUMPDEST POP SWAP2 SWAP1 POP JUMP JUMPDEST PUSH32 0x496E73756666696369656E74207061796D656E74000000000000000000000000 PUSH1 0x0 DUP3 ADD MSTORE POP JUMP JUMPDEST PUSH1 0x0 PUSH2 0x2543 PUSH1 0x14 DUP4 PUSH2 0x1FCD JUMP JUMPDEST SWAP2 POP PUSH2 0x254E DUP3 PUSH2 0x250D JUMP JUMPDEST PUSH1 0x20 DUP3 ADD SWAP1 POP SWAP2 SWAP1 POP JUMP JUMPDEST PUSH1 0x0 PUSH1 0x20 DUP3 ADD SWAP1 POP DUP2 DUP2 SUB PUSH1 0x0 DUP4 ADD MSTORE PUSH2 0x2572 DUP2 PUSH2 0x2536 JUMP JUMPDEST SWAP1 POP SWAP2 SWAP1 POP JUMP JUMPDEST PUSH32 0x4E487B7100000000000000000000000000000000000000000000000000000000 PUSH1 0x0 MSTORE PUSH1 0x11 PUSH1 0x4 MSTORE PUSH1 0x24 PUSH1 0x0 REVERT JUMPDEST PUSH1 0x0 PUSH2 0x25B3 DUP3 PUSH2 0x2074 JUMP JUMPDEST SWAP2 POP PUSH32 0xFFFFFFFFFFFFFFFFFFFFFFFFFFFFFFFFFFFFFFFFFFFFFFFFFFFFFFFFFFFFFFFF DUP3 SUB PUSH2 0x25E5 JUMPI PUSH2 0x25E4 PUSH2 0x2579 JUMP JUMPDEST JUMPDEST PUSH1 0x1 DUP3 ADD SWAP1 POP SWAP2 SWAP1 POP JUMP JUMPDEST PUSH1 0x0 DUP2 SWAP1 POP SWAP2 SWAP1 POP JUMP JUMPDEST PUSH2 0x260B PUSH2 0x2606 DUP3 PUSH2 0x2074 JUMP JUMPDEST PUSH2 0x25F0 JUMP JUMPDEST DUP3 MSTORE POP POP JUMP JUMPDEST PUSH1 0x0 DUP2 PUSH1 0x60 SHL SWAP1 POP SWAP2 SWAP1 POP JUMP JUMPDEST PUSH1 0x0 PUSH2 0x2629 DUP3 PUSH2 0x2611 JUMP JUMPDEST SWAP1 POP SWAP2 SWAP1 POP JUMP JUMPDEST PUSH1 0x0 PUSH2 0x263B DUP3 PUSH2 0x261E JUMP JUMPDEST SWAP1 POP SWAP2 SWAP1 POP JUMP JUMPDEST PUSH2 0x2653 PUSH2 0x264E DUP3 PUSH2 0x20F7 JUMP JUMPDEST PUSH2 0x2630 JUMP JUMPDEST DUP3 MSTORE POP POP JUMP JUMPDEST PUSH1 0x0 PUSH2 0x2665 DUP3 DUP7 PUSH2 0x25FA JUMP JUMPDEST PUSH1 0x20 DUP3 ADD SWAP2 POP PUSH2 0x2675 DUP3 DUP6 PUSH2 0x2642 JUMP JUMPDEST PUSH1 0x14 DUP3 ADD SWAP2 POP PUSH2 0x2685 DUP3 DUP5 PUSH2 0x25FA JUMP JUMPDEST PUSH1 0x20 DUP3 ADD SWAP2 POP DUP2 SWAP1 POP SWAP5 SWAP4 POP POP POP POP JUMP JUMPDEST PUSH32 0x4E487B7100000000000000000000000000000000000000000000000000000000 PUSH1 0x0 MSTORE PUSH1 0x12 PUSH1 0x4 MSTORE PUSH1 0x24 PUSH1 0x0 REVERT JUMPDEST PUSH1 0x0 PUSH2 0x26D0 DUP3 PUSH2 0x2074 JUMP JUMPDEST SWAP2 POP PUSH2 0x26DB DUP4 PUSH2 0x2074 JUMP JUMPDEST SWAP3 POP DUP3 PUSH2 0x26EB JUMPI PUSH2 0x26EA PUSH2 0x2696 JUMP JUMPDEST JUMPDEST DUP3 DUP3 MOD SWAP1 POP SWAP3 SWAP2 POP POP JUMP JUMPDEST PUSH32 0x4E487B7100000000000000000000000000000000000000000000000000000000 PUSH1 0x0 MSTORE PUSH1 0x32 PUSH1 0x4 MSTORE PUSH1 0x24 PUSH1 0x0 REVERT JUMPDEST PUSH1 0x0 PUSH1 0x60 DUP3 ADD SWAP1 POP PUSH2 0x273A PUSH1 0x0 DUP4 ADD DUP7 PUSH2 0x2109 JUMP JUMPDEST PUSH2 0x2747 PUSH1 0x20 DUP4 ADD DUP6 PUSH2 0x21F2 JUMP JUMPDEST PUSH2 0x2754 PUSH1 0x40 DUP4 ADD DUP5 PUSH2 0x2109 JUMP JUMPDEST SWAP5 SWAP4 POP POP POP POP JUMP JUMPDEST PUSH32 0x4D6178696D756D207370656369616C204E465473207265616368656400000000 PUSH1 0x0 DUP3 ADD MSTORE POP JUMP JUMPDEST PUSH1 0x0 PUSH2 0x2792 PUSH1 0x1C DUP4 PUSH2 0x1FCD JUMP JUMPDEST SWAP2 POP PUSH2 0x279D DUP3 PUSH2 0x275C JUMP JUMPDEST PUSH1 0x20 DUP3 ADD SWAP1 POP SWAP2 SWAP1 POP JUMP JUMPDEST PUSH1 0x0 PUSH1 0x20 DUP3 ADD SWAP1 POP DUP2 DUP2 SUB PUSH1 0x0 DUP4 ADD MSTORE PUSH2 0x27C1 DUP2 PUSH2 0x2785 JUMP JUMPDEST SWAP1 POP SWAP2 SWAP1 POP JUMP JUMPDEST PUSH32 0x496E636F6D706C657465207A6F6469616320636F6C6C656374696F6E00000000 PUSH1 0x0 DUP3 ADD MSTORE POP JUMP JUMPDEST PUSH1 0x0 PUSH2 0x27FE PUSH1 0x1C DUP4 PUSH2 0x1FCD JUMP JUMPDEST SWAP2 POP PUSH2 0x2809 DUP3 PUSH2 0x27C8 JUMP JUMPDEST PUSH1 0x20 DUP3 ADD SWAP1 POP SWAP2 SWAP1 POP JUMP JUMPDEST PUSH1 0x0 PUSH1 0x20 DUP3 ADD SWAP1 POP DUP2 DUP2 SUB PUSH1 0x0 DUP4 ADD MSTORE PUSH2 0x282D DUP2 PUSH2 0x27F1 JUMP JUMPDEST SWAP1 POP SWAP2 SWAP1 POP JUMP JUMPDEST PUSH32 0x546F6B656E20646F6573206E6F74206578697374000000000000000000000000 PUSH1 0x0 DUP3 ADD MSTORE POP JUMP JUMPDEST PUSH1 0x0 PUSH2 0x286A PUSH1 0x14 DUP4 PUSH2 0x1FCD JUMP JUMPDEST SWAP2 POP PUSH2 0x2875 DUP3 PUSH2 0x2834 JUMP JUMPDEST PUSH1 0x20 DUP3 ADD SWAP1 POP SWAP2 SWAP1 POP JUMP JUMPDEST PUSH1 0x0 PUSH1 0x20 DUP3 ADD SWAP1 POP DUP2 DUP2 SUB PUSH1 0x0 DUP4 ADD MSTORE PUSH2 0x2899 DUP2 PUSH2 0x285D JUMP JUMPDEST SWAP1 POP SWAP2 SWAP1 POP JUMP JUMPDEST PUSH1 0x0 PUSH2 0x28AB DUP3 PUSH2 0x2074 JUMP JUMPDEST SWAP2 POP PUSH2 0x28B6 DUP4 PUSH2 0x2074 JUMP JUMPDEST SWAP3 POP DUP3 DUP3 SUB SWAP1 POP DUP2 DUP2 GT ISZERO PUSH2 0x28CE JUMPI PUSH2 0x28CD PUSH2 0x2579 JUMP JUMPDEST JUMPDEST SWAP3 SWAP2 POP POP JUMP JUMPDEST PUSH1 0x0 DUP2 SWAP1 POP SWAP3 SWAP2 POP POP JUMP JUMPDEST PUSH32 0x7B226E616D65223A202200000000000000000000000000000000000000000000 PUSH1 0x0 DUP3 ADD MSTORE POP JUMP JUMPDEST PUSH1 0x0 PUSH2 0x2915 PUSH1 0xA DUP4 PUSH2 0x28D4 JUMP JUMPDEST SWAP2 POP PUSH2 0x2920 DUP3 PUSH2 0x28DF JUMP JUMPDEST PUSH1 0xA DUP3 ADD SWAP1 POP SWAP2 SWAP1 POP JUMP JUMPDEST PUSH1 0x0 PUSH2 0x2936 DUP3 PUSH2 0x1FC2 JUMP JUMPDEST PUSH2 0x2940 DUP2 DUP6 PUSH2 0x28D4 JUMP JUMPDEST SWAP4 POP PUSH2 0x2950 DUP2 DUP6 PUSH1 0x20 DUP7 ADD PUSH2 0x1FDE JUMP JUMPDEST DUP1 DUP5 ADD SWAP2 POP POP SWAP3 SWAP2 POP POP JUMP JUMPDEST PUSH32 0x222C20226465736372697074696F6E223A20224368696E657365205A6F646961 PUSH1 0x0 DUP3 ADD MSTORE PUSH32 0x63204E4654222C2022696D616765223A20220000000000000000000000000000 PUSH1 0x20 DUP3 ADD MSTORE POP JUMP JUMPDEST PUSH1 0x0 PUSH2 0x29B8 PUSH1 0x32 DUP4 PUSH2 0x28D4 JUMP JUMPDEST SWAP2 POP PUSH2 0x29C3 DUP3 PUSH2 0x295C JUMP JUMPDEST PUSH1 0x32 DUP3 ADD SWAP1 POP SWAP2 SWAP1 POP JUMP JUMPDEST PUSH32 0x227D000000000000000000000000000000000000000000000000000000000000 PUSH1 0x0 DUP3 ADD MSTORE POP JUMP JUMPDEST PUSH1 0x0 PUSH2 0x2A04 PUSH1 0x2 DUP4 PUSH2 0x28D4 JUMP JUMPDEST SWAP2 POP PUSH2 0x2A0F DUP3 PUSH2 0x29CE JUMP JUMPDEST PUSH1 0x2 DUP3 ADD SWAP1 POP SWAP2 SWAP1 POP JUMP JUMPDEST PUSH1 0x0 PUSH2 0x2A25 DUP3 PUSH2 0x2908 JUMP JUMPDEST SWAP2 POP PUSH2 0x2A31 DUP3 DUP6 PUSH2 0x292B JUMP JUMPDEST SWAP2 POP PUSH2 0x2A3C DUP3 PUSH2 0x29AB JUMP JUMPDEST SWAP2 POP PUSH2 0x2A48 DUP3 DUP5 PUSH2 0x292B JUMP JUMPDEST SWAP2 POP PUSH2 0x2A53 DUP3 PUSH2 0x29F7 JUMP JUMPDEST SWAP2 POP DUP2 SWAP1 POP SWAP4 SWAP3 POP POP POP JUMP JUMPDEST PUSH32 0x646174613A6170706C69636174696F6E2F6A736F6E3B6261736536342C000000 PUSH1 0x0 DUP3 ADD MSTORE POP JUMP JUMPDEST PUSH1 0x0 PUSH2 0x2A95 PUSH1 0x1D DUP4 PUSH2 0x28D4 JUMP JUMPDEST SWAP2 POP PUSH2 0x2AA0 DUP3 PUSH2 0x2A5F JUMP JUMPDEST PUSH1 0x1D DUP3 ADD SWAP1 POP SWAP2 SWAP1 POP JUMP JUMPDEST PUSH1 0x0 PUSH2 0x2AB6 DUP3 PUSH2 0x2A88 JUMP JUMPDEST SWAP2 POP PUSH2 0x2AC2 DUP3 DUP5 PUSH2 0x292B JUMP JUMPDEST SWAP2 POP DUP2 SWAP1 POP SWAP3 SWAP2 POP POP JUMP JUMPDEST PUSH1 0x0 DUP2 MLOAD SWAP1 POP SWAP2 SWAP1 POP JUMP JUMPDEST PUSH1 0x0 DUP3 DUP3 MSTORE PUSH1 0x20 DUP3 ADD SWAP1 POP SWAP3 SWAP2 POP POP JUMP JUMPDEST PUSH1 0x0 PUSH2 0x2AF4 DUP3 PUSH2 0x2ACD JUMP JUMPDEST PUSH2 0x2AFE DUP2 DUP6 PUSH2 0x2AD8 JUMP JUMPDEST SWAP4 POP PUSH2 0x2B0E DUP2 DUP6 PUSH1 0x20 DUP7 ADD PUSH2 0x1FDE JUMP JUMPDEST PUSH2 0x2B17 DUP2 PUSH2 0x2008 JUMP JUMPDEST DUP5 ADD SWAP2 POP POP SWAP3 SWAP2 POP POP JUMP JUMPDEST PUSH1 0x0 PUSH1 0x80 DUP3 ADD SWAP1 POP PUSH2 0x2B37 PUSH1 0x0 DUP4 ADD DUP8 PUSH2 0x2109 JUMP JUMPDEST PUSH2 0x2B44 PUSH1 0x20 DUP4 ADD DUP7 PUSH2 0x2109 JUMP JUMPDEST PUSH2 0x2B51 PUSH1 0x40 DUP4 ADD DUP6 PUSH2 0x21F2 JUMP JUMPDEST DUP2 DUP2 SUB PUSH1 0x60 DUP4 ADD MSTORE PUSH2 0x2B63 DUP2 DUP5 PUSH2 0x2AE9 JUMP JUMPDEST SWAP1 POP SWAP6 SWAP5 POP POP POP POP POP JUMP JUMPDEST PUSH1 0x0 DUP2 MLOAD SWAP1 POP PUSH2 0x2B7D DUP2 PUSH2 0x1F33 JUMP JUMPDEST SWAP3 SWAP2 POP POP JUMP JUMPDEST PUSH1 0x0 PUSH1 0x20 DUP3 DUP5 SUB SLT ISZERO PUSH2 0x2B99 JUMPI PUSH2 0x2B98 PUSH2 0x1EFD JUMP JUMPDEST JUMPDEST PUSH1 0x0 PUSH2 0x2BA7 DUP5 DUP3 DUP6 ADD PUSH2 0x2B6E JUMP JUMPDEST SWAP2 POP POP SWAP3 SWAP2 POP POP JUMP JUMPDEST PUSH1 0x0 PUSH2 0x2BBB DUP3 PUSH2 0x2074 JUMP JUMPDEST SWAP2 POP PUSH2 0x2BC6 DUP4 PUSH2 0x2074 JUMP JUMPDEST SWAP3 POP DUP3 DUP3 ADD SWAP1 POP DUP1 DUP3 GT ISZERO PUSH2 0x2BDE JUMPI PUSH2 0x2BDD PUSH2 0x2579 JUMP JUMPDEST JUMPDEST SWAP3 SWAP2 POP POP JUMP JUMPDEST PUSH1 0x0 PUSH2 0x2BEF DUP3 PUSH2 0x2074 JUMP JUMPDEST SWAP2 POP PUSH2 0x2BFA DUP4 PUSH2 0x2074 JUMP JUMPDEST SWAP3 POP DUP3 PUSH2 0x2C0A JUMPI PUSH2 0x2C09 PUSH2 0x2696 JUMP JUMPDEST JUMPDEST DUP3 DUP3 DIV SWAP1 POP SWAP3 SWAP2 POP POP JUMP JUMPDEST PUSH1 0x0 PUSH2 0x2C20 DUP3 PUSH2 0x2074 JUMP JUMPDEST SWAP2 POP PUSH2 0x2C2B DUP4 PUSH2 0x2074 JUMP JUMPDEST SWAP3 POP DUP3 DUP3 MUL PUSH2 0x2C39 DUP2 PUSH2 0x2074 JUMP JUMPDEST SWAP2 POP DUP3 DUP3 DIV DUP5 EQ DUP4 ISZERO OR PUSH2 0x2C50 JUMPI PUSH2 0x2C4F PUSH2 0x2579 JUMP JUMPDEST JUMPDEST POP SWAP3 SWAP2 POP POP JUMP JUMPDEST PUSH1 0x0 PUSH1 0x40 DUP3 ADD SWAP1 POP PUSH2 0x2C6C PUSH1 0x0 DUP4 ADD DUP6 PUSH2 0x2109 JUMP JUMPDEST PUSH2 0x2C79 PUSH1 0x20 DUP4 ADD DUP5 PUSH2 0x21F2 JUMP JUMPDEST SWAP4 SWAP3 POP POP POP JUMP INVALID COINBASE TIMESTAMP NUMBER PREVRANDAO GASLIMIT CHAINID SELFBALANCE BASEFEE BLOBHASH BLOBBASEFEE 0x4B 0x4C 0x4D 0x4E 0x4F POP MLOAD MSTORE MSTORE8 SLOAD SSTORE JUMP JUMPI PC MSIZE GAS PUSH2 0x6263 PUSH5 0x6566676869 PUSH11 0x6B6C6D6E6F707172737475 PUSH23 0x7778797A303132333435363738392B2FA2646970667358 0x22 SLT KECCAK256 0xBD DUP14 EXTCODEHASH SLOAD CALLDATACOPY SELFDESTRUCT 0xC8 CALLDATACOPY 0x24 0xC6 ADD CALLER 0xD9 0x4C 0xEE 0xB7 EXTCODECOPY DUP10 0xE3 POP 0x4F CODECOPY DUP7 0xE8 PUSH18 0x8A2D0CAC10B66164736F6C634300081B0033 PUSH9 0x747470733A2F2F6261 PUSH7 0x79626569687232 PUSH23 0x6A36716D69356372787761367272716E7070766E726C67 CALLDATACOPY PUSH6 0x376F64657037 PUSH11 0x7778757534336268626D70 PUSH21 0x646F78712E697066732E7733732E6C696E6B2F3230 ORIGIN CALLVALUE 0x2D BALANCE ADDRESS 0x2D ADDRESS ORIGIN 0x25 ORIGIN ADDRESS BALANCE CALLDATASIZE 0x2E ORIGIN CALLDATACOPY 0x2E ORIGIN ORIGIN 0x2E PUSH11 0x706768747470733A2F2F62 PUSH2 0x6679 PUSH3 0x656968 PUSH19 0x32766A36716D69356372787761367272716E70 PUSH17 0x766E726C673765376F646570376A777875 PUSH22 0x34336268626D7074646F78712E697066732E7733732E PUSH13 0x696E6B2F44414C4C2543322542 CALLDATACOPY GASLIMIT 0x25 ORIGIN ADDRESS ORIGIN ADDRESS ORIGIN CALLVALUE 0x2D BALANCE ADDRESS 0x2D ADDRESS ORIGIN 0x25 ORIGIN ADDRESS BALANCE CALLDATASIZE 0x2E ADDRESS CODECOPY 0x2E ADDRESS CALLDATASIZE 0x25 ORIGIN ADDRESS 0x2D 0x25 ORIGIN ADDRESS POP PUSH10 0x78656C25323061727425 ORIGIN ADDRESS PUSH16 0x6625323061253230676F617425324325 ORIGIN ADDRESS PUSH19 0x6570726573656E74696E672532307468652532 ADDRESS NUMBER PUSH9 0x696E6573652532307A PUSH16 0x646961632E253230546865253230676F PUSH2 0x7425 ORIGIN ADDRESS PUSH20 0x686F756C64253230626525323064697374696E63 PUSH21 0x25324325323076696272616E74253243253230616E PUSH5 0x2532307369 PUSH14 0x706C6966696564253230696E2532 ADDRESS PUSH4 0x6C617373 PUSH10 0x63253230706978656C25 ORIGIN ADDRESS PUSH2 0x7274 0x25 ORIGIN ADDRESS PUSH20 0x74796C652532432532307375697461626C652532 ADDRESS PUSH7 0x6F72253230616E 0x2E PUSH24 0x65627068747470733A2F2F62616679626569687232766A36 PUSH18 0x6D69356372787761367272716E7070766E72 PUSH13 0x673765376F646570376A777875 PUSH22 0x34336268626D7074646F78712E697066732E7733732E PUSH13 0x696E6B2F44414C4C2543322542 CALLDATACOPY GASLIMIT 0x25 ORIGIN ADDRESS ORIGIN ADDRESS ORIGIN CALLVALUE 0x2D BALANCE ADDRESS 0x2D ADDRESS ORIGIN 0x25 ORIGIN ADDRESS BALANCE CALLDATASIZE 0x2E ADDRESS CALLVALUE 0x2E CALLER ORIGIN 0x25 ORIGIN ADDRESS 0x2D 0x25 ORIGIN ADDRESS POP PUSH10 0x78656C25323061727425 ORIGIN ADDRESS PUSH16 0x66253230612532307261742532432532 ADDRESS PUSH19 0x6570726573656E74696E672532307468652532 ADDRESS NUMBER PUSH9 0x696E6573652532307A PUSH16 0x646961632E2532305468652532307261 PUSH21 0x25323073686F756C64253230626525323064697374 PUSH10 0x6E637425324325323076 PUSH10 0x6272616E742532432532 ADDRESS PUSH2 0x6E64 0x25 ORIGIN ADDRESS PUSH20 0x696D706C6966696564253230696E253230636C61 PUSH20 0x736963253230706978656C253230617274253230 PUSH20 0x74796C652532432532307375697461626C652532 ADDRESS PUSH7 0x6F72253230616E 0x25 ORIGIN ADDRESS 0x4E 0x2E PUSH24 0x65627068747470733A2F2F62616679626569687232766A36 PUSH18 0x6D69356372787761367272716E7070766E72 PUSH13 0x673765376F646570376A777875 PUSH22 0x34336268626D7074646F78712E697066732E7733732E PUSH13 0x696E6B2F44414C4C2543322542 CALLDATACOPY GASLIMIT 0x25 ORIGIN ADDRESS ORIGIN ADDRESS ORIGIN CALLVALUE 0x2D BALANCE ADDRESS 0x2D ADDRESS ORIGIN 0x25 ORIGIN ADDRESS BALANCE CALLDATASIZE 0x2E ADDRESS CALLDATACOPY 0x2E ORIGIN CODESIZE 0x25 ORIGIN ADDRESS 0x2D 0x25 ORIGIN ADDRESS POP PUSH10 0x78656C25323061727425 ORIGIN ADDRESS PUSH16 0x6625323061253230647261676F6E2532 NUMBER 0x25 ORIGIN ADDRESS PUSH19 0x6570726573656E74696E672532307468652532 ADDRESS NUMBER PUSH9 0x696E6573652532307A PUSH16 0x646961632E2532305468652532306472 PUSH2 0x676F PUSH15 0x25323073686F756C64253230626525 ORIGIN ADDRESS PUSH5 0x697374696E PUSH4 0x74253243 0x25 ORIGIN ADDRESS PUSH23 0x696272616E74253243253230616E6425323073696D706C PUSH10 0x66696564253230696E25 ORIGIN ADDRESS PUSH4 0x6C617373 PUSH10 0x63253230706978656C25 ORIGIN ADDRESS PUSH2 0x7274 0x25 ORIGIN ADDRESS PUSH20 0x74796C652532432532307375697461626C652532 ADDRESS PUSH7 0x6F2E7765627068 PUSH21 0x7470733A2F2F62616679626569687232766A36716D PUSH10 0x35637278776136727271 PUSH15 0x7070766E726C673765376F64657037 PUSH11 0x7778757534336268626D70 PUSH21 0x646F78712E697066732E7733732E6C696E6B2F4441 0x4C 0x4C 0x25 NUMBER ORIGIN 0x25 TIMESTAMP CALLDATACOPY GASLIMIT 0x25 ORIGIN ADDRESS ORIGIN ADDRESS ORIGIN CALLVALUE 0x2D BALANCE ADDRESS 0x2D ADDRESS ORIGIN 0x25 ORIGIN ADDRESS BALANCE CALLDATASIZE 0x2E ADDRESS CALLVALUE 0x2E CALLER CODESIZE 0x25 ORIGIN ADDRESS 0x2D 0x25 ORIGIN ADDRESS POP PUSH10 0x78656C25323061727425 ORIGIN ADDRESS PUSH16 0x66253230612532307469676572253243 0x25 ORIGIN ADDRESS PUSH19 0x6570726573656E74696E672532307468652532 ADDRESS NUMBER PUSH9 0x696E6573652532307A PUSH16 0x646961632E2532305468652532307469 PUSH8 0x657225323073686F PUSH22 0x6C64253230626525323064697374696E637425324325 ORIGIN ADDRESS PUSH23 0x696272616E74253243253230616E6425323073696D706C PUSH10 0x66696564253230696E25 ORIGIN ADDRESS PUSH4 0x6C617373 PUSH10 0x63253230706978656C25 ORIGIN ADDRESS PUSH2 0x7274 0x25 ORIGIN ADDRESS PUSH20 0x74796C652532432532307375697461626C652532 ADDRESS PUSH7 0x6F722532302E77 PUSH6 0x627068747470 PUSH20 0x3A2F2F62616679626569687232766A36716D6935 PUSH4 0x72787761 CALLDATASIZE PUSH19 0x72716E7070766E726C673765376F646570376A PUSH24 0x78757534336268626D7074646F78712E697066732E773373 0x2E PUSH13 0x696E6B2F44414C4C2543322542 CALLDATACOPY GASLIMIT 0x25 ORIGIN ADDRESS ORIGIN ADDRESS ORIGIN CALLVALUE 0x2D BALANCE ADDRESS 0x2D ADDRESS ORIGIN 0x25 ORIGIN ADDRESS BALANCE CALLDATASIZE 0x2E BALANCE ADDRESS 0x2E BALANCE CALLER 0x25 ORIGIN ADDRESS 0x2D 0x25 ORIGIN ADDRESS POP PUSH10 0x78656C25323061727425 ORIGIN ADDRESS PUSH16 0x66253230612532307069672532432532 ADDRESS PUSH19 0x6570726573656E74696E672532307468652532 ADDRESS NUMBER PUSH9 0x696E6573652532307A PUSH16 0x646961632E2532305468652532307069 PUSH8 0x25323073686F756C PUSH5 0x2532306265 0x25 ORIGIN ADDRESS PUSH5 0x697374696E PUSH4 0x74253243 0x25 ORIGIN ADDRESS PUSH23 0x696272616E74253243253230616E6425323073696D706C PUSH10 0x66696564253230696E25 ORIGIN ADDRESS PUSH4 0x6C617373 PUSH10 0x63253230706978656C25 ORIGIN ADDRESS PUSH2 0x7274 0x25 ORIGIN ADDRESS PUSH20 0x74796C652532432532307375697461626C652532 ADDRESS PUSH7 0x6F72253230616E 0x25 ORIGIN ADDRESS 0x4E 0x2E PUSH24 0x65627068747470733A2F2F62616679626569687232766A36 PUSH18 0x6D69356372787761367272716E7070766E72 PUSH13 0x673765376F646570376A777875 PUSH22 0x34336268626D7074646F78712E697066732E7733732E PUSH13 0x696E6B2F44414C4C2543322542 CALLDATACOPY GASLIMIT 0x25 ORIGIN ADDRESS ORIGIN ADDRESS ORIGIN CALLVALUE 0x2D BALANCE ADDRESS 0x2D ADDRESS ORIGIN 0x25 ORIGIN ADDRESS BALANCE CALLDATASIZE 0x2E BALANCE ADDRESS 0x2E ADDRESS ORIGIN 0x25 ORIGIN ADDRESS 0x2D 0x25 ORIGIN ADDRESS POP PUSH10 0x78656C25323061727425 ORIGIN ADDRESS PUSH16 0x6625323061253230646F672532432532 ADDRESS PUSH19 0x6570726573656E74696E672532307468652532 ADDRESS NUMBER PUSH9 0x696E6573652532307A PUSH16 0x646961632E253230546865253230646F PUSH8 0x25323073686F756C PUSH5 0x2532306265 0x25 ORIGIN ADDRESS PUSH5 0x697374696E PUSH4 0x74253243 0x25 ORIGIN ADDRESS PUSH23 0x696272616E74253243253230616E6425323073696D706C PUSH10 0x66696564253230696E25 ORIGIN ADDRESS PUSH4 0x6C617373 PUSH10 0x63253230706978656C25 ORIGIN ADDRESS PUSH2 0x7274 0x25 ORIGIN ADDRESS PUSH20 0x74796C652532432532307375697461626C652532 ADDRESS PUSH7 0x6F72253230616E 0x25 ORIGIN ADDRESS 0x4E 0x2E PUSH24 0x65627068747470733A2F2F62616679626569687232766A36 PUSH18 0x6D69356372787761367272716E7070766E72 PUSH13 0x673765376F646570376A777875 PUSH22 0x34336268626D7074646F78712E697066732E7733732E PUSH13 0x696E6B2F44414C4C2543322542 CALLDATACOPY GASLIMIT 0x25 ORIGIN ADDRESS ORIGIN ADDRESS ORIGIN CALLVALUE 0x2D BALANCE ADDRESS 0x2D ADDRESS ORIGIN 0x25 ORIGIN ADDRESS BALANCE CALLDATASIZE 0x2E ADDRESS CALLVALUE 0x2E CALLER CALLDATASIZE 0x25 ORIGIN ADDRESS 0x2D 0x25 ORIGIN ADDRESS POP PUSH10 0x78656C25323061727425 ORIGIN ADDRESS PUSH16 0x66253230616E2532306F782532432532 ADDRESS PUSH19 0x6570726573656E74696E672532307468652532 ADDRESS NUMBER PUSH9 0x696E6573652532307A PUSH16 0x646961632E2532305468652532306F78 0x25 ORIGIN ADDRESS PUSH20 0x686F756C64253230626525323064697374696E63 PUSH21 0x25324325323076696272616E74253243253230616E PUSH5 0x2532307369 PUSH14 0x706C6966696564253230696E2532 ADDRESS PUSH4 0x6C617373 PUSH10 0x63253230706978656C25 ORIGIN ADDRESS PUSH2 0x7274 0x25 ORIGIN ADDRESS PUSH20 0x74796C652532432532307375697461626C652532 ADDRESS PUSH7 0x6F72253230616E 0x25 ORIGIN ADDRESS 0x4E CHAINID 0x2E PUSH24 0x65627068747470733A2F2F62616679626569687232766A36 PUSH18 0x6D69356372787761367272716E7070766E72 PUSH13 0x673765376F646570376A777875 PUSH22 0x34336268626D7074646F78712E697066732E7733732E PUSH13 0x696E6B2F44414C4C2543322542 CALLDATACOPY GASLIMIT 0x25 ORIGIN ADDRESS ORIGIN ADDRESS ORIGIN CALLVALUE 0x2D BALANCE ADDRESS 0x2D ADDRESS ORIGIN 0x25 ORIGIN ADDRESS BALANCE CALLDATASIZE 0x2E ADDRESS CODESIZE 0x2E CALLVALUE BALANCE 0x25 ORIGIN ADDRESS 0x2D 0x25 ORIGIN ADDRESS POP PUSH10 0x78656C25323061727425 ORIGIN ADDRESS PUSH16 0x6625323061253230736E616B65253243 0x25 ORIGIN ADDRESS PUSH19 0x6570726573656E74696E672532307468652532 ADDRESS NUMBER PUSH9 0x696E6573652532307A PUSH16 0x646961632E253230546865253230736E PUSH2 0x6B65 0x25 ORIGIN ADDRESS PUSH20 0x686F756C64253230626525323064697374696E63 PUSH21 0x25324325323076696272616E74253243253230616E PUSH5 0x2532307369 PUSH14 0x706C6966696564253230696E2532 ADDRESS PUSH4 0x6C617373 PUSH10 0x63253230706978656C25 ORIGIN ADDRESS PUSH2 0x7274 0x25 ORIGIN ADDRESS PUSH20 0x74796C652532432532307375697461626C652532 ADDRESS PUSH7 0x6F722532302E77 PUSH6 0x627068747470 PUSH20 0x3A2F2F62616679626569687232766A36716D6935 PUSH4 0x72787761 CALLDATASIZE PUSH19 0x72716E7070766E726C673765376F646570376A PUSH24 0x78757534336268626D7074646F78712E697066732E773373 0x2E PUSH13 0x696E6B2F44414C4C2543322542 CALLDATACOPY GASLIMIT 0x25 ORIGIN ADDRESS ORIGIN ADDRESS ORIGIN CALLVALUE 0x2D BALANCE ADDRESS 0x2D ADDRESS ORIGIN 0x25 ORIGIN ADDRESS BALANCE CALLDATASIZE 0x2E ADDRESS CODESIZE 0x2E CALLVALUE CALLDATALOAD 0x25 ORIGIN ADDRESS 0x2D 0x25 ORIGIN ADDRESS POP PUSH10 0x78656C25323061727425 ORIGIN ADDRESS PUSH16 0x6625323061253230686F727365253243 0x25 ORIGIN ADDRESS PUSH19 0x6570726573656E74696E672532307468652532 ADDRESS NUMBER PUSH9 0x696E6573652532307A PUSH16 0x646961632E253230546865253230686F PUSH19 0x736525323073686F756C642532306265253230 PUSH5 0x697374696E PUSH4 0x74253243 0x25 ORIGIN ADDRESS PUSH23 0x696272616E74253243253230616E6425323073696D706C PUSH10 0x66696564253230696E25 ORIGIN ADDRESS PUSH4 0x6C617373 PUSH10 0x63253230706978656C25 ORIGIN ADDRESS PUSH2 0x7274 0x25 ORIGIN ADDRESS PUSH20 0x74796C652532432532307375697461626C652532 ADDRESS PUSH7 0x6F722532302E77 PUSH6 0x627068747470 PUSH20 0x3A2F2F62616679626569687232766A36716D6935 PUSH4 0x72787761 CALLDATASIZE PUSH19 0x72716E7070766E726C673765376F646570376A PUSH24 0x78757534336268626D7074646F78712E697066732E773373 0x2E PUSH13 0x696E6B2F44414C4C2543322542 CALLDATACOPY GASLIMIT 0x25 ORIGIN ADDRESS ORIGIN ADDRESS ORIGIN CALLVALUE 0x2D BALANCE ADDRESS 0x2D ADDRESS ORIGIN 0x25 ORIGIN ADDRESS BALANCE CALLDATASIZE 0x2E ADDRESS CODECOPY 0x2E CALLVALUE CALLVALUE 0x25 ORIGIN ADDRESS 0x2D 0x25 ORIGIN ADDRESS POP PUSH10 0x78656C25323061727425 ORIGIN ADDRESS PUSH16 0x66253230612532306D6F6E6B65792532 NUMBER 0x25 ORIGIN ADDRESS PUSH19 0x6570726573656E74696E672532307468652532 ADDRESS NUMBER PUSH9 0x696E6573652532307A PUSH16 0x646961632E2532305468652532306D6F PUSH15 0x6B657925323073686F756C64253230 PUSH3 0x652532 ADDRESS PUSH5 0x697374696E PUSH4 0x74253243 0x25 ORIGIN ADDRESS PUSH23 0x696272616E74253243253230616E6425323073696D706C PUSH10 0x66696564253230696E25 ORIGIN ADDRESS PUSH4 0x6C617373 PUSH10 0x63253230706978656C25 ORIGIN ADDRESS PUSH2 0x7274 0x25 ORIGIN ADDRESS PUSH20 0x74796C652532432532307375697461626C652532 ADDRESS PUSH7 0x6F2E7765627068 PUSH21 0x7470733A2F2F62616679626569687232766A36716D PUSH10 0x35637278776136727271 PUSH15 0x7070766E726C673765376F64657037 PUSH11 0x7778757534336268626D70 PUSH21 0x646F78712E697066732E7733732E6C696E6B2F4441 0x4C 0x4C 0x25 NUMBER ORIGIN 0x25 TIMESTAMP CALLDATACOPY GASLIMIT 0x25 ORIGIN ADDRESS ORIGIN ADDRESS ORIGIN CALLVALUE 0x2D BALANCE ADDRESS 0x2D ADDRESS ORIGIN 0x25 ORIGIN ADDRESS BALANCE CALLDATASIZE 0x2E ADDRESS CALLDATACOPY 0x2E ORIGIN BALANCE 0x25 ORIGIN ADDRESS 0x2D 0x25 ORIGIN ADDRESS POP PUSH10 0x78656C25323061727425 ORIGIN ADDRESS PUSH16 0x66253230612532307261626269742532 NUMBER 0x25 ORIGIN ADDRESS PUSH19 0x6570726573656E74696E672532307468652532 ADDRESS NUMBER PUSH9 0x696E6573652532307A PUSH16 0x646961632E2532305468652532307261 PUSH3 0x626974 0x25 ORIGIN ADDRESS PUSH20 0x686F756C64253230626525323064697374696E63 PUSH21 0x25324325323076696272616E74253243253230616E PUSH5 0x2532307369 PUSH14 0x706C6966696564253230696E2532 ADDRESS PUSH4 0x6C617373 PUSH10 0x63253230706978656C25 ORIGIN ADDRESS PUSH2 0x7274 0x25 ORIGIN ADDRESS PUSH20 0x74796C652532432532307375697461626C652532 ADDRESS PUSH7 0x6F2E7765627068 PUSH21 0x7470733A2F2F62616679626569687232766A36716D PUSH10 0x35637278776136727271 PUSH15 0x7070766E726C673765376F64657037 PUSH11 0x7778757534336268626D70 PUSH21 0x646F78712E697066732E7733732E6C696E6B2F4441 0x4C 0x4C 0x25 NUMBER ORIGIN 0x25 TIMESTAMP CALLDATACOPY GASLIMIT 0x25 ORIGIN ADDRESS ORIGIN ADDRESS ORIGIN CALLVALUE 0x2D BALANCE ADDRESS 0x2D ADDRESS ORIGIN 0x25 ORIGIN ADDRESS BALANCE CALLDATASIZE 0x2E ADDRESS CODECOPY 0x2E CALLDATALOAD ORIGIN 0x25 ORIGIN ADDRESS 0x2D 0x25 ORIGIN ADDRESS POP PUSH10 0x78656C25323061727425 ORIGIN ADDRESS PUSH16 0x6625323061253230726F6F7374657225 ORIGIN NUMBER 0x25 ORIGIN ADDRESS PUSH19 0x6570726573656E74696E672532307468652532 ADDRESS NUMBER PUSH9 0x696E6573652532307A PUSH16 0x646961632E253230546865253230726F PUSH16 0x7374657225323073686F756C64253230 PUSH3 0x652532 ADDRESS PUSH5 0x697374696E PUSH4 0x74253243 0x25 ORIGIN ADDRESS PUSH23 0x696272616E74253243253230616E6425323073696D706C PUSH10 0x66696564253230696E25 ORIGIN ADDRESS PUSH4 0x6C617373 PUSH10 0x63253230706978656C25 ORIGIN ADDRESS PUSH2 0x7274 0x25 ORIGIN ADDRESS PUSH20 0x74796C652532432532307375697461626C652532 ADDRESS 0x2E PUSH24 0x656270000000000000000000000000000000000000000000 "},"methodIdentifiers":{"MAX_SPECIAL_SUPPLY()":"ea1088b7","MINT_PRICE()":"c002d23d","approve(address,uint256)":"095ea7b3","balanceOf(address)":"70a08231","combineZodiac()":"38518d65","getApproved(uint256)":"081812fc","isApprovedForAll(address,address)":"e985e9c5","mint()":"1249c58b","name()":"06fdde03","ownerOf(uint256)":"6352211e","paused()":"5c975abb","safeTransferFrom(address,address,uint256)":"42842e0e","safeTransferFrom(address,address,uint256,bytes)":"b88d4fde","setApprovalForAll(address,bool)":"a22cb465","specialTokenIdCounter()":"7c9efa89","supportsInterface(bytes4)":"01ffc9a7","symbol()":"95d89b41","tokenIdCounter()":"98bdf6f5","tokenURI(uint256)":"c87b56dd","tokenZodiac(uint256)":"3fa1fc6e","transferFrom(address,address,uint256)":"23b872dd","userZodiacCollection(address,uint256)":"bad66d16"}}}}}