{"contracts/ZodiacNFT.sol":{"ZodiacNFT":{"abi":[{"inputs":[],"stateMutability":"nonpayable","type":"constructor"},{"anonymous":false,"inputs":[{"indexed":true,"internalType":"address","name":"owner","type":"address"},{"indexed":true,"internalType":"address","name":"approved","type":"address"},{"indexed":true,"internalType":"uint256","name":"tokenId","type":"uint256"}],"name":"Approval","type":"event"},{"anonymous":false,"inputs":[{"indexed":true,"internalType":"address","name":"owner","type":"address"},{"indexed":true,"internalType":"address","name":"operator","type":"address"},{"indexed":false,"internalType":"bool","name":"approved","type":"bool"}],"name":"ApprovalForAll","type":"event"},{"anonymous":false,"inputs":[{"indexed":true,"internalType":"bytes32","name":"role","type":"bytes32"},{"indexed":true,"internalType":"bytes32","name":"previousAdminRole","type":"bytes32"},{"indexed":true,"internalType":"bytes32","name":"newAdminRole","type":"bytes32"}],"name":"RoleAdminChanged","type":"event"},{"anonymous":false,"inputs":[{"indexed":true,"internalType":"bytes32","name":"role","type":"bytes32"},{"indexed":true,"internalType":"address","name":"account","type":"address"},{"indexed":true,"internalType":"address","name":"sender","type":"address"}],"name":"RoleGranted","type":"event"},{"anonymous":false,"inputs":[{"indexed":true,"internalType":"bytes32","name":"role","type":"bytes32"},{"indexed":true,"internalType":"address","name":"account","type":"address"},{"indexed":true,"internalType":"address","name":"sender","type":"address"}],"name":"RoleRevoked","type":"event"},{"anonymous":false,"inputs":[{"indexed":true,"internalType":"address","name":"from","type":"address"},{"indexed":true,"internalType":"address","name":"to","type":"address"},{"indexed":true,"internalType":"uint256","name":"tokenId","type":"uint256"}],"name":"Transfer","type":"event"},{"inputs":[],"name":"DEFAULT_ADMIN_ROLE","outputs":[{"internalType":"bytes32","name":"","type":"bytes32"}],"stateMutability":"view","type":"function"},{"inputs":[],"name":"MINTER_ROLE","outputs":[{"internalType":"bytes32","name":"","type":"bytes32"}],"stateMutability":"view","type":"function"},{"inputs":[{"internalType":"address","name":"to","type":"address"},{"internalType":"uint256","name":"tokenId","type":"uint256"}],"name":"approve","outputs":[],"stateMutability":"nonpayable","type":"function"},{"inputs":[{"internalType":"address","name":"owner","type":"address"}],"name":"balanceOf","outputs":[{"internalType":"uint256","name":"","type":"uint256"}],"stateMutability":"view","type":"function"},{"inputs":[{"internalType":"uint256","name":"tokenId","type":"uint256"}],"name":"burn","outputs":[],"stateMutability":"nonpayable","type":"function"},{"inputs":[{"internalType":"uint256","name":"tokenId","type":"uint256"}],"name":"getApproved","outputs":[{"internalType":"address","name":"","type":"address"}],"stateMutability":"view","type":"function"},{"inputs":[{"internalType":"bytes32","name":"role","type":"bytes32"}],"name":"getRoleAdmin","outputs":[{"internalType":"bytes32","name":"","type":"bytes32"}],"stateMutability":"view","type":"function"},{"inputs":[{"internalType":"bytes32","name":"role","type":"bytes32"},{"internalType":"address","name":"account","type":"address"}],"name":"grantRole","outputs":[],"stateMutability":"nonpayable","type":"function"},{"inputs":[{"internalType":"bytes32","name":"role","type":"bytes32"},{"internalType":"address","name":"account","type":"address"}],"name":"hasRole","outputs":[{"internalType":"bool","name":"","type":"bool"}],"stateMutability":"view","type":"function"},{"inputs":[{"internalType":"address","name":"owner","type":"address"},{"internalType":"address","name":"operator","type":"address"}],"name":"isApprovedForAll","outputs":[{"internalType":"bool","name":"","type":"bool"}],"stateMutability":"view","type":"function"},{"inputs":[],"name":"name","outputs":[{"internalType":"string","name":"","type":"string"}],"stateMutability":"view","type":"function"},{"inputs":[{"internalType":"uint256","name":"tokenId","type":"uint256"}],"name":"ownerOf","outputs":[{"internalType":"address","name":"","type":"address"}],"stateMutability":"view","type":"function"},{"inputs":[{"internalType":"bytes32","name":"role","type":"bytes32"},{"internalType":"address","name":"account","type":"address"}],"name":"renounceRole","outputs":[],"stateMutability":"nonpayable","type":"function"},{"inputs":[{"internalType":"bytes32","name":"role","type":"bytes32"},{"internalType":"address","name":"account","type":"address"}],"name":"revokeRole","outputs":[],"stateMutability":"nonpayable","type":"function"},{"inputs":[{"internalType":"address","name":"to","type":"address"},{"internalType":"uint256","name":"zodiacIndex","type":"uint256"}],"name":"safeMint","outputs":[{"internalType":"uint256","name":"","type":"uint256"}],"stateMutability":"nonpayable","type":"function"},{"inputs":[{"internalType":"address","name":"from","type":"address"},{"internalType":"address","name":"to","type":"address"},{"internalType":"uint256","name":"tokenId","type":"uint256"}],"name":"safeTransferFrom","outputs":[],"stateMutability":"nonpayable","type":"function"},{"inputs":[{"internalType":"address","name":"from","type":"address"},{"internalType":"address","name":"to","type":"address"},{"internalType":"uint256","name":"tokenId","type":"uint256"},{"internalType":"bytes","name":"data","type":"bytes"}],"name":"safeTransferFrom","outputs":[],"stateMutability":"nonpayable","type":"function"},{"inputs":[{"internalType":"address","name":"operator","type":"address"},{"internalType":"bool","name":"approved","type":"bool"}],"name":"setApprovalForAll","outputs":[],"stateMutability":"nonpayable","type":"function"},{"inputs":[{"internalType":"bytes4","name":"interfaceId","type":"bytes4"}],"name":"supportsInterface","outputs":[{"internalType":"bool","name":"","type":"bool"}],"stateMutability":"view","type":"function"},{"inputs":[],"name":"symbol","outputs":[{"internalType":"string","name":"","type":"string"}],"stateMutability":"view","type":"function"},{"inputs":[{"internalType":"uint256","name":"tokenId","type":"uint256"}],"name":"tokenURI","outputs":[{"internalType":"string","name":"","type":"string"}],"stateMutability":"view","type":"function"},{"inputs":[{"internalType":"uint256","name":"","type":"uint256"}],"name":"tokenZodiac","outputs":[{"internalType":"uint256","name":"","type":"uint256"}],"stateMutability":"view","type":"function"},{"inputs":[{"internalType":"address","name":"from","type":"address"},{"internalType":"address","name":"to","type":"address"},{"internalType":"uint256","name":"tokenId","type":"uint256"}],"name":"transferFrom","outputs":[],"stateMutability":"nonpayable","type":"function"}],"evm":{"bytecode":{"linkReferences":{},"object":"60806040526040518061018001604052806040518060400160405280600381526020017f526174000000000000000000000000000000000000000000000000000000000081525081526020016040518060400160405280600281526020017f4f7800000000000000000000000000000000000000000000000000000000000081525081526020016040518060400160405280600581526020017f546967657200000000000000000000000000000000000000000000000000000081525081526020016040518060400160405280600681526020017f526162626974000000000000000000000000000000000000000000000000000081525081526020016040518060400160405280600681526020017f447261676f6e000000000000000000000000000000000000000000000000000081525081526020016040518060400160405280600581526020017f536e616b6500000000000000000000000000000000000000000000000000000081525081526020016040518060400160405280600581526020017f486f72736500000000000000000000000000000000000000000000000000000081525081526020016040518060400160405280600481526020017f476f61740000000000000000000000000000000000000000000000000000000081525081526020016040518060400160405280600681526020017f4d6f6e6b6579000000000000000000000000000000000000000000000000000081525081526020016040518060400160405280600781526020017f526f6f737465720000000000000000000000000000000000000000000000000081525081526020016040518060400160405280600381526020017f446f67000000000000000000000000000000000000000000000000000000000081525081526020016040518060400160405280600381526020017f5069670000000000000000000000000000000000000000000000000000000000815250815250600990600c6102e29291906106f5565b5060405180610180016040528060405180610180016040528061015181526020016145da610151913981526020016040518061018001604052806101518152602001614c8f6101519139815260200160405180610180016040528061014f815260200161487861014f9139815260200160405180610180016040528061014d81526020016151cb61014d9139815260200160405180610180016040528061014d815260200161472b61014d9139815260200160405180610180016040528061014f8152602001614de061014f9139815260200160405180610180016040528061014f8152602001614f2f61014f9139815260200160405180610180016040528061014f815260200161448b61014f9139815260200160405180610180016040528061014d815260200161507e61014d9139815260200160405180610180016040528061014d815260200161531861014d913981526020016040518061018001604052806101518152602001614b186101519139815260200160405180610180016040528061015181526020016149c76101519139815250601590600c6104899291906106f5565b50604051806060016040528060268152602001614c6960269139602190816104b19190610a12565b503480156104be57600080fd5b506040518060400160405280600981526020017f5a6f646961634e465400000000000000000000000000000000000000000000008152506040518060400160405280600481526020017f5a4e465400000000000000000000000000000000000000000000000000000000815250816000908161053a9190610a12565b50806001908161054a9190610a12565b5050506105606000801b3361059560201b60201c565b6105907f9f2df0fed2c77648de5860a4cc508cd0818c85b8b8a1ab4ceeef8d981c8956a63361059560201b60201c565b610ae4565b6105a5828261068260201b60201c565b61067e5760016006600084815260200190815260200160002060000160008373ffffffffffffffffffffffffffffffffffffffff1673ffffffffffffffffffffffffffffffffffffffff16815260200190815260200160002060006101000a81548160ff0219169083151502179055506106236106ed60201b60201c565b73ffffffffffffffffffffffffffffffffffffffff168173ffffffffffffffffffffffffffffffffffffffff16837f2f8788117e7eff1d82e926ec794901d17c78024a50270940304540a733656f0d60405160405180910390a45b5050565b60006006600084815260200190815260200160002060000160008373ffffffffffffffffffffffffffffffffffffffff1673ffffffffffffffffffffffffffffffffffffffff16815260200190815260200160002060009054906101000a900460ff16905092915050565b600033905090565b82600c8101928215610730579160200282015b8281111561072f57825182908161071f9190610a12565b5091602001919060010190610708565b5b50905061073d9190610741565b5090565b5b8082111561076157600081816107589190610765565b50600101610742565b5090565b5080546107719061082b565b6000825580601f1061078357506107a2565b601f0160209004906000526020600020908101906107a191906107a5565b5b50565b5b808211156107be5760008160009055506001016107a6565b5090565b600081519050919050565b7f4e487b7100000000000000000000000000000000000000000000000000000000600052604160045260246000fd5b7f4e487b7100000000000000000000000000000000000000000000000000000000600052602260045260246000fd5b6000600282049050600182168061084357607f821691505b602082108103610856576108556107fc565b5b50919050565b60008190508160005260206000209050919050565b60006020601f8301049050919050565b600082821b905092915050565b6000600883026108be7fffffffffffffffffffffffffffffffffffffffffffffffffffffffffffffffff82610881565b6108c88683610881565b95508019841693508086168417925050509392505050565b6000819050919050565b6000819050919050565b600061090f61090a610905846108e0565b6108ea565b6108e0565b9050919050565b6000819050919050565b610929836108f4565b61093d61093582610916565b84845461088e565b825550505050565b600090565b610952610945565b61095d818484610920565b505050565b5b818110156109815761097660008261094a565b600181019050610963565b5050565b601f8211156109c6576109978161085c565b6109a084610871565b810160208510156109af578190505b6109c36109bb85610871565b830182610962565b50505b505050565b600082821c905092915050565b60006109e9600019846008026109cb565b1980831691505092915050565b6000610a0283836109d8565b9150826002028217905092915050565b610a1b826107c2565b67ffffffffffffffff811115610a3457610a336107cd565b5b610a3e825461082b565b610a49828285610985565b600060209050601f831160018114610a7c5760008415610a6a578287015190505b610a7485826109f6565b865550610adc565b601f198416610a8a8661085c565b60005b82811015610ab257848901518255600182019150602085019450602081019050610a8d565b86831015610acf5784890151610acb601f8916826109d8565b8355505b6001600288020188555050505b505050505050565b61399880610af36000396000f3fe608060405234801561001057600080fd5b506004361061014d5760003560e01c80636352211e116100c3578063a22cb4651161007c578063a22cb465146103d4578063b88d4fde146103f0578063c87b56dd1461040c578063d53913931461043c578063d547741f1461045a578063e985e9c5146104765761014d565b80636352211e146102d857806370a082311461030857806391d148541461033857806395d89b4114610368578063a144819414610386578063a217fddf146103b65761014d565b8063248a9ca311610115578063248a9ca3146102085780632f2ff15d1461023857806336568abe146102545780633fa1fc6e1461027057806342842e0e146102a057806342966c68146102bc5761014d565b806301ffc9a71461015257806306fdde0314610182578063081812fc146101a0578063095ea7b3146101d057806323b872dd146101ec575b600080fd5b61016c600480360381019061016791906125e4565b6104a6565b604051610179919061262c565b60405180910390f35b61018a6104b8565b60405161019791906126d7565b60405180910390f35b6101ba60048036038101906101b5919061272f565b61054a565b6040516101c7919061279d565b60405180910390f35b6101ea60048036038101906101e591906127e4565b610590565b005b61020660048036038101906102019190612824565b6106a7565b005b610222600480360381019061021d91906128ad565b610707565b60405161022f91906128e9565b60405180910390f35b610252600480360381019061024d9190612904565b610727565b005b61026e60048036038101906102699190612904565b610748565b005b61028a6004803603810190610285919061272f565b6107cb565b6040516102979190612953565b60405180910390f35b6102ba60048036038101906102b59190612824565b6107e3565b005b6102d660048036038101906102d1919061272f565b610803565b005b6102f260048036038101906102ed919061272f565b61085f565b6040516102ff919061279d565b60405180910390f35b610322600480360381019061031d919061296e565b6108e5565b60405161032f9190612953565b60405180910390f35b610352600480360381019061034d9190612904565b61099c565b60405161035f919061262c565b60405180910390f35b610370610a07565b60405161037d91906126d7565b60405180910390f35b6103a0600480360381019061039b91906127e4565b610a99565b6040516103ad9190612953565b60405180910390f35b6103be610b0a565b6040516103cb91906128e9565b60405180910390f35b6103ee60048036038101906103e991906129c7565b610b11565b005b61040a60048036038101906104059190612b3c565b610b27565b005b6104266004803603810190610421919061272f565b610b89565b60405161043391906126d7565b60405180910390f35b610444610e3b565b60405161045191906128e9565b60405180910390f35b610474600480360381019061046f9190612904565b610e5f565b005b610490600480360381019061048b9190612bbf565b610e80565b60405161049d919061262c565b60405180910390f35b60006104b182610f14565b9050919050565b6060600080546104c790612c2e565b80601f01602080910402602001604051908101604052809291908181526020018280546104f390612c2e565b80156105405780601f1061051557610100808354040283529160200191610540565b820191906000526020600020905b81548152906001019060200180831161052357829003601f168201915b5050505050905090565b600061055582610f8e565b6004600083815260200190815260200160002060009054906101000a900473ffffffffffffffffffffffffffffffffffffffff169050919050565b600061059b8261085f565b90508073ffffffffffffffffffffffffffffffffffffffff168373ffffffffffffffffffffffffffffffffffffffff160361060b576040517f08c379a000000000000000000000000000000000000000000000000000000000815260040161060290612cd1565b60405180910390fd5b8073ffffffffffffffffffffffffffffffffffffffff1661062a610fd9565b73ffffffffffffffffffffffffffffffffffffffff161480610659575061065881610653610fd9565b610e80565b5b610698576040517f08c379a000000000000000000000000000000000000000000000000000000000815260040161068f90612d63565b60405180910390fd5b6106a28383610fe1565b505050565b6106b86106b2610fd9565b8261109a565b6106f7576040517f08c379a00000000000000000000000000000000000000000000000000000000081526004016106ee90612df5565b60405180910390fd5b61070283838361112f565b505050565b600060066000838152602001908152602001600020600101549050919050565b61073082610707565b61073981611428565b610743838361143c565b505050565b610750610fd9565b73ffffffffffffffffffffffffffffffffffffffff168173ffffffffffffffffffffffffffffffffffffffff16146107bd576040517f08c379a00000000000000000000000000000000000000000000000000000000081526004016107b490612e87565b60405180910390fd5b6107c7828261151d565b5050565b60086020528060005260406000206000915090505481565b6107fe83838360405180602001604052806000815250610b27565b505050565b61081461080e610fd9565b8261109a565b610853576040517f08c379a000000000000000000000000000000000000000000000000000000000815260040161084a90612ef3565b60405180910390fd5b61085c816115ff565b50565b60008061086b8361174d565b9050600073ffffffffffffffffffffffffffffffffffffffff168173ffffffffffffffffffffffffffffffffffffffff16036108dc576040517f08c379a00000000000000000000000000000000000000000000000000000000081526004016108d390612f5f565b60405180910390fd5b80915050919050565b60008073ffffffffffffffffffffffffffffffffffffffff168273ffffffffffffffffffffffffffffffffffffffff1603610955576040517f08c379a000000000000000000000000000000000000000000000000000000000815260040161094c90612ff1565b60405180910390fd5b600360008373ffffffffffffffffffffffffffffffffffffffff1673ffffffffffffffffffffffffffffffffffffffff168152602001908152602001600020549050919050565b60006006600084815260200190815260200160002060000160008373ffffffffffffffffffffffffffffffffffffffff1673ffffffffffffffffffffffffffffffffffffffff16815260200190815260200160002060009054906101000a900460ff16905092915050565b606060018054610a1690612c2e565b80601f0160208091040260200160405190810160405280929190818152602001828054610a4290612c2e565b8015610a8f5780601f10610a6457610100808354040283529160200191610a8f565b820191906000526020600020905b815481529060010190602001808311610a7257829003601f168201915b5050505050905090565b60007f9f2df0fed2c77648de5860a4cc508cd0818c85b8b8a1ab4ceeef8d981c8956a6610ac581611428565b6000610ad1600761178a565b9050610add6007611798565b610ae785826117ae565b836008600083815260200190815260200160002081905550809250505092915050565b6000801b81565b610b23610b1c610fd9565b83836117cc565b5050565b610b38610b32610fd9565b8361109a565b610b77576040517f08c379a0000000000000000000000000000000000000000000000000000000008152600401610b6e90612df5565b60405180910390fd5b610b8384848484611938565b50505050565b6060610b9482610f8e565b606080600c600860008681526020019081526020016000205403610c7c5760218054610bbf90612c2e565b80601f0160208091040260200160405190810160405280929190818152602001828054610beb90612c2e565b8015610c385780601f10610c0d57610100808354040283529160200191610c38565b820191906000526020600020905b815481529060010190602001808311610c1b57829003601f168201915b505050505091506040518060400160405280601981526020017f4368696e657365205a6f6469616320436f6c6c656374696f6e000000000000008152509050610de3565b60156008600086815260200190815260200160002054600c8110610ca357610ca2613011565b5b018054610caf90612c2e565b80601f0160208091040260200160405190810160405280929190818152602001828054610cdb90612c2e565b8015610d285780601f10610cfd57610100808354040283529160200191610d28565b820191906000526020600020905b815481529060010190602001808311610d0b57829003601f168201915b5050505050915060096008600086815260200190815260200160002054600c8110610d5657610d55613011565b5b018054610d6290612c2e565b80601f0160208091040260200160405190810160405280929190818152602001828054610d8e90612c2e565b8015610ddb5780601f10610db057610100808354040283529160200191610ddb565b820191906000526020600020905b815481529060010190602001808311610dbe57829003601f168201915b505050505090505b6000610e0f8284604051602001610dfb929190613186565b604051602081830303815290604052611994565b905080604051602001610e229190613217565b6040516020818303038152906040529350505050919050565b7f9f2df0fed2c77648de5860a4cc508cd0818c85b8b8a1ab4ceeef8d981c8956a681565b610e6882610707565b610e7181611428565b610e7b838361151d565b505050565b6000600560008473ffffffffffffffffffffffffffffffffffffffff1673ffffffffffffffffffffffffffffffffffffffff16815260200190815260200160002060008373ffffffffffffffffffffffffffffffffffffffff1673ffffffffffffffffffffffffffffffffffffffff16815260200190815260200160002060009054906101000a900460ff16905092915050565b60007f7965db0b000000000000000000000000000000000000000000000000000000007bffffffffffffffffffffffffffffffffffffffffffffffffffffffff1916827bffffffffffffffffffffffffffffffffffffffffffffffffffffffff19161480610f875750610f8682611af7565b5b9050919050565b610f9781611bd9565b610fd6576040517f08c379a0000000000000000000000000000000000000000000000000000000008152600401610fcd90612f5f565b60405180910390fd5b50565b600033905090565b816004600083815260200190815260200160002060006101000a81548173ffffffffffffffffffffffffffffffffffffffff021916908373ffffffffffffffffffffffffffffffffffffffff160217905550808273ffffffffffffffffffffffffffffffffffffffff166110548361085f565b73ffffffffffffffffffffffffffffffffffffffff167f8c5be1e5ebec7d5bd14f71427d1e84f3dd0314c0f7b2291e5b200ac8c7c3b92560405160405180910390a45050565b6000806110a68361085f565b90508073ffffffffffffffffffffffffffffffffffffffff168473ffffffffffffffffffffffffffffffffffffffff1614806110e857506110e78185610e80565b5b8061112657508373ffffffffffffffffffffffffffffffffffffffff1661110e8461054a565b73ffffffffffffffffffffffffffffffffffffffff16145b91505092915050565b8273ffffffffffffffffffffffffffffffffffffffff1661114f8261085f565b73ffffffffffffffffffffffffffffffffffffffff16146111a5576040517f08c379a000000000000000000000000000000000000000000000000000000000815260040161119c906132ab565b60405180910390fd5b600073ffffffffffffffffffffffffffffffffffffffff168273ffffffffffffffffffffffffffffffffffffffff1603611214576040517f08c379a000000000000000000000000000000000000000000000000000000000815260040161120b9061333d565b60405180910390fd5b6112218383836001611c1a565b8273ffffffffffffffffffffffffffffffffffffffff166112418261085f565b73ffffffffffffffffffffffffffffffffffffffff1614611297576040517f08c379a000000000000000000000000000000000000000000000000000000000815260040161128e906132ab565b60405180910390fd5b6004600082815260200190815260200160002060006101000a81549073ffffffffffffffffffffffffffffffffffffffff02191690556001600360008573ffffffffffffffffffffffffffffffffffffffff1673ffffffffffffffffffffffffffffffffffffffff168152602001908152602001600020600082825403925050819055506001600360008473ffffffffffffffffffffffffffffffffffffffff1673ffffffffffffffffffffffffffffffffffffffff16815260200190815260200160002060008282540192505081905550816002600083815260200190815260200160002060006101000a81548173ffffffffffffffffffffffffffffffffffffffff021916908373ffffffffffffffffffffffffffffffffffffffff160217905550808273ffffffffffffffffffffffffffffffffffffffff168473ffffffffffffffffffffffffffffffffffffffff167fddf252ad1be2c89b69c2b068fc378daa952ba7f163c4a11628f55a4df523b3ef60405160405180910390a46114238383836001611cd2565b505050565b61143981611434610fd9565b611cd8565b50565b611446828261099c565b6115195760016006600084815260200190815260200160002060000160008373ffffffffffffffffffffffffffffffffffffffff1673ffffffffffffffffffffffffffffffffffffffff16815260200190815260200160002060006101000a81548160ff0219169083151502179055506114be610fd9565b73ffffffffffffffffffffffffffffffffffffffff168173ffffffffffffffffffffffffffffffffffffffff16837f2f8788117e7eff1d82e926ec794901d17c78024a50270940304540a733656f0d60405160405180910390a45b5050565b611527828261099c565b156115fb5760006006600084815260200190815260200160002060000160008373ffffffffffffffffffffffffffffffffffffffff1673ffffffffffffffffffffffffffffffffffffffff16815260200190815260200160002060006101000a81548160ff0219169083151502179055506115a0610fd9565b73ffffffffffffffffffffffffffffffffffffffff168173ffffffffffffffffffffffffffffffffffffffff16837ff6391f5c32d9c69d2a47ea670b442974b53935d1edc7fd64eb21e047a839171b60405160405180910390a45b5050565b600061160a8261085f565b905061161a816000846001611c1a565b6116238261085f565b90506004600083815260200190815260200160002060006101000a81549073ffffffffffffffffffffffffffffffffffffffff02191690556001600360008373ffffffffffffffffffffffffffffffffffffffff1673ffffffffffffffffffffffffffffffffffffffff168152602001908152602001600020600082825403925050819055506002600083815260200190815260200160002060006101000a81549073ffffffffffffffffffffffffffffffffffffffff021916905581600073ffffffffffffffffffffffffffffffffffffffff168273ffffffffffffffffffffffffffffffffffffffff167fddf252ad1be2c89b69c2b068fc378daa952ba7f163c4a11628f55a4df523b3ef60405160405180910390a4611749816000846001611cd2565b5050565b60006002600083815260200190815260200160002060009054906101000a900473ffffffffffffffffffffffffffffffffffffffff169050919050565b600081600001549050919050565b6001816000016000828254019250508190555050565b6117c8828260405180602001604052806000815250611d5d565b5050565b8173ffffffffffffffffffffffffffffffffffffffff168373ffffffffffffffffffffffffffffffffffffffff160361183a576040517f08c379a0000000000000000000000000000000000000000000000000000000008152600401611831906133a9565b60405180910390fd5b80600560008573ffffffffffffffffffffffffffffffffffffffff1673ffffffffffffffffffffffffffffffffffffffff16815260200190815260200160002060008473ffffffffffffffffffffffffffffffffffffffff1673ffffffffffffffffffffffffffffffffffffffff16815260200190815260200160002060006101000a81548160ff0219169083151502179055508173ffffffffffffffffffffffffffffffffffffffff168373ffffffffffffffffffffffffffffffffffffffff167f17307eab39ab6107e8899845ad3d59bd9653f200f220920489ca2b5937696c318360405161192b919061262c565b60405180910390a3505050565b61194384848461112f565b61194f84848484611db8565b61198e576040517f08c379a00000000000000000000000000000000000000000000000000000000081526004016119859061343b565b60405180910390fd5b50505050565b606060008251036119b657604051806020016040528060008152509050611af2565b600060405180606001604052806040815260200161392360409139905060006003600285516119e5919061348a565b6119ef91906134ed565b60046119fb919061351e565b67ffffffffffffffff811115611a1457611a13612a11565b5b6040519080825280601f01601f191660200182016040528015611a465781602001600182028036833780820191505090505b509050600182016020820185865187015b80821015611ab2576003820191508151603f8160121c168501518453600184019350603f81600c1c168501518453600184019350603f8160061c168501518453600184019350603f8116850151845360018401935050611a57565b5050600386510660018114611ace5760028114611ae157611ae9565b603d6001830353603d6002830353611ae9565b603d60018303535b50505080925050505b919050565b60007f80ac58cd000000000000000000000000000000000000000000000000000000007bffffffffffffffffffffffffffffffffffffffffffffffffffffffff1916827bffffffffffffffffffffffffffffffffffffffffffffffffffffffff19161480611bc257507f5b5e139f000000000000000000000000000000000000000000000000000000007bffffffffffffffffffffffffffffffffffffffffffffffffffffffff1916827bffffffffffffffffffffffffffffffffffffffffffffffffffffffff1916145b80611bd25750611bd182611f3f565b5b9050919050565b60008073ffffffffffffffffffffffffffffffffffffffff16611bfb8361174d565b73ffffffffffffffffffffffffffffffffffffffff1614159050919050565b611c2684848484611fa9565b600073ffffffffffffffffffffffffffffffffffffffff168473ffffffffffffffffffffffffffffffffffffffff161480611c8d5750600073ffffffffffffffffffffffffffffffffffffffff168373ffffffffffffffffffffffffffffffffffffffff16145b611ccc576040517f08c379a0000000000000000000000000000000000000000000000000000000008152600401611cc3906135ac565b60405180910390fd5b50505050565b50505050565b611ce2828261099c565b611d5957611cef816120cf565b611cfd8360001c60206120fc565b604051602001611d0e929190613664565b6040516020818303038152906040526040517f08c379a0000000000000000000000000000000000000000000000000000000008152600401611d5091906126d7565b60405180910390fd5b5050565b611d678383612338565b611d746000848484611db8565b611db3576040517f08c379a0000000000000000000000000000000000000000000000000000000008152600401611daa9061343b565b60405180910390fd5b505050565b6000611dd98473ffffffffffffffffffffffffffffffffffffffff16612555565b15611f32578373ffffffffffffffffffffffffffffffffffffffff1663150b7a02611e02610fd9565b8786866040518563ffffffff1660e01b8152600401611e2494939291906136f3565b6020604051808303816000875af1925050508015611e6057506040513d601f19601f82011682018060405250810190611e5d9190613754565b60015b611ee2573d8060008114611e90576040519150601f19603f3d011682016040523d82523d6000602084013e611e95565b606091505b506000815103611eda576040517f08c379a0000000000000000000000000000000000000000000000000000000008152600401611ed19061343b565b60405180910390fd5b805181602001fd5b63150b7a0260e01b7bffffffffffffffffffffffffffffffffffffffffffffffffffffffff1916817bffffffffffffffffffffffffffffffffffffffffffffffffffffffff191614915050611f37565b600190505b949350505050565b60007f01ffc9a7000000000000000000000000000000000000000000000000000000007bffffffffffffffffffffffffffffffffffffffffffffffffffffffff1916827bffffffffffffffffffffffffffffffffffffffffffffffffffffffff1916149050919050565b60018111156120c957600073ffffffffffffffffffffffffffffffffffffffff168473ffffffffffffffffffffffffffffffffffffffff161461203d5780600360008673ffffffffffffffffffffffffffffffffffffffff1673ffffffffffffffffffffffffffffffffffffffff16815260200190815260200160002060008282546120359190613781565b925050819055505b600073ffffffffffffffffffffffffffffffffffffffff168373ffffffffffffffffffffffffffffffffffffffff16146120c85780600360008573ffffffffffffffffffffffffffffffffffffffff1673ffffffffffffffffffffffffffffffffffffffff16815260200190815260200160002060008282546120c0919061348a565b925050819055505b5b50505050565b60606120f58273ffffffffffffffffffffffffffffffffffffffff16601460ff166120fc565b9050919050565b60606000600283600261210f919061351e565b612119919061348a565b67ffffffffffffffff81111561213257612131612a11565b5b6040519080825280601f01601f1916602001820160405280156121645781602001600182028036833780820191505090505b5090507f30000000000000000000000000000000000000000000000000000000000000008160008151811061219c5761219b613011565b5b60200101907effffffffffffffffffffffffffffffffffffffffffffffffffffffffffffff1916908160001a9053507f780000000000000000000000000000000000000000000000000000000000000081600181518110612200576121ff613011565b5b60200101907effffffffffffffffffffffffffffffffffffffffffffffffffffffffffffff1916908160001a90535060006001846002612240919061351e565b61224a919061348a565b90505b60018111156122ea577f3031323334353637383961626364656600000000000000000000000000000000600f86166010811061228c5761228b613011565b5b1a60f81b8282815181106122a3576122a2613011565b5b60200101907effffffffffffffffffffffffffffffffffffffffffffffffffffffffffffff1916908160001a905350600485901c9450806122e3906137b5565b905061224d565b506000841461232e576040517f08c379a00000000000000000000000000000000000000000000000000000000081526004016123259061382a565b60405180910390fd5b8091505092915050565b600073ffffffffffffffffffffffffffffffffffffffff168273ffffffffffffffffffffffffffffffffffffffff16036123a7576040517f08c379a000000000000000000000000000000000000000000000000000000000815260040161239e90613896565b60405180910390fd5b6123b081611bd9565b156123f0576040517f08c379a00000000000000000000000000000000000000000000000000000000081526004016123e790613902565b60405180910390fd5b6123fe600083836001611c1a565b61240781611bd9565b15612447576040517f08c379a000000000000000000000000000000000000000000000000000000000815260040161243e90613902565b60405180910390fd5b6001600360008473ffffffffffffffffffffffffffffffffffffffff1673ffffffffffffffffffffffffffffffffffffffff16815260200190815260200160002060008282540192505081905550816002600083815260200190815260200160002060006101000a81548173ffffffffffffffffffffffffffffffffffffffff021916908373ffffffffffffffffffffffffffffffffffffffff160217905550808273ffffffffffffffffffffffffffffffffffffffff16600073ffffffffffffffffffffffffffffffffffffffff167fddf252ad1be2c89b69c2b068fc378daa952ba7f163c4a11628f55a4df523b3ef60405160405180910390a4612551600083836001611cd2565b5050565b6000808273ffffffffffffffffffffffffffffffffffffffff163b119050919050565b6000604051905090565b600080fd5b600080fd5b60007fffffffff0000000000000000000000000000000000000000000000000000000082169050919050565b6125c18161258c565b81146125cc57600080fd5b50565b6000813590506125de816125b8565b92915050565b6000602082840312156125fa576125f9612582565b5b6000612608848285016125cf565b91505092915050565b60008115159050919050565b61262681612611565b82525050565b6000602082019050612641600083018461261d565b92915050565b600081519050919050565b600082825260208201905092915050565b60005b83811015612681578082015181840152602081019050612666565b60008484015250505050565b6000601f19601f8301169050919050565b60006126a982612647565b6126b38185612652565b93506126c3818560208601612663565b6126cc8161268d565b840191505092915050565b600060208201905081810360008301526126f1818461269e565b905092915050565b6000819050919050565b61270c816126f9565b811461271757600080fd5b50565b60008135905061272981612703565b92915050565b60006020828403121561274557612744612582565b5b60006127538482850161271a565b91505092915050565b600073ffffffffffffffffffffffffffffffffffffffff82169050919050565b60006127878261275c565b9050919050565b6127978161277c565b82525050565b60006020820190506127b2600083018461278e565b92915050565b6127c18161277c565b81146127cc57600080fd5b50565b6000813590506127de816127b8565b92915050565b600080604083850312156127fb576127fa612582565b5b6000612809858286016127cf565b925050602061281a8582860161271a565b9150509250929050565b60008060006060848603121561283d5761283c612582565b5b600061284b868287016127cf565b935050602061285c868287016127cf565b925050604061286d8682870161271a565b9150509250925092565b6000819050919050565b61288a81612877565b811461289557600080fd5b50565b6000813590506128a781612881565b92915050565b6000602082840312156128c3576128c2612582565b5b60006128d184828501612898565b91505092915050565b6128e381612877565b82525050565b60006020820190506128fe60008301846128da565b92915050565b6000806040838503121561291b5761291a612582565b5b600061292985828601612898565b925050602061293a858286016127cf565b9150509250929050565b61294d816126f9565b82525050565b60006020820190506129686000830184612944565b92915050565b60006020828403121561298457612983612582565b5b6000612992848285016127cf565b91505092915050565b6129a481612611565b81146129af57600080fd5b50565b6000813590506129c18161299b565b92915050565b600080604083850312156129de576129dd612582565b5b60006129ec858286016127cf565b92505060206129fd858286016129b2565b9150509250929050565b600080fd5b600080fd5b7f4e487b7100000000000000000000000000000000000000000000000000000000600052604160045260246000fd5b612a498261268d565b810181811067ffffffffffffffff82111715612a6857612a67612a11565b5b80604052505050565b6000612a7b612578565b9050612a878282612a40565b919050565b600067ffffffffffffffff821115612aa757612aa6612a11565b5b612ab08261268d565b9050602081019050919050565b82818337600083830152505050565b6000612adf612ada84612a8c565b612a71565b905082815260208101848484011115612afb57612afa612a0c565b5b612b06848285612abd565b509392505050565b600082601f830112612b2357612b22612a07565b5b8135612b33848260208601612acc565b91505092915050565b60008060008060808587031215612b5657612b55612582565b5b6000612b64878288016127cf565b9450506020612b75878288016127cf565b9350506040612b868782880161271a565b925050606085013567ffffffffffffffff811115612ba757612ba6612587565b5b612bb387828801612b0e565b91505092959194509250565b60008060408385031215612bd657612bd5612582565b5b6000612be4858286016127cf565b9250506020612bf5858286016127cf565b9150509250929050565b7f4e487b7100000000000000000000000000000000000000000000000000000000600052602260045260246000fd5b60006002820490506001821680612c4657607f821691505b602082108103612c5957612c58612bff565b5b50919050565b7f4552433732313a20617070726f76616c20746f2063757272656e74206f776e6560008201527f7200000000000000000000000000000000000000000000000000000000000000602082015250565b6000612cbb602183612652565b9150612cc682612c5f565b604082019050919050565b60006020820190508181036000830152612cea81612cae565b9050919050565b7f4552433732313a20617070726f76652063616c6c6572206973206e6f7420746f60008201527f6b656e206f776e6572206f7220617070726f76656420666f7220616c6c000000602082015250565b6000612d4d603d83612652565b9150612d5882612cf1565b604082019050919050565b60006020820190508181036000830152612d7c81612d40565b9050919050565b7f4552433732313a2063616c6c6572206973206e6f7420746f6b656e206f776e6560008201527f72206f7220617070726f76656400000000000000000000000000000000000000602082015250565b6000612ddf602d83612652565b9150612dea82612d83565b604082019050919050565b60006020820190508181036000830152612e0e81612dd2565b9050919050565b7f416363657373436f6e74726f6c3a2063616e206f6e6c792072656e6f756e636560008201527f20726f6c657320666f722073656c660000000000000000000000000000000000602082015250565b6000612e71602f83612652565b9150612e7c82612e15565b604082019050919050565b60006020820190508181036000830152612ea081612e64565b9050919050565b7f43616c6c6572206973206e6f74206f776e6572206e6f7220617070726f766564600082015250565b6000612edd602083612652565b9150612ee882612ea7565b602082019050919050565b60006020820190508181036000830152612f0c81612ed0565b9050919050565b7f4552433732313a20696e76616c696420746f6b656e2049440000000000000000600082015250565b6000612f49601883612652565b9150612f5482612f13565b602082019050919050565b60006020820190508181036000830152612f7881612f3c565b9050919050565b7f4552433732313a2061646472657373207a65726f206973206e6f74206120766160008201527f6c6964206f776e65720000000000000000000000000000000000000000000000602082015250565b6000612fdb602983612652565b9150612fe682612f7f565b604082019050919050565b6000602082019050818103600083015261300a81612fce565b9050919050565b7f4e487b7100000000000000000000000000000000000000000000000000000000600052603260045260246000fd5b600081905092915050565b7f7b226e616d65223a202200000000000000000000000000000000000000000000600082015250565b6000613081600a83613040565b915061308c8261304b565b600a82019050919050565b60006130a282612647565b6130ac8185613040565b93506130bc818560208601612663565b80840191505092915050565b7f222c20226465736372697074696f6e223a20224368696e657365205a6f64696160008201527f63204e4654222c2022696d616765223a20220000000000000000000000000000602082015250565b6000613124603283613040565b915061312f826130c8565b603282019050919050565b7f227d000000000000000000000000000000000000000000000000000000000000600082015250565b6000613170600283613040565b915061317b8261313a565b600282019050919050565b600061319182613074565b915061319d8285613097565b91506131a882613117565b91506131b48284613097565b91506131bf82613163565b91508190509392505050565b7f646174613a6170706c69636174696f6e2f6a736f6e3b6261736536342c000000600082015250565b6000613201601d83613040565b915061320c826131cb565b601d82019050919050565b6000613222826131f4565b915061322e8284613097565b915081905092915050565b7f4552433732313a207472616e736665722066726f6d20696e636f72726563742060008201527f6f776e6572000000000000000000000000000000000000000000000000000000602082015250565b6000613295602583612652565b91506132a082613239565b604082019050919050565b600060208201905081810360008301526132c481613288565b9050919050565b7f4552433732313a207472616e7366657220746f20746865207a65726f2061646460008201527f7265737300000000000000000000000000000000000000000000000000000000602082015250565b6000613327602483612652565b9150613332826132cb565b604082019050919050565b600060208201905081810360008301526133568161331a565b9050919050565b7f4552433732313a20617070726f766520746f2063616c6c657200000000000000600082015250565b6000613393601983612652565b915061339e8261335d565b602082019050919050565b600060208201905081810360008301526133c281613386565b9050919050565b7f4552433732313a207472616e7366657220746f206e6f6e20455243373231526560008201527f63656976657220696d706c656d656e7465720000000000000000000000000000602082015250565b6000613425603283612652565b9150613430826133c9565b604082019050919050565b6000602082019050818103600083015261345481613418565b9050919050565b7f4e487b7100000000000000000000000000000000000000000000000000000000600052601160045260246000fd5b6000613495826126f9565b91506134a0836126f9565b92508282019050808211156134b8576134b761345b565b5b92915050565b7f4e487b7100000000000000000000000000000000000000000000000000000000600052601260045260246000fd5b60006134f8826126f9565b9150613503836126f9565b925082613513576135126134be565b5b828204905092915050565b6000613529826126f9565b9150613534836126f9565b9250828202613542816126f9565b915082820484148315176135595761355861345b565b5b5092915050565b7f4e4654206973206e6f74207472616e7366657261626c65000000000000000000600082015250565b6000613596601783612652565b91506135a182613560565b602082019050919050565b600060208201905081810360008301526135c581613589565b9050919050565b7f416363657373436f6e74726f6c3a206163636f756e7420000000000000000000600082015250565b6000613602601783613040565b915061360d826135cc565b601782019050919050565b7f206973206d697373696e6720726f6c6520000000000000000000000000000000600082015250565b600061364e601183613040565b915061365982613618565b601182019050919050565b600061366f826135f5565b915061367b8285613097565b915061368682613641565b91506136928284613097565b91508190509392505050565b600081519050919050565b600082825260208201905092915050565b60006136c58261369e565b6136cf81856136a9565b93506136df818560208601612663565b6136e88161268d565b840191505092915050565b6000608082019050613708600083018761278e565b613715602083018661278e565b6137226040830185612944565b818103606083015261373481846136ba565b905095945050505050565b60008151905061374e816125b8565b92915050565b60006020828403121561376a57613769612582565b5b60006137788482850161373f565b91505092915050565b600061378c826126f9565b9150613797836126f9565b92508282039050818111156137af576137ae61345b565b5b92915050565b60006137c0826126f9565b9150600082036137d3576137d261345b565b5b600182039050919050565b7f537472696e67733a20686578206c656e67746820696e73756666696369656e74600082015250565b6000613814602083612652565b915061381f826137de565b602082019050919050565b6000602082019050818103600083015261384381613807565b9050919050565b7f4552433732313a206d696e7420746f20746865207a65726f2061646472657373600082015250565b6000613880602083612652565b915061388b8261384a565b602082019050919050565b600060208201905081810360008301526138af81613873565b9050919050565b7f4552433732313a20746f6b656e20616c7265616479206d696e74656400000000600082015250565b60006138ec601c83612652565b91506138f7826138b6565b602082019050919050565b6000602082019050818103600083015261391b816138df565b905091905056fe4142434445464748494a4b4c4d4e4f505152535455565758595a6162636465666768696a6b6c6d6e6f707172737475767778797a303132333435363738392b2fa26469706673582212206a709a76e360dc0f7876d5022f763d7d931c6d05138ff9b852692230dcc30b8d64736f6c634300081b003368747470733a2f2f62616679626569687232766a36716d69356372787761367272716e7070766e726c673765376f646570376a7778757534336268626d7074646f78712e697066732e7733732e6c696e6b2f44414c4c25433225423745253230323032342d31302d303225323031362e30392e30362532302d253230506978656c2532306172742532306f6625323061253230676f6174253243253230726570726573656e74696e672532307468652532304368696e6573652532307a6f646961632e253230546865253230676f617425323073686f756c64253230626525323064697374696e637425324325323076696272616e74253243253230616e6425323073696d706c6966696564253230696e253230636c6173736963253230706978656c2532306172742532307374796c652532432532307375697461626c65253230666f72253230616e2e7765627068747470733a2f2f62616679626569687232766a36716d69356372787761367272716e7070766e726c673765376f646570376a7778757534336268626d7074646f78712e697066732e7733732e6c696e6b2f44414c4c25433225423745253230323032342d31302d303225323031362e30342e33322532302d253230506978656c2532306172742532306f6625323061253230726174253243253230726570726573656e74696e672532307468652532304368696e6573652532307a6f646961632e25323054686525323072617425323073686f756c64253230626525323064697374696e637425324325323076696272616e74253243253230616e6425323073696d706c6966696564253230696e253230636c6173736963253230706978656c2532306172742532307374796c652532432532307375697461626c65253230666f72253230616e2532304e2e7765627068747470733a2f2f62616679626569687232766a36716d69356372787761367272716e7070766e726c673765376f646570376a7778757534336268626d7074646f78712e697066732e7733732e6c696e6b2f44414c4c25433225423745253230323032342d31302d303225323031362e30372e32382532302d253230506978656c2532306172742532306f6625323061253230647261676f6e253243253230726570726573656e74696e672532307468652532304368696e6573652532307a6f646961632e253230546865253230647261676f6e25323073686f756c64253230626525323064697374696e637425324325323076696272616e74253243253230616e6425323073696d706c6966696564253230696e253230636c6173736963253230706978656c2532306172742532307374796c652532432532307375697461626c65253230666f2e7765627068747470733a2f2f62616679626569687232766a36716d69356372787761367272716e7070766e726c673765376f646570376a7778757534336268626d7074646f78712e697066732e7733732e6c696e6b2f44414c4c25433225423745253230323032342d31302d303225323031362e30342e33382532302d253230506978656c2532306172742532306f66253230612532307469676572253243253230726570726573656e74696e672532307468652532304368696e6573652532307a6f646961632e253230546865253230746967657225323073686f756c64253230626525323064697374696e637425324325323076696272616e74253243253230616e6425323073696d706c6966696564253230696e253230636c6173736963253230706978656c2532306172742532307374796c652532432532307375697461626c65253230666f722532302e7765627068747470733a2f2f62616679626569687232766a36716d69356372787761367272716e7070766e726c673765376f646570376a7778757534336268626d7074646f78712e697066732e7733732e6c696e6b2f44414c4c25433225423745253230323032342d31302d303225323031362e31302e31332532302d253230506978656c2532306172742532306f6625323061253230706967253243253230726570726573656e74696e672532307468652532304368696e6573652532307a6f646961632e25323054686525323070696725323073686f756c64253230626525323064697374696e637425324325323076696272616e74253243253230616e6425323073696d706c6966696564253230696e253230636c6173736963253230706978656c2532306172742532307374796c652532432532307375697461626c65253230666f72253230616e2532304e2e7765627068747470733a2f2f62616679626569687232766a36716d69356372787761367272716e7070766e726c673765376f646570376a7778757534336268626d7074646f78712e697066732e7733732e6c696e6b2f44414c4c25433225423745253230323032342d31302d303225323031362e31302e30322532302d253230506978656c2532306172742532306f6625323061253230646f67253243253230726570726573656e74696e672532307468652532304368696e6573652532307a6f646961632e253230546865253230646f6725323073686f756c64253230626525323064697374696e637425324325323076696272616e74253243253230616e6425323073696d706c6966696564253230696e253230636c6173736963253230706978656c2532306172742532307374796c652532432532307375697461626c65253230666f72253230616e2532304e2e7765627068747470733a2f2f6578616d706c652e636f6d2f636f6d62696e65642d696d6167652e6a706768747470733a2f2f62616679626569687232766a36716d69356372787761367272716e7070766e726c673765376f646570376a7778757534336268626d7074646f78712e697066732e7733732e6c696e6b2f44414c4c25433225423745253230323032342d31302d303225323031362e30342e33362532302d253230506978656c2532306172742532306f66253230616e2532306f78253243253230726570726573656e74696e672532307468652532304368696e6573652532307a6f646961632e2532305468652532306f7825323073686f756c64253230626525323064697374696e637425324325323076696272616e74253243253230616e6425323073696d706c6966696564253230696e253230636c6173736963253230706978656c2532306172742532307374796c652532432532307375697461626c65253230666f72253230616e2532304e462e7765627068747470733a2f2f62616679626569687232766a36716d69356372787761367272716e7070766e726c673765376f646570376a7778757534336268626d7074646f78712e697066732e7733732e6c696e6b2f44414c4c25433225423745253230323032342d31302d303225323031362e30382e34312532302d253230506978656c2532306172742532306f6625323061253230736e616b65253243253230726570726573656e74696e672532307468652532304368696e6573652532307a6f646961632e253230546865253230736e616b6525323073686f756c64253230626525323064697374696e637425324325323076696272616e74253243253230616e6425323073696d706c6966696564253230696e253230636c6173736963253230706978656c2532306172742532307374796c652532432532307375697461626c65253230666f722532302e7765627068747470733a2f2f62616679626569687232766a36716d69356372787761367272716e7070766e726c673765376f646570376a7778757534336268626d7074646f78712e697066732e7733732e6c696e6b2f44414c4c25433225423745253230323032342d31302d303225323031362e30382e34352532302d253230506978656c2532306172742532306f6625323061253230686f727365253243253230726570726573656e74696e672532307468652532304368696e6573652532307a6f646961632e253230546865253230686f72736525323073686f756c64253230626525323064697374696e637425324325323076696272616e74253243253230616e6425323073696d706c6966696564253230696e253230636c6173736963253230706978656c2532306172742532307374796c652532432532307375697461626c65253230666f722532302e7765627068747470733a2f2f62616679626569687232766a36716d69356372787761367272716e7070766e726c673765376f646570376a7778757534336268626d7074646f78712e697066732e7733732e6c696e6b2f44414c4c25433225423745253230323032342d31302d303225323031362e30392e34342532302d253230506978656c2532306172742532306f66253230612532306d6f6e6b6579253243253230726570726573656e74696e672532307468652532304368696e6573652532307a6f646961632e2532305468652532306d6f6e6b657925323073686f756c64253230626525323064697374696e637425324325323076696272616e74253243253230616e6425323073696d706c6966696564253230696e253230636c6173736963253230706978656c2532306172742532307374796c652532432532307375697461626c65253230666f2e7765627068747470733a2f2f62616679626569687232766a36716d69356372787761367272716e7070766e726c673765376f646570376a7778757534336268626d7074646f78712e697066732e7733732e6c696e6b2f44414c4c25433225423745253230323032342d31302d303225323031362e30372e32312532302d253230506978656c2532306172742532306f6625323061253230726162626974253243253230726570726573656e74696e672532307468652532304368696e6573652532307a6f646961632e25323054686525323072616262697425323073686f756c64253230626525323064697374696e637425324325323076696272616e74253243253230616e6425323073696d706c6966696564253230696e253230636c6173736963253230706978656c2532306172742532307374796c652532432532307375697461626c65253230666f2e7765627068747470733a2f2f62616679626569687232766a36716d69356372787761367272716e7070766e726c673765376f646570376a7778757534336268626d7074646f78712e697066732e7733732e6c696e6b2f44414c4c25433225423745253230323032342d31302d303225323031362e30392e35322532302d253230506978656c2532306172742532306f6625323061253230726f6f73746572253243253230726570726573656e74696e672532307468652532304368696e6573652532307a6f646961632e253230546865253230726f6f7374657225323073686f756c64253230626525323064697374696e637425324325323076696272616e74253243253230616e6425323073696d706c6966696564253230696e253230636c6173736963253230706978656c2532306172742532307374796c652532432532307375697461626c652532302e77656270","opcodes":"PUSH1 0x80 PUSH1 0x40 MSTORE PUSH1 0x40 MLOAD DUP1 PUSH2 0x180 ADD PUSH1 0x40 MSTORE DUP1 PUSH1 0x40 MLOAD DUP1 PUSH1 0x40 ADD PUSH1 0x40 MSTORE DUP1 PUSH1 0x3 DUP2 MSTORE PUSH1 0x20 ADD PUSH32 0x5261740000000000000000000000000000000000000000000000000000000000 DUP2 MSTORE POP DUP2 MSTORE PUSH1 0x20 ADD PUSH1 0x40 MLOAD DUP1 PUSH1 0x40 ADD PUSH1 0x40 MSTORE DUP1 PUSH1 0x2 DUP2 MSTORE PUSH1 0x20 ADD PUSH32 0x4F78000000000000000000000000000000000000000000000000000000000000 DUP2 MSTORE POP DUP2 MSTORE PUSH1 0x20 ADD PUSH1 0x40 MLOAD DUP1 PUSH1 0x40 ADD PUSH1 0x40 MSTORE DUP1 PUSH1 0x5 DUP2 MSTORE PUSH1 0x20 ADD PUSH32 0x5469676572000000000000000000000000000000000000000000000000000000 DUP2 MSTORE POP DUP2 MSTORE PUSH1 0x20 ADD PUSH1 0x40 MLOAD DUP1 PUSH1 0x40 ADD PUSH1 0x40 MSTORE DUP1 PUSH1 0x6 DUP2 MSTORE PUSH1 0x20 ADD PUSH32 0x5261626269740000000000000000000000000000000000000000000000000000 DUP2 MSTORE POP DUP2 MSTORE PUSH1 0x20 ADD PUSH1 0x40 MLOAD DUP1 PUSH1 0x40 ADD PUSH1 0x40 MSTORE DUP1 PUSH1 0x6 DUP2 MSTORE PUSH1 0x20 ADD PUSH32 0x447261676F6E0000000000000000000000000000000000000000000000000000 DUP2 MSTORE POP DUP2 MSTORE PUSH1 0x20 ADD PUSH1 0x40 MLOAD DUP1 PUSH1 0x40 ADD PUSH1 0x40 MSTORE DUP1 PUSH1 0x5 DUP2 MSTORE PUSH1 0x20 ADD PUSH32 0x536E616B65000000000000000000000000000000000000000000000000000000 DUP2 MSTORE POP DUP2 MSTORE PUSH1 0x20 ADD PUSH1 0x40 MLOAD DUP1 PUSH1 0x40 ADD PUSH1 0x40 MSTORE DUP1 PUSH1 0x5 DUP2 MSTORE PUSH1 0x20 ADD PUSH32 0x486F727365000000000000000000000000000000000000000000000000000000 DUP2 MSTORE POP DUP2 MSTORE PUSH1 0x20 ADD PUSH1 0x40 MLOAD DUP1 PUSH1 0x40 ADD PUSH1 0x40 MSTORE DUP1 PUSH1 0x4 DUP2 MSTORE PUSH1 0x20 ADD PUSH32 0x476F617400000000000000000000000000000000000000000000000000000000 DUP2 MSTORE POP DUP2 MSTORE PUSH1 0x20 ADD PUSH1 0x40 MLOAD DUP1 PUSH1 0x40 ADD PUSH1 0x40 MSTORE DUP1 PUSH1 0x6 DUP2 MSTORE PUSH1 0x20 ADD PUSH32 0x4D6F6E6B65790000000000000000000000000000000000000000000000000000 DUP2 MSTORE POP DUP2 MSTORE PUSH1 0x20 ADD PUSH1 0x40 MLOAD DUP1 PUSH1 0x40 ADD PUSH1 0x40 MSTORE DUP1 PUSH1 0x7 DUP2 MSTORE PUSH1 0x20 ADD PUSH32 0x526F6F7374657200000000000000000000000000000000000000000000000000 DUP2 MSTORE POP DUP2 MSTORE PUSH1 0x20 ADD PUSH1 0x40 MLOAD DUP1 PUSH1 0x40 ADD PUSH1 0x40 MSTORE DUP1 PUSH1 0x3 DUP2 MSTORE PUSH1 0x20 ADD PUSH32 0x446F670000000000000000000000000000000000000000000000000000000000 DUP2 MSTORE POP DUP2 MSTORE PUSH1 0x20 ADD PUSH1 0x40 MLOAD DUP1 PUSH1 0x40 ADD PUSH1 0x40 MSTORE DUP1 PUSH1 0x3 DUP2 MSTORE PUSH1 0x20 ADD PUSH32 0x5069670000000000000000000000000000000000000000000000000000000000 DUP2 MSTORE POP DUP2 MSTORE POP PUSH1 0x9 SWAP1 PUSH1 0xC PUSH2 0x2E2 SWAP3 SWAP2 SWAP1 PUSH2 0x6F5 JUMP JUMPDEST POP PUSH1 0x40 MLOAD DUP1 PUSH2 0x180 ADD PUSH1 0x40 MSTORE DUP1 PUSH1 0x40 MLOAD DUP1 PUSH2 0x180 ADD PUSH1 0x40 MSTORE DUP1 PUSH2 0x151 DUP2 MSTORE PUSH1 0x20 ADD PUSH2 0x45DA PUSH2 0x151 SWAP2 CODECOPY DUP2 MSTORE PUSH1 0x20 ADD PUSH1 0x40 MLOAD DUP1 PUSH2 0x180 ADD PUSH1 0x40 MSTORE DUP1 PUSH2 0x151 DUP2 MSTORE PUSH1 0x20 ADD PUSH2 0x4C8F PUSH2 0x151 SWAP2 CODECOPY DUP2 MSTORE PUSH1 0x20 ADD PUSH1 0x40 MLOAD DUP1 PUSH2 0x180 ADD PUSH1 0x40 MSTORE DUP1 PUSH2 0x14F DUP2 MSTORE PUSH1 0x20 ADD PUSH2 0x4878 PUSH2 0x14F SWAP2 CODECOPY DUP2 MSTORE PUSH1 0x20 ADD PUSH1 0x40 MLOAD DUP1 PUSH2 0x180 ADD PUSH1 0x40 MSTORE DUP1 PUSH2 0x14D DUP2 MSTORE PUSH1 0x20 ADD PUSH2 0x51CB PUSH2 0x14D SWAP2 CODECOPY DUP2 MSTORE PUSH1 0x20 ADD PUSH1 0x40 MLOAD DUP1 PUSH2 0x180 ADD PUSH1 0x40 MSTORE DUP1 PUSH2 0x14D DUP2 MSTORE PUSH1 0x20 ADD PUSH2 0x472B PUSH2 0x14D SWAP2 CODECOPY DUP2 MSTORE PUSH1 0x20 ADD PUSH1 0x40 MLOAD DUP1 PUSH2 0x180 ADD PUSH1 0x40 MSTORE DUP1 PUSH2 0x14F DUP2 MSTORE PUSH1 0x20 ADD PUSH2 0x4DE0 PUSH2 0x14F SWAP2 CODECOPY DUP2 MSTORE PUSH1 0x20 ADD PUSH1 0x40 MLOAD DUP1 PUSH2 0x180 ADD PUSH1 0x40 MSTORE DUP1 PUSH2 0x14F DUP2 MSTORE PUSH1 0x20 ADD PUSH2 0x4F2F PUSH2 0x14F SWAP2 CODECOPY DUP2 MSTORE PUSH1 0x20 ADD PUSH1 0x40 MLOAD DUP1 PUSH2 0x180 ADD PUSH1 0x40 MSTORE DUP1 PUSH2 0x14F DUP2 MSTORE PUSH1 0x20 ADD PUSH2 0x448B PUSH2 0x14F SWAP2 CODECOPY DUP2 MSTORE PUSH1 0x20 ADD PUSH1 0x40 MLOAD DUP1 PUSH2 0x180 ADD PUSH1 0x40 MSTORE DUP1 PUSH2 0x14D DUP2 MSTORE PUSH1 0x20 ADD PUSH2 0x507E PUSH2 0x14D SWAP2 CODECOPY DUP2 MSTORE PUSH1 0x20 ADD PUSH1 0x40 MLOAD DUP1 PUSH2 0x180 ADD PUSH1 0x40 MSTORE DUP1 PUSH2 0x14D DUP2 MSTORE PUSH1 0x20 ADD PUSH2 0x5318 PUSH2 0x14D SWAP2 CODECOPY DUP2 MSTORE PUSH1 0x20 ADD PUSH1 0x40 MLOAD DUP1 PUSH2 0x180 ADD PUSH1 0x40 MSTORE DUP1 PUSH2 0x151 DUP2 MSTORE PUSH1 0x20 ADD PUSH2 0x4B18 PUSH2 0x151 SWAP2 CODECOPY DUP2 MSTORE PUSH1 0x20 ADD PUSH1 0x40 MLOAD DUP1 PUSH2 0x180 ADD PUSH1 0x40 MSTORE DUP1 PUSH2 0x151 DUP2 MSTORE PUSH1 0x20 ADD PUSH2 0x49C7 PUSH2 0x151 SWAP2 CODECOPY DUP2 MSTORE POP PUSH1 0x15 SWAP1 PUSH1 0xC PUSH2 0x489 SWAP3 SWAP2 SWAP1 PUSH2 0x6F5 JUMP JUMPDEST POP PUSH1 0x40 MLOAD DUP1 PUSH1 0x60 ADD PUSH1 0x40 MSTORE DUP1 PUSH1 0x26 DUP2 MSTORE PUSH1 0x20 ADD PUSH2 0x4C69 PUSH1 0x26 SWAP2 CODECOPY PUSH1 0x21 SWAP1 DUP2 PUSH2 0x4B1 SWAP2 SWAP1 PUSH2 0xA12 JUMP JUMPDEST POP CALLVALUE DUP1 ISZERO PUSH2 0x4BE JUMPI PUSH1 0x0 DUP1 REVERT JUMPDEST POP PUSH1 0x40 MLOAD DUP1 PUSH1 0x40 ADD PUSH1 0x40 MSTORE DUP1 PUSH1 0x9 DUP2 MSTORE PUSH1 0x20 ADD PUSH32 0x5A6F646961634E46540000000000000000000000000000000000000000000000 DUP2 MSTORE POP PUSH1 0x40 MLOAD DUP1 PUSH1 0x40 ADD PUSH1 0x40 MSTORE DUP1 PUSH1 0x4 DUP2 MSTORE PUSH1 0x20 ADD PUSH32 0x5A4E465400000000000000000000000000000000000000000000000000000000 DUP2 MSTORE POP DUP2 PUSH1 0x0 SWAP1 DUP2 PUSH2 0x53A SWAP2 SWAP1 PUSH2 0xA12 JUMP JUMPDEST POP DUP1 PUSH1 0x1 SWAP1 DUP2 PUSH2 0x54A SWAP2 SWAP1 PUSH2 0xA12 JUMP JUMPDEST POP POP POP PUSH2 0x560 PUSH1 0x0 DUP1 SHL CALLER PUSH2 0x595 PUSH1 0x20 SHL PUSH1 0x20 SHR JUMP JUMPDEST PUSH2 0x590 PUSH32 0x9F2DF0FED2C77648DE5860A4CC508CD0818C85B8B8A1AB4CEEEF8D981C8956A6 CALLER PUSH2 0x595 PUSH1 0x20 SHL PUSH1 0x20 SHR JUMP JUMPDEST PUSH2 0xAE4 JUMP JUMPDEST PUSH2 0x5A5 DUP3 DUP3 PUSH2 0x682 PUSH1 0x20 SHL PUSH1 0x20 SHR JUMP JUMPDEST PUSH2 0x67E JUMPI PUSH1 0x1 PUSH1 0x6 PUSH1 0x0 DUP5 DUP2 MSTORE PUSH1 0x20 ADD SWAP1 DUP2 MSTORE PUSH1 0x20 ADD PUSH1 0x0 KECCAK256 PUSH1 0x0 ADD PUSH1 0x0 DUP4 PUSH20 0xFFFFFFFFFFFFFFFFFFFFFFFFFFFFFFFFFFFFFFFF AND PUSH20 0xFFFFFFFFFFFFFFFFFFFFFFFFFFFFFFFFFFFFFFFF AND DUP2 MSTORE PUSH1 0x20 ADD SWAP1 DUP2 MSTORE PUSH1 0x20 ADD PUSH1 0x0 KECCAK256 PUSH1 0x0 PUSH2 0x100 EXP DUP2 SLOAD DUP2 PUSH1 0xFF MUL NOT AND SWAP1 DUP4 ISZERO ISZERO MUL OR SWAP1 SSTORE POP PUSH2 0x623 PUSH2 0x6ED PUSH1 0x20 SHL PUSH1 0x20 SHR JUMP JUMPDEST PUSH20 0xFFFFFFFFFFFFFFFFFFFFFFFFFFFFFFFFFFFFFFFF AND DUP2 PUSH20 0xFFFFFFFFFFFFFFFFFFFFFFFFFFFFFFFFFFFFFFFF AND DUP4 PUSH32 0x2F8788117E7EFF1D82E926EC794901D17C78024A50270940304540A733656F0D PUSH1 0x40 MLOAD PUSH1 0x40 MLOAD DUP1 SWAP2 SUB SWAP1 LOG4 JUMPDEST POP POP JUMP JUMPDEST PUSH1 0x0 PUSH1 0x6 PUSH1 0x0 DUP5 DUP2 MSTORE PUSH1 0x20 ADD SWAP1 DUP2 MSTORE PUSH1 0x20 ADD PUSH1 0x0 KECCAK256 PUSH1 0x0 ADD PUSH1 0x0 DUP4 PUSH20 0xFFFFFFFFFFFFFFFFFFFFFFFFFFFFFFFFFFFFFFFF AND PUSH20 0xFFFFFFFFFFFFFFFFFFFFFFFFFFFFFFFFFFFFFFFF AND DUP2 MSTORE PUSH1 0x20 ADD SWAP1 DUP2 MSTORE PUSH1 0x20 ADD PUSH1 0x0 KECCAK256 PUSH1 0x0 SWAP1 SLOAD SWAP1 PUSH2 0x100 EXP SWAP1 DIV PUSH1 0xFF AND SWAP1 POP SWAP3 SWAP2 POP POP JUMP JUMPDEST PUSH1 0x0 CALLER SWAP1 POP SWAP1 JUMP JUMPDEST DUP3 PUSH1 0xC DUP2 ADD SWAP3 DUP3 ISZERO PUSH2 0x730 JUMPI SWAP2 PUSH1 0x20 MUL DUP3 ADD JUMPDEST DUP3 DUP2 GT ISZERO PUSH2 0x72F JUMPI DUP3 MLOAD DUP3 SWAP1 DUP2 PUSH2 0x71F SWAP2 SWAP1 PUSH2 0xA12 JUMP JUMPDEST POP SWAP2 PUSH1 0x20 ADD SWAP2 SWAP1 PUSH1 0x1 ADD SWAP1 PUSH2 0x708 JUMP JUMPDEST JUMPDEST POP SWAP1 POP PUSH2 0x73D SWAP2 SWAP1 PUSH2 0x741 JUMP JUMPDEST POP SWAP1 JUMP JUMPDEST JUMPDEST DUP1 DUP3 GT ISZERO PUSH2 0x761 JUMPI PUSH1 0x0 DUP2 DUP2 PUSH2 0x758 SWAP2 SWAP1 PUSH2 0x765 JUMP JUMPDEST POP PUSH1 0x1 ADD PUSH2 0x742 JUMP JUMPDEST POP SWAP1 JUMP JUMPDEST POP DUP1 SLOAD PUSH2 0x771 SWAP1 PUSH2 0x82B JUMP JUMPDEST PUSH1 0x0 DUP3 SSTORE DUP1 PUSH1 0x1F LT PUSH2 0x783 JUMPI POP PUSH2 0x7A2 JUMP JUMPDEST PUSH1 0x1F ADD PUSH1 0x20 SWAP1 DIV SWAP1 PUSH1 0x0 MSTORE PUSH1 0x20 PUSH1 0x0 KECCAK256 SWAP1 DUP2 ADD SWAP1 PUSH2 0x7A1 SWAP2 SWAP1 PUSH2 0x7A5 JUMP JUMPDEST JUMPDEST POP JUMP JUMPDEST JUMPDEST DUP1 DUP3 GT ISZERO PUSH2 0x7BE JUMPI PUSH1 0x0 DUP2 PUSH1 0x0 SWAP1 SSTORE POP PUSH1 0x1 ADD PUSH2 0x7A6 JUMP JUMPDEST POP SWAP1 JUMP JUMPDEST PUSH1 0x0 DUP2 MLOAD SWAP1 POP SWAP2 SWAP1 POP JUMP JUMPDEST PUSH32 0x4E487B7100000000000000000000000000000000000000000000000000000000 PUSH1 0x0 MSTORE PUSH1 0x41 PUSH1 0x4 MSTORE PUSH1 0x24 PUSH1 0x0 REVERT JUMPDEST PUSH32 0x4E487B7100000000000000000000000000000000000000000000000000000000 PUSH1 0x0 MSTORE PUSH1 0x22 PUSH1 0x4 MSTORE PUSH1 0x24 PUSH1 0x0 REVERT JUMPDEST PUSH1 0x0 PUSH1 0x2 DUP3 DIV SWAP1 POP PUSH1 0x1 DUP3 AND DUP1 PUSH2 0x843 JUMPI PUSH1 0x7F DUP3 AND SWAP2 POP JUMPDEST PUSH1 0x20 DUP3 LT DUP2 SUB PUSH2 0x856 JUMPI PUSH2 0x855 PUSH2 0x7FC JUMP JUMPDEST JUMPDEST POP SWAP2 SWAP1 POP JUMP JUMPDEST PUSH1 0x0 DUP2 SWAP1 POP DUP2 PUSH1 0x0 MSTORE PUSH1 0x20 PUSH1 0x0 KECCAK256 SWAP1 POP SWAP2 SWAP1 POP JUMP JUMPDEST PUSH1 0x0 PUSH1 0x20 PUSH1 0x1F DUP4 ADD DIV SWAP1 POP SWAP2 SWAP1 POP JUMP JUMPDEST PUSH1 0x0 DUP3 DUP3 SHL SWAP1 POP SWAP3 SWAP2 POP POP JUMP JUMPDEST PUSH1 0x0 PUSH1 0x8 DUP4 MUL PUSH2 0x8BE PUSH32 0xFFFFFFFFFFFFFFFFFFFFFFFFFFFFFFFFFFFFFFFFFFFFFFFFFFFFFFFFFFFFFFFF DUP3 PUSH2 0x881 JUMP JUMPDEST PUSH2 0x8C8 DUP7 DUP4 PUSH2 0x881 JUMP JUMPDEST SWAP6 POP DUP1 NOT DUP5 AND SWAP4 POP DUP1 DUP7 AND DUP5 OR SWAP3 POP POP POP SWAP4 SWAP3 POP POP POP JUMP JUMPDEST PUSH1 0x0 DUP2 SWAP1 POP SWAP2 SWAP1 POP JUMP JUMPDEST PUSH1 0x0 DUP2 SWAP1 POP SWAP2 SWAP1 POP JUMP JUMPDEST PUSH1 0x0 PUSH2 0x90F PUSH2 0x90A PUSH2 0x905 DUP5 PUSH2 0x8E0 JUMP JUMPDEST PUSH2 0x8EA JUMP JUMPDEST PUSH2 0x8E0 JUMP JUMPDEST SWAP1 POP SWAP2 SWAP1 POP JUMP JUMPDEST PUSH1 0x0 DUP2 SWAP1 POP SWAP2 SWAP1 POP JUMP JUMPDEST PUSH2 0x929 DUP4 PUSH2 0x8F4 JUMP JUMPDEST PUSH2 0x93D PUSH2 0x935 DUP3 PUSH2 0x916 JUMP JUMPDEST DUP5 DUP5 SLOAD PUSH2 0x88E JUMP JUMPDEST DUP3 SSTORE POP POP POP POP JUMP JUMPDEST PUSH1 0x0 SWAP1 JUMP JUMPDEST PUSH2 0x952 PUSH2 0x945 JUMP JUMPDEST PUSH2 0x95D DUP2 DUP5 DUP5 PUSH2 0x920 JUMP JUMPDEST POP POP POP JUMP JUMPDEST JUMPDEST DUP2 DUP2 LT ISZERO PUSH2 0x981 JUMPI PUSH2 0x976 PUSH1 0x0 DUP3 PUSH2 0x94A JUMP JUMPDEST PUSH1 0x1 DUP2 ADD SWAP1 POP PUSH2 0x963 JUMP JUMPDEST POP POP JUMP JUMPDEST PUSH1 0x1F DUP3 GT ISZERO PUSH2 0x9C6 JUMPI PUSH2 0x997 DUP2 PUSH2 0x85C JUMP JUMPDEST PUSH2 0x9A0 DUP5 PUSH2 0x871 JUMP JUMPDEST DUP2 ADD PUSH1 0x20 DUP6 LT ISZERO PUSH2 0x9AF JUMPI DUP2 SWAP1 POP JUMPDEST PUSH2 0x9C3 PUSH2 0x9BB DUP6 PUSH2 0x871 JUMP JUMPDEST DUP4 ADD DUP3 PUSH2 0x962 JUMP JUMPDEST POP POP JUMPDEST POP POP POP JUMP JUMPDEST PUSH1 0x0 DUP3 DUP3 SHR SWAP1 POP SWAP3 SWAP2 POP POP JUMP JUMPDEST PUSH1 0x0 PUSH2 0x9E9 PUSH1 0x0 NOT DUP5 PUSH1 0x8 MUL PUSH2 0x9CB JUMP JUMPDEST NOT DUP1 DUP4 AND SWAP2 POP POP SWAP3 SWAP2 POP POP JUMP JUMPDEST PUSH1 0x0 PUSH2 0xA02 DUP4 DUP4 PUSH2 0x9D8 JUMP JUMPDEST SWAP2 POP DUP3 PUSH1 0x2 MUL DUP3 OR SWAP1 POP SWAP3 SWAP2 POP POP JUMP JUMPDEST PUSH2 0xA1B DUP3 PUSH2 0x7C2 JUMP JUMPDEST PUSH8 0xFFFFFFFFFFFFFFFF DUP2 GT ISZERO PUSH2 0xA34 JUMPI PUSH2 0xA33 PUSH2 0x7CD JUMP JUMPDEST JUMPDEST PUSH2 0xA3E DUP3 SLOAD PUSH2 0x82B JUMP JUMPDEST PUSH2 0xA49 DUP3 DUP3 DUP6 PUSH2 0x985 JUMP JUMPDEST PUSH1 0x0 PUSH1 0x20 SWAP1 POP PUSH1 0x1F DUP4 GT PUSH1 0x1 DUP2 EQ PUSH2 0xA7C JUMPI PUSH1 0x0 DUP5 ISZERO PUSH2 0xA6A JUMPI DUP3 DUP8 ADD MLOAD SWAP1 POP JUMPDEST PUSH2 0xA74 DUP6 DUP3 PUSH2 0x9F6 JUMP JUMPDEST DUP7 SSTORE POP PUSH2 0xADC JUMP JUMPDEST PUSH1 0x1F NOT DUP5 AND PUSH2 0xA8A DUP7 PUSH2 0x85C JUMP JUMPDEST PUSH1 0x0 JUMPDEST DUP3 DUP2 LT ISZERO PUSH2 0xAB2 JUMPI DUP5 DUP10 ADD MLOAD DUP3 SSTORE PUSH1 0x1 DUP3 ADD SWAP2 POP PUSH1 0x20 DUP6 ADD SWAP5 POP PUSH1 0x20 DUP2 ADD SWAP1 POP PUSH2 0xA8D JUMP JUMPDEST DUP7 DUP4 LT ISZERO PUSH2 0xACF JUMPI DUP5 DUP10 ADD MLOAD PUSH2 0xACB PUSH1 0x1F DUP10 AND DUP3 PUSH2 0x9D8 JUMP JUMPDEST DUP4 SSTORE POP JUMPDEST PUSH1 0x1 PUSH1 0x2 DUP9 MUL ADD DUP9 SSTORE POP POP POP JUMPDEST POP POP POP POP POP POP JUMP JUMPDEST PUSH2 0x3998 DUP1 PUSH2 0xAF3 PUSH1 0x0 CODECOPY PUSH1 0x0 RETURN INVALID PUSH1 0x80 PUSH1 0x40 MSTORE CALLVALUE DUP1 ISZERO PUSH2 0x10 JUMPI PUSH1 0x0 DUP1 REVERT JUMPDEST POP PUSH1 0x4 CALLDATASIZE LT PUSH2 0x14D JUMPI PUSH1 0x0 CALLDATALOAD PUSH1 0xE0 SHR DUP1 PUSH4 0x6352211E GT PUSH2 0xC3 JUMPI DUP1 PUSH4 0xA22CB465 GT PUSH2 0x7C JUMPI DUP1 PUSH4 0xA22CB465 EQ PUSH2 0x3D4 JUMPI DUP1 PUSH4 0xB88D4FDE EQ PUSH2 0x3F0 JUMPI DUP1 PUSH4 0xC87B56DD EQ PUSH2 0x40C JUMPI DUP1 PUSH4 0xD5391393 EQ PUSH2 0x43C JUMPI DUP1 PUSH4 0xD547741F EQ PUSH2 0x45A JUMPI DUP1 PUSH4 0xE985E9C5 EQ PUSH2 0x476 JUMPI PUSH2 0x14D JUMP JUMPDEST DUP1 PUSH4 0x6352211E EQ PUSH2 0x2D8 JUMPI DUP1 PUSH4 0x70A08231 EQ PUSH2 0x308 JUMPI DUP1 PUSH4 0x91D14854 EQ PUSH2 0x338 JUMPI DUP1 PUSH4 0x95D89B41 EQ PUSH2 0x368 JUMPI DUP1 PUSH4 0xA1448194 EQ PUSH2 0x386 JUMPI DUP1 PUSH4 0xA217FDDF EQ PUSH2 0x3B6 JUMPI PUSH2 0x14D JUMP JUMPDEST DUP1 PUSH4 0x248A9CA3 GT PUSH2 0x115 JUMPI DUP1 PUSH4 0x248A9CA3 EQ PUSH2 0x208 JUMPI DUP1 PUSH4 0x2F2FF15D EQ PUSH2 0x238 JUMPI DUP1 PUSH4 0x36568ABE EQ PUSH2 0x254 JUMPI DUP1 PUSH4 0x3FA1FC6E EQ PUSH2 0x270 JUMPI DUP1 PUSH4 0x42842E0E EQ PUSH2 0x2A0 JUMPI DUP1 PUSH4 0x42966C68 EQ PUSH2 0x2BC JUMPI PUSH2 0x14D JUMP JUMPDEST DUP1 PUSH4 0x1FFC9A7 EQ PUSH2 0x152 JUMPI DUP1 PUSH4 0x6FDDE03 EQ PUSH2 0x182 JUMPI DUP1 PUSH4 0x81812FC EQ PUSH2 0x1A0 JUMPI DUP1 PUSH4 0x95EA7B3 EQ PUSH2 0x1D0 JUMPI DUP1 PUSH4 0x23B872DD EQ PUSH2 0x1EC JUMPI JUMPDEST PUSH1 0x0 DUP1 REVERT JUMPDEST PUSH2 0x16C PUSH1 0x4 DUP1 CALLDATASIZE SUB DUP2 ADD SWAP1 PUSH2 0x167 SWAP2 SWAP1 PUSH2 0x25E4 JUMP JUMPDEST PUSH2 0x4A6 JUMP JUMPDEST PUSH1 0x40 MLOAD PUSH2 0x179 SWAP2 SWAP1 PUSH2 0x262C JUMP JUMPDEST PUSH1 0x40 MLOAD DUP1 SWAP2 SUB SWAP1 RETURN JUMPDEST PUSH2 0x18A PUSH2 0x4B8 JUMP JUMPDEST PUSH1 0x40 MLOAD PUSH2 0x197 SWAP2 SWAP1 PUSH2 0x26D7 JUMP JUMPDEST PUSH1 0x40 MLOAD DUP1 SWAP2 SUB SWAP1 RETURN JUMPDEST PUSH2 0x1BA PUSH1 0x4 DUP1 CALLDATASIZE SUB DUP2 ADD SWAP1 PUSH2 0x1B5 SWAP2 SWAP1 PUSH2 0x272F JUMP JUMPDEST PUSH2 0x54A JUMP JUMPDEST PUSH1 0x40 MLOAD PUSH2 0x1C7 SWAP2 SWAP1 PUSH2 0x279D JUMP JUMPDEST PUSH1 0x40 MLOAD DUP1 SWAP2 SUB SWAP1 RETURN JUMPDEST PUSH2 0x1EA PUSH1 0x4 DUP1 CALLDATASIZE SUB DUP2 ADD SWAP1 PUSH2 0x1E5 SWAP2 SWAP1 PUSH2 0x27E4 JUMP JUMPDEST PUSH2 0x590 JUMP JUMPDEST STOP JUMPDEST PUSH2 0x206 PUSH1 0x4 DUP1 CALLDATASIZE SUB DUP2 ADD SWAP1 PUSH2 0x201 SWAP2 SWAP1 PUSH2 0x2824 JUMP JUMPDEST PUSH2 0x6A7 JUMP JUMPDEST STOP JUMPDEST PUSH2 0x222 PUSH1 0x4 DUP1 CALLDATASIZE SUB DUP2 ADD SWAP1 PUSH2 0x21D SWAP2 SWAP1 PUSH2 0x28AD JUMP JUMPDEST PUSH2 0x707 JUMP JUMPDEST PUSH1 0x40 MLOAD PUSH2 0x22F SWAP2 SWAP1 PUSH2 0x28E9 JUMP JUMPDEST PUSH1 0x40 MLOAD DUP1 SWAP2 SUB SWAP1 RETURN JUMPDEST PUSH2 0x252 PUSH1 0x4 DUP1 CALLDATASIZE SUB DUP2 ADD SWAP1 PUSH2 0x24D SWAP2 SWAP1 PUSH2 0x2904 JUMP JUMPDEST PUSH2 0x727 JUMP JUMPDEST STOP JUMPDEST PUSH2 0x26E PUSH1 0x4 DUP1 CALLDATASIZE SUB DUP2 ADD SWAP1 PUSH2 0x269 SWAP2 SWAP1 PUSH2 0x2904 JUMP JUMPDEST PUSH2 0x748 JUMP JUMPDEST STOP JUMPDEST PUSH2 0x28A PUSH1 0x4 DUP1 CALLDATASIZE SUB DUP2 ADD SWAP1 PUSH2 0x285 SWAP2 SWAP1 PUSH2 0x272F JUMP JUMPDEST PUSH2 0x7CB JUMP JUMPDEST PUSH1 0x40 MLOAD PUSH2 0x297 SWAP2 SWAP1 PUSH2 0x2953 JUMP JUMPDEST PUSH1 0x40 MLOAD DUP1 SWAP2 SUB SWAP1 RETURN JUMPDEST PUSH2 0x2BA PUSH1 0x4 DUP1 CALLDATASIZE SUB DUP2 ADD SWAP1 PUSH2 0x2B5 SWAP2 SWAP1 PUSH2 0x2824 JUMP JUMPDEST PUSH2 0x7E3 JUMP JUMPDEST STOP JUMPDEST PUSH2 0x2D6 PUSH1 0x4 DUP1 CALLDATASIZE SUB DUP2 ADD SWAP1 PUSH2 0x2D1 SWAP2 SWAP1 PUSH2 0x272F JUMP JUMPDEST PUSH2 0x803 JUMP JUMPDEST STOP JUMPDEST PUSH2 0x2F2 PUSH1 0x4 DUP1 CALLDATASIZE SUB DUP2 ADD SWAP1 PUSH2 0x2ED SWAP2 SWAP1 PUSH2 0x272F JUMP JUMPDEST PUSH2 0x85F JUMP JUMPDEST PUSH1 0x40 MLOAD PUSH2 0x2FF SWAP2 SWAP1 PUSH2 0x279D JUMP JUMPDEST PUSH1 0x40 MLOAD DUP1 SWAP2 SUB SWAP1 RETURN JUMPDEST PUSH2 0x322 PUSH1 0x4 DUP1 CALLDATASIZE SUB DUP2 ADD SWAP1 PUSH2 0x31D SWAP2 SWAP1 PUSH2 0x296E JUMP JUMPDEST PUSH2 0x8E5 JUMP JUMPDEST PUSH1 0x40 MLOAD PUSH2 0x32F SWAP2 SWAP1 PUSH2 0x2953 JUMP JUMPDEST PUSH1 0x40 MLOAD DUP1 SWAP2 SUB SWAP1 RETURN JUMPDEST PUSH2 0x352 PUSH1 0x4 DUP1 CALLDATASIZE SUB DUP2 ADD SWAP1 PUSH2 0x34D SWAP2 SWAP1 PUSH2 0x2904 JUMP JUMPDEST PUSH2 0x99C JUMP JUMPDEST PUSH1 0x40 MLOAD PUSH2 0x35F SWAP2 SWAP1 PUSH2 0x262C JUMP JUMPDEST PUSH1 0x40 MLOAD DUP1 SWAP2 SUB SWAP1 RETURN JUMPDEST PUSH2 0x370 PUSH2 0xA07 JUMP JUMPDEST PUSH1 0x40 MLOAD PUSH2 0x37D SWAP2 SWAP1 PUSH2 0x26D7 JUMP JUMPDEST PUSH1 0x40 MLOAD DUP1 SWAP2 SUB SWAP1 RETURN JUMPDEST PUSH2 0x3A0 PUSH1 0x4 DUP1 CALLDATASIZE SUB DUP2 ADD SWAP1 PUSH2 0x39B SWAP2 SWAP1 PUSH2 0x27E4 JUMP JUMPDEST PUSH2 0xA99 JUMP JUMPDEST PUSH1 0x40 MLOAD PUSH2 0x3AD SWAP2 SWAP1 PUSH2 0x2953 JUMP JUMPDEST PUSH1 0x40 MLOAD DUP1 SWAP2 SUB SWAP1 RETURN JUMPDEST PUSH2 0x3BE PUSH2 0xB0A JUMP JUMPDEST PUSH1 0x40 MLOAD PUSH2 0x3CB SWAP2 SWAP1 PUSH2 0x28E9 JUMP JUMPDEST PUSH1 0x40 MLOAD DUP1 SWAP2 SUB SWAP1 RETURN JUMPDEST PUSH2 0x3EE PUSH1 0x4 DUP1 CALLDATASIZE SUB DUP2 ADD SWAP1 PUSH2 0x3E9 SWAP2 SWAP1 PUSH2 0x29C7 JUMP JUMPDEST PUSH2 0xB11 JUMP JUMPDEST STOP JUMPDEST PUSH2 0x40A PUSH1 0x4 DUP1 CALLDATASIZE SUB DUP2 ADD SWAP1 PUSH2 0x405 SWAP2 SWAP1 PUSH2 0x2B3C JUMP JUMPDEST PUSH2 0xB27 JUMP JUMPDEST STOP JUMPDEST PUSH2 0x426 PUSH1 0x4 DUP1 CALLDATASIZE SUB DUP2 ADD SWAP1 PUSH2 0x421 SWAP2 SWAP1 PUSH2 0x272F JUMP JUMPDEST PUSH2 0xB89 JUMP JUMPDEST PUSH1 0x40 MLOAD PUSH2 0x433 SWAP2 SWAP1 PUSH2 0x26D7 JUMP JUMPDEST PUSH1 0x40 MLOAD DUP1 SWAP2 SUB SWAP1 RETURN JUMPDEST PUSH2 0x444 PUSH2 0xE3B JUMP JUMPDEST PUSH1 0x40 MLOAD PUSH2 0x451 SWAP2 SWAP1 PUSH2 0x28E9 JUMP JUMPDEST PUSH1 0x40 MLOAD DUP1 SWAP2 SUB SWAP1 RETURN JUMPDEST PUSH2 0x474 PUSH1 0x4 DUP1 CALLDATASIZE SUB DUP2 ADD SWAP1 PUSH2 0x46F SWAP2 SWAP1 PUSH2 0x2904 JUMP JUMPDEST PUSH2 0xE5F JUMP JUMPDEST STOP JUMPDEST PUSH2 0x490 PUSH1 0x4 DUP1 CALLDATASIZE SUB DUP2 ADD SWAP1 PUSH2 0x48B SWAP2 SWAP1 PUSH2 0x2BBF JUMP JUMPDEST PUSH2 0xE80 JUMP JUMPDEST PUSH1 0x40 MLOAD PUSH2 0x49D SWAP2 SWAP1 PUSH2 0x262C JUMP JUMPDEST PUSH1 0x40 MLOAD DUP1 SWAP2 SUB SWAP1 RETURN JUMPDEST PUSH1 0x0 PUSH2 0x4B1 DUP3 PUSH2 0xF14 JUMP JUMPDEST SWAP1 POP SWAP2 SWAP1 POP JUMP JUMPDEST PUSH1 0x60 PUSH1 0x0 DUP1 SLOAD PUSH2 0x4C7 SWAP1 PUSH2 0x2C2E JUMP JUMPDEST DUP1 PUSH1 0x1F ADD PUSH1 0x20 DUP1 SWAP2 DIV MUL PUSH1 0x20 ADD PUSH1 0x40 MLOAD SWAP1 DUP2 ADD PUSH1 0x40 MSTORE DUP1 SWAP3 SWAP2 SWAP1 DUP2 DUP2 MSTORE PUSH1 0x20 ADD DUP3 DUP1 SLOAD PUSH2 0x4F3 SWAP1 PUSH2 0x2C2E JUMP JUMPDEST DUP1 ISZERO PUSH2 0x540 JUMPI DUP1 PUSH1 0x1F LT PUSH2 0x515 JUMPI PUSH2 0x100 DUP1 DUP4 SLOAD DIV MUL DUP4 MSTORE SWAP2 PUSH1 0x20 ADD SWAP2 PUSH2 0x540 JUMP JUMPDEST DUP3 ADD SWAP2 SWAP1 PUSH1 0x0 MSTORE PUSH1 0x20 PUSH1 0x0 KECCAK256 SWAP1 JUMPDEST DUP2 SLOAD DUP2 MSTORE SWAP1 PUSH1 0x1 ADD SWAP1 PUSH1 0x20 ADD DUP1 DUP4 GT PUSH2 0x523 JUMPI DUP3 SWAP1 SUB PUSH1 0x1F AND DUP3 ADD SWAP2 JUMPDEST POP POP POP POP POP SWAP1 POP SWAP1 JUMP JUMPDEST PUSH1 0x0 PUSH2 0x555 DUP3 PUSH2 0xF8E JUMP JUMPDEST PUSH1 0x4 PUSH1 0x0 DUP4 DUP2 MSTORE PUSH1 0x20 ADD SWAP1 DUP2 MSTORE PUSH1 0x20 ADD PUSH1 0x0 KECCAK256 PUSH1 0x0 SWAP1 SLOAD SWAP1 PUSH2 0x100 EXP SWAP1 DIV PUSH20 0xFFFFFFFFFFFFFFFFFFFFFFFFFFFFFFFFFFFFFFFF AND SWAP1 POP SWAP2 SWAP1 POP JUMP JUMPDEST PUSH1 0x0 PUSH2 0x59B DUP3 PUSH2 0x85F JUMP JUMPDEST SWAP1 POP DUP1 PUSH20 0xFFFFFFFFFFFFFFFFFFFFFFFFFFFFFFFFFFFFFFFF AND DUP4 PUSH20 0xFFFFFFFFFFFFFFFFFFFFFFFFFFFFFFFFFFFFFFFF AND SUB PUSH2 0x60B JUMPI PUSH1 0x40 MLOAD PUSH32 0x8C379A000000000000000000000000000000000000000000000000000000000 DUP2 MSTORE PUSH1 0x4 ADD PUSH2 0x602 SWAP1 PUSH2 0x2CD1 JUMP JUMPDEST PUSH1 0x40 MLOAD DUP1 SWAP2 SUB SWAP1 REVERT JUMPDEST DUP1 PUSH20 0xFFFFFFFFFFFFFFFFFFFFFFFFFFFFFFFFFFFFFFFF AND PUSH2 0x62A PUSH2 0xFD9 JUMP JUMPDEST PUSH20 0xFFFFFFFFFFFFFFFFFFFFFFFFFFFFFFFFFFFFFFFF AND EQ DUP1 PUSH2 0x659 JUMPI POP PUSH2 0x658 DUP2 PUSH2 0x653 PUSH2 0xFD9 JUMP JUMPDEST PUSH2 0xE80 JUMP JUMPDEST JUMPDEST PUSH2 0x698 JUMPI PUSH1 0x40 MLOAD PUSH32 0x8C379A000000000000000000000000000000000000000000000000000000000 DUP2 MSTORE PUSH1 0x4 ADD PUSH2 0x68F SWAP1 PUSH2 0x2D63 JUMP JUMPDEST PUSH1 0x40 MLOAD DUP1 SWAP2 SUB SWAP1 REVERT JUMPDEST PUSH2 0x6A2 DUP4 DUP4 PUSH2 0xFE1 JUMP JUMPDEST POP POP POP JUMP JUMPDEST PUSH2 0x6B8 PUSH2 0x6B2 PUSH2 0xFD9 JUMP JUMPDEST DUP3 PUSH2 0x109A JUMP JUMPDEST PUSH2 0x6F7 JUMPI PUSH1 0x40 MLOAD PUSH32 0x8C379A000000000000000000000000000000000000000000000000000000000 DUP2 MSTORE PUSH1 0x4 ADD PUSH2 0x6EE SWAP1 PUSH2 0x2DF5 JUMP JUMPDEST PUSH1 0x40 MLOAD DUP1 SWAP2 SUB SWAP1 REVERT JUMPDEST PUSH2 0x702 DUP4 DUP4 DUP4 PUSH2 0x112F JUMP JUMPDEST POP POP POP JUMP JUMPDEST PUSH1 0x0 PUSH1 0x6 PUSH1 0x0 DUP4 DUP2 MSTORE PUSH1 0x20 ADD SWAP1 DUP2 MSTORE PUSH1 0x20 ADD PUSH1 0x0 KECCAK256 PUSH1 0x1 ADD SLOAD SWAP1 POP SWAP2 SWAP1 POP JUMP JUMPDEST PUSH2 0x730 DUP3 PUSH2 0x707 JUMP JUMPDEST PUSH2 0x739 DUP2 PUSH2 0x1428 JUMP JUMPDEST PUSH2 0x743 DUP4 DUP4 PUSH2 0x143C JUMP JUMPDEST POP POP POP JUMP JUMPDEST PUSH2 0x750 PUSH2 0xFD9 JUMP JUMPDEST PUSH20 0xFFFFFFFFFFFFFFFFFFFFFFFFFFFFFFFFFFFFFFFF AND DUP2 PUSH20 0xFFFFFFFFFFFFFFFFFFFFFFFFFFFFFFFFFFFFFFFF AND EQ PUSH2 0x7BD JUMPI PUSH1 0x40 MLOAD PUSH32 0x8C379A000000000000000000000000000000000000000000000000000000000 DUP2 MSTORE PUSH1 0x4 ADD PUSH2 0x7B4 SWAP1 PUSH2 0x2E87 JUMP JUMPDEST PUSH1 0x40 MLOAD DUP1 SWAP2 SUB SWAP1 REVERT JUMPDEST PUSH2 0x7C7 DUP3 DUP3 PUSH2 0x151D JUMP JUMPDEST POP POP JUMP JUMPDEST PUSH1 0x8 PUSH1 0x20 MSTORE DUP1 PUSH1 0x0 MSTORE PUSH1 0x40 PUSH1 0x0 KECCAK256 PUSH1 0x0 SWAP2 POP SWAP1 POP SLOAD DUP2 JUMP JUMPDEST PUSH2 0x7FE DUP4 DUP4 DUP4 PUSH1 0x40 MLOAD DUP1 PUSH1 0x20 ADD PUSH1 0x40 MSTORE DUP1 PUSH1 0x0 DUP2 MSTORE POP PUSH2 0xB27 JUMP JUMPDEST POP POP POP JUMP JUMPDEST PUSH2 0x814 PUSH2 0x80E PUSH2 0xFD9 JUMP JUMPDEST DUP3 PUSH2 0x109A JUMP JUMPDEST PUSH2 0x853 JUMPI PUSH1 0x40 MLOAD PUSH32 0x8C379A000000000000000000000000000000000000000000000000000000000 DUP2 MSTORE PUSH1 0x4 ADD PUSH2 0x84A SWAP1 PUSH2 0x2EF3 JUMP JUMPDEST PUSH1 0x40 MLOAD DUP1 SWAP2 SUB SWAP1 REVERT JUMPDEST PUSH2 0x85C DUP2 PUSH2 0x15FF JUMP JUMPDEST POP JUMP JUMPDEST PUSH1 0x0 DUP1 PUSH2 0x86B DUP4 PUSH2 0x174D JUMP JUMPDEST SWAP1 POP PUSH1 0x0 PUSH20 0xFFFFFFFFFFFFFFFFFFFFFFFFFFFFFFFFFFFFFFFF AND DUP2 PUSH20 0xFFFFFFFFFFFFFFFFFFFFFFFFFFFFFFFFFFFFFFFF AND SUB PUSH2 0x8DC JUMPI PUSH1 0x40 MLOAD PUSH32 0x8C379A000000000000000000000000000000000000000000000000000000000 DUP2 MSTORE PUSH1 0x4 ADD PUSH2 0x8D3 SWAP1 PUSH2 0x2F5F JUMP JUMPDEST PUSH1 0x40 MLOAD DUP1 SWAP2 SUB SWAP1 REVERT JUMPDEST DUP1 SWAP2 POP POP SWAP2 SWAP1 POP JUMP JUMPDEST PUSH1 0x0 DUP1 PUSH20 0xFFFFFFFFFFFFFFFFFFFFFFFFFFFFFFFFFFFFFFFF AND DUP3 PUSH20 0xFFFFFFFFFFFFFFFFFFFFFFFFFFFFFFFFFFFFFFFF AND SUB PUSH2 0x955 JUMPI PUSH1 0x40 MLOAD PUSH32 0x8C379A000000000000000000000000000000000000000000000000000000000 DUP2 MSTORE PUSH1 0x4 ADD PUSH2 0x94C SWAP1 PUSH2 0x2FF1 JUMP JUMPDEST PUSH1 0x40 MLOAD DUP1 SWAP2 SUB SWAP1 REVERT JUMPDEST PUSH1 0x3 PUSH1 0x0 DUP4 PUSH20 0xFFFFFFFFFFFFFFFFFFFFFFFFFFFFFFFFFFFFFFFF AND PUSH20 0xFFFFFFFFFFFFFFFFFFFFFFFFFFFFFFFFFFFFFFFF AND DUP2 MSTORE PUSH1 0x20 ADD SWAP1 DUP2 MSTORE PUSH1 0x20 ADD PUSH1 0x0 KECCAK256 SLOAD SWAP1 POP SWAP2 SWAP1 POP JUMP JUMPDEST PUSH1 0x0 PUSH1 0x6 PUSH1 0x0 DUP5 DUP2 MSTORE PUSH1 0x20 ADD SWAP1 DUP2 MSTORE PUSH1 0x20 ADD PUSH1 0x0 KECCAK256 PUSH1 0x0 ADD PUSH1 0x0 DUP4 PUSH20 0xFFFFFFFFFFFFFFFFFFFFFFFFFFFFFFFFFFFFFFFF AND PUSH20 0xFFFFFFFFFFFFFFFFFFFFFFFFFFFFFFFFFFFFFFFF AND DUP2 MSTORE PUSH1 0x20 ADD SWAP1 DUP2 MSTORE PUSH1 0x20 ADD PUSH1 0x0 KECCAK256 PUSH1 0x0 SWAP1 SLOAD SWAP1 PUSH2 0x100 EXP SWAP1 DIV PUSH1 0xFF AND SWAP1 POP SWAP3 SWAP2 POP POP JUMP JUMPDEST PUSH1 0x60 PUSH1 0x1 DUP1 SLOAD PUSH2 0xA16 SWAP1 PUSH2 0x2C2E JUMP JUMPDEST DUP1 PUSH1 0x1F ADD PUSH1 0x20 DUP1 SWAP2 DIV MUL PUSH1 0x20 ADD PUSH1 0x40 MLOAD SWAP1 DUP2 ADD PUSH1 0x40 MSTORE DUP1 SWAP3 SWAP2 SWAP1 DUP2 DUP2 MSTORE PUSH1 0x20 ADD DUP3 DUP1 SLOAD PUSH2 0xA42 SWAP1 PUSH2 0x2C2E JUMP JUMPDEST DUP1 ISZERO PUSH2 0xA8F JUMPI DUP1 PUSH1 0x1F LT PUSH2 0xA64 JUMPI PUSH2 0x100 DUP1 DUP4 SLOAD DIV MUL DUP4 MSTORE SWAP2 PUSH1 0x20 ADD SWAP2 PUSH2 0xA8F JUMP JUMPDEST DUP3 ADD SWAP2 SWAP1 PUSH1 0x0 MSTORE PUSH1 0x20 PUSH1 0x0 KECCAK256 SWAP1 JUMPDEST DUP2 SLOAD DUP2 MSTORE SWAP1 PUSH1 0x1 ADD SWAP1 PUSH1 0x20 ADD DUP1 DUP4 GT PUSH2 0xA72 JUMPI DUP3 SWAP1 SUB PUSH1 0x1F AND DUP3 ADD SWAP2 JUMPDEST POP POP POP POP POP SWAP1 POP SWAP1 JUMP JUMPDEST PUSH1 0x0 PUSH32 0x9F2DF0FED2C77648DE5860A4CC508CD0818C85B8B8A1AB4CEEEF8D981C8956A6 PUSH2 0xAC5 DUP2 PUSH2 0x1428 JUMP JUMPDEST PUSH1 0x0 PUSH2 0xAD1 PUSH1 0x7 PUSH2 0x178A JUMP JUMPDEST SWAP1 POP PUSH2 0xADD PUSH1 0x7 PUSH2 0x1798 JUMP JUMPDEST PUSH2 0xAE7 DUP6 DUP3 PUSH2 0x17AE JUMP JUMPDEST DUP4 PUSH1 0x8 PUSH1 0x0 DUP4 DUP2 MSTORE PUSH1 0x20 ADD SWAP1 DUP2 MSTORE PUSH1 0x20 ADD PUSH1 0x0 KECCAK256 DUP2 SWAP1 SSTORE POP DUP1 SWAP3 POP POP POP SWAP3 SWAP2 POP POP JUMP JUMPDEST PUSH1 0x0 DUP1 SHL DUP2 JUMP JUMPDEST PUSH2 0xB23 PUSH2 0xB1C PUSH2 0xFD9 JUMP JUMPDEST DUP4 DUP4 PUSH2 0x17CC JUMP JUMPDEST POP POP JUMP JUMPDEST PUSH2 0xB38 PUSH2 0xB32 PUSH2 0xFD9 JUMP JUMPDEST DUP4 PUSH2 0x109A JUMP JUMPDEST PUSH2 0xB77 JUMPI PUSH1 0x40 MLOAD PUSH32 0x8C379A000000000000000000000000000000000000000000000000000000000 DUP2 MSTORE PUSH1 0x4 ADD PUSH2 0xB6E SWAP1 PUSH2 0x2DF5 JUMP JUMPDEST PUSH1 0x40 MLOAD DUP1 SWAP2 SUB SWAP1 REVERT JUMPDEST PUSH2 0xB83 DUP5 DUP5 DUP5 DUP5 PUSH2 0x1938 JUMP JUMPDEST POP POP POP POP JUMP JUMPDEST PUSH1 0x60 PUSH2 0xB94 DUP3 PUSH2 0xF8E JUMP JUMPDEST PUSH1 0x60 DUP1 PUSH1 0xC PUSH1 0x8 PUSH1 0x0 DUP7 DUP2 MSTORE PUSH1 0x20 ADD SWAP1 DUP2 MSTORE PUSH1 0x20 ADD PUSH1 0x0 KECCAK256 SLOAD SUB PUSH2 0xC7C JUMPI PUSH1 0x21 DUP1 SLOAD PUSH2 0xBBF SWAP1 PUSH2 0x2C2E JUMP JUMPDEST DUP1 PUSH1 0x1F ADD PUSH1 0x20 DUP1 SWAP2 DIV MUL PUSH1 0x20 ADD PUSH1 0x40 MLOAD SWAP1 DUP2 ADD PUSH1 0x40 MSTORE DUP1 SWAP3 SWAP2 SWAP1 DUP2 DUP2 MSTORE PUSH1 0x20 ADD DUP3 DUP1 SLOAD PUSH2 0xBEB SWAP1 PUSH2 0x2C2E JUMP JUMPDEST DUP1 ISZERO PUSH2 0xC38 JUMPI DUP1 PUSH1 0x1F LT PUSH2 0xC0D JUMPI PUSH2 0x100 DUP1 DUP4 SLOAD DIV MUL DUP4 MSTORE SWAP2 PUSH1 0x20 ADD SWAP2 PUSH2 0xC38 JUMP JUMPDEST DUP3 ADD SWAP2 SWAP1 PUSH1 0x0 MSTORE PUSH1 0x20 PUSH1 0x0 KECCAK256 SWAP1 JUMPDEST DUP2 SLOAD DUP2 MSTORE SWAP1 PUSH1 0x1 ADD SWAP1 PUSH1 0x20 ADD DUP1 DUP4 GT PUSH2 0xC1B JUMPI DUP3 SWAP1 SUB PUSH1 0x1F AND DUP3 ADD SWAP2 JUMPDEST POP POP POP POP POP SWAP2 POP PUSH1 0x40 MLOAD DUP1 PUSH1 0x40 ADD PUSH1 0x40 MSTORE DUP1 PUSH1 0x19 DUP2 MSTORE PUSH1 0x20 ADD PUSH32 0x4368696E657365205A6F6469616320436F6C6C656374696F6E00000000000000 DUP2 MSTORE POP SWAP1 POP PUSH2 0xDE3 JUMP JUMPDEST PUSH1 0x15 PUSH1 0x8 PUSH1 0x0 DUP7 DUP2 MSTORE PUSH1 0x20 ADD SWAP1 DUP2 MSTORE PUSH1 0x20 ADD PUSH1 0x0 KECCAK256 SLOAD PUSH1 0xC DUP2 LT PUSH2 0xCA3 JUMPI PUSH2 0xCA2 PUSH2 0x3011 JUMP JUMPDEST JUMPDEST ADD DUP1 SLOAD PUSH2 0xCAF SWAP1 PUSH2 0x2C2E JUMP JUMPDEST DUP1 PUSH1 0x1F ADD PUSH1 0x20 DUP1 SWAP2 DIV MUL PUSH1 0x20 ADD PUSH1 0x40 MLOAD SWAP1 DUP2 ADD PUSH1 0x40 MSTORE DUP1 SWAP3 SWAP2 SWAP1 DUP2 DUP2 MSTORE PUSH1 0x20 ADD DUP3 DUP1 SLOAD PUSH2 0xCDB SWAP1 PUSH2 0x2C2E JUMP JUMPDEST DUP1 ISZERO PUSH2 0xD28 JUMPI DUP1 PUSH1 0x1F LT PUSH2 0xCFD JUMPI PUSH2 0x100 DUP1 DUP4 SLOAD DIV MUL DUP4 MSTORE SWAP2 PUSH1 0x20 ADD SWAP2 PUSH2 0xD28 JUMP JUMPDEST DUP3 ADD SWAP2 SWAP1 PUSH1 0x0 MSTORE PUSH1 0x20 PUSH1 0x0 KECCAK256 SWAP1 JUMPDEST DUP2 SLOAD DUP2 MSTORE SWAP1 PUSH1 0x1 ADD SWAP1 PUSH1 0x20 ADD DUP1 DUP4 GT PUSH2 0xD0B JUMPI DUP3 SWAP1 SUB PUSH1 0x1F AND DUP3 ADD SWAP2 JUMPDEST POP POP POP POP POP SWAP2 POP PUSH1 0x9 PUSH1 0x8 PUSH1 0x0 DUP7 DUP2 MSTORE PUSH1 0x20 ADD SWAP1 DUP2 MSTORE PUSH1 0x20 ADD PUSH1 0x0 KECCAK256 SLOAD PUSH1 0xC DUP2 LT PUSH2 0xD56 JUMPI PUSH2 0xD55 PUSH2 0x3011 JUMP JUMPDEST JUMPDEST ADD DUP1 SLOAD PUSH2 0xD62 SWAP1 PUSH2 0x2C2E JUMP JUMPDEST DUP1 PUSH1 0x1F ADD PUSH1 0x20 DUP1 SWAP2 DIV MUL PUSH1 0x20 ADD PUSH1 0x40 MLOAD SWAP1 DUP2 ADD PUSH1 0x40 MSTORE DUP1 SWAP3 SWAP2 SWAP1 DUP2 DUP2 MSTORE PUSH1 0x20 ADD DUP3 DUP1 SLOAD PUSH2 0xD8E SWAP1 PUSH2 0x2C2E JUMP JUMPDEST DUP1 ISZERO PUSH2 0xDDB JUMPI DUP1 PUSH1 0x1F LT PUSH2 0xDB0 JUMPI PUSH2 0x100 DUP1 DUP4 SLOAD DIV MUL DUP4 MSTORE SWAP2 PUSH1 0x20 ADD SWAP2 PUSH2 0xDDB JUMP JUMPDEST DUP3 ADD SWAP2 SWAP1 PUSH1 0x0 MSTORE PUSH1 0x20 PUSH1 0x0 KECCAK256 SWAP1 JUMPDEST DUP2 SLOAD DUP2 MSTORE SWAP1 PUSH1 0x1 ADD SWAP1 PUSH1 0x20 ADD DUP1 DUP4 GT PUSH2 0xDBE JUMPI DUP3 SWAP1 SUB PUSH1 0x1F AND DUP3 ADD SWAP2 JUMPDEST POP POP POP POP POP SWAP1 POP JUMPDEST PUSH1 0x0 PUSH2 0xE0F DUP3 DUP5 PUSH1 0x40 MLOAD PUSH1 0x20 ADD PUSH2 0xDFB SWAP3 SWAP2 SWAP1 PUSH2 0x3186 JUMP JUMPDEST PUSH1 0x40 MLOAD PUSH1 0x20 DUP2 DUP4 SUB SUB DUP2 MSTORE SWAP1 PUSH1 0x40 MSTORE PUSH2 0x1994 JUMP JUMPDEST SWAP1 POP DUP1 PUSH1 0x40 MLOAD PUSH1 0x20 ADD PUSH2 0xE22 SWAP2 SWAP1 PUSH2 0x3217 JUMP JUMPDEST PUSH1 0x40 MLOAD PUSH1 0x20 DUP2 DUP4 SUB SUB DUP2 MSTORE SWAP1 PUSH1 0x40 MSTORE SWAP4 POP POP POP POP SWAP2 SWAP1 POP JUMP JUMPDEST PUSH32 0x9F2DF0FED2C77648DE5860A4CC508CD0818C85B8B8A1AB4CEEEF8D981C8956A6 DUP2 JUMP JUMPDEST PUSH2 0xE68 DUP3 PUSH2 0x707 JUMP JUMPDEST PUSH2 0xE71 DUP2 PUSH2 0x1428 JUMP JUMPDEST PUSH2 0xE7B DUP4 DUP4 PUSH2 0x151D JUMP JUMPDEST POP POP POP JUMP JUMPDEST PUSH1 0x0 PUSH1 0x5 PUSH1 0x0 DUP5 PUSH20 0xFFFFFFFFFFFFFFFFFFFFFFFFFFFFFFFFFFFFFFFF AND PUSH20 0xFFFFFFFFFFFFFFFFFFFFFFFFFFFFFFFFFFFFFFFF AND DUP2 MSTORE PUSH1 0x20 ADD SWAP1 DUP2 MSTORE PUSH1 0x20 ADD PUSH1 0x0 KECCAK256 PUSH1 0x0 DUP4 PUSH20 0xFFFFFFFFFFFFFFFFFFFFFFFFFFFFFFFFFFFFFFFF AND PUSH20 0xFFFFFFFFFFFFFFFFFFFFFFFFFFFFFFFFFFFFFFFF AND DUP2 MSTORE PUSH1 0x20 ADD SWAP1 DUP2 MSTORE PUSH1 0x20 ADD PUSH1 0x0 KECCAK256 PUSH1 0x0 SWAP1 SLOAD SWAP1 PUSH2 0x100 EXP SWAP1 DIV PUSH1 0xFF AND SWAP1 POP SWAP3 SWAP2 POP POP JUMP JUMPDEST PUSH1 0x0 PUSH32 0x7965DB0B00000000000000000000000000000000000000000000000000000000 PUSH28 0xFFFFFFFFFFFFFFFFFFFFFFFFFFFFFFFFFFFFFFFFFFFFFFFFFFFFFFFF NOT AND DUP3 PUSH28 0xFFFFFFFFFFFFFFFFFFFFFFFFFFFFFFFFFFFFFFFFFFFFFFFFFFFFFFFF NOT AND EQ DUP1 PUSH2 0xF87 JUMPI POP PUSH2 0xF86 DUP3 PUSH2 0x1AF7 JUMP JUMPDEST JUMPDEST SWAP1 POP SWAP2 SWAP1 POP JUMP JUMPDEST PUSH2 0xF97 DUP2 PUSH2 0x1BD9 JUMP JUMPDEST PUSH2 0xFD6 JUMPI PUSH1 0x40 MLOAD PUSH32 0x8C379A000000000000000000000000000000000000000000000000000000000 DUP2 MSTORE PUSH1 0x4 ADD PUSH2 0xFCD SWAP1 PUSH2 0x2F5F JUMP JUMPDEST PUSH1 0x40 MLOAD DUP1 SWAP2 SUB SWAP1 REVERT JUMPDEST POP JUMP JUMPDEST PUSH1 0x0 CALLER SWAP1 POP SWAP1 JUMP JUMPDEST DUP2 PUSH1 0x4 PUSH1 0x0 DUP4 DUP2 MSTORE PUSH1 0x20 ADD SWAP1 DUP2 MSTORE PUSH1 0x20 ADD PUSH1 0x0 KECCAK256 PUSH1 0x0 PUSH2 0x100 EXP DUP2 SLOAD DUP2 PUSH20 0xFFFFFFFFFFFFFFFFFFFFFFFFFFFFFFFFFFFFFFFF MUL NOT AND SWAP1 DUP4 PUSH20 0xFFFFFFFFFFFFFFFFFFFFFFFFFFFFFFFFFFFFFFFF AND MUL OR SWAP1 SSTORE POP DUP1 DUP3 PUSH20 0xFFFFFFFFFFFFFFFFFFFFFFFFFFFFFFFFFFFFFFFF AND PUSH2 0x1054 DUP4 PUSH2 0x85F JUMP JUMPDEST PUSH20 0xFFFFFFFFFFFFFFFFFFFFFFFFFFFFFFFFFFFFFFFF AND PUSH32 0x8C5BE1E5EBEC7D5BD14F71427D1E84F3DD0314C0F7B2291E5B200AC8C7C3B925 PUSH1 0x40 MLOAD PUSH1 0x40 MLOAD DUP1 SWAP2 SUB SWAP1 LOG4 POP POP JUMP JUMPDEST PUSH1 0x0 DUP1 PUSH2 0x10A6 DUP4 PUSH2 0x85F JUMP JUMPDEST SWAP1 POP DUP1 PUSH20 0xFFFFFFFFFFFFFFFFFFFFFFFFFFFFFFFFFFFFFFFF AND DUP5 PUSH20 0xFFFFFFFFFFFFFFFFFFFFFFFFFFFFFFFFFFFFFFFF AND EQ DUP1 PUSH2 0x10E8 JUMPI POP PUSH2 0x10E7 DUP2 DUP6 PUSH2 0xE80 JUMP JUMPDEST JUMPDEST DUP1 PUSH2 0x1126 JUMPI POP DUP4 PUSH20 0xFFFFFFFFFFFFFFFFFFFFFFFFFFFFFFFFFFFFFFFF AND PUSH2 0x110E DUP5 PUSH2 0x54A JUMP JUMPDEST PUSH20 0xFFFFFFFFFFFFFFFFFFFFFFFFFFFFFFFFFFFFFFFF AND EQ JUMPDEST SWAP2 POP POP SWAP3 SWAP2 POP POP JUMP JUMPDEST DUP3 PUSH20 0xFFFFFFFFFFFFFFFFFFFFFFFFFFFFFFFFFFFFFFFF AND PUSH2 0x114F DUP3 PUSH2 0x85F JUMP JUMPDEST PUSH20 0xFFFFFFFFFFFFFFFFFFFFFFFFFFFFFFFFFFFFFFFF AND EQ PUSH2 0x11A5 JUMPI PUSH1 0x40 MLOAD PUSH32 0x8C379A000000000000000000000000000000000000000000000000000000000 DUP2 MSTORE PUSH1 0x4 ADD PUSH2 0x119C SWAP1 PUSH2 0x32AB JUMP JUMPDEST PUSH1 0x40 MLOAD DUP1 SWAP2 SUB SWAP1 REVERT JUMPDEST PUSH1 0x0 PUSH20 0xFFFFFFFFFFFFFFFFFFFFFFFFFFFFFFFFFFFFFFFF AND DUP3 PUSH20 0xFFFFFFFFFFFFFFFFFFFFFFFFFFFFFFFFFFFFFFFF AND SUB PUSH2 0x1214 JUMPI PUSH1 0x40 MLOAD PUSH32 0x8C379A000000000000000000000000000000000000000000000000000000000 DUP2 MSTORE PUSH1 0x4 ADD PUSH2 0x120B SWAP1 PUSH2 0x333D JUMP JUMPDEST PUSH1 0x40 MLOAD DUP1 SWAP2 SUB SWAP1 REVERT JUMPDEST PUSH2 0x1221 DUP4 DUP4 DUP4 PUSH1 0x1 PUSH2 0x1C1A JUMP JUMPDEST DUP3 PUSH20 0xFFFFFFFFFFFFFFFFFFFFFFFFFFFFFFFFFFFFFFFF AND PUSH2 0x1241 DUP3 PUSH2 0x85F JUMP JUMPDEST PUSH20 0xFFFFFFFFFFFFFFFFFFFFFFFFFFFFFFFFFFFFFFFF AND EQ PUSH2 0x1297 JUMPI PUSH1 0x40 MLOAD PUSH32 0x8C379A000000000000000000000000000000000000000000000000000000000 DUP2 MSTORE PUSH1 0x4 ADD PUSH2 0x128E SWAP1 PUSH2 0x32AB JUMP JUMPDEST PUSH1 0x40 MLOAD DUP1 SWAP2 SUB SWAP1 REVERT JUMPDEST PUSH1 0x4 PUSH1 0x0 DUP3 DUP2 MSTORE PUSH1 0x20 ADD SWAP1 DUP2 MSTORE PUSH1 0x20 ADD PUSH1 0x0 KECCAK256 PUSH1 0x0 PUSH2 0x100 EXP DUP2 SLOAD SWAP1 PUSH20 0xFFFFFFFFFFFFFFFFFFFFFFFFFFFFFFFFFFFFFFFF MUL NOT AND SWAP1 SSTORE PUSH1 0x1 PUSH1 0x3 PUSH1 0x0 DUP6 PUSH20 0xFFFFFFFFFFFFFFFFFFFFFFFFFFFFFFFFFFFFFFFF AND PUSH20 0xFFFFFFFFFFFFFFFFFFFFFFFFFFFFFFFFFFFFFFFF AND DUP2 MSTORE PUSH1 0x20 ADD SWAP1 DUP2 MSTORE PUSH1 0x20 ADD PUSH1 0x0 KECCAK256 PUSH1 0x0 DUP3 DUP3 SLOAD SUB SWAP3 POP POP DUP2 SWAP1 SSTORE POP PUSH1 0x1 PUSH1 0x3 PUSH1 0x0 DUP5 PUSH20 0xFFFFFFFFFFFFFFFFFFFFFFFFFFFFFFFFFFFFFFFF AND PUSH20 0xFFFFFFFFFFFFFFFFFFFFFFFFFFFFFFFFFFFFFFFF AND DUP2 MSTORE PUSH1 0x20 ADD SWAP1 DUP2 MSTORE PUSH1 0x20 ADD PUSH1 0x0 KECCAK256 PUSH1 0x0 DUP3 DUP3 SLOAD ADD SWAP3 POP POP DUP2 SWAP1 SSTORE POP DUP2 PUSH1 0x2 PUSH1 0x0 DUP4 DUP2 MSTORE PUSH1 0x20 ADD SWAP1 DUP2 MSTORE PUSH1 0x20 ADD PUSH1 0x0 KECCAK256 PUSH1 0x0 PUSH2 0x100 EXP DUP2 SLOAD DUP2 PUSH20 0xFFFFFFFFFFFFFFFFFFFFFFFFFFFFFFFFFFFFFFFF MUL NOT AND SWAP1 DUP4 PUSH20 0xFFFFFFFFFFFFFFFFFFFFFFFFFFFFFFFFFFFFFFFF AND MUL OR SWAP1 SSTORE POP DUP1 DUP3 PUSH20 0xFFFFFFFFFFFFFFFFFFFFFFFFFFFFFFFFFFFFFFFF AND DUP5 PUSH20 0xFFFFFFFFFFFFFFFFFFFFFFFFFFFFFFFFFFFFFFFF AND PUSH32 0xDDF252AD1BE2C89B69C2B068FC378DAA952BA7F163C4A11628F55A4DF523B3EF PUSH1 0x40 MLOAD PUSH1 0x40 MLOAD DUP1 SWAP2 SUB SWAP1 LOG4 PUSH2 0x1423 DUP4 DUP4 DUP4 PUSH1 0x1 PUSH2 0x1CD2 JUMP JUMPDEST POP POP POP JUMP JUMPDEST PUSH2 0x1439 DUP2 PUSH2 0x1434 PUSH2 0xFD9 JUMP JUMPDEST PUSH2 0x1CD8 JUMP JUMPDEST POP JUMP JUMPDEST PUSH2 0x1446 DUP3 DUP3 PUSH2 0x99C JUMP JUMPDEST PUSH2 0x1519 JUMPI PUSH1 0x1 PUSH1 0x6 PUSH1 0x0 DUP5 DUP2 MSTORE PUSH1 0x20 ADD SWAP1 DUP2 MSTORE PUSH1 0x20 ADD PUSH1 0x0 KECCAK256 PUSH1 0x0 ADD PUSH1 0x0 DUP4 PUSH20 0xFFFFFFFFFFFFFFFFFFFFFFFFFFFFFFFFFFFFFFFF AND PUSH20 0xFFFFFFFFFFFFFFFFFFFFFFFFFFFFFFFFFFFFFFFF AND DUP2 MSTORE PUSH1 0x20 ADD SWAP1 DUP2 MSTORE PUSH1 0x20 ADD PUSH1 0x0 KECCAK256 PUSH1 0x0 PUSH2 0x100 EXP DUP2 SLOAD DUP2 PUSH1 0xFF MUL NOT AND SWAP1 DUP4 ISZERO ISZERO MUL OR SWAP1 SSTORE POP PUSH2 0x14BE PUSH2 0xFD9 JUMP JUMPDEST PUSH20 0xFFFFFFFFFFFFFFFFFFFFFFFFFFFFFFFFFFFFFFFF AND DUP2 PUSH20 0xFFFFFFFFFFFFFFFFFFFFFFFFFFFFFFFFFFFFFFFF AND DUP4 PUSH32 0x2F8788117E7EFF1D82E926EC794901D17C78024A50270940304540A733656F0D PUSH1 0x40 MLOAD PUSH1 0x40 MLOAD DUP1 SWAP2 SUB SWAP1 LOG4 JUMPDEST POP POP JUMP JUMPDEST PUSH2 0x1527 DUP3 DUP3 PUSH2 0x99C JUMP JUMPDEST ISZERO PUSH2 0x15FB JUMPI PUSH1 0x0 PUSH1 0x6 PUSH1 0x0 DUP5 DUP2 MSTORE PUSH1 0x20 ADD SWAP1 DUP2 MSTORE PUSH1 0x20 ADD PUSH1 0x0 KECCAK256 PUSH1 0x0 ADD PUSH1 0x0 DUP4 PUSH20 0xFFFFFFFFFFFFFFFFFFFFFFFFFFFFFFFFFFFFFFFF AND PUSH20 0xFFFFFFFFFFFFFFFFFFFFFFFFFFFFFFFFFFFFFFFF AND DUP2 MSTORE PUSH1 0x20 ADD SWAP1 DUP2 MSTORE PUSH1 0x20 ADD PUSH1 0x0 KECCAK256 PUSH1 0x0 PUSH2 0x100 EXP DUP2 SLOAD DUP2 PUSH1 0xFF MUL NOT AND SWAP1 DUP4 ISZERO ISZERO MUL OR SWAP1 SSTORE POP PUSH2 0x15A0 PUSH2 0xFD9 JUMP JUMPDEST PUSH20 0xFFFFFFFFFFFFFFFFFFFFFFFFFFFFFFFFFFFFFFFF AND DUP2 PUSH20 0xFFFFFFFFFFFFFFFFFFFFFFFFFFFFFFFFFFFFFFFF AND DUP4 PUSH32 0xF6391F5C32D9C69D2A47EA670B442974B53935D1EDC7FD64EB21E047A839171B PUSH1 0x40 MLOAD PUSH1 0x40 MLOAD DUP1 SWAP2 SUB SWAP1 LOG4 JUMPDEST POP POP JUMP JUMPDEST PUSH1 0x0 PUSH2 0x160A DUP3 PUSH2 0x85F JUMP JUMPDEST SWAP1 POP PUSH2 0x161A DUP2 PUSH1 0x0 DUP5 PUSH1 0x1 PUSH2 0x1C1A JUMP JUMPDEST PUSH2 0x1623 DUP3 PUSH2 0x85F JUMP JUMPDEST SWAP1 POP PUSH1 0x4 PUSH1 0x0 DUP4 DUP2 MSTORE PUSH1 0x20 ADD SWAP1 DUP2 MSTORE PUSH1 0x20 ADD PUSH1 0x0 KECCAK256 PUSH1 0x0 PUSH2 0x100 EXP DUP2 SLOAD SWAP1 PUSH20 0xFFFFFFFFFFFFFFFFFFFFFFFFFFFFFFFFFFFFFFFF MUL NOT AND SWAP1 SSTORE PUSH1 0x1 PUSH1 0x3 PUSH1 0x0 DUP4 PUSH20 0xFFFFFFFFFFFFFFFFFFFFFFFFFFFFFFFFFFFFFFFF AND PUSH20 0xFFFFFFFFFFFFFFFFFFFFFFFFFFFFFFFFFFFFFFFF AND DUP2 MSTORE PUSH1 0x20 ADD SWAP1 DUP2 MSTORE PUSH1 0x20 ADD PUSH1 0x0 KECCAK256 PUSH1 0x0 DUP3 DUP3 SLOAD SUB SWAP3 POP POP DUP2 SWAP1 SSTORE POP PUSH1 0x2 PUSH1 0x0 DUP4 DUP2 MSTORE PUSH1 0x20 ADD SWAP1 DUP2 MSTORE PUSH1 0x20 ADD PUSH1 0x0 KECCAK256 PUSH1 0x0 PUSH2 0x100 EXP DUP2 SLOAD SWAP1 PUSH20 0xFFFFFFFFFFFFFFFFFFFFFFFFFFFFFFFFFFFFFFFF MUL NOT AND SWAP1 SSTORE DUP2 PUSH1 0x0 PUSH20 0xFFFFFFFFFFFFFFFFFFFFFFFFFFFFFFFFFFFFFFFF AND DUP3 PUSH20 0xFFFFFFFFFFFFFFFFFFFFFFFFFFFFFFFFFFFFFFFF AND PUSH32 0xDDF252AD1BE2C89B69C2B068FC378DAA952BA7F163C4A11628F55A4DF523B3EF PUSH1 0x40 MLOAD PUSH1 0x40 MLOAD DUP1 SWAP2 SUB SWAP1 LOG4 PUSH2 0x1749 DUP2 PUSH1 0x0 DUP5 PUSH1 0x1 PUSH2 0x1CD2 JUMP JUMPDEST POP POP JUMP JUMPDEST PUSH1 0x0 PUSH1 0x2 PUSH1 0x0 DUP4 DUP2 MSTORE PUSH1 0x20 ADD SWAP1 DUP2 MSTORE PUSH1 0x20 ADD PUSH1 0x0 KECCAK256 PUSH1 0x0 SWAP1 SLOAD SWAP1 PUSH2 0x100 EXP SWAP1 DIV PUSH20 0xFFFFFFFFFFFFFFFFFFFFFFFFFFFFFFFFFFFFFFFF AND SWAP1 POP SWAP2 SWAP1 POP JUMP JUMPDEST PUSH1 0x0 DUP2 PUSH1 0x0 ADD SLOAD SWAP1 POP SWAP2 SWAP1 POP JUMP JUMPDEST PUSH1 0x1 DUP2 PUSH1 0x0 ADD PUSH1 0x0 DUP3 DUP3 SLOAD ADD SWAP3 POP POP DUP2 SWAP1 SSTORE POP POP JUMP JUMPDEST PUSH2 0x17C8 DUP3 DUP3 PUSH1 0x40 MLOAD DUP1 PUSH1 0x20 ADD PUSH1 0x40 MSTORE DUP1 PUSH1 0x0 DUP2 MSTORE POP PUSH2 0x1D5D JUMP JUMPDEST POP POP JUMP JUMPDEST DUP2 PUSH20 0xFFFFFFFFFFFFFFFFFFFFFFFFFFFFFFFFFFFFFFFF AND DUP4 PUSH20 0xFFFFFFFFFFFFFFFFFFFFFFFFFFFFFFFFFFFFFFFF AND SUB PUSH2 0x183A JUMPI PUSH1 0x40 MLOAD PUSH32 0x8C379A000000000000000000000000000000000000000000000000000000000 DUP2 MSTORE PUSH1 0x4 ADD PUSH2 0x1831 SWAP1 PUSH2 0x33A9 JUMP JUMPDEST PUSH1 0x40 MLOAD DUP1 SWAP2 SUB SWAP1 REVERT JUMPDEST DUP1 PUSH1 0x5 PUSH1 0x0 DUP6 PUSH20 0xFFFFFFFFFFFFFFFFFFFFFFFFFFFFFFFFFFFFFFFF AND PUSH20 0xFFFFFFFFFFFFFFFFFFFFFFFFFFFFFFFFFFFFFFFF AND DUP2 MSTORE PUSH1 0x20 ADD SWAP1 DUP2 MSTORE PUSH1 0x20 ADD PUSH1 0x0 KECCAK256 PUSH1 0x0 DUP5 PUSH20 0xFFFFFFFFFFFFFFFFFFFFFFFFFFFFFFFFFFFFFFFF AND PUSH20 0xFFFFFFFFFFFFFFFFFFFFFFFFFFFFFFFFFFFFFFFF AND DUP2 MSTORE PUSH1 0x20 ADD SWAP1 DUP2 MSTORE PUSH1 0x20 ADD PUSH1 0x0 KECCAK256 PUSH1 0x0 PUSH2 0x100 EXP DUP2 SLOAD DUP2 PUSH1 0xFF MUL NOT AND SWAP1 DUP4 ISZERO ISZERO MUL OR SWAP1 SSTORE POP DUP2 PUSH20 0xFFFFFFFFFFFFFFFFFFFFFFFFFFFFFFFFFFFFFFFF AND DUP4 PUSH20 0xFFFFFFFFFFFFFFFFFFFFFFFFFFFFFFFFFFFFFFFF AND PUSH32 0x17307EAB39AB6107E8899845AD3D59BD9653F200F220920489CA2B5937696C31 DUP4 PUSH1 0x40 MLOAD PUSH2 0x192B SWAP2 SWAP1 PUSH2 0x262C JUMP JUMPDEST PUSH1 0x40 MLOAD DUP1 SWAP2 SUB SWAP1 LOG3 POP POP POP JUMP JUMPDEST PUSH2 0x1943 DUP5 DUP5 DUP5 PUSH2 0x112F JUMP JUMPDEST PUSH2 0x194F DUP5 DUP5 DUP5 DUP5 PUSH2 0x1DB8 JUMP JUMPDEST PUSH2 0x198E JUMPI PUSH1 0x40 MLOAD PUSH32 0x8C379A000000000000000000000000000000000000000000000000000000000 DUP2 MSTORE PUSH1 0x4 ADD PUSH2 0x1985 SWAP1 PUSH2 0x343B JUMP JUMPDEST PUSH1 0x40 MLOAD DUP1 SWAP2 SUB SWAP1 REVERT JUMPDEST POP POP POP POP JUMP JUMPDEST PUSH1 0x60 PUSH1 0x0 DUP3 MLOAD SUB PUSH2 0x19B6 JUMPI PUSH1 0x40 MLOAD DUP1 PUSH1 0x20 ADD PUSH1 0x40 MSTORE DUP1 PUSH1 0x0 DUP2 MSTORE POP SWAP1 POP PUSH2 0x1AF2 JUMP JUMPDEST PUSH1 0x0 PUSH1 0x40 MLOAD DUP1 PUSH1 0x60 ADD PUSH1 0x40 MSTORE DUP1 PUSH1 0x40 DUP2 MSTORE PUSH1 0x20 ADD PUSH2 0x3923 PUSH1 0x40 SWAP2 CODECOPY SWAP1 POP PUSH1 0x0 PUSH1 0x3 PUSH1 0x2 DUP6 MLOAD PUSH2 0x19E5 SWAP2 SWAP1 PUSH2 0x348A JUMP JUMPDEST PUSH2 0x19EF SWAP2 SWAP1 PUSH2 0x34ED JUMP JUMPDEST PUSH1 0x4 PUSH2 0x19FB SWAP2 SWAP1 PUSH2 0x351E JUMP JUMPDEST PUSH8 0xFFFFFFFFFFFFFFFF DUP2 GT ISZERO PUSH2 0x1A14 JUMPI PUSH2 0x1A13 PUSH2 0x2A11 JUMP JUMPDEST JUMPDEST PUSH1 0x40 MLOAD SWAP1 DUP1 DUP3 MSTORE DUP1 PUSH1 0x1F ADD PUSH1 0x1F NOT AND PUSH1 0x20 ADD DUP3 ADD PUSH1 0x40 MSTORE DUP1 ISZERO PUSH2 0x1A46 JUMPI DUP2 PUSH1 0x20 ADD PUSH1 0x1 DUP3 MUL DUP1 CALLDATASIZE DUP4 CALLDATACOPY DUP1 DUP3 ADD SWAP2 POP POP SWAP1 POP JUMPDEST POP SWAP1 POP PUSH1 0x1 DUP3 ADD PUSH1 0x20 DUP3 ADD DUP6 DUP7 MLOAD DUP8 ADD JUMPDEST DUP1 DUP3 LT ISZERO PUSH2 0x1AB2 JUMPI PUSH1 0x3 DUP3 ADD SWAP2 POP DUP2 MLOAD PUSH1 0x3F DUP2 PUSH1 0x12 SHR AND DUP6 ADD MLOAD DUP5 MSTORE8 PUSH1 0x1 DUP5 ADD SWAP4 POP PUSH1 0x3F DUP2 PUSH1 0xC SHR AND DUP6 ADD MLOAD DUP5 MSTORE8 PUSH1 0x1 DUP5 ADD SWAP4 POP PUSH1 0x3F DUP2 PUSH1 0x6 SHR AND DUP6 ADD MLOAD DUP5 MSTORE8 PUSH1 0x1 DUP5 ADD SWAP4 POP PUSH1 0x3F DUP2 AND DUP6 ADD MLOAD DUP5 MSTORE8 PUSH1 0x1 DUP5 ADD SWAP4 POP POP PUSH2 0x1A57 JUMP JUMPDEST POP POP PUSH1 0x3 DUP7 MLOAD MOD PUSH1 0x1 DUP2 EQ PUSH2 0x1ACE JUMPI PUSH1 0x2 DUP2 EQ PUSH2 0x1AE1 JUMPI PUSH2 0x1AE9 JUMP JUMPDEST PUSH1 0x3D PUSH1 0x1 DUP4 SUB MSTORE8 PUSH1 0x3D PUSH1 0x2 DUP4 SUB MSTORE8 PUSH2 0x1AE9 JUMP JUMPDEST PUSH1 0x3D PUSH1 0x1 DUP4 SUB MSTORE8 JUMPDEST POP POP POP DUP1 SWAP3 POP POP POP JUMPDEST SWAP2 SWAP1 POP JUMP JUMPDEST PUSH1 0x0 PUSH32 0x80AC58CD00000000000000000000000000000000000000000000000000000000 PUSH28 0xFFFFFFFFFFFFFFFFFFFFFFFFFFFFFFFFFFFFFFFFFFFFFFFFFFFFFFFF NOT AND DUP3 PUSH28 0xFFFFFFFFFFFFFFFFFFFFFFFFFFFFFFFFFFFFFFFFFFFFFFFFFFFFFFFF NOT AND EQ DUP1 PUSH2 0x1BC2 JUMPI POP PUSH32 0x5B5E139F00000000000000000000000000000000000000000000000000000000 PUSH28 0xFFFFFFFFFFFFFFFFFFFFFFFFFFFFFFFFFFFFFFFFFFFFFFFFFFFFFFFF NOT AND DUP3 PUSH28 0xFFFFFFFFFFFFFFFFFFFFFFFFFFFFFFFFFFFFFFFFFFFFFFFFFFFFFFFF NOT AND EQ JUMPDEST DUP1 PUSH2 0x1BD2 JUMPI POP PUSH2 0x1BD1 DUP3 PUSH2 0x1F3F JUMP JUMPDEST JUMPDEST SWAP1 POP SWAP2 SWAP1 POP JUMP JUMPDEST PUSH1 0x0 DUP1 PUSH20 0xFFFFFFFFFFFFFFFFFFFFFFFFFFFFFFFFFFFFFFFF AND PUSH2 0x1BFB DUP4 PUSH2 0x174D JUMP JUMPDEST PUSH20 0xFFFFFFFFFFFFFFFFFFFFFFFFFFFFFFFFFFFFFFFF AND EQ ISZERO SWAP1 POP SWAP2 SWAP1 POP JUMP JUMPDEST PUSH2 0x1C26 DUP5 DUP5 DUP5 DUP5 PUSH2 0x1FA9 JUMP JUMPDEST PUSH1 0x0 PUSH20 0xFFFFFFFFFFFFFFFFFFFFFFFFFFFFFFFFFFFFFFFF AND DUP5 PUSH20 0xFFFFFFFFFFFFFFFFFFFFFFFFFFFFFFFFFFFFFFFF AND EQ DUP1 PUSH2 0x1C8D JUMPI POP PUSH1 0x0 PUSH20 0xFFFFFFFFFFFFFFFFFFFFFFFFFFFFFFFFFFFFFFFF AND DUP4 PUSH20 0xFFFFFFFFFFFFFFFFFFFFFFFFFFFFFFFFFFFFFFFF AND EQ JUMPDEST PUSH2 0x1CCC JUMPI PUSH1 0x40 MLOAD PUSH32 0x8C379A000000000000000000000000000000000000000000000000000000000 DUP2 MSTORE PUSH1 0x4 ADD PUSH2 0x1CC3 SWAP1 PUSH2 0x35AC JUMP JUMPDEST PUSH1 0x40 MLOAD DUP1 SWAP2 SUB SWAP1 REVERT JUMPDEST POP POP POP POP JUMP JUMPDEST POP POP POP POP JUMP JUMPDEST PUSH2 0x1CE2 DUP3 DUP3 PUSH2 0x99C JUMP JUMPDEST PUSH2 0x1D59 JUMPI PUSH2 0x1CEF DUP2 PUSH2 0x20CF JUMP JUMPDEST PUSH2 0x1CFD DUP4 PUSH1 0x0 SHR PUSH1 0x20 PUSH2 0x20FC JUMP JUMPDEST PUSH1 0x40 MLOAD PUSH1 0x20 ADD PUSH2 0x1D0E SWAP3 SWAP2 SWAP1 PUSH2 0x3664 JUMP JUMPDEST PUSH1 0x40 MLOAD PUSH1 0x20 DUP2 DUP4 SUB SUB DUP2 MSTORE SWAP1 PUSH1 0x40 MSTORE PUSH1 0x40 MLOAD PUSH32 0x8C379A000000000000000000000000000000000000000000000000000000000 DUP2 MSTORE PUSH1 0x4 ADD PUSH2 0x1D50 SWAP2 SWAP1 PUSH2 0x26D7 JUMP JUMPDEST PUSH1 0x40 MLOAD DUP1 SWAP2 SUB SWAP1 REVERT JUMPDEST POP POP JUMP JUMPDEST PUSH2 0x1D67 DUP4 DUP4 PUSH2 0x2338 JUMP JUMPDEST PUSH2 0x1D74 PUSH1 0x0 DUP5 DUP5 DUP5 PUSH2 0x1DB8 JUMP JUMPDEST PUSH2 0x1DB3 JUMPI PUSH1 0x40 MLOAD PUSH32 0x8C379A000000000000000000000000000000000000000000000000000000000 DUP2 MSTORE PUSH1 0x4 ADD PUSH2 0x1DAA SWAP1 PUSH2 0x343B JUMP JUMPDEST PUSH1 0x40 MLOAD DUP1 SWAP2 SUB SWAP1 REVERT JUMPDEST POP POP POP JUMP JUMPDEST PUSH1 0x0 PUSH2 0x1DD9 DUP5 PUSH20 0xFFFFFFFFFFFFFFFFFFFFFFFFFFFFFFFFFFFFFFFF AND PUSH2 0x2555 JUMP JUMPDEST ISZERO PUSH2 0x1F32 JUMPI DUP4 PUSH20 0xFFFFFFFFFFFFFFFFFFFFFFFFFFFFFFFFFFFFFFFF AND PUSH4 0x150B7A02 PUSH2 0x1E02 PUSH2 0xFD9 JUMP JUMPDEST DUP8 DUP7 DUP7 PUSH1 0x40 MLOAD DUP6 PUSH4 0xFFFFFFFF AND PUSH1 0xE0 SHL DUP2 MSTORE PUSH1 0x4 ADD PUSH2 0x1E24 SWAP5 SWAP4 SWAP3 SWAP2 SWAP1 PUSH2 0x36F3 JUMP JUMPDEST PUSH1 0x20 PUSH1 0x40 MLOAD DUP1 DUP4 SUB DUP2 PUSH1 0x0 DUP8 GAS CALL SWAP3 POP POP POP DUP1 ISZERO PUSH2 0x1E60 JUMPI POP PUSH1 0x40 MLOAD RETURNDATASIZE PUSH1 0x1F NOT PUSH1 0x1F DUP3 ADD AND DUP3 ADD DUP1 PUSH1 0x40 MSTORE POP DUP2 ADD SWAP1 PUSH2 0x1E5D SWAP2 SWAP1 PUSH2 0x3754 JUMP JUMPDEST PUSH1 0x1 JUMPDEST PUSH2 0x1EE2 JUMPI RETURNDATASIZE DUP1 PUSH1 0x0 DUP2 EQ PUSH2 0x1E90 JUMPI PUSH1 0x40 MLOAD SWAP2 POP PUSH1 0x1F NOT PUSH1 0x3F RETURNDATASIZE ADD AND DUP3 ADD PUSH1 0x40 MSTORE RETURNDATASIZE DUP3 MSTORE RETURNDATASIZE PUSH1 0x0 PUSH1 0x20 DUP5 ADD RETURNDATACOPY PUSH2 0x1E95 JUMP JUMPDEST PUSH1 0x60 SWAP2 POP JUMPDEST POP PUSH1 0x0 DUP2 MLOAD SUB PUSH2 0x1EDA JUMPI PUSH1 0x40 MLOAD PUSH32 0x8C379A000000000000000000000000000000000000000000000000000000000 DUP2 MSTORE PUSH1 0x4 ADD PUSH2 0x1ED1 SWAP1 PUSH2 0x343B JUMP JUMPDEST PUSH1 0x40 MLOAD DUP1 SWAP2 SUB SWAP1 REVERT JUMPDEST DUP1 MLOAD DUP2 PUSH1 0x20 ADD REVERT JUMPDEST PUSH4 0x150B7A02 PUSH1 0xE0 SHL PUSH28 0xFFFFFFFFFFFFFFFFFFFFFFFFFFFFFFFFFFFFFFFFFFFFFFFFFFFFFFFF NOT AND DUP2 PUSH28 0xFFFFFFFFFFFFFFFFFFFFFFFFFFFFFFFFFFFFFFFFFFFFFFFFFFFFFFFF NOT AND EQ SWAP2 POP POP PUSH2 0x1F37 JUMP JUMPDEST PUSH1 0x1 SWAP1 POP JUMPDEST SWAP5 SWAP4 POP POP POP POP JUMP JUMPDEST PUSH1 0x0 PUSH32 0x1FFC9A700000000000000000000000000000000000000000000000000000000 PUSH28 0xFFFFFFFFFFFFFFFFFFFFFFFFFFFFFFFFFFFFFFFFFFFFFFFFFFFFFFFF NOT AND DUP3 PUSH28 0xFFFFFFFFFFFFFFFFFFFFFFFFFFFFFFFFFFFFFFFFFFFFFFFFFFFFFFFF NOT AND EQ SWAP1 POP SWAP2 SWAP1 POP JUMP JUMPDEST PUSH1 0x1 DUP2 GT ISZERO PUSH2 0x20C9 JUMPI PUSH1 0x0 PUSH20 0xFFFFFFFFFFFFFFFFFFFFFFFFFFFFFFFFFFFFFFFF AND DUP5 PUSH20 0xFFFFFFFFFFFFFFFFFFFFFFFFFFFFFFFFFFFFFFFF AND EQ PUSH2 0x203D JUMPI DUP1 PUSH1 0x3 PUSH1 0x0 DUP7 PUSH20 0xFFFFFFFFFFFFFFFFFFFFFFFFFFFFFFFFFFFFFFFF AND PUSH20 0xFFFFFFFFFFFFFFFFFFFFFFFFFFFFFFFFFFFFFFFF AND DUP2 MSTORE PUSH1 0x20 ADD SWAP1 DUP2 MSTORE PUSH1 0x20 ADD PUSH1 0x0 KECCAK256 PUSH1 0x0 DUP3 DUP3 SLOAD PUSH2 0x2035 SWAP2 SWAP1 PUSH2 0x3781 JUMP JUMPDEST SWAP3 POP POP DUP2 SWAP1 SSTORE POP JUMPDEST PUSH1 0x0 PUSH20 0xFFFFFFFFFFFFFFFFFFFFFFFFFFFFFFFFFFFFFFFF AND DUP4 PUSH20 0xFFFFFFFFFFFFFFFFFFFFFFFFFFFFFFFFFFFFFFFF AND EQ PUSH2 0x20C8 JUMPI DUP1 PUSH1 0x3 PUSH1 0x0 DUP6 PUSH20 0xFFFFFFFFFFFFFFFFFFFFFFFFFFFFFFFFFFFFFFFF AND PUSH20 0xFFFFFFFFFFFFFFFFFFFFFFFFFFFFFFFFFFFFFFFF AND DUP2 MSTORE PUSH1 0x20 ADD SWAP1 DUP2 MSTORE PUSH1 0x20 ADD PUSH1 0x0 KECCAK256 PUSH1 0x0 DUP3 DUP3 SLOAD PUSH2 0x20C0 SWAP2 SWAP1 PUSH2 0x348A JUMP JUMPDEST SWAP3 POP POP DUP2 SWAP1 SSTORE POP JUMPDEST JUMPDEST POP POP POP POP JUMP JUMPDEST PUSH1 0x60 PUSH2 0x20F5 DUP3 PUSH20 0xFFFFFFFFFFFFFFFFFFFFFFFFFFFFFFFFFFFFFFFF AND PUSH1 0x14 PUSH1 0xFF AND PUSH2 0x20FC JUMP JUMPDEST SWAP1 POP SWAP2 SWAP1 POP JUMP JUMPDEST PUSH1 0x60 PUSH1 0x0 PUSH1 0x2 DUP4 PUSH1 0x2 PUSH2 0x210F SWAP2 SWAP1 PUSH2 0x351E JUMP JUMPDEST PUSH2 0x2119 SWAP2 SWAP1 PUSH2 0x348A JUMP JUMPDEST PUSH8 0xFFFFFFFFFFFFFFFF DUP2 GT ISZERO PUSH2 0x2132 JUMPI PUSH2 0x2131 PUSH2 0x2A11 JUMP JUMPDEST JUMPDEST PUSH1 0x40 MLOAD SWAP1 DUP1 DUP3 MSTORE DUP1 PUSH1 0x1F ADD PUSH1 0x1F NOT AND PUSH1 0x20 ADD DUP3 ADD PUSH1 0x40 MSTORE DUP1 ISZERO PUSH2 0x2164 JUMPI DUP2 PUSH1 0x20 ADD PUSH1 0x1 DUP3 MUL DUP1 CALLDATASIZE DUP4 CALLDATACOPY DUP1 DUP3 ADD SWAP2 POP POP SWAP1 POP JUMPDEST POP SWAP1 POP PUSH32 0x3000000000000000000000000000000000000000000000000000000000000000 DUP2 PUSH1 0x0 DUP2 MLOAD DUP2 LT PUSH2 0x219C JUMPI PUSH2 0x219B PUSH2 0x3011 JUMP JUMPDEST JUMPDEST PUSH1 0x20 ADD ADD SWAP1 PUSH31 0xFFFFFFFFFFFFFFFFFFFFFFFFFFFFFFFFFFFFFFFFFFFFFFFFFFFFFFFFFFFFFF NOT AND SWAP1 DUP2 PUSH1 0x0 BYTE SWAP1 MSTORE8 POP PUSH32 0x7800000000000000000000000000000000000000000000000000000000000000 DUP2 PUSH1 0x1 DUP2 MLOAD DUP2 LT PUSH2 0x2200 JUMPI PUSH2 0x21FF PUSH2 0x3011 JUMP JUMPDEST JUMPDEST PUSH1 0x20 ADD ADD SWAP1 PUSH31 0xFFFFFFFFFFFFFFFFFFFFFFFFFFFFFFFFFFFFFFFFFFFFFFFFFFFFFFFFFFFFFF NOT AND SWAP1 DUP2 PUSH1 0x0 BYTE SWAP1 MSTORE8 POP PUSH1 0x0 PUSH1 0x1 DUP5 PUSH1 0x2 PUSH2 0x2240 SWAP2 SWAP1 PUSH2 0x351E JUMP JUMPDEST PUSH2 0x224A SWAP2 SWAP1 PUSH2 0x348A JUMP JUMPDEST SWAP1 POP JUMPDEST PUSH1 0x1 DUP2 GT ISZERO PUSH2 0x22EA JUMPI PUSH32 0x3031323334353637383961626364656600000000000000000000000000000000 PUSH1 0xF DUP7 AND PUSH1 0x10 DUP2 LT PUSH2 0x228C JUMPI PUSH2 0x228B PUSH2 0x3011 JUMP JUMPDEST JUMPDEST BYTE PUSH1 0xF8 SHL DUP3 DUP3 DUP2 MLOAD DUP2 LT PUSH2 0x22A3 JUMPI PUSH2 0x22A2 PUSH2 0x3011 JUMP JUMPDEST JUMPDEST PUSH1 0x20 ADD ADD SWAP1 PUSH31 0xFFFFFFFFFFFFFFFFFFFFFFFFFFFFFFFFFFFFFFFFFFFFFFFFFFFFFFFFFFFFFF NOT AND SWAP1 DUP2 PUSH1 0x0 BYTE SWAP1 MSTORE8 POP PUSH1 0x4 DUP6 SWAP1 SHR SWAP5 POP DUP1 PUSH2 0x22E3 SWAP1 PUSH2 0x37B5 JUMP JUMPDEST SWAP1 POP PUSH2 0x224D JUMP JUMPDEST POP PUSH1 0x0 DUP5 EQ PUSH2 0x232E JUMPI PUSH1 0x40 MLOAD PUSH32 0x8C379A000000000000000000000000000000000000000000000000000000000 DUP2 MSTORE PUSH1 0x4 ADD PUSH2 0x2325 SWAP1 PUSH2 0x382A JUMP JUMPDEST PUSH1 0x40 MLOAD DUP1 SWAP2 SUB SWAP1 REVERT JUMPDEST DUP1 SWAP2 POP POP SWAP3 SWAP2 POP POP JUMP JUMPDEST PUSH1 0x0 PUSH20 0xFFFFFFFFFFFFFFFFFFFFFFFFFFFFFFFFFFFFFFFF AND DUP3 PUSH20 0xFFFFFFFFFFFFFFFFFFFFFFFFFFFFFFFFFFFFFFFF AND SUB PUSH2 0x23A7 JUMPI PUSH1 0x40 MLOAD PUSH32 0x8C379A000000000000000000000000000000000000000000000000000000000 DUP2 MSTORE PUSH1 0x4 ADD PUSH2 0x239E SWAP1 PUSH2 0x3896 JUMP JUMPDEST PUSH1 0x40 MLOAD DUP1 SWAP2 SUB SWAP1 REVERT JUMPDEST PUSH2 0x23B0 DUP2 PUSH2 0x1BD9 JUMP JUMPDEST ISZERO PUSH2 0x23F0 JUMPI PUSH1 0x40 MLOAD PUSH32 0x8C379A000000000000000000000000000000000000000000000000000000000 DUP2 MSTORE PUSH1 0x4 ADD PUSH2 0x23E7 SWAP1 PUSH2 0x3902 JUMP JUMPDEST PUSH1 0x40 MLOAD DUP1 SWAP2 SUB SWAP1 REVERT JUMPDEST PUSH2 0x23FE PUSH1 0x0 DUP4 DUP4 PUSH1 0x1 PUSH2 0x1C1A JUMP JUMPDEST PUSH2 0x2407 DUP2 PUSH2 0x1BD9 JUMP JUMPDEST ISZERO PUSH2 0x2447 JUMPI PUSH1 0x40 MLOAD PUSH32 0x8C379A000000000000000000000000000000000000000000000000000000000 DUP2 MSTORE PUSH1 0x4 ADD PUSH2 0x243E SWAP1 PUSH2 0x3902 JUMP JUMPDEST PUSH1 0x40 MLOAD DUP1 SWAP2 SUB SWAP1 REVERT JUMPDEST PUSH1 0x1 PUSH1 0x3 PUSH1 0x0 DUP5 PUSH20 0xFFFFFFFFFFFFFFFFFFFFFFFFFFFFFFFFFFFFFFFF AND PUSH20 0xFFFFFFFFFFFFFFFFFFFFFFFFFFFFFFFFFFFFFFFF AND DUP2 MSTORE PUSH1 0x20 ADD SWAP1 DUP2 MSTORE PUSH1 0x20 ADD PUSH1 0x0 KECCAK256 PUSH1 0x0 DUP3 DUP3 SLOAD ADD SWAP3 POP POP DUP2 SWAP1 SSTORE POP DUP2 PUSH1 0x2 PUSH1 0x0 DUP4 DUP2 MSTORE PUSH1 0x20 ADD SWAP1 DUP2 MSTORE PUSH1 0x20 ADD PUSH1 0x0 KECCAK256 PUSH1 0x0 PUSH2 0x100 EXP DUP2 SLOAD DUP2 PUSH20 0xFFFFFFFFFFFFFFFFFFFFFFFFFFFFFFFFFFFFFFFF MUL NOT AND SWAP1 DUP4 PUSH20 0xFFFFFFFFFFFFFFFFFFFFFFFFFFFFFFFFFFFFFFFF AND MUL OR SWAP1 SSTORE POP DUP1 DUP3 PUSH20 0xFFFFFFFFFFFFFFFFFFFFFFFFFFFFFFFFFFFFFFFF AND PUSH1 0x0 PUSH20 0xFFFFFFFFFFFFFFFFFFFFFFFFFFFFFFFFFFFFFFFF AND PUSH32 0xDDF252AD1BE2C89B69C2B068FC378DAA952BA7F163C4A11628F55A4DF523B3EF PUSH1 0x40 MLOAD PUSH1 0x40 MLOAD DUP1 SWAP2 SUB SWAP1 LOG4 PUSH2 0x2551 PUSH1 0x0 DUP4 DUP4 PUSH1 0x1 PUSH2 0x1CD2 JUMP JUMPDEST POP POP JUMP JUMPDEST PUSH1 0x0 DUP1 DUP3 PUSH20 0xFFFFFFFFFFFFFFFFFFFFFFFFFFFFFFFFFFFFFFFF AND EXTCODESIZE GT SWAP1 POP SWAP2 SWAP1 POP JUMP JUMPDEST PUSH1 0x0 PUSH1 0x40 MLOAD SWAP1 POP SWAP1 JUMP JUMPDEST PUSH1 0x0 DUP1 REVERT JUMPDEST PUSH1 0x0 DUP1 REVERT JUMPDEST PUSH1 0x0 PUSH32 0xFFFFFFFF00000000000000000000000000000000000000000000000000000000 DUP3 AND SWAP1 POP SWAP2 SWAP1 POP JUMP JUMPDEST PUSH2 0x25C1 DUP2 PUSH2 0x258C JUMP JUMPDEST DUP2 EQ PUSH2 0x25CC JUMPI PUSH1 0x0 DUP1 REVERT JUMPDEST POP JUMP JUMPDEST PUSH1 0x0 DUP2 CALLDATALOAD SWAP1 POP PUSH2 0x25DE DUP2 PUSH2 0x25B8 JUMP JUMPDEST SWAP3 SWAP2 POP POP JUMP JUMPDEST PUSH1 0x0 PUSH1 0x20 DUP3 DUP5 SUB SLT ISZERO PUSH2 0x25FA JUMPI PUSH2 0x25F9 PUSH2 0x2582 JUMP JUMPDEST JUMPDEST PUSH1 0x0 PUSH2 0x2608 DUP5 DUP3 DUP6 ADD PUSH2 0x25CF JUMP JUMPDEST SWAP2 POP POP SWAP3 SWAP2 POP POP JUMP JUMPDEST PUSH1 0x0 DUP2 ISZERO ISZERO SWAP1 POP SWAP2 SWAP1 POP JUMP JUMPDEST PUSH2 0x2626 DUP2 PUSH2 0x2611 JUMP JUMPDEST DUP3 MSTORE POP POP JUMP JUMPDEST PUSH1 0x0 PUSH1 0x20 DUP3 ADD SWAP1 POP PUSH2 0x2641 PUSH1 0x0 DUP4 ADD DUP5 PUSH2 0x261D JUMP JUMPDEST SWAP3 SWAP2 POP POP JUMP JUMPDEST PUSH1 0x0 DUP2 MLOAD SWAP1 POP SWAP2 SWAP1 POP JUMP JUMPDEST PUSH1 0x0 DUP3 DUP3 MSTORE PUSH1 0x20 DUP3 ADD SWAP1 POP SWAP3 SWAP2 POP POP JUMP JUMPDEST PUSH1 0x0 JUMPDEST DUP4 DUP2 LT ISZERO PUSH2 0x2681 JUMPI DUP1 DUP3 ADD MLOAD DUP2 DUP5 ADD MSTORE PUSH1 0x20 DUP2 ADD SWAP1 POP PUSH2 0x2666 JUMP JUMPDEST PUSH1 0x0 DUP5 DUP5 ADD MSTORE POP POP POP POP JUMP JUMPDEST PUSH1 0x0 PUSH1 0x1F NOT PUSH1 0x1F DUP4 ADD AND SWAP1 POP SWAP2 SWAP1 POP JUMP JUMPDEST PUSH1 0x0 PUSH2 0x26A9 DUP3 PUSH2 0x2647 JUMP JUMPDEST PUSH2 0x26B3 DUP2 DUP6 PUSH2 0x2652 JUMP JUMPDEST SWAP4 POP PUSH2 0x26C3 DUP2 DUP6 PUSH1 0x20 DUP7 ADD PUSH2 0x2663 JUMP JUMPDEST PUSH2 0x26CC DUP2 PUSH2 0x268D JUMP JUMPDEST DUP5 ADD SWAP2 POP POP SWAP3 SWAP2 POP POP JUMP JUMPDEST PUSH1 0x0 PUSH1 0x20 DUP3 ADD SWAP1 POP DUP2 DUP2 SUB PUSH1 0x0 DUP4 ADD MSTORE PUSH2 0x26F1 DUP2 DUP5 PUSH2 0x269E JUMP JUMPDEST SWAP1 POP SWAP3 SWAP2 POP POP JUMP JUMPDEST PUSH1 0x0 DUP2 SWAP1 POP SWAP2 SWAP1 POP JUMP JUMPDEST PUSH2 0x270C DUP2 PUSH2 0x26F9 JUMP JUMPDEST DUP2 EQ PUSH2 0x2717 JUMPI PUSH1 0x0 DUP1 REVERT JUMPDEST POP JUMP JUMPDEST PUSH1 0x0 DUP2 CALLDATALOAD SWAP1 POP PUSH2 0x2729 DUP2 PUSH2 0x2703 JUMP JUMPDEST SWAP3 SWAP2 POP POP JUMP JUMPDEST PUSH1 0x0 PUSH1 0x20 DUP3 DUP5 SUB SLT ISZERO PUSH2 0x2745 JUMPI PUSH2 0x2744 PUSH2 0x2582 JUMP JUMPDEST JUMPDEST PUSH1 0x0 PUSH2 0x2753 DUP5 DUP3 DUP6 ADD PUSH2 0x271A JUMP JUMPDEST SWAP2 POP POP SWAP3 SWAP2 POP POP JUMP JUMPDEST PUSH1 0x0 PUSH20 0xFFFFFFFFFFFFFFFFFFFFFFFFFFFFFFFFFFFFFFFF DUP3 AND SWAP1 POP SWAP2 SWAP1 POP JUMP JUMPDEST PUSH1 0x0 PUSH2 0x2787 DUP3 PUSH2 0x275C JUMP JUMPDEST SWAP1 POP SWAP2 SWAP1 POP JUMP JUMPDEST PUSH2 0x2797 DUP2 PUSH2 0x277C JUMP JUMPDEST DUP3 MSTORE POP POP JUMP JUMPDEST PUSH1 0x0 PUSH1 0x20 DUP3 ADD SWAP1 POP PUSH2 0x27B2 PUSH1 0x0 DUP4 ADD DUP5 PUSH2 0x278E JUMP JUMPDEST SWAP3 SWAP2 POP POP JUMP JUMPDEST PUSH2 0x27C1 DUP2 PUSH2 0x277C JUMP JUMPDEST DUP2 EQ PUSH2 0x27CC JUMPI PUSH1 0x0 DUP1 REVERT JUMPDEST POP JUMP JUMPDEST PUSH1 0x0 DUP2 CALLDATALOAD SWAP1 POP PUSH2 0x27DE DUP2 PUSH2 0x27B8 JUMP JUMPDEST SWAP3 SWAP2 POP POP JUMP JUMPDEST PUSH1 0x0 DUP1 PUSH1 0x40 DUP4 DUP6 SUB SLT ISZERO PUSH2 0x27FB JUMPI PUSH2 0x27FA PUSH2 0x2582 JUMP JUMPDEST JUMPDEST PUSH1 0x0 PUSH2 0x2809 DUP6 DUP3 DUP7 ADD PUSH2 0x27CF JUMP JUMPDEST SWAP3 POP POP PUSH1 0x20 PUSH2 0x281A DUP6 DUP3 DUP7 ADD PUSH2 0x271A JUMP JUMPDEST SWAP2 POP POP SWAP3 POP SWAP3 SWAP1 POP JUMP JUMPDEST PUSH1 0x0 DUP1 PUSH1 0x0 PUSH1 0x60 DUP5 DUP7 SUB SLT ISZERO PUSH2 0x283D JUMPI PUSH2 0x283C PUSH2 0x2582 JUMP JUMPDEST JUMPDEST PUSH1 0x0 PUSH2 0x284B DUP7 DUP3 DUP8 ADD PUSH2 0x27CF JUMP JUMPDEST SWAP4 POP POP PUSH1 0x20 PUSH2 0x285C DUP7 DUP3 DUP8 ADD PUSH2 0x27CF JUMP JUMPDEST SWAP3 POP POP PUSH1 0x40 PUSH2 0x286D DUP7 DUP3 DUP8 ADD PUSH2 0x271A JUMP JUMPDEST SWAP2 POP POP SWAP3 POP SWAP3 POP SWAP3 JUMP JUMPDEST PUSH1 0x0 DUP2 SWAP1 POP SWAP2 SWAP1 POP JUMP JUMPDEST PUSH2 0x288A DUP2 PUSH2 0x2877 JUMP JUMPDEST DUP2 EQ PUSH2 0x2895 JUMPI PUSH1 0x0 DUP1 REVERT JUMPDEST POP JUMP JUMPDEST PUSH1 0x0 DUP2 CALLDATALOAD SWAP1 POP PUSH2 0x28A7 DUP2 PUSH2 0x2881 JUMP JUMPDEST SWAP3 SWAP2 POP POP JUMP JUMPDEST PUSH1 0x0 PUSH1 0x20 DUP3 DUP5 SUB SLT ISZERO PUSH2 0x28C3 JUMPI PUSH2 0x28C2 PUSH2 0x2582 JUMP JUMPDEST JUMPDEST PUSH1 0x0 PUSH2 0x28D1 DUP5 DUP3 DUP6 ADD PUSH2 0x2898 JUMP JUMPDEST SWAP2 POP POP SWAP3 SWAP2 POP POP JUMP JUMPDEST PUSH2 0x28E3 DUP2 PUSH2 0x2877 JUMP JUMPDEST DUP3 MSTORE POP POP JUMP JUMPDEST PUSH1 0x0 PUSH1 0x20 DUP3 ADD SWAP1 POP PUSH2 0x28FE PUSH1 0x0 DUP4 ADD DUP5 PUSH2 0x28DA JUMP JUMPDEST SWAP3 SWAP2 POP POP JUMP JUMPDEST PUSH1 0x0 DUP1 PUSH1 0x40 DUP4 DUP6 SUB SLT ISZERO PUSH2 0x291B JUMPI PUSH2 0x291A PUSH2 0x2582 JUMP JUMPDEST JUMPDEST PUSH1 0x0 PUSH2 0x2929 DUP6 DUP3 DUP7 ADD PUSH2 0x2898 JUMP JUMPDEST SWAP3 POP POP PUSH1 0x20 PUSH2 0x293A DUP6 DUP3 DUP7 ADD PUSH2 0x27CF JUMP JUMPDEST SWAP2 POP POP SWAP3 POP SWAP3 SWAP1 POP JUMP JUMPDEST PUSH2 0x294D DUP2 PUSH2 0x26F9 JUMP JUMPDEST DUP3 MSTORE POP POP JUMP JUMPDEST PUSH1 0x0 PUSH1 0x20 DUP3 ADD SWAP1 POP PUSH2 0x2968 PUSH1 0x0 DUP4 ADD DUP5 PUSH2 0x2944 JUMP JUMPDEST SWAP3 SWAP2 POP POP JUMP JUMPDEST PUSH1 0x0 PUSH1 0x20 DUP3 DUP5 SUB SLT ISZERO PUSH2 0x2984 JUMPI PUSH2 0x2983 PUSH2 0x2582 JUMP JUMPDEST JUMPDEST PUSH1 0x0 PUSH2 0x2992 DUP5 DUP3 DUP6 ADD PUSH2 0x27CF JUMP JUMPDEST SWAP2 POP POP SWAP3 SWAP2 POP POP JUMP JUMPDEST PUSH2 0x29A4 DUP2 PUSH2 0x2611 JUMP JUMPDEST DUP2 EQ PUSH2 0x29AF JUMPI PUSH1 0x0 DUP1 REVERT JUMPDEST POP JUMP JUMPDEST PUSH1 0x0 DUP2 CALLDATALOAD SWAP1 POP PUSH2 0x29C1 DUP2 PUSH2 0x299B JUMP JUMPDEST SWAP3 SWAP2 POP POP JUMP JUMPDEST PUSH1 0x0 DUP1 PUSH1 0x40 DUP4 DUP6 SUB SLT ISZERO PUSH2 0x29DE JUMPI PUSH2 0x29DD PUSH2 0x2582 JUMP JUMPDEST JUMPDEST PUSH1 0x0 PUSH2 0x29EC DUP6 DUP3 DUP7 ADD PUSH2 0x27CF JUMP JUMPDEST SWAP3 POP POP PUSH1 0x20 PUSH2 0x29FD DUP6 DUP3 DUP7 ADD PUSH2 0x29B2 JUMP JUMPDEST SWAP2 POP POP SWAP3 POP SWAP3 SWAP1 POP JUMP JUMPDEST PUSH1 0x0 DUP1 REVERT JUMPDEST PUSH1 0x0 DUP1 REVERT JUMPDEST PUSH32 0x4E487B7100000000000000000000000000000000000000000000000000000000 PUSH1 0x0 MSTORE PUSH1 0x41 PUSH1 0x4 MSTORE PUSH1 0x24 PUSH1 0x0 REVERT JUMPDEST PUSH2 0x2A49 DUP3 PUSH2 0x268D JUMP JUMPDEST DUP2 ADD DUP2 DUP2 LT PUSH8 0xFFFFFFFFFFFFFFFF DUP3 GT OR ISZERO PUSH2 0x2A68 JUMPI PUSH2 0x2A67 PUSH2 0x2A11 JUMP JUMPDEST JUMPDEST DUP1 PUSH1 0x40 MSTORE POP POP POP JUMP JUMPDEST PUSH1 0x0 PUSH2 0x2A7B PUSH2 0x2578 JUMP JUMPDEST SWAP1 POP PUSH2 0x2A87 DUP3 DUP3 PUSH2 0x2A40 JUMP JUMPDEST SWAP2 SWAP1 POP JUMP JUMPDEST PUSH1 0x0 PUSH8 0xFFFFFFFFFFFFFFFF DUP3 GT ISZERO PUSH2 0x2AA7 JUMPI PUSH2 0x2AA6 PUSH2 0x2A11 JUMP JUMPDEST JUMPDEST PUSH2 0x2AB0 DUP3 PUSH2 0x268D JUMP JUMPDEST SWAP1 POP PUSH1 0x20 DUP2 ADD SWAP1 POP SWAP2 SWAP1 POP JUMP JUMPDEST DUP3 DUP2 DUP4 CALLDATACOPY PUSH1 0x0 DUP4 DUP4 ADD MSTORE POP POP POP JUMP JUMPDEST PUSH1 0x0 PUSH2 0x2ADF PUSH2 0x2ADA DUP5 PUSH2 0x2A8C JUMP JUMPDEST PUSH2 0x2A71 JUMP JUMPDEST SWAP1 POP DUP3 DUP2 MSTORE PUSH1 0x20 DUP2 ADD DUP5 DUP5 DUP5 ADD GT ISZERO PUSH2 0x2AFB JUMPI PUSH2 0x2AFA PUSH2 0x2A0C JUMP JUMPDEST JUMPDEST PUSH2 0x2B06 DUP5 DUP3 DUP6 PUSH2 0x2ABD JUMP JUMPDEST POP SWAP4 SWAP3 POP POP POP JUMP JUMPDEST PUSH1 0x0 DUP3 PUSH1 0x1F DUP4 ADD SLT PUSH2 0x2B23 JUMPI PUSH2 0x2B22 PUSH2 0x2A07 JUMP JUMPDEST JUMPDEST DUP2 CALLDATALOAD PUSH2 0x2B33 DUP5 DUP3 PUSH1 0x20 DUP7 ADD PUSH2 0x2ACC JUMP JUMPDEST SWAP2 POP POP SWAP3 SWAP2 POP POP JUMP JUMPDEST PUSH1 0x0 DUP1 PUSH1 0x0 DUP1 PUSH1 0x80 DUP6 DUP8 SUB SLT ISZERO PUSH2 0x2B56 JUMPI PUSH2 0x2B55 PUSH2 0x2582 JUMP JUMPDEST JUMPDEST PUSH1 0x0 PUSH2 0x2B64 DUP8 DUP3 DUP9 ADD PUSH2 0x27CF JUMP JUMPDEST SWAP5 POP POP PUSH1 0x20 PUSH2 0x2B75 DUP8 DUP3 DUP9 ADD PUSH2 0x27CF JUMP JUMPDEST SWAP4 POP POP PUSH1 0x40 PUSH2 0x2B86 DUP8 DUP3 DUP9 ADD PUSH2 0x271A JUMP JUMPDEST SWAP3 POP POP PUSH1 0x60 DUP6 ADD CALLDATALOAD PUSH8 0xFFFFFFFFFFFFFFFF DUP2 GT ISZERO PUSH2 0x2BA7 JUMPI PUSH2 0x2BA6 PUSH2 0x2587 JUMP JUMPDEST JUMPDEST PUSH2 0x2BB3 DUP8 DUP3 DUP9 ADD PUSH2 0x2B0E JUMP JUMPDEST SWAP2 POP POP SWAP3 SWAP6 SWAP2 SWAP5 POP SWAP3 POP JUMP JUMPDEST PUSH1 0x0 DUP1 PUSH1 0x40 DUP4 DUP6 SUB SLT ISZERO PUSH2 0x2BD6 JUMPI PUSH2 0x2BD5 PUSH2 0x2582 JUMP JUMPDEST JUMPDEST PUSH1 0x0 PUSH2 0x2BE4 DUP6 DUP3 DUP7 ADD PUSH2 0x27CF JUMP JUMPDEST SWAP3 POP POP PUSH1 0x20 PUSH2 0x2BF5 DUP6 DUP3 DUP7 ADD PUSH2 0x27CF JUMP JUMPDEST SWAP2 POP POP SWAP3 POP SWAP3 SWAP1 POP JUMP JUMPDEST PUSH32 0x4E487B7100000000000000000000000000000000000000000000000000000000 PUSH1 0x0 MSTORE PUSH1 0x22 PUSH1 0x4 MSTORE PUSH1 0x24 PUSH1 0x0 REVERT JUMPDEST PUSH1 0x0 PUSH1 0x2 DUP3 DIV SWAP1 POP PUSH1 0x1 DUP3 AND DUP1 PUSH2 0x2C46 JUMPI PUSH1 0x7F DUP3 AND SWAP2 POP JUMPDEST PUSH1 0x20 DUP3 LT DUP2 SUB PUSH2 0x2C59 JUMPI PUSH2 0x2C58 PUSH2 0x2BFF JUMP JUMPDEST JUMPDEST POP SWAP2 SWAP1 POP JUMP JUMPDEST PUSH32 0x4552433732313A20617070726F76616C20746F2063757272656E74206F776E65 PUSH1 0x0 DUP3 ADD MSTORE PUSH32 0x7200000000000000000000000000000000000000000000000000000000000000 PUSH1 0x20 DUP3 ADD MSTORE POP JUMP JUMPDEST PUSH1 0x0 PUSH2 0x2CBB PUSH1 0x21 DUP4 PUSH2 0x2652 JUMP JUMPDEST SWAP2 POP PUSH2 0x2CC6 DUP3 PUSH2 0x2C5F JUMP JUMPDEST PUSH1 0x40 DUP3 ADD SWAP1 POP SWAP2 SWAP1 POP JUMP JUMPDEST PUSH1 0x0 PUSH1 0x20 DUP3 ADD SWAP1 POP DUP2 DUP2 SUB PUSH1 0x0 DUP4 ADD MSTORE PUSH2 0x2CEA DUP2 PUSH2 0x2CAE JUMP JUMPDEST SWAP1 POP SWAP2 SWAP1 POP JUMP JUMPDEST PUSH32 0x4552433732313A20617070726F76652063616C6C6572206973206E6F7420746F PUSH1 0x0 DUP3 ADD MSTORE PUSH32 0x6B656E206F776E6572206F7220617070726F76656420666F7220616C6C000000 PUSH1 0x20 DUP3 ADD MSTORE POP JUMP JUMPDEST PUSH1 0x0 PUSH2 0x2D4D PUSH1 0x3D DUP4 PUSH2 0x2652 JUMP JUMPDEST SWAP2 POP PUSH2 0x2D58 DUP3 PUSH2 0x2CF1 JUMP JUMPDEST PUSH1 0x40 DUP3 ADD SWAP1 POP SWAP2 SWAP1 POP JUMP JUMPDEST PUSH1 0x0 PUSH1 0x20 DUP3 ADD SWAP1 POP DUP2 DUP2 SUB PUSH1 0x0 DUP4 ADD MSTORE PUSH2 0x2D7C DUP2 PUSH2 0x2D40 JUMP JUMPDEST SWAP1 POP SWAP2 SWAP1 POP JUMP JUMPDEST PUSH32 0x4552433732313A2063616C6C6572206973206E6F7420746F6B656E206F776E65 PUSH1 0x0 DUP3 ADD MSTORE PUSH32 0x72206F7220617070726F76656400000000000000000000000000000000000000 PUSH1 0x20 DUP3 ADD MSTORE POP JUMP JUMPDEST PUSH1 0x0 PUSH2 0x2DDF PUSH1 0x2D DUP4 PUSH2 0x2652 JUMP JUMPDEST SWAP2 POP PUSH2 0x2DEA DUP3 PUSH2 0x2D83 JUMP JUMPDEST PUSH1 0x40 DUP3 ADD SWAP1 POP SWAP2 SWAP1 POP JUMP JUMPDEST PUSH1 0x0 PUSH1 0x20 DUP3 ADD SWAP1 POP DUP2 DUP2 SUB PUSH1 0x0 DUP4 ADD MSTORE PUSH2 0x2E0E DUP2 PUSH2 0x2DD2 JUMP JUMPDEST SWAP1 POP SWAP2 SWAP1 POP JUMP JUMPDEST PUSH32 0x416363657373436F6E74726F6C3A2063616E206F6E6C792072656E6F756E6365 PUSH1 0x0 DUP3 ADD MSTORE PUSH32 0x20726F6C657320666F722073656C660000000000000000000000000000000000 PUSH1 0x20 DUP3 ADD MSTORE POP JUMP JUMPDEST PUSH1 0x0 PUSH2 0x2E71 PUSH1 0x2F DUP4 PUSH2 0x2652 JUMP JUMPDEST SWAP2 POP PUSH2 0x2E7C DUP3 PUSH2 0x2E15 JUMP JUMPDEST PUSH1 0x40 DUP3 ADD SWAP1 POP SWAP2 SWAP1 POP JUMP JUMPDEST PUSH1 0x0 PUSH1 0x20 DUP3 ADD SWAP1 POP DUP2 DUP2 SUB PUSH1 0x0 DUP4 ADD MSTORE PUSH2 0x2EA0 DUP2 PUSH2 0x2E64 JUMP JUMPDEST SWAP1 POP SWAP2 SWAP1 POP JUMP JUMPDEST PUSH32 0x43616C6C6572206973206E6F74206F776E6572206E6F7220617070726F766564 PUSH1 0x0 DUP3 ADD MSTORE POP JUMP JUMPDEST PUSH1 0x0 PUSH2 0x2EDD PUSH1 0x20 DUP4 PUSH2 0x2652 JUMP JUMPDEST SWAP2 POP PUSH2 0x2EE8 DUP3 PUSH2 0x2EA7 JUMP JUMPDEST PUSH1 0x20 DUP3 ADD SWAP1 POP SWAP2 SWAP1 POP JUMP JUMPDEST PUSH1 0x0 PUSH1 0x20 DUP3 ADD SWAP1 POP DUP2 DUP2 SUB PUSH1 0x0 DUP4 ADD MSTORE PUSH2 0x2F0C DUP2 PUSH2 0x2ED0 JUMP JUMPDEST SWAP1 POP SWAP2 SWAP1 POP JUMP JUMPDEST PUSH32 0x4552433732313A20696E76616C696420746F6B656E2049440000000000000000 PUSH1 0x0 DUP3 ADD MSTORE POP JUMP JUMPDEST PUSH1 0x0 PUSH2 0x2F49 PUSH1 0x18 DUP4 PUSH2 0x2652 JUMP JUMPDEST SWAP2 POP PUSH2 0x2F54 DUP3 PUSH2 0x2F13 JUMP JUMPDEST PUSH1 0x20 DUP3 ADD SWAP1 POP SWAP2 SWAP1 POP JUMP JUMPDEST PUSH1 0x0 PUSH1 0x20 DUP3 ADD SWAP1 POP DUP2 DUP2 SUB PUSH1 0x0 DUP4 ADD MSTORE PUSH2 0x2F78 DUP2 PUSH2 0x2F3C JUMP JUMPDEST SWAP1 POP SWAP2 SWAP1 POP JUMP JUMPDEST PUSH32 0x4552433732313A2061646472657373207A65726F206973206E6F742061207661 PUSH1 0x0 DUP3 ADD MSTORE PUSH32 0x6C6964206F776E65720000000000000000000000000000000000000000000000 PUSH1 0x20 DUP3 ADD MSTORE POP JUMP JUMPDEST PUSH1 0x0 PUSH2 0x2FDB PUSH1 0x29 DUP4 PUSH2 0x2652 JUMP JUMPDEST SWAP2 POP PUSH2 0x2FE6 DUP3 PUSH2 0x2F7F JUMP JUMPDEST PUSH1 0x40 DUP3 ADD SWAP1 POP SWAP2 SWAP1 POP JUMP JUMPDEST PUSH1 0x0 PUSH1 0x20 DUP3 ADD SWAP1 POP DUP2 DUP2 SUB PUSH1 0x0 DUP4 ADD MSTORE PUSH2 0x300A DUP2 PUSH2 0x2FCE JUMP JUMPDEST SWAP1 POP SWAP2 SWAP1 POP JUMP JUMPDEST PUSH32 0x4E487B7100000000000000000000000000000000000000000000000000000000 PUSH1 0x0 MSTORE PUSH1 0x32 PUSH1 0x4 MSTORE PUSH1 0x24 PUSH1 0x0 REVERT JUMPDEST PUSH1 0x0 DUP2 SWAP1 POP SWAP3 SWAP2 POP POP JUMP JUMPDEST PUSH32 0x7B226E616D65223A202200000000000000000000000000000000000000000000 PUSH1 0x0 DUP3 ADD MSTORE POP JUMP JUMPDEST PUSH1 0x0 PUSH2 0x3081 PUSH1 0xA DUP4 PUSH2 0x3040 JUMP JUMPDEST SWAP2 POP PUSH2 0x308C DUP3 PUSH2 0x304B JUMP JUMPDEST PUSH1 0xA DUP3 ADD SWAP1 POP SWAP2 SWAP1 POP JUMP JUMPDEST PUSH1 0x0 PUSH2 0x30A2 DUP3 PUSH2 0x2647 JUMP JUMPDEST PUSH2 0x30AC DUP2 DUP6 PUSH2 0x3040 JUMP JUMPDEST SWAP4 POP PUSH2 0x30BC DUP2 DUP6 PUSH1 0x20 DUP7 ADD PUSH2 0x2663 JUMP JUMPDEST DUP1 DUP5 ADD SWAP2 POP POP SWAP3 SWAP2 POP POP JUMP JUMPDEST PUSH32 0x222C20226465736372697074696F6E223A20224368696E657365205A6F646961 PUSH1 0x0 DUP3 ADD MSTORE PUSH32 0x63204E4654222C2022696D616765223A20220000000000000000000000000000 PUSH1 0x20 DUP3 ADD MSTORE POP JUMP JUMPDEST PUSH1 0x0 PUSH2 0x3124 PUSH1 0x32 DUP4 PUSH2 0x3040 JUMP JUMPDEST SWAP2 POP PUSH2 0x312F DUP3 PUSH2 0x30C8 JUMP JUMPDEST PUSH1 0x32 DUP3 ADD SWAP1 POP SWAP2 SWAP1 POP JUMP JUMPDEST PUSH32 0x227D000000000000000000000000000000000000000000000000000000000000 PUSH1 0x0 DUP3 ADD MSTORE POP JUMP JUMPDEST PUSH1 0x0 PUSH2 0x3170 PUSH1 0x2 DUP4 PUSH2 0x3040 JUMP JUMPDEST SWAP2 POP PUSH2 0x317B DUP3 PUSH2 0x313A JUMP JUMPDEST PUSH1 0x2 DUP3 ADD SWAP1 POP SWAP2 SWAP1 POP JUMP JUMPDEST PUSH1 0x0 PUSH2 0x3191 DUP3 PUSH2 0x3074 JUMP JUMPDEST SWAP2 POP PUSH2 0x319D DUP3 DUP6 PUSH2 0x3097 JUMP JUMPDEST SWAP2 POP PUSH2 0x31A8 DUP3 PUSH2 0x3117 JUMP JUMPDEST SWAP2 POP PUSH2 0x31B4 DUP3 DUP5 PUSH2 0x3097 JUMP JUMPDEST SWAP2 POP PUSH2 0x31BF DUP3 PUSH2 0x3163 JUMP JUMPDEST SWAP2 POP DUP2 SWAP1 POP SWAP4 SWAP3 POP POP POP JUMP JUMPDEST PUSH32 0x646174613A6170706C69636174696F6E2F6A736F6E3B6261736536342C000000 PUSH1 0x0 DUP3 ADD MSTORE POP JUMP JUMPDEST PUSH1 0x0 PUSH2 0x3201 PUSH1 0x1D DUP4 PUSH2 0x3040 JUMP JUMPDEST SWAP2 POP PUSH2 0x320C DUP3 PUSH2 0x31CB JUMP JUMPDEST PUSH1 0x1D DUP3 ADD SWAP1 POP SWAP2 SWAP1 POP JUMP JUMPDEST PUSH1 0x0 PUSH2 0x3222 DUP3 PUSH2 0x31F4 JUMP JUMPDEST SWAP2 POP PUSH2 0x322E DUP3 DUP5 PUSH2 0x3097 JUMP JUMPDEST SWAP2 POP DUP2 SWAP1 POP SWAP3 SWAP2 POP POP JUMP JUMPDEST PUSH32 0x4552433732313A207472616E736665722066726F6D20696E636F727265637420 PUSH1 0x0 DUP3 ADD MSTORE PUSH32 0x6F776E6572000000000000000000000000000000000000000000000000000000 PUSH1 0x20 DUP3 ADD MSTORE POP JUMP JUMPDEST PUSH1 0x0 PUSH2 0x3295 PUSH1 0x25 DUP4 PUSH2 0x2652 JUMP JUMPDEST SWAP2 POP PUSH2 0x32A0 DUP3 PUSH2 0x3239 JUMP JUMPDEST PUSH1 0x40 DUP3 ADD SWAP1 POP SWAP2 SWAP1 POP JUMP JUMPDEST PUSH1 0x0 PUSH1 0x20 DUP3 ADD SWAP1 POP DUP2 DUP2 SUB PUSH1 0x0 DUP4 ADD MSTORE PUSH2 0x32C4 DUP2 PUSH2 0x3288 JUMP JUMPDEST SWAP1 POP SWAP2 SWAP1 POP JUMP JUMPDEST PUSH32 0x4552433732313A207472616E7366657220746F20746865207A65726F20616464 PUSH1 0x0 DUP3 ADD MSTORE PUSH32 0x7265737300000000000000000000000000000000000000000000000000000000 PUSH1 0x20 DUP3 ADD MSTORE POP JUMP JUMPDEST PUSH1 0x0 PUSH2 0x3327 PUSH1 0x24 DUP4 PUSH2 0x2652 JUMP JUMPDEST SWAP2 POP PUSH2 0x3332 DUP3 PUSH2 0x32CB JUMP JUMPDEST PUSH1 0x40 DUP3 ADD SWAP1 POP SWAP2 SWAP1 POP JUMP JUMPDEST PUSH1 0x0 PUSH1 0x20 DUP3 ADD SWAP1 POP DUP2 DUP2 SUB PUSH1 0x0 DUP4 ADD MSTORE PUSH2 0x3356 DUP2 PUSH2 0x331A JUMP JUMPDEST SWAP1 POP SWAP2 SWAP1 POP JUMP JUMPDEST PUSH32 0x4552433732313A20617070726F766520746F2063616C6C657200000000000000 PUSH1 0x0 DUP3 ADD MSTORE POP JUMP JUMPDEST PUSH1 0x0 PUSH2 0x3393 PUSH1 0x19 DUP4 PUSH2 0x2652 JUMP JUMPDEST SWAP2 POP PUSH2 0x339E DUP3 PUSH2 0x335D JUMP JUMPDEST PUSH1 0x20 DUP3 ADD SWAP1 POP SWAP2 SWAP1 POP JUMP JUMPDEST PUSH1 0x0 PUSH1 0x20 DUP3 ADD SWAP1 POP DUP2 DUP2 SUB PUSH1 0x0 DUP4 ADD MSTORE PUSH2 0x33C2 DUP2 PUSH2 0x3386 JUMP JUMPDEST SWAP1 POP SWAP2 SWAP1 POP JUMP JUMPDEST PUSH32 0x4552433732313A207472616E7366657220746F206E6F6E204552433732315265 PUSH1 0x0 DUP3 ADD MSTORE PUSH32 0x63656976657220696D706C656D656E7465720000000000000000000000000000 PUSH1 0x20 DUP3 ADD MSTORE POP JUMP JUMPDEST PUSH1 0x0 PUSH2 0x3425 PUSH1 0x32 DUP4 PUSH2 0x2652 JUMP JUMPDEST SWAP2 POP PUSH2 0x3430 DUP3 PUSH2 0x33C9 JUMP JUMPDEST PUSH1 0x40 DUP3 ADD SWAP1 POP SWAP2 SWAP1 POP JUMP JUMPDEST PUSH1 0x0 PUSH1 0x20 DUP3 ADD SWAP1 POP DUP2 DUP2 SUB PUSH1 0x0 DUP4 ADD MSTORE PUSH2 0x3454 DUP2 PUSH2 0x3418 JUMP JUMPDEST SWAP1 POP SWAP2 SWAP1 POP JUMP JUMPDEST PUSH32 0x4E487B7100000000000000000000000000000000000000000000000000000000 PUSH1 0x0 MSTORE PUSH1 0x11 PUSH1 0x4 MSTORE PUSH1 0x24 PUSH1 0x0 REVERT JUMPDEST PUSH1 0x0 PUSH2 0x3495 DUP3 PUSH2 0x26F9 JUMP JUMPDEST SWAP2 POP PUSH2 0x34A0 DUP4 PUSH2 0x26F9 JUMP JUMPDEST SWAP3 POP DUP3 DUP3 ADD SWAP1 POP DUP1 DUP3 GT ISZERO PUSH2 0x34B8 JUMPI PUSH2 0x34B7 PUSH2 0x345B JUMP JUMPDEST JUMPDEST SWAP3 SWAP2 POP POP JUMP JUMPDEST PUSH32 0x4E487B7100000000000000000000000000000000000000000000000000000000 PUSH1 0x0 MSTORE PUSH1 0x12 PUSH1 0x4 MSTORE PUSH1 0x24 PUSH1 0x0 REVERT JUMPDEST PUSH1 0x0 PUSH2 0x34F8 DUP3 PUSH2 0x26F9 JUMP JUMPDEST SWAP2 POP PUSH2 0x3503 DUP4 PUSH2 0x26F9 JUMP JUMPDEST SWAP3 POP DUP3 PUSH2 0x3513 JUMPI PUSH2 0x3512 PUSH2 0x34BE JUMP JUMPDEST JUMPDEST DUP3 DUP3 DIV SWAP1 POP SWAP3 SWAP2 POP POP JUMP JUMPDEST PUSH1 0x0 PUSH2 0x3529 DUP3 PUSH2 0x26F9 JUMP JUMPDEST SWAP2 POP PUSH2 0x3534 DUP4 PUSH2 0x26F9 JUMP JUMPDEST SWAP3 POP DUP3 DUP3 MUL PUSH2 0x3542 DUP2 PUSH2 0x26F9 JUMP JUMPDEST SWAP2 POP DUP3 DUP3 DIV DUP5 EQ DUP4 ISZERO OR PUSH2 0x3559 JUMPI PUSH2 0x3558 PUSH2 0x345B JUMP JUMPDEST JUMPDEST POP SWAP3 SWAP2 POP POP JUMP JUMPDEST PUSH32 0x4E4654206973206E6F74207472616E7366657261626C65000000000000000000 PUSH1 0x0 DUP3 ADD MSTORE POP JUMP JUMPDEST PUSH1 0x0 PUSH2 0x3596 PUSH1 0x17 DUP4 PUSH2 0x2652 JUMP JUMPDEST SWAP2 POP PUSH2 0x35A1 DUP3 PUSH2 0x3560 JUMP JUMPDEST PUSH1 0x20 DUP3 ADD SWAP1 POP SWAP2 SWAP1 POP JUMP JUMPDEST PUSH1 0x0 PUSH1 0x20 DUP3 ADD SWAP1 POP DUP2 DUP2 SUB PUSH1 0x0 DUP4 ADD MSTORE PUSH2 0x35C5 DUP2 PUSH2 0x3589 JUMP JUMPDEST SWAP1 POP SWAP2 SWAP1 POP JUMP JUMPDEST PUSH32 0x416363657373436F6E74726F6C3A206163636F756E7420000000000000000000 PUSH1 0x0 DUP3 ADD MSTORE POP JUMP JUMPDEST PUSH1 0x0 PUSH2 0x3602 PUSH1 0x17 DUP4 PUSH2 0x3040 JUMP JUMPDEST SWAP2 POP PUSH2 0x360D DUP3 PUSH2 0x35CC JUMP JUMPDEST PUSH1 0x17 DUP3 ADD SWAP1 POP SWAP2 SWAP1 POP JUMP JUMPDEST PUSH32 0x206973206D697373696E6720726F6C6520000000000000000000000000000000 PUSH1 0x0 DUP3 ADD MSTORE POP JUMP JUMPDEST PUSH1 0x0 PUSH2 0x364E PUSH1 0x11 DUP4 PUSH2 0x3040 JUMP JUMPDEST SWAP2 POP PUSH2 0x3659 DUP3 PUSH2 0x3618 JUMP JUMPDEST PUSH1 0x11 DUP3 ADD SWAP1 POP SWAP2 SWAP1 POP JUMP JUMPDEST PUSH1 0x0 PUSH2 0x366F DUP3 PUSH2 0x35F5 JUMP JUMPDEST SWAP2 POP PUSH2 0x367B DUP3 DUP6 PUSH2 0x3097 JUMP JUMPDEST SWAP2 POP PUSH2 0x3686 DUP3 PUSH2 0x3641 JUMP JUMPDEST SWAP2 POP PUSH2 0x3692 DUP3 DUP5 PUSH2 0x3097 JUMP JUMPDEST SWAP2 POP DUP2 SWAP1 POP SWAP4 SWAP3 POP POP POP JUMP JUMPDEST PUSH1 0x0 DUP2 MLOAD SWAP1 POP SWAP2 SWAP1 POP JUMP JUMPDEST PUSH1 0x0 DUP3 DUP3 MSTORE PUSH1 0x20 DUP3 ADD SWAP1 POP SWAP3 SWAP2 POP POP JUMP JUMPDEST PUSH1 0x0 PUSH2 0x36C5 DUP3 PUSH2 0x369E JUMP JUMPDEST PUSH2 0x36CF DUP2 DUP6 PUSH2 0x36A9 JUMP JUMPDEST SWAP4 POP PUSH2 0x36DF DUP2 DUP6 PUSH1 0x20 DUP7 ADD PUSH2 0x2663 JUMP JUMPDEST PUSH2 0x36E8 DUP2 PUSH2 0x268D JUMP JUMPDEST DUP5 ADD SWAP2 POP POP SWAP3 SWAP2 POP POP JUMP JUMPDEST PUSH1 0x0 PUSH1 0x80 DUP3 ADD SWAP1 POP PUSH2 0x3708 PUSH1 0x0 DUP4 ADD DUP8 PUSH2 0x278E JUMP JUMPDEST PUSH2 0x3715 PUSH1 0x20 DUP4 ADD DUP7 PUSH2 0x278E JUMP JUMPDEST PUSH2 0x3722 PUSH1 0x40 DUP4 ADD DUP6 PUSH2 0x2944 JUMP JUMPDEST DUP2 DUP2 SUB PUSH1 0x60 DUP4 ADD MSTORE PUSH2 0x3734 DUP2 DUP5 PUSH2 0x36BA JUMP JUMPDEST SWAP1 POP SWAP6 SWAP5 POP POP POP POP POP JUMP JUMPDEST PUSH1 0x0 DUP2 MLOAD SWAP1 POP PUSH2 0x374E DUP2 PUSH2 0x25B8 JUMP JUMPDEST SWAP3 SWAP2 POP POP JUMP JUMPDEST PUSH1 0x0 PUSH1 0x20 DUP3 DUP5 SUB SLT ISZERO PUSH2 0x376A JUMPI PUSH2 0x3769 PUSH2 0x2582 JUMP JUMPDEST JUMPDEST PUSH1 0x0 PUSH2 0x3778 DUP5 DUP3 DUP6 ADD PUSH2 0x373F JUMP JUMPDEST SWAP2 POP POP SWAP3 SWAP2 POP POP JUMP JUMPDEST PUSH1 0x0 PUSH2 0x378C DUP3 PUSH2 0x26F9 JUMP JUMPDEST SWAP2 POP PUSH2 0x3797 DUP4 PUSH2 0x26F9 JUMP JUMPDEST SWAP3 POP DUP3 DUP3 SUB SWAP1 POP DUP2 DUP2 GT ISZERO PUSH2 0x37AF JUMPI PUSH2 0x37AE PUSH2 0x345B JUMP JUMPDEST JUMPDEST SWAP3 SWAP2 POP POP JUMP JUMPDEST PUSH1 0x0 PUSH2 0x37C0 DUP3 PUSH2 0x26F9 JUMP JUMPDEST SWAP2 POP PUSH1 0x0 DUP3 SUB PUSH2 0x37D3 JUMPI PUSH2 0x37D2 PUSH2 0x345B JUMP JUMPDEST JUMPDEST PUSH1 0x1 DUP3 SUB SWAP1 POP SWAP2 SWAP1 POP JUMP JUMPDEST PUSH32 0x537472696E67733A20686578206C656E67746820696E73756666696369656E74 PUSH1 0x0 DUP3 ADD MSTORE POP JUMP JUMPDEST PUSH1 0x0 PUSH2 0x3814 PUSH1 0x20 DUP4 PUSH2 0x2652 JUMP JUMPDEST SWAP2 POP PUSH2 0x381F DUP3 PUSH2 0x37DE JUMP JUMPDEST PUSH1 0x20 DUP3 ADD SWAP1 POP SWAP2 SWAP1 POP JUMP JUMPDEST PUSH1 0x0 PUSH1 0x20 DUP3 ADD SWAP1 POP DUP2 DUP2 SUB PUSH1 0x0 DUP4 ADD MSTORE PUSH2 0x3843 DUP2 PUSH2 0x3807 JUMP JUMPDEST SWAP1 POP SWAP2 SWAP1 POP JUMP JUMPDEST PUSH32 0x4552433732313A206D696E7420746F20746865207A65726F2061646472657373 PUSH1 0x0 DUP3 ADD MSTORE POP JUMP JUMPDEST PUSH1 0x0 PUSH2 0x3880 PUSH1 0x20 DUP4 PUSH2 0x2652 JUMP JUMPDEST SWAP2 POP PUSH2 0x388B DUP3 PUSH2 0x384A JUMP JUMPDEST PUSH1 0x20 DUP3 ADD SWAP1 POP SWAP2 SWAP1 POP JUMP JUMPDEST PUSH1 0x0 PUSH1 0x20 DUP3 ADD SWAP1 POP DUP2 DUP2 SUB PUSH1 0x0 DUP4 ADD MSTORE PUSH2 0x38AF DUP2 PUSH2 0x3873 JUMP JUMPDEST SWAP1 POP SWAP2 SWAP1 POP JUMP JUMPDEST PUSH32 0x4552433732313A20746F6B656E20616C7265616479206D696E74656400000000 PUSH1 0x0 DUP3 ADD MSTORE POP JUMP JUMPDEST PUSH1 0x0 PUSH2 0x38EC PUSH1 0x1C DUP4 PUSH2 0x2652 JUMP JUMPDEST SWAP2 POP PUSH2 0x38F7 DUP3 PUSH2 0x38B6 JUMP JUMPDEST PUSH1 0x20 DUP3 ADD SWAP1 POP SWAP2 SWAP1 POP JUMP JUMPDEST PUSH1 0x0 PUSH1 0x20 DUP3 ADD SWAP1 POP DUP2 DUP2 SUB PUSH1 0x0 DUP4 ADD MSTORE PUSH2 0x391B DUP2 PUSH2 0x38DF JUMP JUMPDEST SWAP1 POP SWAP2 SWAP1 POP JUMP INVALID COINBASE TIMESTAMP NUMBER PREVRANDAO GASLIMIT CHAINID SELFBALANCE BASEFEE BLOBHASH BLOBBASEFEE 0x4B 0x4C 0x4D 0x4E 0x4F POP MLOAD MSTORE MSTORE8 SLOAD SSTORE JUMP JUMPI PC MSIZE GAS PUSH2 0x6263 PUSH5 0x6566676869 PUSH11 0x6B6C6D6E6F707172737475 PUSH23 0x7778797A303132333435363738392B2FA2646970667358 0x22 SLT KECCAK256 PUSH11 0x709A76E360DC0F7876D502 0x2F PUSH23 0x3D7D931C6D05138FF9B852692230DCC30B8D64736F6C63 NUMBER STOP ADDMOD SHL STOP CALLER PUSH9 0x747470733A2F2F6261 PUSH7 0x79626569687232 PUSH23 0x6A36716D69356372787761367272716E7070766E726C67 CALLDATACOPY PUSH6 0x376F64657037 PUSH11 0x7778757534336268626D70 PUSH21 0x646F78712E697066732E7733732E6C696E6B2F4441 0x4C 0x4C 0x25 NUMBER ORIGIN 0x25 TIMESTAMP CALLDATACOPY GASLIMIT 0x25 ORIGIN ADDRESS ORIGIN ADDRESS ORIGIN CALLVALUE 0x2D BALANCE ADDRESS 0x2D ADDRESS ORIGIN 0x25 ORIGIN ADDRESS BALANCE CALLDATASIZE 0x2E ADDRESS CODECOPY 0x2E ADDRESS CALLDATASIZE 0x25 ORIGIN ADDRESS 0x2D 0x25 ORIGIN ADDRESS POP PUSH10 0x78656C25323061727425 ORIGIN ADDRESS PUSH16 0x6625323061253230676F617425324325 ORIGIN ADDRESS PUSH19 0x6570726573656E74696E672532307468652532 ADDRESS NUMBER PUSH9 0x696E6573652532307A PUSH16 0x646961632E253230546865253230676F PUSH2 0x7425 ORIGIN ADDRESS PUSH20 0x686F756C64253230626525323064697374696E63 PUSH21 0x25324325323076696272616E74253243253230616E PUSH5 0x2532307369 PUSH14 0x706C6966696564253230696E2532 ADDRESS PUSH4 0x6C617373 PUSH10 0x63253230706978656C25 ORIGIN ADDRESS PUSH2 0x7274 0x25 ORIGIN ADDRESS PUSH20 0x74796C652532432532307375697461626C652532 ADDRESS PUSH7 0x6F72253230616E 0x2E PUSH24 0x65627068747470733A2F2F62616679626569687232766A36 PUSH18 0x6D69356372787761367272716E7070766E72 PUSH13 0x673765376F646570376A777875 PUSH22 0x34336268626D7074646F78712E697066732E7733732E PUSH13 0x696E6B2F44414C4C2543322542 CALLDATACOPY GASLIMIT 0x25 ORIGIN ADDRESS ORIGIN ADDRESS ORIGIN CALLVALUE 0x2D BALANCE ADDRESS 0x2D ADDRESS ORIGIN 0x25 ORIGIN ADDRESS BALANCE CALLDATASIZE 0x2E ADDRESS CALLVALUE 0x2E CALLER ORIGIN 0x25 ORIGIN ADDRESS 0x2D 0x25 ORIGIN ADDRESS POP PUSH10 0x78656C25323061727425 ORIGIN ADDRESS PUSH16 0x66253230612532307261742532432532 ADDRESS PUSH19 0x6570726573656E74696E672532307468652532 ADDRESS NUMBER PUSH9 0x696E6573652532307A PUSH16 0x646961632E2532305468652532307261 PUSH21 0x25323073686F756C64253230626525323064697374 PUSH10 0x6E637425324325323076 PUSH10 0x6272616E742532432532 ADDRESS PUSH2 0x6E64 0x25 ORIGIN ADDRESS PUSH20 0x696D706C6966696564253230696E253230636C61 PUSH20 0x736963253230706978656C253230617274253230 PUSH20 0x74796C652532432532307375697461626C652532 ADDRESS PUSH7 0x6F72253230616E 0x25 ORIGIN ADDRESS 0x4E 0x2E PUSH24 0x65627068747470733A2F2F62616679626569687232766A36 PUSH18 0x6D69356372787761367272716E7070766E72 PUSH13 0x673765376F646570376A777875 PUSH22 0x34336268626D7074646F78712E697066732E7733732E PUSH13 0x696E6B2F44414C4C2543322542 CALLDATACOPY GASLIMIT 0x25 ORIGIN ADDRESS ORIGIN ADDRESS ORIGIN CALLVALUE 0x2D BALANCE ADDRESS 0x2D ADDRESS ORIGIN 0x25 ORIGIN ADDRESS BALANCE CALLDATASIZE 0x2E ADDRESS CALLDATACOPY 0x2E ORIGIN CODESIZE 0x25 ORIGIN ADDRESS 0x2D 0x25 ORIGIN ADDRESS POP PUSH10 0x78656C25323061727425 ORIGIN ADDRESS PUSH16 0x6625323061253230647261676F6E2532 NUMBER 0x25 ORIGIN ADDRESS PUSH19 0x6570726573656E74696E672532307468652532 ADDRESS NUMBER PUSH9 0x696E6573652532307A PUSH16 0x646961632E2532305468652532306472 PUSH2 0x676F PUSH15 0x25323073686F756C64253230626525 ORIGIN ADDRESS PUSH5 0x697374696E PUSH4 0x74253243 0x25 ORIGIN ADDRESS PUSH23 0x696272616E74253243253230616E6425323073696D706C PUSH10 0x66696564253230696E25 ORIGIN ADDRESS PUSH4 0x6C617373 PUSH10 0x63253230706978656C25 ORIGIN ADDRESS PUSH2 0x7274 0x25 ORIGIN ADDRESS PUSH20 0x74796C652532432532307375697461626C652532 ADDRESS PUSH7 0x6F2E7765627068 PUSH21 0x7470733A2F2F62616679626569687232766A36716D PUSH10 0x35637278776136727271 PUSH15 0x7070766E726C673765376F64657037 PUSH11 0x7778757534336268626D70 PUSH21 0x646F78712E697066732E7733732E6C696E6B2F4441 0x4C 0x4C 0x25 NUMBER ORIGIN 0x25 TIMESTAMP CALLDATACOPY GASLIMIT 0x25 ORIGIN ADDRESS ORIGIN ADDRESS ORIGIN CALLVALUE 0x2D BALANCE ADDRESS 0x2D ADDRESS ORIGIN 0x25 ORIGIN ADDRESS BALANCE CALLDATASIZE 0x2E ADDRESS CALLVALUE 0x2E CALLER CODESIZE 0x25 ORIGIN ADDRESS 0x2D 0x25 ORIGIN ADDRESS POP PUSH10 0x78656C25323061727425 ORIGIN ADDRESS PUSH16 0x66253230612532307469676572253243 0x25 ORIGIN ADDRESS PUSH19 0x6570726573656E74696E672532307468652532 ADDRESS NUMBER PUSH9 0x696E6573652532307A PUSH16 0x646961632E2532305468652532307469 PUSH8 0x657225323073686F PUSH22 0x6C64253230626525323064697374696E637425324325 ORIGIN ADDRESS PUSH23 0x696272616E74253243253230616E6425323073696D706C PUSH10 0x66696564253230696E25 ORIGIN ADDRESS PUSH4 0x6C617373 PUSH10 0x63253230706978656C25 ORIGIN ADDRESS PUSH2 0x7274 0x25 ORIGIN ADDRESS PUSH20 0x74796C652532432532307375697461626C652532 ADDRESS PUSH7 0x6F722532302E77 PUSH6 0x627068747470 PUSH20 0x3A2F2F62616679626569687232766A36716D6935 PUSH4 0x72787761 CALLDATASIZE PUSH19 0x72716E7070766E726C673765376F646570376A PUSH24 0x78757534336268626D7074646F78712E697066732E773373 0x2E PUSH13 0x696E6B2F44414C4C2543322542 CALLDATACOPY GASLIMIT 0x25 ORIGIN ADDRESS ORIGIN ADDRESS ORIGIN CALLVALUE 0x2D BALANCE ADDRESS 0x2D ADDRESS ORIGIN 0x25 ORIGIN ADDRESS BALANCE CALLDATASIZE 0x2E BALANCE ADDRESS 0x2E BALANCE CALLER 0x25 ORIGIN ADDRESS 0x2D 0x25 ORIGIN ADDRESS POP PUSH10 0x78656C25323061727425 ORIGIN ADDRESS PUSH16 0x66253230612532307069672532432532 ADDRESS PUSH19 0x6570726573656E74696E672532307468652532 ADDRESS NUMBER PUSH9 0x696E6573652532307A PUSH16 0x646961632E2532305468652532307069 PUSH8 0x25323073686F756C PUSH5 0x2532306265 0x25 ORIGIN ADDRESS PUSH5 0x697374696E PUSH4 0x74253243 0x25 ORIGIN ADDRESS PUSH23 0x696272616E74253243253230616E6425323073696D706C PUSH10 0x66696564253230696E25 ORIGIN ADDRESS PUSH4 0x6C617373 PUSH10 0x63253230706978656C25 ORIGIN ADDRESS PUSH2 0x7274 0x25 ORIGIN ADDRESS PUSH20 0x74796C652532432532307375697461626C652532 ADDRESS PUSH7 0x6F72253230616E 0x25 ORIGIN ADDRESS 0x4E 0x2E PUSH24 0x65627068747470733A2F2F62616679626569687232766A36 PUSH18 0x6D69356372787761367272716E7070766E72 PUSH13 0x673765376F646570376A777875 PUSH22 0x34336268626D7074646F78712E697066732E7733732E PUSH13 0x696E6B2F44414C4C2543322542 CALLDATACOPY GASLIMIT 0x25 ORIGIN ADDRESS ORIGIN ADDRESS ORIGIN CALLVALUE 0x2D BALANCE ADDRESS 0x2D ADDRESS ORIGIN 0x25 ORIGIN ADDRESS BALANCE CALLDATASIZE 0x2E BALANCE ADDRESS 0x2E ADDRESS ORIGIN 0x25 ORIGIN ADDRESS 0x2D 0x25 ORIGIN ADDRESS POP PUSH10 0x78656C25323061727425 ORIGIN ADDRESS PUSH16 0x6625323061253230646F672532432532 ADDRESS PUSH19 0x6570726573656E74696E672532307468652532 ADDRESS NUMBER PUSH9 0x696E6573652532307A PUSH16 0x646961632E253230546865253230646F PUSH8 0x25323073686F756C PUSH5 0x2532306265 0x25 ORIGIN ADDRESS PUSH5 0x697374696E PUSH4 0x74253243 0x25 ORIGIN ADDRESS PUSH23 0x696272616E74253243253230616E6425323073696D706C PUSH10 0x66696564253230696E25 ORIGIN ADDRESS PUSH4 0x6C617373 PUSH10 0x63253230706978656C25 ORIGIN ADDRESS PUSH2 0x7274 0x25 ORIGIN ADDRESS PUSH20 0x74796C652532432532307375697461626C652532 ADDRESS PUSH7 0x6F72253230616E 0x25 ORIGIN ADDRESS 0x4E 0x2E PUSH24 0x65627068747470733A2F2F6578616D706C652E636F6D2F63 PUSH16 0x6D62696E65642D696D6167652E6A7067 PUSH9 0x747470733A2F2F6261 PUSH7 0x79626569687232 PUSH23 0x6A36716D69356372787761367272716E7070766E726C67 CALLDATACOPY PUSH6 0x376F64657037 PUSH11 0x7778757534336268626D70 PUSH21 0x646F78712E697066732E7733732E6C696E6B2F4441 0x4C 0x4C 0x25 NUMBER ORIGIN 0x25 TIMESTAMP CALLDATACOPY GASLIMIT 0x25 ORIGIN ADDRESS ORIGIN ADDRESS ORIGIN CALLVALUE 0x2D BALANCE ADDRESS 0x2D ADDRESS ORIGIN 0x25 ORIGIN ADDRESS BALANCE CALLDATASIZE 0x2E ADDRESS CALLVALUE 0x2E CALLER CALLDATASIZE 0x25 ORIGIN ADDRESS 0x2D 0x25 ORIGIN ADDRESS POP PUSH10 0x78656C25323061727425 ORIGIN ADDRESS PUSH16 0x66253230616E2532306F782532432532 ADDRESS PUSH19 0x6570726573656E74696E672532307468652532 ADDRESS NUMBER PUSH9 0x696E6573652532307A PUSH16 0x646961632E2532305468652532306F78 0x25 ORIGIN ADDRESS PUSH20 0x686F756C64253230626525323064697374696E63 PUSH21 0x25324325323076696272616E74253243253230616E PUSH5 0x2532307369 PUSH14 0x706C6966696564253230696E2532 ADDRESS PUSH4 0x6C617373 PUSH10 0x63253230706978656C25 ORIGIN ADDRESS PUSH2 0x7274 0x25 ORIGIN ADDRESS PUSH20 0x74796C652532432532307375697461626C652532 ADDRESS PUSH7 0x6F72253230616E 0x25 ORIGIN ADDRESS 0x4E CHAINID 0x2E PUSH24 0x65627068747470733A2F2F62616679626569687232766A36 PUSH18 0x6D69356372787761367272716E7070766E72 PUSH13 0x673765376F646570376A777875 PUSH22 0x34336268626D7074646F78712E697066732E7733732E PUSH13 0x696E6B2F44414C4C2543322542 CALLDATACOPY GASLIMIT 0x25 ORIGIN ADDRESS ORIGIN ADDRESS ORIGIN CALLVALUE 0x2D BALANCE ADDRESS 0x2D ADDRESS ORIGIN 0x25 ORIGIN ADDRESS BALANCE CALLDATASIZE 0x2E ADDRESS CODESIZE 0x2E CALLVALUE BALANCE 0x25 ORIGIN ADDRESS 0x2D 0x25 ORIGIN ADDRESS POP PUSH10 0x78656C25323061727425 ORIGIN ADDRESS PUSH16 0x6625323061253230736E616B65253243 0x25 ORIGIN ADDRESS PUSH19 0x6570726573656E74696E672532307468652532 ADDRESS NUMBER PUSH9 0x696E6573652532307A PUSH16 0x646961632E253230546865253230736E PUSH2 0x6B65 0x25 ORIGIN ADDRESS PUSH20 0x686F756C64253230626525323064697374696E63 PUSH21 0x25324325323076696272616E74253243253230616E PUSH5 0x2532307369 PUSH14 0x706C6966696564253230696E2532 ADDRESS PUSH4 0x6C617373 PUSH10 0x63253230706978656C25 ORIGIN ADDRESS PUSH2 0x7274 0x25 ORIGIN ADDRESS PUSH20 0x74796C652532432532307375697461626C652532 ADDRESS PUSH7 0x6F722532302E77 PUSH6 0x627068747470 PUSH20 0x3A2F2F62616679626569687232766A36716D6935 PUSH4 0x72787761 CALLDATASIZE PUSH19 0x72716E7070766E726C673765376F646570376A PUSH24 0x78757534336268626D7074646F78712E697066732E773373 0x2E PUSH13 0x696E6B2F44414C4C2543322542 CALLDATACOPY GASLIMIT 0x25 ORIGIN ADDRESS ORIGIN ADDRESS ORIGIN CALLVALUE 0x2D BALANCE ADDRESS 0x2D ADDRESS ORIGIN 0x25 ORIGIN ADDRESS BALANCE CALLDATASIZE 0x2E ADDRESS CODESIZE 0x2E CALLVALUE CALLDATALOAD 0x25 ORIGIN ADDRESS 0x2D 0x25 ORIGIN ADDRESS POP PUSH10 0x78656C25323061727425 ORIGIN ADDRESS PUSH16 0x6625323061253230686F727365253243 0x25 ORIGIN ADDRESS PUSH19 0x6570726573656E74696E672532307468652532 ADDRESS NUMBER PUSH9 0x696E6573652532307A PUSH16 0x646961632E253230546865253230686F PUSH19 0x736525323073686F756C642532306265253230 PUSH5 0x697374696E PUSH4 0x74253243 0x25 ORIGIN ADDRESS PUSH23 0x696272616E74253243253230616E6425323073696D706C PUSH10 0x66696564253230696E25 ORIGIN ADDRESS PUSH4 0x6C617373 PUSH10 0x63253230706978656C25 ORIGIN ADDRESS PUSH2 0x7274 0x25 ORIGIN ADDRESS PUSH20 0x74796C652532432532307375697461626C652532 ADDRESS PUSH7 0x6F722532302E77 PUSH6 0x627068747470 PUSH20 0x3A2F2F62616679626569687232766A36716D6935 PUSH4 0x72787761 CALLDATASIZE PUSH19 0x72716E7070766E726C673765376F646570376A PUSH24 0x78757534336268626D7074646F78712E697066732E773373 0x2E PUSH13 0x696E6B2F44414C4C2543322542 CALLDATACOPY GASLIMIT 0x25 ORIGIN ADDRESS ORIGIN ADDRESS ORIGIN CALLVALUE 0x2D BALANCE ADDRESS 0x2D ADDRESS ORIGIN 0x25 ORIGIN ADDRESS BALANCE CALLDATASIZE 0x2E ADDRESS CODECOPY 0x2E CALLVALUE CALLVALUE 0x25 ORIGIN ADDRESS 0x2D 0x25 ORIGIN ADDRESS POP PUSH10 0x78656C25323061727425 ORIGIN ADDRESS PUSH16 0x66253230612532306D6F6E6B65792532 NUMBER 0x25 ORIGIN ADDRESS PUSH19 0x6570726573656E74696E672532307468652532 ADDRESS NUMBER PUSH9 0x696E6573652532307A PUSH16 0x646961632E2532305468652532306D6F PUSH15 0x6B657925323073686F756C64253230 PUSH3 0x652532 ADDRESS PUSH5 0x697374696E PUSH4 0x74253243 0x25 ORIGIN ADDRESS PUSH23 0x696272616E74253243253230616E6425323073696D706C PUSH10 0x66696564253230696E25 ORIGIN ADDRESS PUSH4 0x6C617373 PUSH10 0x63253230706978656C25 ORIGIN ADDRESS PUSH2 0x7274 0x25 ORIGIN ADDRESS PUSH20 0x74796C652532432532307375697461626C652532 ADDRESS PUSH7 0x6F2E7765627068 PUSH21 0x7470733A2F2F62616679626569687232766A36716D PUSH10 0x35637278776136727271 PUSH15 0x7070766E726C673765376F64657037 PUSH11 0x7778757534336268626D70 PUSH21 0x646F78712E697066732E7733732E6C696E6B2F4441 0x4C 0x4C 0x25 NUMBER ORIGIN 0x25 TIMESTAMP CALLDATACOPY GASLIMIT 0x25 ORIGIN ADDRESS ORIGIN ADDRESS ORIGIN CALLVALUE 0x2D BALANCE ADDRESS 0x2D ADDRESS ORIGIN 0x25 ORIGIN ADDRESS BALANCE CALLDATASIZE 0x2E ADDRESS CALLDATACOPY 0x2E ORIGIN BALANCE 0x25 ORIGIN ADDRESS 0x2D 0x25 ORIGIN ADDRESS POP PUSH10 0x78656C25323061727425 ORIGIN ADDRESS PUSH16 0x66253230612532307261626269742532 NUMBER 0x25 ORIGIN ADDRESS PUSH19 0x6570726573656E74696E672532307468652532 ADDRESS NUMBER PUSH9 0x696E6573652532307A PUSH16 0x646961632E2532305468652532307261 PUSH3 0x626974 0x25 ORIGIN ADDRESS PUSH20 0x686F756C64253230626525323064697374696E63 PUSH21 0x25324325323076696272616E74253243253230616E PUSH5 0x2532307369 PUSH14 0x706C6966696564253230696E2532 ADDRESS PUSH4 0x6C617373 PUSH10 0x63253230706978656C25 ORIGIN ADDRESS PUSH2 0x7274 0x25 ORIGIN ADDRESS PUSH20 0x74796C652532432532307375697461626C652532 ADDRESS PUSH7 0x6F2E7765627068 PUSH21 0x7470733A2F2F62616679626569687232766A36716D PUSH10 0x35637278776136727271 PUSH15 0x7070766E726C673765376F64657037 PUSH11 0x7778757534336268626D70 PUSH21 0x646F78712E697066732E7733732E6C696E6B2F4441 0x4C 0x4C 0x25 NUMBER ORIGIN 0x25 TIMESTAMP CALLDATACOPY GASLIMIT 0x25 ORIGIN ADDRESS ORIGIN ADDRESS ORIGIN CALLVALUE 0x2D BALANCE ADDRESS 0x2D ADDRESS ORIGIN 0x25 ORIGIN ADDRESS BALANCE CALLDATASIZE 0x2E ADDRESS CODECOPY 0x2E CALLDATALOAD ORIGIN 0x25 ORIGIN ADDRESS 0x2D 0x25 ORIGIN ADDRESS POP PUSH10 0x78656C25323061727425 ORIGIN ADDRESS PUSH16 0x6625323061253230726F6F7374657225 ORIGIN NUMBER 0x25 ORIGIN ADDRESS PUSH19 0x6570726573656E74696E672532307468652532 ADDRESS NUMBER PUSH9 0x696E6573652532307A PUSH16 0x646961632E253230546865253230726F PUSH16 0x7374657225323073686F756C64253230 PUSH3 0x652532 ADDRESS PUSH5 0x697374696E PUSH4 0x74253243 0x25 ORIGIN ADDRESS PUSH23 0x696272616E74253243253230616E6425323073696D706C PUSH10 0x66696564253230696E25 ORIGIN ADDRESS PUSH4 0x6C617373 PUSH10 0x63253230706978656C25 ORIGIN ADDRESS PUSH2 0x7274 0x25 ORIGIN ADDRESS PUSH20 0x74796C652532432532307375697461626C652532 ADDRESS 0x2E PUSH24 0x656270000000000000000000000000000000000000000000 "},"methodIdentifiers":{"DEFAULT_ADMIN_ROLE()":"a217fddf","MINTER_ROLE()":"d5391393","approve(address,uint256)":"095ea7b3","balanceOf(address)":"70a08231","burn(uint256)":"42966c68","getApproved(uint256)":"081812fc","getRoleAdmin(bytes32)":"248a9ca3","grantRole(bytes32,address)":"2f2ff15d","hasRole(bytes32,address)":"91d14854","isApprovedForAll(address,address)":"e985e9c5","name()":"06fdde03","ownerOf(uint256)":"6352211e","renounceRole(bytes32,address)":"36568abe","revokeRole(bytes32,address)":"d547741f","safeMint(address,uint256)":"a1448194","safeTransferFrom(address,address,uint256)":"42842e0e","safeTransferFrom(address,address,uint256,bytes)":"b88d4fde","setApprovalForAll(address,bool)":"a22cb465","supportsInterface(bytes4)":"01ffc9a7","symbol()":"95d89b41","tokenURI(uint256)":"c87b56dd","tokenZodiac(uint256)":"3fa1fc6e","transferFrom(address,address,uint256)":"23b872dd"}}}}}