{
  "_format": "hh-sol-artifact-1",
  "contractName": "ZodiacNFT",
  "sourceName": "contracts/ZodiacNFT.sol",
  "abi": [
    {
      "inputs": [],
      "stateMutability": "nonpayable",
      "type": "constructor"
    },
    {
      "anonymous": false,
      "inputs": [
        {
          "indexed": true,
          "internalType": "address",
          "name": "owner",
          "type": "address"
        },
        {
          "indexed": true,
          "internalType": "address",
          "name": "approved",
          "type": "address"
        },
        {
          "indexed": true,
          "internalType": "uint256",
          "name": "tokenId",
          "type": "uint256"
        }
      ],
      "name": "Approval",
      "type": "event"
    },
    {
      "anonymous": false,
      "inputs": [
        {
          "indexed": true,
          "internalType": "address",
          "name": "owner",
          "type": "address"
        },
        {
          "indexed": true,
          "internalType": "address",
          "name": "operator",
          "type": "address"
        },
        {
          "indexed": false,
          "internalType": "bool",
          "name": "approved",
          "type": "bool"
        }
      ],
      "name": "ApprovalForAll",
      "type": "event"
    },
    {
      "anonymous": false,
      "inputs": [
        {
          "indexed": true,
          "internalType": "bytes32",
          "name": "role",
          "type": "bytes32"
        },
        {
          "indexed": true,
          "internalType": "bytes32",
          "name": "previousAdminRole",
          "type": "bytes32"
        },
        {
          "indexed": true,
          "internalType": "bytes32",
          "name": "newAdminRole",
          "type": "bytes32"
        }
      ],
      "name": "RoleAdminChanged",
      "type": "event"
    },
    {
      "anonymous": false,
      "inputs": [
        {
          "indexed": true,
          "internalType": "bytes32",
          "name": "role",
          "type": "bytes32"
        },
        {
          "indexed": true,
          "internalType": "address",
          "name": "account",
          "type": "address"
        },
        {
          "indexed": true,
          "internalType": "address",
          "name": "sender",
          "type": "address"
        }
      ],
      "name": "RoleGranted",
      "type": "event"
    },
    {
      "anonymous": false,
      "inputs": [
        {
          "indexed": true,
          "internalType": "bytes32",
          "name": "role",
          "type": "bytes32"
        },
        {
          "indexed": true,
          "internalType": "address",
          "name": "account",
          "type": "address"
        },
        {
          "indexed": true,
          "internalType": "address",
          "name": "sender",
          "type": "address"
        }
      ],
      "name": "RoleRevoked",
      "type": "event"
    },
    {
      "anonymous": false,
      "inputs": [
        {
          "indexed": true,
          "internalType": "address",
          "name": "from",
          "type": "address"
        },
        {
          "indexed": true,
          "internalType": "address",
          "name": "to",
          "type": "address"
        },
        {
          "indexed": true,
          "internalType": "uint256",
          "name": "tokenId",
          "type": "uint256"
        }
      ],
      "name": "Transfer",
      "type": "event"
    },
    {
      "inputs": [],
      "name": "DEFAULT_ADMIN_ROLE",
      "outputs": [
        {
          "internalType": "bytes32",
          "name": "",
          "type": "bytes32"
        }
      ],
      "stateMutability": "view",
      "type": "function"
    },
    {
      "inputs": [],
      "name": "MINTER_ROLE",
      "outputs": [
        {
          "internalType": "bytes32",
          "name": "",
          "type": "bytes32"
        }
      ],
      "stateMutability": "view",
      "type": "function"
    },
    {
      "inputs": [
        {
          "internalType": "address",
          "name": "to",
          "type": "address"
        },
        {
          "internalType": "uint256",
          "name": "tokenId",
          "type": "uint256"
        }
      ],
      "name": "approve",
      "outputs": [],
      "stateMutability": "nonpayable",
      "type": "function"
    },
    {
      "inputs": [
        {
          "internalType": "address",
          "name": "owner",
          "type": "address"
        }
      ],
      "name": "balanceOf",
      "outputs": [
        {
          "internalType": "uint256",
          "name": "",
          "type": "uint256"
        }
      ],
      "stateMutability": "view",
      "type": "function"
    },
    {
      "inputs": [
        {
          "internalType": "uint256",
          "name": "tokenId",
          "type": "uint256"
        }
      ],
      "name": "burn",
      "outputs": [],
      "stateMutability": "nonpayable",
      "type": "function"
    },
    {
      "inputs": [
        {
          "internalType": "uint256",
          "name": "tokenId",
          "type": "uint256"
        }
      ],
      "name": "getApproved",
      "outputs": [
        {
          "internalType": "address",
          "name": "",
          "type": "address"
        }
      ],
      "stateMutability": "view",
      "type": "function"
    },
    {
      "inputs": [
        {
          "internalType": "bytes32",
          "name": "role",
          "type": "bytes32"
        }
      ],
      "name": "getRoleAdmin",
      "outputs": [
        {
          "internalType": "bytes32",
          "name": "",
          "type": "bytes32"
        }
      ],
      "stateMutability": "view",
      "type": "function"
    },
    {
      "inputs": [
        {
          "internalType": "bytes32",
          "name": "role",
          "type": "bytes32"
        },
        {
          "internalType": "address",
          "name": "account",
          "type": "address"
        }
      ],
      "name": "grantRole",
      "outputs": [],
      "stateMutability": "nonpayable",
      "type": "function"
    },
    {
      "inputs": [
        {
          "internalType": "bytes32",
          "name": "role",
          "type": "bytes32"
        },
        {
          "internalType": "address",
          "name": "account",
          "type": "address"
        }
      ],
      "name": "hasRole",
      "outputs": [
        {
          "internalType": "bool",
          "name": "",
          "type": "bool"
        }
      ],
      "stateMutability": "view",
      "type": "function"
    },
    {
      "inputs": [
        {
          "internalType": "address",
          "name": "owner",
          "type": "address"
        },
        {
          "internalType": "address",
          "name": "operator",
          "type": "address"
        }
      ],
      "name": "isApprovedForAll",
      "outputs": [
        {
          "internalType": "bool",
          "name": "",
          "type": "bool"
        }
      ],
      "stateMutability": "view",
      "type": "function"
    },
    {
      "inputs": [],
      "name": "name",
      "outputs": [
        {
          "internalType": "string",
          "name": "",
          "type": "string"
        }
      ],
      "stateMutability": "view",
      "type": "function"
    },
    {
      "inputs": [
        {
          "internalType": "uint256",
          "name": "tokenId",
          "type": "uint256"
        }
      ],
      "name": "ownerOf",
      "outputs": [
        {
          "internalType": "address",
          "name": "",
          "type": "address"
        }
      ],
      "stateMutability": "view",
      "type": "function"
    },
    {
      "inputs": [
        {
          "internalType": "bytes32",
          "name": "role",
          "type": "bytes32"
        },
        {
          "internalType": "address",
          "name": "account",
          "type": "address"
        }
      ],
      "name": "renounceRole",
      "outputs": [],
      "stateMutability": "nonpayable",
      "type": "function"
    },
    {
      "inputs": [
        {
          "internalType": "bytes32",
          "name": "role",
          "type": "bytes32"
        },
        {
          "internalType": "address",
          "name": "account",
          "type": "address"
        }
      ],
      "name": "revokeRole",
      "outputs": [],
      "stateMutability": "nonpayable",
      "type": "function"
    },
    {
      "inputs": [
        {
          "internalType": "address",
          "name": "to",
          "type": "address"
        },
        {
          "internalType": "uint256",
          "name": "zodiacIndex",
          "type": "uint256"
        }
      ],
      "name": "safeMint",
      "outputs": [
        {
          "internalType": "uint256",
          "name": "",
          "type": "uint256"
        }
      ],
      "stateMutability": "nonpayable",
      "type": "function"
    },
    {
      "inputs": [
        {
          "internalType": "address",
          "name": "from",
          "type": "address"
        },
        {
          "internalType": "address",
          "name": "to",
          "type": "address"
        },
        {
          "internalType": "uint256",
          "name": "tokenId",
          "type": "uint256"
        }
      ],
      "name": "safeTransferFrom",
      "outputs": [],
      "stateMutability": "nonpayable",
      "type": "function"
    },
    {
      "inputs": [
        {
          "internalType": "address",
          "name": "from",
          "type": "address"
        },
        {
          "internalType": "address",
          "name": "to",
          "type": "address"
        },
        {
          "internalType": "uint256",
          "name": "tokenId",
          "type": "uint256"
        },
        {
          "internalType": "bytes",
          "name": "data",
          "type": "bytes"
        }
      ],
      "name": "safeTransferFrom",
      "outputs": [],
      "stateMutability": "nonpayable",
      "type": "function"
    },
    {
      "inputs": [
        {
          "internalType": "address",
          "name": "operator",
          "type": "address"
        },
        {
          "internalType": "bool",
          "name": "approved",
          "type": "bool"
        }
      ],
      "name": "setApprovalForAll",
      "outputs": [],
      "stateMutability": "nonpayable",
      "type": "function"
    },
    {
      "inputs": [
        {
          "internalType": "bytes4",
          "name": "interfaceId",
          "type": "bytes4"
        }
      ],
      "name": "supportsInterface",
      "outputs": [
        {
          "internalType": "bool",
          "name": "",
          "type": "bool"
        }
      ],
      "stateMutability": "view",
      "type": "function"
    },
    {
      "inputs": [],
      "name": "symbol",
      "outputs": [
        {
          "internalType": "string",
          "name": "",
          "type": "string"
        }
      ],
      "stateMutability": "view",
      "type": "function"
    },
    {
      "inputs": [
        {
          "internalType": "uint256",
          "name": "index",
          "type": "uint256"
        }
      ],
      "name": "tokenByIndex",
      "outputs": [
        {
          "internalType": "uint256",
          "name": "",
          "type": "uint256"
        }
      ],
      "stateMutability": "view",
      "type": "function"
    },
    {
      "inputs": [
        {
          "internalType": "address",
          "name": "owner",
          "type": "address"
        },
        {
          "internalType": "uint256",
          "name": "index",
          "type": "uint256"
        }
      ],
      "name": "tokenOfOwnerByIndex",
      "outputs": [
        {
          "internalType": "uint256",
          "name": "",
          "type": "uint256"
        }
      ],
      "stateMutability": "view",
      "type": "function"
    },
    {
      "inputs": [
        {
          "internalType": "uint256",
          "name": "tokenId",
          "type": "uint256"
        }
      ],
      "name": "tokenURI",
      "outputs": [
        {
          "internalType": "string",
          "name": "",
          "type": "string"
        }
      ],
      "stateMutability": "view",
      "type": "function"
    },
    {
      "inputs": [
        {
          "internalType": "uint256",
          "name": "",
          "type": "uint256"
        }
      ],
      "name": "tokenZodiac",
      "outputs": [
        {
          "internalType": "uint256",
          "name": "",
          "type": "uint256"
        }
      ],
      "stateMutability": "view",
      "type": "function"
    },
    {
      "inputs": [],
      "name": "totalSupply",
      "outputs": [
        {
          "internalType": "uint256",
          "name": "",
          "type": "uint256"
        }
      ],
      "stateMutability": "view",
      "type": "function"
    },
    {
      "inputs": [
        {
          "internalType": "address",
          "name": "from",
          "type": "address"
        },
        {
          "internalType": "address",
          "name": "to",
          "type": "address"
        },
        {
          "internalType": "uint256",
          "name": "tokenId",
          "type": "uint256"
        }
      ],
      "name": "transferFrom",
      "outputs": [],
      "stateMutability": "nonpayable",
      "type": "function"
    }
  ],
  "bytecode": "0x60806040526040518061018001604052806040518060400160405280600381526020017f526174000000000000000000000000000000000000000000000000000000000081525081526020016040518060400160405280600281526020017f4f7800000000000000000000000000000000000000000000000000000000000081525081526020016040518060400160405280600581526020017f546967657200000000000000000000000000000000000000000000000000000081525081526020016040518060400160405280600681526020017f526162626974000000000000000000000000000000000000000000000000000081525081526020016040518060400160405280600681526020017f447261676f6e000000000000000000000000000000000000000000000000000081525081526020016040518060400160405280600581526020017f536e616b6500000000000000000000000000000000000000000000000000000081525081526020016040518060400160405280600581526020017f486f72736500000000000000000000000000000000000000000000000000000081525081526020016040518060400160405280600481526020017f476f61740000000000000000000000000000000000000000000000000000000081525081526020016040518060400160405280600681526020017f4d6f6e6b6579000000000000000000000000000000000000000000000000000081525081526020016040518060400160405280600781526020017f526f6f737465720000000000000000000000000000000000000000000000000081525081526020016040518060400160405280600381526020017f446f67000000000000000000000000000000000000000000000000000000000081525081526020016040518060400160405280600381526020017f5069670000000000000000000000000000000000000000000000000000000000815250815250600d90600c6102e29291906106f5565b506040518061018001604052806040518061018001604052806101518152602001614e7e6101519139815260200160405180610180016040528061015181526020016155336101519139815260200160405180610180016040528061014f815260200161511c61014f9139815260200160405180610180016040528061014d8152602001615a6f61014d9139815260200160405180610180016040528061014d8152602001614fcf61014d9139815260200160405180610180016040528061014f815260200161568461014f9139815260200160405180610180016040528061014f81526020016157d361014f9139815260200160405180610180016040528061014f8152602001614d2f61014f9139815260200160405180610180016040528061014d815260200161592261014d9139815260200160405180610180016040528061014d8152602001615bbc61014d9139815260200160405180610180016040528061015181526020016153bc61015191398152602001604051806101800160405280610151815260200161526b6101519139815250601990600c6104899291906106f5565b5060405180606001604052806026815260200161550d60269139602590816104b19190610a12565b503480156104be57600080fd5b506040518060400160405280600981526020017f5a6f646961634e465400000000000000000000000000000000000000000000008152506040518060400160405280600481526020017f5a4e465400000000000000000000000000000000000000000000000000000000815250816000908161053a9190610a12565b50806001908161054a9190610a12565b5050506105606000801b3361059560201b60201c565b6105907f9f2df0fed2c77648de5860a4cc508cd0818c85b8b8a1ab4ceeef8d981c8956a63361059560201b60201c565b610ae4565b6105a5828261068260201b60201c565b61067e576001600a600084815260200190815260200160002060000160008373ffffffffffffffffffffffffffffffffffffffff1673ffffffffffffffffffffffffffffffffffffffff16815260200190815260200160002060006101000a81548160ff0219169083151502179055506106236106ed60201b60201c565b73ffffffffffffffffffffffffffffffffffffffff168173ffffffffffffffffffffffffffffffffffffffff16837f2f8788117e7eff1d82e926ec794901d17c78024a50270940304540a733656f0d60405160405180910390a45b5050565b6000600a600084815260200190815260200160002060000160008373ffffffffffffffffffffffffffffffffffffffff1673ffffffffffffffffffffffffffffffffffffffff16815260200190815260200160002060009054906101000a900460ff16905092915050565b600033905090565b82600c8101928215610730579160200282015b8281111561072f57825182908161071f9190610a12565b5091602001919060010190610708565b5b50905061073d9190610741565b5090565b5b8082111561076157600081816107589190610765565b50600101610742565b5090565b5080546107719061082b565b6000825580601f1061078357506107a2565b601f0160209004906000526020600020908101906107a191906107a5565b5b50565b5b808211156107be5760008160009055506001016107a6565b5090565b600081519050919050565b7f4e487b7100000000000000000000000000000000000000000000000000000000600052604160045260246000fd5b7f4e487b7100000000000000000000000000000000000000000000000000000000600052602260045260246000fd5b6000600282049050600182168061084357607f821691505b602082108103610856576108556107fc565b5b50919050565b60008190508160005260206000209050919050565b60006020601f8301049050919050565b600082821b905092915050565b6000600883026108be7fffffffffffffffffffffffffffffffffffffffffffffffffffffffffffffffff82610881565b6108c88683610881565b95508019841693508086168417925050509392505050565b6000819050919050565b6000819050919050565b600061090f61090a610905846108e0565b6108ea565b6108e0565b9050919050565b6000819050919050565b610929836108f4565b61093d61093582610916565b84845461088e565b825550505050565b600090565b610952610945565b61095d818484610920565b505050565b5b818110156109815761097660008261094a565b600181019050610963565b5050565b601f8211156109c6576109978161085c565b6109a084610871565b810160208510156109af578190505b6109c36109bb85610871565b830182610962565b50505b505050565b600082821c905092915050565b60006109e9600019846008026109cb565b1980831691505092915050565b6000610a0283836109d8565b9150826002028217905092915050565b610a1b826107c2565b67ffffffffffffffff811115610a3457610a336107cd565b5b610a3e825461082b565b610a49828285610985565b600060209050601f831160018114610a7c5760008415610a6a578287015190505b610a7485826109f6565b865550610adc565b601f198416610a8a8661085c565b60005b82811015610ab257848901518255600182019150602085019450602081019050610a8d565b86831015610acf5784890151610acb601f8916826109d8565b8355505b6001600288020188555050505b505050505050565b61423c80610af36000396000f3fe608060405234801561001057600080fd5b506004361061018e5760003560e01c80634f6ccce7116100de578063a217fddf11610097578063c87b56dd11610071578063c87b56dd146104cb578063d5391393146104fb578063d547741f14610519578063e985e9c5146105355761018e565b8063a217fddf14610475578063a22cb46514610493578063b88d4fde146104af5761018e565b80634f6ccce7146103675780636352211e1461039757806370a08231146103c757806391d14854146103f757806395d89b4114610427578063a1448194146104455761018e565b8063248a9ca31161014b57806336568abe1161012557806336568abe146102e35780633fa1fc6e146102ff57806342842e0e1461032f57806342966c681461034b5761018e565b8063248a9ca3146102675780632f2ff15d146102975780632f745c59146102b35761018e565b806301ffc9a71461019357806306fdde03146101c3578063081812fc146101e1578063095ea7b31461021157806318160ddd1461022d57806323b872dd1461024b575b600080fd5b6101ad60048036038101906101a89190612ca3565b610565565b6040516101ba9190612ceb565b60405180910390f35b6101cb610577565b6040516101d89190612d96565b60405180910390f35b6101fb60048036038101906101f69190612dee565b610609565b6040516102089190612e5c565b60405180910390f35b61022b60048036038101906102269190612ea3565b61064f565b005b610235610766565b6040516102429190612ef2565b60405180910390f35b61026560048036038101906102609190612f0d565b610773565b005b610281600480360381019061027c9190612f96565b6107d3565b60405161028e9190612fd2565b60405180910390f35b6102b160048036038101906102ac9190612fed565b6107f3565b005b6102cd60048036038101906102c89190612ea3565b610814565b6040516102da9190612ef2565b60405180910390f35b6102fd60048036038101906102f89190612fed565b6108b9565b005b61031960048036038101906103149190612dee565b61093c565b6040516103269190612ef2565b60405180910390f35b61034960048036038101906103449190612f0d565b610954565b005b61036560048036038101906103609190612dee565b610974565b005b610381600480360381019061037c9190612dee565b6109d0565b60405161038e9190612ef2565b60405180910390f35b6103b160048036038101906103ac9190612dee565b610a41565b6040516103be9190612e5c565b60405180910390f35b6103e160048036038101906103dc919061302d565b610ac7565b6040516103ee9190612ef2565b60405180910390f35b610411600480360381019061040c9190612fed565b610b7e565b60405161041e9190612ceb565b60405180910390f35b61042f610be9565b60405161043c9190612d96565b60405180910390f35b61045f600480360381019061045a9190612ea3565b610c7b565b60405161046c9190612ef2565b60405180910390f35b61047d610cec565b60405161048a9190612fd2565b60405180910390f35b6104ad60048036038101906104a89190613086565b610cf3565b005b6104c960048036038101906104c491906131fb565b610d09565b005b6104e560048036038101906104e09190612dee565b610d6b565b6040516104f29190612d96565b60405180910390f35b61050361101c565b6040516105109190612fd2565b60405180910390f35b610533600480360381019061052e9190612fed565b611040565b005b61054f600480360381019061054a919061327e565b611061565b60405161055c9190612ceb565b60405180910390f35b6000610570826110f5565b9050919050565b606060008054610586906132ed565b80601f01602080910402602001604051908101604052809291908181526020018280546105b2906132ed565b80156105ff5780601f106105d4576101008083540402835291602001916105ff565b820191906000526020600020905b8154815290600101906020018083116105e257829003601f168201915b5050505050905090565b60006106148261116f565b6004600083815260200190815260200160002060009054906101000a900473ffffffffffffffffffffffffffffffffffffffff169050919050565b600061065a82610a41565b90508073ffffffffffffffffffffffffffffffffffffffff168373ffffffffffffffffffffffffffffffffffffffff16036106ca576040517f08c379a00000000000000000000000000000000000000000000000000000000081526004016106c190613390565b60405180910390fd5b8073ffffffffffffffffffffffffffffffffffffffff166106e96111ba565b73ffffffffffffffffffffffffffffffffffffffff1614806107185750610717816107126111ba565b611061565b5b610757576040517f08c379a000000000000000000000000000000000000000000000000000000000815260040161074e90613422565b60405180910390fd5b61076183836111c2565b505050565b6000600880549050905090565b61078461077e6111ba565b8261127b565b6107c3576040517f08c379a00000000000000000000000000000000000000000000000000000000081526004016107ba906134b4565b60405180910390fd5b6107ce838383611310565b505050565b6000600a6000838152602001908152602001600020600101549050919050565b6107fc826107d3565b61080581611609565b61080f838361161d565b505050565b600061081f83610ac7565b8210610860576040517f08c379a000000000000000000000000000000000000000000000000000000000815260040161085790613546565b60405180910390fd5b600660008473ffffffffffffffffffffffffffffffffffffffff1673ffffffffffffffffffffffffffffffffffffffff168152602001908152602001600020600083815260200190815260200160002054905092915050565b6108c16111ba565b73ffffffffffffffffffffffffffffffffffffffff168173ffffffffffffffffffffffffffffffffffffffff161461092e576040517f08c379a0000000000000000000000000000000000000000000000000000000008152600401610925906135d8565b60405180910390fd5b61093882826116fe565b5050565b600c6020528060005260406000206000915090505481565b61096f83838360405180602001604052806000815250610d09565b505050565b61098561097f6111ba565b8261127b565b6109c4576040517f08c379a00000000000000000000000000000000000000000000000000000000081526004016109bb90613644565b60405180910390fd5b6109cd816117e0565b50565b60006109da610766565b8210610a1b576040517f08c379a0000000000000000000000000000000000000000000000000000000008152600401610a12906136d6565b60405180910390fd5b60088281548110610a2f57610a2e6136f6565b5b90600052602060002001549050919050565b600080610a4d8361192e565b9050600073ffffffffffffffffffffffffffffffffffffffff168173ffffffffffffffffffffffffffffffffffffffff1603610abe576040517f08c379a0000000000000000000000000000000000000000000000000000000008152600401610ab590613771565b60405180910390fd5b80915050919050565b60008073ffffffffffffffffffffffffffffffffffffffff168273ffffffffffffffffffffffffffffffffffffffff1603610b37576040517f08c379a0000000000000000000000000000000000000000000000000000000008152600401610b2e90613803565b60405180910390fd5b600360008373ffffffffffffffffffffffffffffffffffffffff1673ffffffffffffffffffffffffffffffffffffffff168152602001908152602001600020549050919050565b6000600a600084815260200190815260200160002060000160008373ffffffffffffffffffffffffffffffffffffffff1673ffffffffffffffffffffffffffffffffffffffff16815260200190815260200160002060009054906101000a900460ff16905092915050565b606060018054610bf8906132ed565b80601f0160208091040260200160405190810160405280929190818152602001828054610c24906132ed565b8015610c715780601f10610c4657610100808354040283529160200191610c71565b820191906000526020600020905b815481529060010190602001808311610c5457829003601f168201915b5050505050905090565b60007f9f2df0fed2c77648de5860a4cc508cd0818c85b8b8a1ab4ceeef8d981c8956a6610ca781611609565b6000610cb3600b61196b565b9050610cbf600b611979565b610cc9858261198f565b83600c600083815260200190815260200160002081905550809250505092915050565b6000801b81565b610d05610cfe6111ba565b83836119ad565b5050565b610d1a610d146111ba565b8361127b565b610d59576040517f08c379a0000000000000000000000000000000000000000000000000000000008152600401610d50906134b4565b60405180910390fd5b610d6584848484611b19565b50505050565b6060610d768261116f565b606080600c8060008681526020019081526020016000205403610e5d5760258054610da0906132ed565b80601f0160208091040260200160405190810160405280929190818152602001828054610dcc906132ed565b8015610e195780601f10610dee57610100808354040283529160200191610e19565b820191906000526020600020905b815481529060010190602001808311610dfc57829003601f168201915b505050505091506040518060400160405280601981526020017f4368696e657365205a6f6469616320436f6c6c656374696f6e000000000000008152509050610fc4565b6019600c600086815260200190815260200160002054600c8110610e8457610e836136f6565b5b018054610e90906132ed565b80601f0160208091040260200160405190810160405280929190818152602001828054610ebc906132ed565b8015610f095780601f10610ede57610100808354040283529160200191610f09565b820191906000526020600020905b815481529060010190602001808311610eec57829003601f168201915b50505050509150600d600c600086815260200190815260200160002054600c8110610f3757610f366136f6565b5b018054610f43906132ed565b80601f0160208091040260200160405190810160405280929190818152602001828054610f6f906132ed565b8015610fbc5780601f10610f9157610100808354040283529160200191610fbc565b820191906000526020600020905b815481529060010190602001808311610f9f57829003601f168201915b505050505090505b6000610ff08284604051602001610fdc929190613969565b604051602081830303815290604052611b75565b90508060405160200161100391906139fa565b6040516020818303038152906040529350505050919050565b7f9f2df0fed2c77648de5860a4cc508cd0818c85b8b8a1ab4ceeef8d981c8956a681565b611049826107d3565b61105281611609565b61105c83836116fe565b505050565b6000600560008473ffffffffffffffffffffffffffffffffffffffff1673ffffffffffffffffffffffffffffffffffffffff16815260200190815260200160002060008373ffffffffffffffffffffffffffffffffffffffff1673ffffffffffffffffffffffffffffffffffffffff16815260200190815260200160002060009054906101000a900460ff16905092915050565b60007f7965db0b000000000000000000000000000000000000000000000000000000007bffffffffffffffffffffffffffffffffffffffffffffffffffffffff1916827bffffffffffffffffffffffffffffffffffffffffffffffffffffffff19161480611168575061116782611cd8565b5b9050919050565b61117881611d52565b6111b7576040517f08c379a00000000000000000000000000000000000000000000000000000000081526004016111ae90613771565b60405180910390fd5b50565b600033905090565b816004600083815260200190815260200160002060006101000a81548173ffffffffffffffffffffffffffffffffffffffff021916908373ffffffffffffffffffffffffffffffffffffffff160217905550808273ffffffffffffffffffffffffffffffffffffffff1661123583610a41565b73ffffffffffffffffffffffffffffffffffffffff167f8c5be1e5ebec7d5bd14f71427d1e84f3dd0314c0f7b2291e5b200ac8c7c3b92560405160405180910390a45050565b60008061128783610a41565b90508073ffffffffffffffffffffffffffffffffffffffff168473ffffffffffffffffffffffffffffffffffffffff1614806112c957506112c88185611061565b5b8061130757508373ffffffffffffffffffffffffffffffffffffffff166112ef84610609565b73ffffffffffffffffffffffffffffffffffffffff16145b91505092915050565b8273ffffffffffffffffffffffffffffffffffffffff1661133082610a41565b73ffffffffffffffffffffffffffffffffffffffff1614611386576040517f08c379a000000000000000000000000000000000000000000000000000000000815260040161137d90613a8e565b60405180910390fd5b600073ffffffffffffffffffffffffffffffffffffffff168273ffffffffffffffffffffffffffffffffffffffff16036113f5576040517f08c379a00000000000000000000000000000000000000000000000000000000081526004016113ec90613b20565b60405180910390fd5b6114028383836001611d93565b8273ffffffffffffffffffffffffffffffffffffffff1661142282610a41565b73ffffffffffffffffffffffffffffffffffffffff1614611478576040517f08c379a000000000000000000000000000000000000000000000000000000000815260040161146f90613a8e565b60405180910390fd5b6004600082815260200190815260200160002060006101000a81549073ffffffffffffffffffffffffffffffffffffffff02191690556001600360008573ffffffffffffffffffffffffffffffffffffffff1673ffffffffffffffffffffffffffffffffffffffff168152602001908152602001600020600082825403925050819055506001600360008473ffffffffffffffffffffffffffffffffffffffff1673ffffffffffffffffffffffffffffffffffffffff16815260200190815260200160002060008282540192505081905550816002600083815260200190815260200160002060006101000a81548173ffffffffffffffffffffffffffffffffffffffff021916908373ffffffffffffffffffffffffffffffffffffffff160217905550808273ffffffffffffffffffffffffffffffffffffffff168473ffffffffffffffffffffffffffffffffffffffff167fddf252ad1be2c89b69c2b068fc378daa952ba7f163c4a11628f55a4df523b3ef60405160405180910390a46116048383836001611e4b565b505050565b61161a816116156111ba565b611e51565b50565b6116278282610b7e565b6116fa576001600a600084815260200190815260200160002060000160008373ffffffffffffffffffffffffffffffffffffffff1673ffffffffffffffffffffffffffffffffffffffff16815260200190815260200160002060006101000a81548160ff02191690831515021790555061169f6111ba565b73ffffffffffffffffffffffffffffffffffffffff168173ffffffffffffffffffffffffffffffffffffffff16837f2f8788117e7eff1d82e926ec794901d17c78024a50270940304540a733656f0d60405160405180910390a45b5050565b6117088282610b7e565b156117dc576000600a600084815260200190815260200160002060000160008373ffffffffffffffffffffffffffffffffffffffff1673ffffffffffffffffffffffffffffffffffffffff16815260200190815260200160002060006101000a81548160ff0219169083151502179055506117816111ba565b73ffffffffffffffffffffffffffffffffffffffff168173ffffffffffffffffffffffffffffffffffffffff16837ff6391f5c32d9c69d2a47ea670b442974b53935d1edc7fd64eb21e047a839171b60405160405180910390a45b5050565b60006117eb82610a41565b90506117fb816000846001611d93565b61180482610a41565b90506004600083815260200190815260200160002060006101000a81549073ffffffffffffffffffffffffffffffffffffffff02191690556001600360008373ffffffffffffffffffffffffffffffffffffffff1673ffffffffffffffffffffffffffffffffffffffff168152602001908152602001600020600082825403925050819055506002600083815260200190815260200160002060006101000a81549073ffffffffffffffffffffffffffffffffffffffff021916905581600073ffffffffffffffffffffffffffffffffffffffff168273ffffffffffffffffffffffffffffffffffffffff167fddf252ad1be2c89b69c2b068fc378daa952ba7f163c4a11628f55a4df523b3ef60405160405180910390a461192a816000846001611e4b565b5050565b60006002600083815260200190815260200160002060009054906101000a900473ffffffffffffffffffffffffffffffffffffffff169050919050565b600081600001549050919050565b6001816000016000828254019250508190555050565b6119a9828260405180602001604052806000815250611ed6565b5050565b8173ffffffffffffffffffffffffffffffffffffffff168373ffffffffffffffffffffffffffffffffffffffff1603611a1b576040517f08c379a0000000000000000000000000000000000000000000000000000000008152600401611a1290613b8c565b60405180910390fd5b80600560008573ffffffffffffffffffffffffffffffffffffffff1673ffffffffffffffffffffffffffffffffffffffff16815260200190815260200160002060008473ffffffffffffffffffffffffffffffffffffffff1673ffffffffffffffffffffffffffffffffffffffff16815260200190815260200160002060006101000a81548160ff0219169083151502179055508173ffffffffffffffffffffffffffffffffffffffff168373ffffffffffffffffffffffffffffffffffffffff167f17307eab39ab6107e8899845ad3d59bd9653f200f220920489ca2b5937696c3183604051611b0c9190612ceb565b60405180910390a3505050565b611b24848484611310565b611b3084848484611f31565b611b6f576040517f08c379a0000000000000000000000000000000000000000000000000000000008152600401611b6690613c1e565b60405180910390fd5b50505050565b60606000825103611b9757604051806020016040528060008152509050611cd3565b60006040518060600160405280604081526020016141c76040913990506000600360028551611bc69190613c6d565b611bd09190613cd0565b6004611bdc9190613d01565b67ffffffffffffffff811115611bf557611bf46130d0565b5b6040519080825280601f01601f191660200182016040528015611c275781602001600182028036833780820191505090505b509050600182016020820185865187015b80821015611c93576003820191508151603f8160121c168501518453600184019350603f81600c1c168501518453600184019350603f8160061c168501518453600184019350603f8116850151845360018401935050611c38565b5050600386510660018114611caf5760028114611cc257611cca565b603d6001830353603d6002830353611cca565b603d60018303535b50505080925050505b919050565b60007f780e9d63000000000000000000000000000000000000000000000000000000007bffffffffffffffffffffffffffffffffffffffffffffffffffffffff1916827bffffffffffffffffffffffffffffffffffffffffffffffffffffffff19161480611d4b5750611d4a826120b8565b5b9050919050565b60008073ffffffffffffffffffffffffffffffffffffffff16611d748361192e565b73ffffffffffffffffffffffffffffffffffffffff1614159050919050565b611d9f8484848461219a565b600073ffffffffffffffffffffffffffffffffffffffff168473ffffffffffffffffffffffffffffffffffffffff161480611e065750600073ffffffffffffffffffffffffffffffffffffffff168373ffffffffffffffffffffffffffffffffffffffff16145b611e45576040517f08c379a0000000000000000000000000000000000000000000000000000000008152600401611e3c90613d8f565b60405180910390fd5b50505050565b50505050565b611e5b8282610b7e565b611ed257611e68816122f8565b611e768360001c6020612325565b604051602001611e87929190613e47565b6040516020818303038152906040526040517f08c379a0000000000000000000000000000000000000000000000000000000008152600401611ec99190612d96565b60405180910390fd5b5050565b611ee08383612561565b611eed6000848484611f31565b611f2c576040517f08c379a0000000000000000000000000000000000000000000000000000000008152600401611f2390613c1e565b60405180910390fd5b505050565b6000611f528473ffffffffffffffffffffffffffffffffffffffff1661277e565b156120ab578373ffffffffffffffffffffffffffffffffffffffff1663150b7a02611f7b6111ba565b8786866040518563ffffffff1660e01b8152600401611f9d9493929190613ed6565b6020604051808303816000875af1925050508015611fd957506040513d601f19601f82011682018060405250810190611fd69190613f37565b60015b61205b573d8060008114612009576040519150601f19603f3d011682016040523d82523d6000602084013e61200e565b606091505b506000815103612053576040517f08c379a000000000000000000000000000000000000000000000000000000000815260040161204a90613c1e565b60405180910390fd5b805181602001fd5b63150b7a0260e01b7bffffffffffffffffffffffffffffffffffffffffffffffffffffffff1916817bffffffffffffffffffffffffffffffffffffffffffffffffffffffff1916149150506120b0565b600190505b949350505050565b60007f80ac58cd000000000000000000000000000000000000000000000000000000007bffffffffffffffffffffffffffffffffffffffffffffffffffffffff1916827bffffffffffffffffffffffffffffffffffffffffffffffffffffffff1916148061218357507f5b5e139f000000000000000000000000000000000000000000000000000000007bffffffffffffffffffffffffffffffffffffffffffffffffffffffff1916827bffffffffffffffffffffffffffffffffffffffffffffffffffffffff1916145b806121935750612192826127a1565b5b9050919050565b6121a68484848461280b565b60018111156121ea576040517f08c379a00000000000000000000000000000000000000000000000000000000081526004016121e190613fd6565b60405180910390fd5b6000829050600073ffffffffffffffffffffffffffffffffffffffff168573ffffffffffffffffffffffffffffffffffffffff16036122315761222c81612931565b612270565b8373ffffffffffffffffffffffffffffffffffffffff168573ffffffffffffffffffffffffffffffffffffffff161461226f5761226e858261297a565b5b5b600073ffffffffffffffffffffffffffffffffffffffff168473ffffffffffffffffffffffffffffffffffffffff16036122b2576122ad81612ae7565b6122f1565b8473ffffffffffffffffffffffffffffffffffffffff168473ffffffffffffffffffffffffffffffffffffffff16146122f0576122ef8482612bb8565b5b5b5050505050565b606061231e8273ffffffffffffffffffffffffffffffffffffffff16601460ff16612325565b9050919050565b6060600060028360026123389190613d01565b6123429190613c6d565b67ffffffffffffffff81111561235b5761235a6130d0565b5b6040519080825280601f01601f19166020018201604052801561238d5781602001600182028036833780820191505090505b5090507f3000000000000000000000000000000000000000000000000000000000000000816000815181106123c5576123c46136f6565b5b60200101907effffffffffffffffffffffffffffffffffffffffffffffffffffffffffffff1916908160001a9053507f780000000000000000000000000000000000000000000000000000000000000081600181518110612429576124286136f6565b5b60200101907effffffffffffffffffffffffffffffffffffffffffffffffffffffffffffff1916908160001a905350600060018460026124699190613d01565b6124739190613c6d565b90505b6001811115612513577f3031323334353637383961626364656600000000000000000000000000000000600f8616601081106124b5576124b46136f6565b5b1a60f81b8282815181106124cc576124cb6136f6565b5b60200101907effffffffffffffffffffffffffffffffffffffffffffffffffffffffffffff1916908160001a905350600485901c94508061250c90613ff6565b9050612476565b5060008414612557576040517f08c379a000000000000000000000000000000000000000000000000000000000815260040161254e9061406b565b60405180910390fd5b8091505092915050565b600073ffffffffffffffffffffffffffffffffffffffff168273ffffffffffffffffffffffffffffffffffffffff16036125d0576040517f08c379a00000000000000000000000000000000000000000000000000000000081526004016125c7906140d7565b60405180910390fd5b6125d981611d52565b15612619576040517f08c379a000000000000000000000000000000000000000000000000000000000815260040161261090614143565b60405180910390fd5b612627600083836001611d93565b61263081611d52565b15612670576040517f08c379a000000000000000000000000000000000000000000000000000000000815260040161266790614143565b60405180910390fd5b6001600360008473ffffffffffffffffffffffffffffffffffffffff1673ffffffffffffffffffffffffffffffffffffffff16815260200190815260200160002060008282540192505081905550816002600083815260200190815260200160002060006101000a81548173ffffffffffffffffffffffffffffffffffffffff021916908373ffffffffffffffffffffffffffffffffffffffff160217905550808273ffffffffffffffffffffffffffffffffffffffff16600073ffffffffffffffffffffffffffffffffffffffff167fddf252ad1be2c89b69c2b068fc378daa952ba7f163c4a11628f55a4df523b3ef60405160405180910390a461277a600083836001611e4b565b5050565b6000808273ffffffffffffffffffffffffffffffffffffffff163b119050919050565b60007f01ffc9a7000000000000000000000000000000000000000000000000000000007bffffffffffffffffffffffffffffffffffffffffffffffffffffffff1916827bffffffffffffffffffffffffffffffffffffffffffffffffffffffff1916149050919050565b600181111561292b57600073ffffffffffffffffffffffffffffffffffffffff168473ffffffffffffffffffffffffffffffffffffffff161461289f5780600360008673ffffffffffffffffffffffffffffffffffffffff1673ffffffffffffffffffffffffffffffffffffffff16815260200190815260200160002060008282546128979190614163565b925050819055505b600073ffffffffffffffffffffffffffffffffffffffff168373ffffffffffffffffffffffffffffffffffffffff161461292a5780600360008573ffffffffffffffffffffffffffffffffffffffff1673ffffffffffffffffffffffffffffffffffffffff16815260200190815260200160002060008282546129229190613c6d565b925050819055505b5b50505050565b6008805490506009600083815260200190815260200160002081905550600881908060018154018082558091505060019003906000526020600020016000909190919091505550565b6000600161298784610ac7565b6129919190614163565b9050600060076000848152602001908152602001600020549050818114612a76576000600660008673ffffffffffffffffffffffffffffffffffffffff1673ffffffffffffffffffffffffffffffffffffffff168152602001908152602001600020600084815260200190815260200160002054905080600660008773ffffffffffffffffffffffffffffffffffffffff1673ffffffffffffffffffffffffffffffffffffffff168152602001908152602001600020600084815260200190815260200160002081905550816007600083815260200190815260200160002081905550505b6007600084815260200190815260200160002060009055600660008573ffffffffffffffffffffffffffffffffffffffff1673ffffffffffffffffffffffffffffffffffffffff16815260200190815260200160002060008381526020019081526020016000206000905550505050565b60006001600880549050612afb9190614163565b9050600060096000848152602001908152602001600020549050600060088381548110612b2b57612b2a6136f6565b5b906000526020600020015490508060088381548110612b4d57612b4c6136f6565b5b906000526020600020018190555081600960008381526020019081526020016000208190555060096000858152602001908152602001600020600090556008805480612b9c57612b9b614197565b5b6001900381819060005260206000200160009055905550505050565b6000612bc383610ac7565b905081600660008573ffffffffffffffffffffffffffffffffffffffff1673ffffffffffffffffffffffffffffffffffffffff168152602001908152602001600020600083815260200190815260200160002081905550806007600084815260200190815260200160002081905550505050565b6000604051905090565b600080fd5b600080fd5b60007fffffffff0000000000000000000000000000000000000000000000000000000082169050919050565b612c8081612c4b565b8114612c8b57600080fd5b50565b600081359050612c9d81612c77565b92915050565b600060208284031215612cb957612cb8612c41565b5b6000612cc784828501612c8e565b91505092915050565b60008115159050919050565b612ce581612cd0565b82525050565b6000602082019050612d006000830184612cdc565b92915050565b600081519050919050565b600082825260208201905092915050565b60005b83811015612d40578082015181840152602081019050612d25565b60008484015250505050565b6000601f19601f8301169050919050565b6000612d6882612d06565b612d728185612d11565b9350612d82818560208601612d22565b612d8b81612d4c565b840191505092915050565b60006020820190508181036000830152612db08184612d5d565b905092915050565b6000819050919050565b612dcb81612db8565b8114612dd657600080fd5b50565b600081359050612de881612dc2565b92915050565b600060208284031215612e0457612e03612c41565b5b6000612e1284828501612dd9565b91505092915050565b600073ffffffffffffffffffffffffffffffffffffffff82169050919050565b6000612e4682612e1b565b9050919050565b612e5681612e3b565b82525050565b6000602082019050612e716000830184612e4d565b92915050565b612e8081612e3b565b8114612e8b57600080fd5b50565b600081359050612e9d81612e77565b92915050565b60008060408385031215612eba57612eb9612c41565b5b6000612ec885828601612e8e565b9250506020612ed985828601612dd9565b9150509250929050565b612eec81612db8565b82525050565b6000602082019050612f076000830184612ee3565b92915050565b600080600060608486031215612f2657612f25612c41565b5b6000612f3486828701612e8e565b9350506020612f4586828701612e8e565b9250506040612f5686828701612dd9565b9150509250925092565b6000819050919050565b612f7381612f60565b8114612f7e57600080fd5b50565b600081359050612f9081612f6a565b92915050565b600060208284031215612fac57612fab612c41565b5b6000612fba84828501612f81565b91505092915050565b612fcc81612f60565b82525050565b6000602082019050612fe76000830184612fc3565b92915050565b6000806040838503121561300457613003612c41565b5b600061301285828601612f81565b925050602061302385828601612e8e565b9150509250929050565b60006020828403121561304357613042612c41565b5b600061305184828501612e8e565b91505092915050565b61306381612cd0565b811461306e57600080fd5b50565b6000813590506130808161305a565b92915050565b6000806040838503121561309d5761309c612c41565b5b60006130ab85828601612e8e565b92505060206130bc85828601613071565b9150509250929050565b600080fd5b600080fd5b7f4e487b7100000000000000000000000000000000000000000000000000000000600052604160045260246000fd5b61310882612d4c565b810181811067ffffffffffffffff82111715613127576131266130d0565b5b80604052505050565b600061313a612c37565b905061314682826130ff565b919050565b600067ffffffffffffffff821115613166576131656130d0565b5b61316f82612d4c565b9050602081019050919050565b82818337600083830152505050565b600061319e6131998461314b565b613130565b9050828152602081018484840111156131ba576131b96130cb565b5b6131c584828561317c565b509392505050565b600082601f8301126131e2576131e16130c6565b5b81356131f284826020860161318b565b91505092915050565b6000806000806080858703121561321557613214612c41565b5b600061322387828801612e8e565b945050602061323487828801612e8e565b935050604061324587828801612dd9565b925050606085013567ffffffffffffffff81111561326657613265612c46565b5b613272878288016131cd565b91505092959194509250565b6000806040838503121561329557613294612c41565b5b60006132a385828601612e8e565b92505060206132b485828601612e8e565b9150509250929050565b7f4e487b7100000000000000000000000000000000000000000000000000000000600052602260045260246000fd5b6000600282049050600182168061330557607f821691505b602082108103613318576133176132be565b5b50919050565b7f4552433732313a20617070726f76616c20746f2063757272656e74206f776e6560008201527f7200000000000000000000000000000000000000000000000000000000000000602082015250565b600061337a602183612d11565b91506133858261331e565b604082019050919050565b600060208201905081810360008301526133a98161336d565b9050919050565b7f4552433732313a20617070726f76652063616c6c6572206973206e6f7420746f60008201527f6b656e206f776e6572206f7220617070726f76656420666f7220616c6c000000602082015250565b600061340c603d83612d11565b9150613417826133b0565b604082019050919050565b6000602082019050818103600083015261343b816133ff565b9050919050565b7f4552433732313a2063616c6c6572206973206e6f7420746f6b656e206f776e6560008201527f72206f7220617070726f76656400000000000000000000000000000000000000602082015250565b600061349e602d83612d11565b91506134a982613442565b604082019050919050565b600060208201905081810360008301526134cd81613491565b9050919050565b7f455243373231456e756d657261626c653a206f776e657220696e646578206f7560008201527f74206f6620626f756e6473000000000000000000000000000000000000000000602082015250565b6000613530602b83612d11565b915061353b826134d4565b604082019050919050565b6000602082019050818103600083015261355f81613523565b9050919050565b7f416363657373436f6e74726f6c3a2063616e206f6e6c792072656e6f756e636560008201527f20726f6c657320666f722073656c660000000000000000000000000000000000602082015250565b60006135c2602f83612d11565b91506135cd82613566565b604082019050919050565b600060208201905081810360008301526135f1816135b5565b9050919050565b7f43616c6c6572206973206e6f74206f776e6572206e6f7220617070726f766564600082015250565b600061362e602083612d11565b9150613639826135f8565b602082019050919050565b6000602082019050818103600083015261365d81613621565b9050919050565b7f455243373231456e756d657261626c653a20676c6f62616c20696e646578206f60008201527f7574206f6620626f756e64730000000000000000000000000000000000000000602082015250565b60006136c0602c83612d11565b91506136cb82613664565b604082019050919050565b600060208201905081810360008301526136ef816136b3565b9050919050565b7f4e487b7100000000000000000000000000000000000000000000000000000000600052603260045260246000fd5b7f4552433732313a20696e76616c696420746f6b656e2049440000000000000000600082015250565b600061375b601883612d11565b915061376682613725565b602082019050919050565b6000602082019050818103600083015261378a8161374e565b9050919050565b7f4552433732313a2061646472657373207a65726f206973206e6f74206120766160008201527f6c6964206f776e65720000000000000000000000000000000000000000000000602082015250565b60006137ed602983612d11565b91506137f882613791565b604082019050919050565b6000602082019050818103600083015261381c816137e0565b9050919050565b600081905092915050565b7f7b226e616d65223a202200000000000000000000000000000000000000000000600082015250565b6000613864600a83613823565b915061386f8261382e565b600a82019050919050565b600061388582612d06565b61388f8185613823565b935061389f818560208601612d22565b80840191505092915050565b7f222c20226465736372697074696f6e223a20224368696e657365205a6f64696160008201527f63204e4654222c2022696d616765223a20220000000000000000000000000000602082015250565b6000613907603283613823565b9150613912826138ab565b603282019050919050565b7f227d000000000000000000000000000000000000000000000000000000000000600082015250565b6000613953600283613823565b915061395e8261391d565b600282019050919050565b600061397482613857565b9150613980828561387a565b915061398b826138fa565b9150613997828461387a565b91506139a282613946565b91508190509392505050565b7f646174613a6170706c69636174696f6e2f6a736f6e3b6261736536342c000000600082015250565b60006139e4601d83613823565b91506139ef826139ae565b601d82019050919050565b6000613a05826139d7565b9150613a11828461387a565b915081905092915050565b7f4552433732313a207472616e736665722066726f6d20696e636f72726563742060008201527f6f776e6572000000000000000000000000000000000000000000000000000000602082015250565b6000613a78602583612d11565b9150613a8382613a1c565b604082019050919050565b60006020820190508181036000830152613aa781613a6b565b9050919050565b7f4552433732313a207472616e7366657220746f20746865207a65726f2061646460008201527f7265737300000000000000000000000000000000000000000000000000000000602082015250565b6000613b0a602483612d11565b9150613b1582613aae565b604082019050919050565b60006020820190508181036000830152613b3981613afd565b9050919050565b7f4552433732313a20617070726f766520746f2063616c6c657200000000000000600082015250565b6000613b76601983612d11565b9150613b8182613b40565b602082019050919050565b60006020820190508181036000830152613ba581613b69565b9050919050565b7f4552433732313a207472616e7366657220746f206e6f6e20455243373231526560008201527f63656976657220696d706c656d656e7465720000000000000000000000000000602082015250565b6000613c08603283612d11565b9150613c1382613bac565b604082019050919050565b60006020820190508181036000830152613c3781613bfb565b9050919050565b7f4e487b7100000000000000000000000000000000000000000000000000000000600052601160045260246000fd5b6000613c7882612db8565b9150613c8383612db8565b9250828201905080821115613c9b57613c9a613c3e565b5b92915050565b7f4e487b7100000000000000000000000000000000000000000000000000000000600052601260045260246000fd5b6000613cdb82612db8565b9150613ce683612db8565b925082613cf657613cf5613ca1565b5b828204905092915050565b6000613d0c82612db8565b9150613d1783612db8565b9250828202613d2581612db8565b91508282048414831517613d3c57613d3b613c3e565b5b5092915050565b7f4e4654206973206e6f74207472616e7366657261626c65000000000000000000600082015250565b6000613d79601783612d11565b9150613d8482613d43565b602082019050919050565b60006020820190508181036000830152613da881613d6c565b9050919050565b7f416363657373436f6e74726f6c3a206163636f756e7420000000000000000000600082015250565b6000613de5601783613823565b9150613df082613daf565b601782019050919050565b7f206973206d697373696e6720726f6c6520000000000000000000000000000000600082015250565b6000613e31601183613823565b9150613e3c82613dfb565b601182019050919050565b6000613e5282613dd8565b9150613e5e828561387a565b9150613e6982613e24565b9150613e75828461387a565b91508190509392505050565b600081519050919050565b600082825260208201905092915050565b6000613ea882613e81565b613eb28185613e8c565b9350613ec2818560208601612d22565b613ecb81612d4c565b840191505092915050565b6000608082019050613eeb6000830187612e4d565b613ef86020830186612e4d565b613f056040830185612ee3565b8181036060830152613f178184613e9d565b905095945050505050565b600081519050613f3181612c77565b92915050565b600060208284031215613f4d57613f4c612c41565b5b6000613f5b84828501613f22565b91505092915050565b7f455243373231456e756d657261626c653a20636f6e736563757469766520747260008201527f616e7366657273206e6f7420737570706f727465640000000000000000000000602082015250565b6000613fc0603583612d11565b9150613fcb82613f64565b604082019050919050565b60006020820190508181036000830152613fef81613fb3565b9050919050565b600061400182612db8565b91506000820361401457614013613c3e565b5b600182039050919050565b7f537472696e67733a20686578206c656e67746820696e73756666696369656e74600082015250565b6000614055602083612d11565b91506140608261401f565b602082019050919050565b6000602082019050818103600083015261408481614048565b9050919050565b7f4552433732313a206d696e7420746f20746865207a65726f2061646472657373600082015250565b60006140c1602083612d11565b91506140cc8261408b565b602082019050919050565b600060208201905081810360008301526140f0816140b4565b9050919050565b7f4552433732313a20746f6b656e20616c7265616479206d696e74656400000000600082015250565b600061412d601c83612d11565b9150614138826140f7565b602082019050919050565b6000602082019050818103600083015261415c81614120565b9050919050565b600061416e82612db8565b915061417983612db8565b925082820390508181111561419157614190613c3e565b5b92915050565b7f4e487b7100000000000000000000000000000000000000000000000000000000600052603160045260246000fdfe4142434445464748494a4b4c4d4e4f505152535455565758595a6162636465666768696a6b6c6d6e6f707172737475767778797a303132333435363738392b2fa2646970667358221220b78668983a98979e4595b3a224fbbb092bbdc059319b5f4b67a1763462556c4d64736f6c634300081b003368747470733a2f2f62616679626569687232766a36716d69356372787761367272716e7070766e726c673765376f646570376a7778757534336268626d7074646f78712e697066732e7733732e6c696e6b2f44414c4c25433225423745253230323032342d31302d303225323031362e30392e30362532302d253230506978656c2532306172742532306f6625323061253230676f6174253243253230726570726573656e74696e672532307468652532304368696e6573652532307a6f646961632e253230546865253230676f617425323073686f756c64253230626525323064697374696e637425324325323076696272616e74253243253230616e6425323073696d706c6966696564253230696e253230636c6173736963253230706978656c2532306172742532307374796c652532432532307375697461626c65253230666f72253230616e2e7765627068747470733a2f2f62616679626569687232766a36716d69356372787761367272716e7070766e726c673765376f646570376a7778757534336268626d7074646f78712e697066732e7733732e6c696e6b2f44414c4c25433225423745253230323032342d31302d303225323031362e30342e33322532302d253230506978656c2532306172742532306f6625323061253230726174253243253230726570726573656e74696e672532307468652532304368696e6573652532307a6f646961632e25323054686525323072617425323073686f756c64253230626525323064697374696e637425324325323076696272616e74253243253230616e6425323073696d706c6966696564253230696e253230636c6173736963253230706978656c2532306172742532307374796c652532432532307375697461626c65253230666f72253230616e2532304e2e7765627068747470733a2f2f62616679626569687232766a36716d69356372787761367272716e7070766e726c673765376f646570376a7778757534336268626d7074646f78712e697066732e7733732e6c696e6b2f44414c4c25433225423745253230323032342d31302d303225323031362e30372e32382532302d253230506978656c2532306172742532306f6625323061253230647261676f6e253243253230726570726573656e74696e672532307468652532304368696e6573652532307a6f646961632e253230546865253230647261676f6e25323073686f756c64253230626525323064697374696e637425324325323076696272616e74253243253230616e6425323073696d706c6966696564253230696e253230636c6173736963253230706978656c2532306172742532307374796c652532432532307375697461626c65253230666f2e7765627068747470733a2f2f62616679626569687232766a36716d69356372787761367272716e7070766e726c673765376f646570376a7778757534336268626d7074646f78712e697066732e7733732e6c696e6b2f44414c4c25433225423745253230323032342d31302d303225323031362e30342e33382532302d253230506978656c2532306172742532306f66253230612532307469676572253243253230726570726573656e74696e672532307468652532304368696e6573652532307a6f646961632e253230546865253230746967657225323073686f756c64253230626525323064697374696e637425324325323076696272616e74253243253230616e6425323073696d706c6966696564253230696e253230636c6173736963253230706978656c2532306172742532307374796c652532432532307375697461626c65253230666f722532302e7765627068747470733a2f2f62616679626569687232766a36716d69356372787761367272716e7070766e726c673765376f646570376a7778757534336268626d7074646f78712e697066732e7733732e6c696e6b2f44414c4c25433225423745253230323032342d31302d303225323031362e31302e31332532302d253230506978656c2532306172742532306f6625323061253230706967253243253230726570726573656e74696e672532307468652532304368696e6573652532307a6f646961632e25323054686525323070696725323073686f756c64253230626525323064697374696e637425324325323076696272616e74253243253230616e6425323073696d706c6966696564253230696e253230636c6173736963253230706978656c2532306172742532307374796c652532432532307375697461626c65253230666f72253230616e2532304e2e7765627068747470733a2f2f62616679626569687232766a36716d69356372787761367272716e7070766e726c673765376f646570376a7778757534336268626d7074646f78712e697066732e7733732e6c696e6b2f44414c4c25433225423745253230323032342d31302d303225323031362e31302e30322532302d253230506978656c2532306172742532306f6625323061253230646f67253243253230726570726573656e74696e672532307468652532304368696e6573652532307a6f646961632e253230546865253230646f6725323073686f756c64253230626525323064697374696e637425324325323076696272616e74253243253230616e6425323073696d706c6966696564253230696e253230636c6173736963253230706978656c2532306172742532307374796c652532432532307375697461626c65253230666f72253230616e2532304e2e7765627068747470733a2f2f6578616d706c652e636f6d2f636f6d62696e65642d696d6167652e6a706768747470733a2f2f62616679626569687232766a36716d69356372787761367272716e7070766e726c673765376f646570376a7778757534336268626d7074646f78712e697066732e7733732e6c696e6b2f44414c4c25433225423745253230323032342d31302d303225323031362e30342e33362532302d253230506978656c2532306172742532306f66253230616e2532306f78253243253230726570726573656e74696e672532307468652532304368696e6573652532307a6f646961632e2532305468652532306f7825323073686f756c64253230626525323064697374696e637425324325323076696272616e74253243253230616e6425323073696d706c6966696564253230696e253230636c6173736963253230706978656c2532306172742532307374796c652532432532307375697461626c65253230666f72253230616e2532304e462e7765627068747470733a2f2f62616679626569687232766a36716d69356372787761367272716e7070766e726c673765376f646570376a7778757534336268626d7074646f78712e697066732e7733732e6c696e6b2f44414c4c25433225423745253230323032342d31302d303225323031362e30382e34312532302d253230506978656c2532306172742532306f6625323061253230736e616b65253243253230726570726573656e74696e672532307468652532304368696e6573652532307a6f646961632e253230546865253230736e616b6525323073686f756c64253230626525323064697374696e637425324325323076696272616e74253243253230616e6425323073696d706c6966696564253230696e253230636c6173736963253230706978656c2532306172742532307374796c652532432532307375697461626c65253230666f722532302e7765627068747470733a2f2f62616679626569687232766a36716d69356372787761367272716e7070766e726c673765376f646570376a7778757534336268626d7074646f78712e697066732e7733732e6c696e6b2f44414c4c25433225423745253230323032342d31302d303225323031362e30382e34352532302d253230506978656c2532306172742532306f6625323061253230686f727365253243253230726570726573656e74696e672532307468652532304368696e6573652532307a6f646961632e253230546865253230686f72736525323073686f756c64253230626525323064697374696e637425324325323076696272616e74253243253230616e6425323073696d706c6966696564253230696e253230636c6173736963253230706978656c2532306172742532307374796c652532432532307375697461626c65253230666f722532302e7765627068747470733a2f2f62616679626569687232766a36716d69356372787761367272716e7070766e726c673765376f646570376a7778757534336268626d7074646f78712e697066732e7733732e6c696e6b2f44414c4c25433225423745253230323032342d31302d303225323031362e30392e34342532302d253230506978656c2532306172742532306f66253230612532306d6f6e6b6579253243253230726570726573656e74696e672532307468652532304368696e6573652532307a6f646961632e2532305468652532306d6f6e6b657925323073686f756c64253230626525323064697374696e637425324325323076696272616e74253243253230616e6425323073696d706c6966696564253230696e253230636c6173736963253230706978656c2532306172742532307374796c652532432532307375697461626c65253230666f2e7765627068747470733a2f2f62616679626569687232766a36716d69356372787761367272716e7070766e726c673765376f646570376a7778757534336268626d7074646f78712e697066732e7733732e6c696e6b2f44414c4c25433225423745253230323032342d31302d303225323031362e30372e32312532302d253230506978656c2532306172742532306f6625323061253230726162626974253243253230726570726573656e74696e672532307468652532304368696e6573652532307a6f646961632e25323054686525323072616262697425323073686f756c64253230626525323064697374696e637425324325323076696272616e74253243253230616e6425323073696d706c6966696564253230696e253230636c6173736963253230706978656c2532306172742532307374796c652532432532307375697461626c65253230666f2e7765627068747470733a2f2f62616679626569687232766a36716d69356372787761367272716e7070766e726c673765376f646570376a7778757534336268626d7074646f78712e697066732e7733732e6c696e6b2f44414c4c25433225423745253230323032342d31302d303225323031362e30392e35322532302d253230506978656c2532306172742532306f6625323061253230726f6f73746572253243253230726570726573656e74696e672532307468652532304368696e6573652532307a6f646961632e253230546865253230726f6f7374657225323073686f756c64253230626525323064697374696e637425324325323076696272616e74253243253230616e6425323073696d706c6966696564253230696e253230636c6173736963253230706978656c2532306172742532307374796c652532432532307375697461626c652532302e77656270",
  "linkReferences": {},
  "deployedLinkReferences": {}
}