{
  "_format": "hh-sol-artifact-1",
  "contractName": "ZodiacNFT",
  "sourceName": "contracts/ZodiacNFT.sol",
  "abi": [
    {
      "inputs": [],
      "stateMutability": "nonpayable",
      "type": "constructor"
    },
    {
      "anonymous": false,
      "inputs": [
        {
          "indexed": true,
          "internalType": "address",
          "name": "owner",
          "type": "address"
        },
        {
          "indexed": true,
          "internalType": "address",
          "name": "approved",
          "type": "address"
        },
        {
          "indexed": true,
          "internalType": "uint256",
          "name": "tokenId",
          "type": "uint256"
        }
      ],
      "name": "Approval",
      "type": "event"
    },
    {
      "anonymous": false,
      "inputs": [
        {
          "indexed": true,
          "internalType": "address",
          "name": "owner",
          "type": "address"
        },
        {
          "indexed": true,
          "internalType": "address",
          "name": "operator",
          "type": "address"
        },
        {
          "indexed": false,
          "internalType": "bool",
          "name": "approved",
          "type": "bool"
        }
      ],
      "name": "ApprovalForAll",
      "type": "event"
    },
    {
      "anonymous": false,
      "inputs": [
        {
          "indexed": true,
          "internalType": "bytes32",
          "name": "role",
          "type": "bytes32"
        },
        {
          "indexed": true,
          "internalType": "bytes32",
          "name": "previousAdminRole",
          "type": "bytes32"
        },
        {
          "indexed": true,
          "internalType": "bytes32",
          "name": "newAdminRole",
          "type": "bytes32"
        }
      ],
      "name": "RoleAdminChanged",
      "type": "event"
    },
    {
      "anonymous": false,
      "inputs": [
        {
          "indexed": true,
          "internalType": "bytes32",
          "name": "role",
          "type": "bytes32"
        },
        {
          "indexed": true,
          "internalType": "address",
          "name": "account",
          "type": "address"
        },
        {
          "indexed": true,
          "internalType": "address",
          "name": "sender",
          "type": "address"
        }
      ],
      "name": "RoleGranted",
      "type": "event"
    },
    {
      "anonymous": false,
      "inputs": [
        {
          "indexed": true,
          "internalType": "bytes32",
          "name": "role",
          "type": "bytes32"
        },
        {
          "indexed": true,
          "internalType": "address",
          "name": "account",
          "type": "address"
        },
        {
          "indexed": true,
          "internalType": "address",
          "name": "sender",
          "type": "address"
        }
      ],
      "name": "RoleRevoked",
      "type": "event"
    },
    {
      "anonymous": false,
      "inputs": [
        {
          "indexed": true,
          "internalType": "address",
          "name": "from",
          "type": "address"
        },
        {
          "indexed": true,
          "internalType": "address",
          "name": "to",
          "type": "address"
        },
        {
          "indexed": true,
          "internalType": "uint256",
          "name": "tokenId",
          "type": "uint256"
        }
      ],
      "name": "Transfer",
      "type": "event"
    },
    {
      "inputs": [],
      "name": "DEFAULT_ADMIN_ROLE",
      "outputs": [
        {
          "internalType": "bytes32",
          "name": "",
          "type": "bytes32"
        }
      ],
      "stateMutability": "view",
      "type": "function"
    },
    {
      "inputs": [],
      "name": "MINTER_ROLE",
      "outputs": [
        {
          "internalType": "bytes32",
          "name": "",
          "type": "bytes32"
        }
      ],
      "stateMutability": "view",
      "type": "function"
    },
    {
      "inputs": [
        {
          "internalType": "address",
          "name": "to",
          "type": "address"
        },
        {
          "internalType": "uint256",
          "name": "tokenId",
          "type": "uint256"
        }
      ],
      "name": "approve",
      "outputs": [],
      "stateMutability": "nonpayable",
      "type": "function"
    },
    {
      "inputs": [
        {
          "internalType": "address",
          "name": "owner",
          "type": "address"
        }
      ],
      "name": "balanceOf",
      "outputs": [
        {
          "internalType": "uint256",
          "name": "",
          "type": "uint256"
        }
      ],
      "stateMutability": "view",
      "type": "function"
    },
    {
      "inputs": [
        {
          "internalType": "uint256",
          "name": "tokenId",
          "type": "uint256"
        }
      ],
      "name": "burn",
      "outputs": [],
      "stateMutability": "nonpayable",
      "type": "function"
    },
    {
      "inputs": [
        {
          "internalType": "uint256",
          "name": "tokenId",
          "type": "uint256"
        }
      ],
      "name": "getApproved",
      "outputs": [
        {
          "internalType": "address",
          "name": "",
          "type": "address"
        }
      ],
      "stateMutability": "view",
      "type": "function"
    },
    {
      "inputs": [
        {
          "internalType": "bytes32",
          "name": "role",
          "type": "bytes32"
        }
      ],
      "name": "getRoleAdmin",
      "outputs": [
        {
          "internalType": "bytes32",
          "name": "",
          "type": "bytes32"
        }
      ],
      "stateMutability": "view",
      "type": "function"
    },
    {
      "inputs": [
        {
          "internalType": "bytes32",
          "name": "role",
          "type": "bytes32"
        },
        {
          "internalType": "address",
          "name": "account",
          "type": "address"
        }
      ],
      "name": "grantRole",
      "outputs": [],
      "stateMutability": "nonpayable",
      "type": "function"
    },
    {
      "inputs": [
        {
          "internalType": "bytes32",
          "name": "role",
          "type": "bytes32"
        },
        {
          "internalType": "address",
          "name": "account",
          "type": "address"
        }
      ],
      "name": "hasRole",
      "outputs": [
        {
          "internalType": "bool",
          "name": "",
          "type": "bool"
        }
      ],
      "stateMutability": "view",
      "type": "function"
    },
    {
      "inputs": [
        {
          "internalType": "address",
          "name": "owner",
          "type": "address"
        },
        {
          "internalType": "address",
          "name": "operator",
          "type": "address"
        }
      ],
      "name": "isApprovedForAll",
      "outputs": [
        {
          "internalType": "bool",
          "name": "",
          "type": "bool"
        }
      ],
      "stateMutability": "view",
      "type": "function"
    },
    {
      "inputs": [],
      "name": "name",
      "outputs": [
        {
          "internalType": "string",
          "name": "",
          "type": "string"
        }
      ],
      "stateMutability": "view",
      "type": "function"
    },
    {
      "inputs": [
        {
          "internalType": "uint256",
          "name": "tokenId",
          "type": "uint256"
        }
      ],
      "name": "ownerOf",
      "outputs": [
        {
          "internalType": "address",
          "name": "",
          "type": "address"
        }
      ],
      "stateMutability": "view",
      "type": "function"
    },
    {
      "inputs": [
        {
          "internalType": "bytes32",
          "name": "role",
          "type": "bytes32"
        },
        {
          "internalType": "address",
          "name": "account",
          "type": "address"
        }
      ],
      "name": "renounceRole",
      "outputs": [],
      "stateMutability": "nonpayable",
      "type": "function"
    },
    {
      "inputs": [
        {
          "internalType": "bytes32",
          "name": "role",
          "type": "bytes32"
        },
        {
          "internalType": "address",
          "name": "account",
          "type": "address"
        }
      ],
      "name": "revokeRole",
      "outputs": [],
      "stateMutability": "nonpayable",
      "type": "function"
    },
    {
      "inputs": [
        {
          "internalType": "address",
          "name": "to",
          "type": "address"
        },
        {
          "internalType": "uint256",
          "name": "zodiacIndex",
          "type": "uint256"
        }
      ],
      "name": "safeMint",
      "outputs": [
        {
          "internalType": "uint256",
          "name": "",
          "type": "uint256"
        }
      ],
      "stateMutability": "nonpayable",
      "type": "function"
    },
    {
      "inputs": [
        {
          "internalType": "address",
          "name": "from",
          "type": "address"
        },
        {
          "internalType": "address",
          "name": "to",
          "type": "address"
        },
        {
          "internalType": "uint256",
          "name": "tokenId",
          "type": "uint256"
        }
      ],
      "name": "safeTransferFrom",
      "outputs": [],
      "stateMutability": "nonpayable",
      "type": "function"
    },
    {
      "inputs": [
        {
          "internalType": "address",
          "name": "from",
          "type": "address"
        },
        {
          "internalType": "address",
          "name": "to",
          "type": "address"
        },
        {
          "internalType": "uint256",
          "name": "tokenId",
          "type": "uint256"
        },
        {
          "internalType": "bytes",
          "name": "data",
          "type": "bytes"
        }
      ],
      "name": "safeTransferFrom",
      "outputs": [],
      "stateMutability": "nonpayable",
      "type": "function"
    },
    {
      "inputs": [
        {
          "internalType": "address",
          "name": "operator",
          "type": "address"
        },
        {
          "internalType": "bool",
          "name": "approved",
          "type": "bool"
        }
      ],
      "name": "setApprovalForAll",
      "outputs": [],
      "stateMutability": "nonpayable",
      "type": "function"
    },
    {
      "inputs": [
        {
          "internalType": "bytes4",
          "name": "interfaceId",
          "type": "bytes4"
        }
      ],
      "name": "supportsInterface",
      "outputs": [
        {
          "internalType": "bool",
          "name": "",
          "type": "bool"
        }
      ],
      "stateMutability": "view",
      "type": "function"
    },
    {
      "inputs": [],
      "name": "symbol",
      "outputs": [
        {
          "internalType": "string",
          "name": "",
          "type": "string"
        }
      ],
      "stateMutability": "view",
      "type": "function"
    },
    {
      "inputs": [
        {
          "internalType": "uint256",
          "name": "tokenId",
          "type": "uint256"
        }
      ],
      "name": "tokenURI",
      "outputs": [
        {
          "internalType": "string",
          "name": "",
          "type": "string"
        }
      ],
      "stateMutability": "view",
      "type": "function"
    },
    {
      "inputs": [
        {
          "internalType": "uint256",
          "name": "",
          "type": "uint256"
        }
      ],
      "name": "tokenZodiac",
      "outputs": [
        {
          "internalType": "uint256",
          "name": "",
          "type": "uint256"
        }
      ],
      "stateMutability": "view",
      "type": "function"
    },
    {
      "inputs": [
        {
          "internalType": "address",
          "name": "from",
          "type": "address"
        },
        {
          "internalType": "address",
          "name": "to",
          "type": "address"
        },
        {
          "internalType": "uint256",
          "name": "tokenId",
          "type": "uint256"
        }
      ],
      "name": "transferFrom",
      "outputs": [],
      "stateMutability": "nonpayable",
      "type": "function"
    }
  ],
  "bytecode": "0x60806040526040518061018001604052806040518060400160405280600381526020017f526174000000000000000000000000000000000000000000000000000000000081525081526020016040518060400160405280600281526020017f4f7800000000000000000000000000000000000000000000000000000000000081525081526020016040518060400160405280600581526020017f546967657200000000000000000000000000000000000000000000000000000081525081526020016040518060400160405280600681526020017f526162626974000000000000000000000000000000000000000000000000000081525081526020016040518060400160405280600681526020017f447261676f6e000000000000000000000000000000000000000000000000000081525081526020016040518060400160405280600581526020017f536e616b6500000000000000000000000000000000000000000000000000000081525081526020016040518060400160405280600581526020017f486f72736500000000000000000000000000000000000000000000000000000081525081526020016040518060400160405280600481526020017f476f61740000000000000000000000000000000000000000000000000000000081525081526020016040518060400160405280600681526020017f4d6f6e6b6579000000000000000000000000000000000000000000000000000081525081526020016040518060400160405280600781526020017f526f6f737465720000000000000000000000000000000000000000000000000081525081526020016040518060400160405280600381526020017f446f67000000000000000000000000000000000000000000000000000000000081525081526020016040518060400160405280600381526020017f5069670000000000000000000000000000000000000000000000000000000000815250815250600990600c6102e29291906106f5565b5060405180610180016040528060405180610180016040528061015181526020016145da610151913981526020016040518061018001604052806101518152602001614c8f6101519139815260200160405180610180016040528061014f815260200161487861014f9139815260200160405180610180016040528061014d81526020016151cb61014d9139815260200160405180610180016040528061014d815260200161472b61014d9139815260200160405180610180016040528061014f8152602001614de061014f9139815260200160405180610180016040528061014f8152602001614f2f61014f9139815260200160405180610180016040528061014f815260200161448b61014f9139815260200160405180610180016040528061014d815260200161507e61014d9139815260200160405180610180016040528061014d815260200161531861014d913981526020016040518061018001604052806101518152602001614b186101519139815260200160405180610180016040528061015181526020016149c76101519139815250601590600c6104899291906106f5565b50604051806060016040528060268152602001614c6960269139602190816104b19190610a12565b503480156104be57600080fd5b506040518060400160405280600981526020017f5a6f646961634e465400000000000000000000000000000000000000000000008152506040518060400160405280600481526020017f5a4e465400000000000000000000000000000000000000000000000000000000815250816000908161053a9190610a12565b50806001908161054a9190610a12565b5050506105606000801b3361059560201b60201c565b6105907f9f2df0fed2c77648de5860a4cc508cd0818c85b8b8a1ab4ceeef8d981c8956a63361059560201b60201c565b610ae4565b6105a5828261068260201b60201c565b61067e5760016006600084815260200190815260200160002060000160008373ffffffffffffffffffffffffffffffffffffffff1673ffffffffffffffffffffffffffffffffffffffff16815260200190815260200160002060006101000a81548160ff0219169083151502179055506106236106ed60201b60201c565b73ffffffffffffffffffffffffffffffffffffffff168173ffffffffffffffffffffffffffffffffffffffff16837f2f8788117e7eff1d82e926ec794901d17c78024a50270940304540a733656f0d60405160405180910390a45b5050565b60006006600084815260200190815260200160002060000160008373ffffffffffffffffffffffffffffffffffffffff1673ffffffffffffffffffffffffffffffffffffffff16815260200190815260200160002060009054906101000a900460ff16905092915050565b600033905090565b82600c8101928215610730579160200282015b8281111561072f57825182908161071f9190610a12565b5091602001919060010190610708565b5b50905061073d9190610741565b5090565b5b8082111561076157600081816107589190610765565b50600101610742565b5090565b5080546107719061082b565b6000825580601f1061078357506107a2565b601f0160209004906000526020600020908101906107a191906107a5565b5b50565b5b808211156107be5760008160009055506001016107a6565b5090565b600081519050919050565b7f4e487b7100000000000000000000000000000000000000000000000000000000600052604160045260246000fd5b7f4e487b7100000000000000000000000000000000000000000000000000000000600052602260045260246000fd5b6000600282049050600182168061084357607f821691505b602082108103610856576108556107fc565b5b50919050565b60008190508160005260206000209050919050565b60006020601f8301049050919050565b600082821b905092915050565b6000600883026108be7fffffffffffffffffffffffffffffffffffffffffffffffffffffffffffffffff82610881565b6108c88683610881565b95508019841693508086168417925050509392505050565b6000819050919050565b6000819050919050565b600061090f61090a610905846108e0565b6108ea565b6108e0565b9050919050565b6000819050919050565b610929836108f4565b61093d61093582610916565b84845461088e565b825550505050565b600090565b610952610945565b61095d818484610920565b505050565b5b818110156109815761097660008261094a565b600181019050610963565b5050565b601f8211156109c6576109978161085c565b6109a084610871565b810160208510156109af578190505b6109c36109bb85610871565b830182610962565b50505b505050565b600082821c905092915050565b60006109e9600019846008026109cb565b1980831691505092915050565b6000610a0283836109d8565b9150826002028217905092915050565b610a1b826107c2565b67ffffffffffffffff811115610a3457610a336107cd565b5b610a3e825461082b565b610a49828285610985565b600060209050601f831160018114610a7c5760008415610a6a578287015190505b610a7485826109f6565b865550610adc565b601f198416610a8a8661085c565b60005b82811015610ab257848901518255600182019150602085019450602081019050610a8d565b86831015610acf5784890151610acb601f8916826109d8565b8355505b6001600288020188555050505b505050505050565b61399880610af36000396000f3fe608060405234801561001057600080fd5b506004361061014d5760003560e01c80636352211e116100c3578063a22cb4651161007c578063a22cb465146103d4578063b88d4fde146103f0578063c87b56dd1461040c578063d53913931461043c578063d547741f1461045a578063e985e9c5146104765761014d565b80636352211e146102d857806370a082311461030857806391d148541461033857806395d89b4114610368578063a144819414610386578063a217fddf146103b65761014d565b8063248a9ca311610115578063248a9ca3146102085780632f2ff15d1461023857806336568abe146102545780633fa1fc6e1461027057806342842e0e146102a057806342966c68146102bc5761014d565b806301ffc9a71461015257806306fdde0314610182578063081812fc146101a0578063095ea7b3146101d057806323b872dd146101ec575b600080fd5b61016c600480360381019061016791906125e4565b6104a6565b604051610179919061262c565b60405180910390f35b61018a6104b8565b60405161019791906126d7565b60405180910390f35b6101ba60048036038101906101b5919061272f565b61054a565b6040516101c7919061279d565b60405180910390f35b6101ea60048036038101906101e591906127e4565b610590565b005b61020660048036038101906102019190612824565b6106a7565b005b610222600480360381019061021d91906128ad565b610707565b60405161022f91906128e9565b60405180910390f35b610252600480360381019061024d9190612904565b610727565b005b61026e60048036038101906102699190612904565b610748565b005b61028a6004803603810190610285919061272f565b6107cb565b6040516102979190612953565b60405180910390f35b6102ba60048036038101906102b59190612824565b6107e3565b005b6102d660048036038101906102d1919061272f565b610803565b005b6102f260048036038101906102ed919061272f565b61085f565b6040516102ff919061279d565b60405180910390f35b610322600480360381019061031d919061296e565b6108e5565b60405161032f9190612953565b60405180910390f35b610352600480360381019061034d9190612904565b61099c565b60405161035f919061262c565b60405180910390f35b610370610a07565b60405161037d91906126d7565b60405180910390f35b6103a0600480360381019061039b91906127e4565b610a99565b6040516103ad9190612953565b60405180910390f35b6103be610b0a565b6040516103cb91906128e9565b60405180910390f35b6103ee60048036038101906103e991906129c7565b610b11565b005b61040a60048036038101906104059190612b3c565b610b27565b005b6104266004803603810190610421919061272f565b610b89565b60405161043391906126d7565b60405180910390f35b610444610e3b565b60405161045191906128e9565b60405180910390f35b610474600480360381019061046f9190612904565b610e5f565b005b610490600480360381019061048b9190612bbf565b610e80565b60405161049d919061262c565b60405180910390f35b60006104b182610f14565b9050919050565b6060600080546104c790612c2e565b80601f01602080910402602001604051908101604052809291908181526020018280546104f390612c2e565b80156105405780601f1061051557610100808354040283529160200191610540565b820191906000526020600020905b81548152906001019060200180831161052357829003601f168201915b5050505050905090565b600061055582610f8e565b6004600083815260200190815260200160002060009054906101000a900473ffffffffffffffffffffffffffffffffffffffff169050919050565b600061059b8261085f565b90508073ffffffffffffffffffffffffffffffffffffffff168373ffffffffffffffffffffffffffffffffffffffff160361060b576040517f08c379a000000000000000000000000000000000000000000000000000000000815260040161060290612cd1565b60405180910390fd5b8073ffffffffffffffffffffffffffffffffffffffff1661062a610fd9565b73ffffffffffffffffffffffffffffffffffffffff161480610659575061065881610653610fd9565b610e80565b5b610698576040517f08c379a000000000000000000000000000000000000000000000000000000000815260040161068f90612d63565b60405180910390fd5b6106a28383610fe1565b505050565b6106b86106b2610fd9565b8261109a565b6106f7576040517f08c379a00000000000000000000000000000000000000000000000000000000081526004016106ee90612df5565b60405180910390fd5b61070283838361112f565b505050565b600060066000838152602001908152602001600020600101549050919050565b61073082610707565b61073981611428565b610743838361143c565b505050565b610750610fd9565b73ffffffffffffffffffffffffffffffffffffffff168173ffffffffffffffffffffffffffffffffffffffff16146107bd576040517f08c379a00000000000000000000000000000000000000000000000000000000081526004016107b490612e87565b60405180910390fd5b6107c7828261151d565b5050565b60086020528060005260406000206000915090505481565b6107fe83838360405180602001604052806000815250610b27565b505050565b61081461080e610fd9565b8261109a565b610853576040517f08c379a000000000000000000000000000000000000000000000000000000000815260040161084a90612ef3565b60405180910390fd5b61085c816115ff565b50565b60008061086b8361174d565b9050600073ffffffffffffffffffffffffffffffffffffffff168173ffffffffffffffffffffffffffffffffffffffff16036108dc576040517f08c379a00000000000000000000000000000000000000000000000000000000081526004016108d390612f5f565b60405180910390fd5b80915050919050565b60008073ffffffffffffffffffffffffffffffffffffffff168273ffffffffffffffffffffffffffffffffffffffff1603610955576040517f08c379a000000000000000000000000000000000000000000000000000000000815260040161094c90612ff1565b60405180910390fd5b600360008373ffffffffffffffffffffffffffffffffffffffff1673ffffffffffffffffffffffffffffffffffffffff168152602001908152602001600020549050919050565b60006006600084815260200190815260200160002060000160008373ffffffffffffffffffffffffffffffffffffffff1673ffffffffffffffffffffffffffffffffffffffff16815260200190815260200160002060009054906101000a900460ff16905092915050565b606060018054610a1690612c2e565b80601f0160208091040260200160405190810160405280929190818152602001828054610a4290612c2e565b8015610a8f5780601f10610a6457610100808354040283529160200191610a8f565b820191906000526020600020905b815481529060010190602001808311610a7257829003601f168201915b5050505050905090565b60007f9f2df0fed2c77648de5860a4cc508cd0818c85b8b8a1ab4ceeef8d981c8956a6610ac581611428565b6000610ad1600761178a565b9050610add6007611798565b610ae785826117ae565b836008600083815260200190815260200160002081905550809250505092915050565b6000801b81565b610b23610b1c610fd9565b83836117cc565b5050565b610b38610b32610fd9565b8361109a565b610b77576040517f08c379a0000000000000000000000000000000000000000000000000000000008152600401610b6e90612df5565b60405180910390fd5b610b8384848484611938565b50505050565b6060610b9482610f8e565b606080600c600860008681526020019081526020016000205403610c7c5760218054610bbf90612c2e565b80601f0160208091040260200160405190810160405280929190818152602001828054610beb90612c2e565b8015610c385780601f10610c0d57610100808354040283529160200191610c38565b820191906000526020600020905b815481529060010190602001808311610c1b57829003601f168201915b505050505091506040518060400160405280601981526020017f4368696e657365205a6f6469616320436f6c6c656374696f6e000000000000008152509050610de3565b60156008600086815260200190815260200160002054600c8110610ca357610ca2613011565b5b018054610caf90612c2e565b80601f0160208091040260200160405190810160405280929190818152602001828054610cdb90612c2e565b8015610d285780601f10610cfd57610100808354040283529160200191610d28565b820191906000526020600020905b815481529060010190602001808311610d0b57829003601f168201915b5050505050915060096008600086815260200190815260200160002054600c8110610d5657610d55613011565b5b018054610d6290612c2e565b80601f0160208091040260200160405190810160405280929190818152602001828054610d8e90612c2e565b8015610ddb5780601f10610db057610100808354040283529160200191610ddb565b820191906000526020600020905b815481529060010190602001808311610dbe57829003601f168201915b505050505090505b6000610e0f8284604051602001610dfb929190613186565b604051602081830303815290604052611994565b905080604051602001610e229190613217565b6040516020818303038152906040529350505050919050565b7f9f2df0fed2c77648de5860a4cc508cd0818c85b8b8a1ab4ceeef8d981c8956a681565b610e6882610707565b610e7181611428565b610e7b838361151d565b505050565b6000600560008473ffffffffffffffffffffffffffffffffffffffff1673ffffffffffffffffffffffffffffffffffffffff16815260200190815260200160002060008373ffffffffffffffffffffffffffffffffffffffff1673ffffffffffffffffffffffffffffffffffffffff16815260200190815260200160002060009054906101000a900460ff16905092915050565b60007f7965db0b000000000000000000000000000000000000000000000000000000007bffffffffffffffffffffffffffffffffffffffffffffffffffffffff1916827bffffffffffffffffffffffffffffffffffffffffffffffffffffffff19161480610f875750610f8682611af7565b5b9050919050565b610f9781611bd9565b610fd6576040517f08c379a0000000000000000000000000000000000000000000000000000000008152600401610fcd90612f5f565b60405180910390fd5b50565b600033905090565b816004600083815260200190815260200160002060006101000a81548173ffffffffffffffffffffffffffffffffffffffff021916908373ffffffffffffffffffffffffffffffffffffffff160217905550808273ffffffffffffffffffffffffffffffffffffffff166110548361085f565b73ffffffffffffffffffffffffffffffffffffffff167f8c5be1e5ebec7d5bd14f71427d1e84f3dd0314c0f7b2291e5b200ac8c7c3b92560405160405180910390a45050565b6000806110a68361085f565b90508073ffffffffffffffffffffffffffffffffffffffff168473ffffffffffffffffffffffffffffffffffffffff1614806110e857506110e78185610e80565b5b8061112657508373ffffffffffffffffffffffffffffffffffffffff1661110e8461054a565b73ffffffffffffffffffffffffffffffffffffffff16145b91505092915050565b8273ffffffffffffffffffffffffffffffffffffffff1661114f8261085f565b73ffffffffffffffffffffffffffffffffffffffff16146111a5576040517f08c379a000000000000000000000000000000000000000000000000000000000815260040161119c906132ab565b60405180910390fd5b600073ffffffffffffffffffffffffffffffffffffffff168273ffffffffffffffffffffffffffffffffffffffff1603611214576040517f08c379a000000000000000000000000000000000000000000000000000000000815260040161120b9061333d565b60405180910390fd5b6112218383836001611c1a565b8273ffffffffffffffffffffffffffffffffffffffff166112418261085f565b73ffffffffffffffffffffffffffffffffffffffff1614611297576040517f08c379a000000000000000000000000000000000000000000000000000000000815260040161128e906132ab565b60405180910390fd5b6004600082815260200190815260200160002060006101000a81549073ffffffffffffffffffffffffffffffffffffffff02191690556001600360008573ffffffffffffffffffffffffffffffffffffffff1673ffffffffffffffffffffffffffffffffffffffff168152602001908152602001600020600082825403925050819055506001600360008473ffffffffffffffffffffffffffffffffffffffff1673ffffffffffffffffffffffffffffffffffffffff16815260200190815260200160002060008282540192505081905550816002600083815260200190815260200160002060006101000a81548173ffffffffffffffffffffffffffffffffffffffff021916908373ffffffffffffffffffffffffffffffffffffffff160217905550808273ffffffffffffffffffffffffffffffffffffffff168473ffffffffffffffffffffffffffffffffffffffff167fddf252ad1be2c89b69c2b068fc378daa952ba7f163c4a11628f55a4df523b3ef60405160405180910390a46114238383836001611cd2565b505050565b61143981611434610fd9565b611cd8565b50565b611446828261099c565b6115195760016006600084815260200190815260200160002060000160008373ffffffffffffffffffffffffffffffffffffffff1673ffffffffffffffffffffffffffffffffffffffff16815260200190815260200160002060006101000a81548160ff0219169083151502179055506114be610fd9565b73ffffffffffffffffffffffffffffffffffffffff168173ffffffffffffffffffffffffffffffffffffffff16837f2f8788117e7eff1d82e926ec794901d17c78024a50270940304540a733656f0d60405160405180910390a45b5050565b611527828261099c565b156115fb5760006006600084815260200190815260200160002060000160008373ffffffffffffffffffffffffffffffffffffffff1673ffffffffffffffffffffffffffffffffffffffff16815260200190815260200160002060006101000a81548160ff0219169083151502179055506115a0610fd9565b73ffffffffffffffffffffffffffffffffffffffff168173ffffffffffffffffffffffffffffffffffffffff16837ff6391f5c32d9c69d2a47ea670b442974b53935d1edc7fd64eb21e047a839171b60405160405180910390a45b5050565b600061160a8261085f565b905061161a816000846001611c1a565b6116238261085f565b90506004600083815260200190815260200160002060006101000a81549073ffffffffffffffffffffffffffffffffffffffff02191690556001600360008373ffffffffffffffffffffffffffffffffffffffff1673ffffffffffffffffffffffffffffffffffffffff168152602001908152602001600020600082825403925050819055506002600083815260200190815260200160002060006101000a81549073ffffffffffffffffffffffffffffffffffffffff021916905581600073ffffffffffffffffffffffffffffffffffffffff168273ffffffffffffffffffffffffffffffffffffffff167fddf252ad1be2c89b69c2b068fc378daa952ba7f163c4a11628f55a4df523b3ef60405160405180910390a4611749816000846001611cd2565b5050565b60006002600083815260200190815260200160002060009054906101000a900473ffffffffffffffffffffffffffffffffffffffff169050919050565b600081600001549050919050565b6001816000016000828254019250508190555050565b6117c8828260405180602001604052806000815250611d5d565b5050565b8173ffffffffffffffffffffffffffffffffffffffff168373ffffffffffffffffffffffffffffffffffffffff160361183a576040517f08c379a0000000000000000000000000000000000000000000000000000000008152600401611831906133a9565b60405180910390fd5b80600560008573ffffffffffffffffffffffffffffffffffffffff1673ffffffffffffffffffffffffffffffffffffffff16815260200190815260200160002060008473ffffffffffffffffffffffffffffffffffffffff1673ffffffffffffffffffffffffffffffffffffffff16815260200190815260200160002060006101000a81548160ff0219169083151502179055508173ffffffffffffffffffffffffffffffffffffffff168373ffffffffffffffffffffffffffffffffffffffff167f17307eab39ab6107e8899845ad3d59bd9653f200f220920489ca2b5937696c318360405161192b919061262c565b60405180910390a3505050565b61194384848461112f565b61194f84848484611db8565b61198e576040517f08c379a00000000000000000000000000000000000000000000000000000000081526004016119859061343b565b60405180910390fd5b50505050565b606060008251036119b657604051806020016040528060008152509050611af2565b600060405180606001604052806040815260200161392360409139905060006003600285516119e5919061348a565b6119ef91906134ed565b60046119fb919061351e565b67ffffffffffffffff811115611a1457611a13612a11565b5b6040519080825280601f01601f191660200182016040528015611a465781602001600182028036833780820191505090505b509050600182016020820185865187015b80821015611ab2576003820191508151603f8160121c168501518453600184019350603f81600c1c168501518453600184019350603f8160061c168501518453600184019350603f8116850151845360018401935050611a57565b5050600386510660018114611ace5760028114611ae157611ae9565b603d6001830353603d6002830353611ae9565b603d60018303535b50505080925050505b919050565b60007f80ac58cd000000000000000000000000000000000000000000000000000000007bffffffffffffffffffffffffffffffffffffffffffffffffffffffff1916827bffffffffffffffffffffffffffffffffffffffffffffffffffffffff19161480611bc257507f5b5e139f000000000000000000000000000000000000000000000000000000007bffffffffffffffffffffffffffffffffffffffffffffffffffffffff1916827bffffffffffffffffffffffffffffffffffffffffffffffffffffffff1916145b80611bd25750611bd182611f3f565b5b9050919050565b60008073ffffffffffffffffffffffffffffffffffffffff16611bfb8361174d565b73ffffffffffffffffffffffffffffffffffffffff1614159050919050565b611c2684848484611fa9565b600073ffffffffffffffffffffffffffffffffffffffff168473ffffffffffffffffffffffffffffffffffffffff161480611c8d5750600073ffffffffffffffffffffffffffffffffffffffff168373ffffffffffffffffffffffffffffffffffffffff16145b611ccc576040517f08c379a0000000000000000000000000000000000000000000000000000000008152600401611cc3906135ac565b60405180910390fd5b50505050565b50505050565b611ce2828261099c565b611d5957611cef816120cf565b611cfd8360001c60206120fc565b604051602001611d0e929190613664565b6040516020818303038152906040526040517f08c379a0000000000000000000000000000000000000000000000000000000008152600401611d5091906126d7565b60405180910390fd5b5050565b611d678383612338565b611d746000848484611db8565b611db3576040517f08c379a0000000000000000000000000000000000000000000000000000000008152600401611daa9061343b565b60405180910390fd5b505050565b6000611dd98473ffffffffffffffffffffffffffffffffffffffff16612555565b15611f32578373ffffffffffffffffffffffffffffffffffffffff1663150b7a02611e02610fd9565b8786866040518563ffffffff1660e01b8152600401611e2494939291906136f3565b6020604051808303816000875af1925050508015611e6057506040513d601f19601f82011682018060405250810190611e5d9190613754565b60015b611ee2573d8060008114611e90576040519150601f19603f3d011682016040523d82523d6000602084013e611e95565b606091505b506000815103611eda576040517f08c379a0000000000000000000000000000000000000000000000000000000008152600401611ed19061343b565b60405180910390fd5b805181602001fd5b63150b7a0260e01b7bffffffffffffffffffffffffffffffffffffffffffffffffffffffff1916817bffffffffffffffffffffffffffffffffffffffffffffffffffffffff191614915050611f37565b600190505b949350505050565b60007f01ffc9a7000000000000000000000000000000000000000000000000000000007bffffffffffffffffffffffffffffffffffffffffffffffffffffffff1916827bffffffffffffffffffffffffffffffffffffffffffffffffffffffff1916149050919050565b60018111156120c957600073ffffffffffffffffffffffffffffffffffffffff168473ffffffffffffffffffffffffffffffffffffffff161461203d5780600360008673ffffffffffffffffffffffffffffffffffffffff1673ffffffffffffffffffffffffffffffffffffffff16815260200190815260200160002060008282546120359190613781565b925050819055505b600073ffffffffffffffffffffffffffffffffffffffff168373ffffffffffffffffffffffffffffffffffffffff16146120c85780600360008573ffffffffffffffffffffffffffffffffffffffff1673ffffffffffffffffffffffffffffffffffffffff16815260200190815260200160002060008282546120c0919061348a565b925050819055505b5b50505050565b60606120f58273ffffffffffffffffffffffffffffffffffffffff16601460ff166120fc565b9050919050565b60606000600283600261210f919061351e565b612119919061348a565b67ffffffffffffffff81111561213257612131612a11565b5b6040519080825280601f01601f1916602001820160405280156121645781602001600182028036833780820191505090505b5090507f30000000000000000000000000000000000000000000000000000000000000008160008151811061219c5761219b613011565b5b60200101907effffffffffffffffffffffffffffffffffffffffffffffffffffffffffffff1916908160001a9053507f780000000000000000000000000000000000000000000000000000000000000081600181518110612200576121ff613011565b5b60200101907effffffffffffffffffffffffffffffffffffffffffffffffffffffffffffff1916908160001a90535060006001846002612240919061351e565b61224a919061348a565b90505b60018111156122ea577f3031323334353637383961626364656600000000000000000000000000000000600f86166010811061228c5761228b613011565b5b1a60f81b8282815181106122a3576122a2613011565b5b60200101907effffffffffffffffffffffffffffffffffffffffffffffffffffffffffffff1916908160001a905350600485901c9450806122e3906137b5565b905061224d565b506000841461232e576040517f08c379a00000000000000000000000000000000000000000000000000000000081526004016123259061382a565b60405180910390fd5b8091505092915050565b600073ffffffffffffffffffffffffffffffffffffffff168273ffffffffffffffffffffffffffffffffffffffff16036123a7576040517f08c379a000000000000000000000000000000000000000000000000000000000815260040161239e90613896565b60405180910390fd5b6123b081611bd9565b156123f0576040517f08c379a00000000000000000000000000000000000000000000000000000000081526004016123e790613902565b60405180910390fd5b6123fe600083836001611c1a565b61240781611bd9565b15612447576040517f08c379a000000000000000000000000000000000000000000000000000000000815260040161243e90613902565b60405180910390fd5b6001600360008473ffffffffffffffffffffffffffffffffffffffff1673ffffffffffffffffffffffffffffffffffffffff16815260200190815260200160002060008282540192505081905550816002600083815260200190815260200160002060006101000a81548173ffffffffffffffffffffffffffffffffffffffff021916908373ffffffffffffffffffffffffffffffffffffffff160217905550808273ffffffffffffffffffffffffffffffffffffffff16600073ffffffffffffffffffffffffffffffffffffffff167fddf252ad1be2c89b69c2b068fc378daa952ba7f163c4a11628f55a4df523b3ef60405160405180910390a4612551600083836001611cd2565b5050565b6000808273ffffffffffffffffffffffffffffffffffffffff163b119050919050565b6000604051905090565b600080fd5b600080fd5b60007fffffffff0000000000000000000000000000000000000000000000000000000082169050919050565b6125c18161258c565b81146125cc57600080fd5b50565b6000813590506125de816125b8565b92915050565b6000602082840312156125fa576125f9612582565b5b6000612608848285016125cf565b91505092915050565b60008115159050919050565b61262681612611565b82525050565b6000602082019050612641600083018461261d565b92915050565b600081519050919050565b600082825260208201905092915050565b60005b83811015612681578082015181840152602081019050612666565b60008484015250505050565b6000601f19601f8301169050919050565b60006126a982612647565b6126b38185612652565b93506126c3818560208601612663565b6126cc8161268d565b840191505092915050565b600060208201905081810360008301526126f1818461269e565b905092915050565b6000819050919050565b61270c816126f9565b811461271757600080fd5b50565b60008135905061272981612703565b92915050565b60006020828403121561274557612744612582565b5b60006127538482850161271a565b91505092915050565b600073ffffffffffffffffffffffffffffffffffffffff82169050919050565b60006127878261275c565b9050919050565b6127978161277c565b82525050565b60006020820190506127b2600083018461278e565b92915050565b6127c18161277c565b81146127cc57600080fd5b50565b6000813590506127de816127b8565b92915050565b600080604083850312156127fb576127fa612582565b5b6000612809858286016127cf565b925050602061281a8582860161271a565b9150509250929050565b60008060006060848603121561283d5761283c612582565b5b600061284b868287016127cf565b935050602061285c868287016127cf565b925050604061286d8682870161271a565b9150509250925092565b6000819050919050565b61288a81612877565b811461289557600080fd5b50565b6000813590506128a781612881565b92915050565b6000602082840312156128c3576128c2612582565b5b60006128d184828501612898565b91505092915050565b6128e381612877565b82525050565b60006020820190506128fe60008301846128da565b92915050565b6000806040838503121561291b5761291a612582565b5b600061292985828601612898565b925050602061293a858286016127cf565b9150509250929050565b61294d816126f9565b82525050565b60006020820190506129686000830184612944565b92915050565b60006020828403121561298457612983612582565b5b6000612992848285016127cf565b91505092915050565b6129a481612611565b81146129af57600080fd5b50565b6000813590506129c18161299b565b92915050565b600080604083850312156129de576129dd612582565b5b60006129ec858286016127cf565b92505060206129fd858286016129b2565b9150509250929050565b600080fd5b600080fd5b7f4e487b7100000000000000000000000000000000000000000000000000000000600052604160045260246000fd5b612a498261268d565b810181811067ffffffffffffffff82111715612a6857612a67612a11565b5b80604052505050565b6000612a7b612578565b9050612a878282612a40565b919050565b600067ffffffffffffffff821115612aa757612aa6612a11565b5b612ab08261268d565b9050602081019050919050565b82818337600083830152505050565b6000612adf612ada84612a8c565b612a71565b905082815260208101848484011115612afb57612afa612a0c565b5b612b06848285612abd565b509392505050565b600082601f830112612b2357612b22612a07565b5b8135612b33848260208601612acc565b91505092915050565b60008060008060808587031215612b5657612b55612582565b5b6000612b64878288016127cf565b9450506020612b75878288016127cf565b9350506040612b868782880161271a565b925050606085013567ffffffffffffffff811115612ba757612ba6612587565b5b612bb387828801612b0e565b91505092959194509250565b60008060408385031215612bd657612bd5612582565b5b6000612be4858286016127cf565b9250506020612bf5858286016127cf565b9150509250929050565b7f4e487b7100000000000000000000000000000000000000000000000000000000600052602260045260246000fd5b60006002820490506001821680612c4657607f821691505b602082108103612c5957612c58612bff565b5b50919050565b7f4552433732313a20617070726f76616c20746f2063757272656e74206f776e6560008201527f7200000000000000000000000000000000000000000000000000000000000000602082015250565b6000612cbb602183612652565b9150612cc682612c5f565b604082019050919050565b60006020820190508181036000830152612cea81612cae565b9050919050565b7f4552433732313a20617070726f76652063616c6c6572206973206e6f7420746f60008201527f6b656e206f776e6572206f7220617070726f76656420666f7220616c6c000000602082015250565b6000612d4d603d83612652565b9150612d5882612cf1565b604082019050919050565b60006020820190508181036000830152612d7c81612d40565b9050919050565b7f4552433732313a2063616c6c6572206973206e6f7420746f6b656e206f776e6560008201527f72206f7220617070726f76656400000000000000000000000000000000000000602082015250565b6000612ddf602d83612652565b9150612dea82612d83565b604082019050919050565b60006020820190508181036000830152612e0e81612dd2565b9050919050565b7f416363657373436f6e74726f6c3a2063616e206f6e6c792072656e6f756e636560008201527f20726f6c657320666f722073656c660000000000000000000000000000000000602082015250565b6000612e71602f83612652565b9150612e7c82612e15565b604082019050919050565b60006020820190508181036000830152612ea081612e64565b9050919050565b7f43616c6c6572206973206e6f74206f776e6572206e6f7220617070726f766564600082015250565b6000612edd602083612652565b9150612ee882612ea7565b602082019050919050565b60006020820190508181036000830152612f0c81612ed0565b9050919050565b7f4552433732313a20696e76616c696420746f6b656e2049440000000000000000600082015250565b6000612f49601883612652565b9150612f5482612f13565b602082019050919050565b60006020820190508181036000830152612f7881612f3c565b9050919050565b7f4552433732313a2061646472657373207a65726f206973206e6f74206120766160008201527f6c6964206f776e65720000000000000000000000000000000000000000000000602082015250565b6000612fdb602983612652565b9150612fe682612f7f565b604082019050919050565b6000602082019050818103600083015261300a81612fce565b9050919050565b7f4e487b7100000000000000000000000000000000000000000000000000000000600052603260045260246000fd5b600081905092915050565b7f7b226e616d65223a202200000000000000000000000000000000000000000000600082015250565b6000613081600a83613040565b915061308c8261304b565b600a82019050919050565b60006130a282612647565b6130ac8185613040565b93506130bc818560208601612663565b80840191505092915050565b7f222c20226465736372697074696f6e223a20224368696e657365205a6f64696160008201527f63204e4654222c2022696d616765223a20220000000000000000000000000000602082015250565b6000613124603283613040565b915061312f826130c8565b603282019050919050565b7f227d000000000000000000000000000000000000000000000000000000000000600082015250565b6000613170600283613040565b915061317b8261313a565b600282019050919050565b600061319182613074565b915061319d8285613097565b91506131a882613117565b91506131b48284613097565b91506131bf82613163565b91508190509392505050565b7f646174613a6170706c69636174696f6e2f6a736f6e3b6261736536342c000000600082015250565b6000613201601d83613040565b915061320c826131cb565b601d82019050919050565b6000613222826131f4565b915061322e8284613097565b915081905092915050565b7f4552433732313a207472616e736665722066726f6d20696e636f72726563742060008201527f6f776e6572000000000000000000000000000000000000000000000000000000602082015250565b6000613295602583612652565b91506132a082613239565b604082019050919050565b600060208201905081810360008301526132c481613288565b9050919050565b7f4552433732313a207472616e7366657220746f20746865207a65726f2061646460008201527f7265737300000000000000000000000000000000000000000000000000000000602082015250565b6000613327602483612652565b9150613332826132cb565b604082019050919050565b600060208201905081810360008301526133568161331a565b9050919050565b7f4552433732313a20617070726f766520746f2063616c6c657200000000000000600082015250565b6000613393601983612652565b915061339e8261335d565b602082019050919050565b600060208201905081810360008301526133c281613386565b9050919050565b7f4552433732313a207472616e7366657220746f206e6f6e20455243373231526560008201527f63656976657220696d706c656d656e7465720000000000000000000000000000602082015250565b6000613425603283612652565b9150613430826133c9565b604082019050919050565b6000602082019050818103600083015261345481613418565b9050919050565b7f4e487b7100000000000000000000000000000000000000000000000000000000600052601160045260246000fd5b6000613495826126f9565b91506134a0836126f9565b92508282019050808211156134b8576134b761345b565b5b92915050565b7f4e487b7100000000000000000000000000000000000000000000000000000000600052601260045260246000fd5b60006134f8826126f9565b9150613503836126f9565b925082613513576135126134be565b5b828204905092915050565b6000613529826126f9565b9150613534836126f9565b9250828202613542816126f9565b915082820484148315176135595761355861345b565b5b5092915050565b7f4e4654206973206e6f74207472616e7366657261626c65000000000000000000600082015250565b6000613596601783612652565b91506135a182613560565b602082019050919050565b600060208201905081810360008301526135c581613589565b9050919050565b7f416363657373436f6e74726f6c3a206163636f756e7420000000000000000000600082015250565b6000613602601783613040565b915061360d826135cc565b601782019050919050565b7f206973206d697373696e6720726f6c6520000000000000000000000000000000600082015250565b600061364e601183613040565b915061365982613618565b601182019050919050565b600061366f826135f5565b915061367b8285613097565b915061368682613641565b91506136928284613097565b91508190509392505050565b600081519050919050565b600082825260208201905092915050565b60006136c58261369e565b6136cf81856136a9565b93506136df818560208601612663565b6136e88161268d565b840191505092915050565b6000608082019050613708600083018761278e565b613715602083018661278e565b6137226040830185612944565b818103606083015261373481846136ba565b905095945050505050565b60008151905061374e816125b8565b92915050565b60006020828403121561376a57613769612582565b5b60006137788482850161373f565b91505092915050565b600061378c826126f9565b9150613797836126f9565b92508282039050818111156137af576137ae61345b565b5b92915050565b60006137c0826126f9565b9150600082036137d3576137d261345b565b5b600182039050919050565b7f537472696e67733a20686578206c656e67746820696e73756666696369656e74600082015250565b6000613814602083612652565b915061381f826137de565b602082019050919050565b6000602082019050818103600083015261384381613807565b9050919050565b7f4552433732313a206d696e7420746f20746865207a65726f2061646472657373600082015250565b6000613880602083612652565b915061388b8261384a565b602082019050919050565b600060208201905081810360008301526138af81613873565b9050919050565b7f4552433732313a20746f6b656e20616c7265616479206d696e74656400000000600082015250565b60006138ec601c83612652565b91506138f7826138b6565b602082019050919050565b6000602082019050818103600083015261391b816138df565b905091905056fe4142434445464748494a4b4c4d4e4f505152535455565758595a6162636465666768696a6b6c6d6e6f707172737475767778797a303132333435363738392b2fa26469706673582212206a709a76e360dc0f7876d5022f763d7d931c6d05138ff9b852692230dcc30b8d64736f6c634300081b003368747470733a2f2f62616679626569687232766a36716d69356372787761367272716e7070766e726c673765376f646570376a7778757534336268626d7074646f78712e697066732e7733732e6c696e6b2f44414c4c25433225423745253230323032342d31302d303225323031362e30392e30362532302d253230506978656c2532306172742532306f6625323061253230676f6174253243253230726570726573656e74696e672532307468652532304368696e6573652532307a6f646961632e253230546865253230676f617425323073686f756c64253230626525323064697374696e637425324325323076696272616e74253243253230616e6425323073696d706c6966696564253230696e253230636c6173736963253230706978656c2532306172742532307374796c652532432532307375697461626c65253230666f72253230616e2e7765627068747470733a2f2f62616679626569687232766a36716d69356372787761367272716e7070766e726c673765376f646570376a7778757534336268626d7074646f78712e697066732e7733732e6c696e6b2f44414c4c25433225423745253230323032342d31302d303225323031362e30342e33322532302d253230506978656c2532306172742532306f6625323061253230726174253243253230726570726573656e74696e672532307468652532304368696e6573652532307a6f646961632e25323054686525323072617425323073686f756c64253230626525323064697374696e637425324325323076696272616e74253243253230616e6425323073696d706c6966696564253230696e253230636c6173736963253230706978656c2532306172742532307374796c652532432532307375697461626c65253230666f72253230616e2532304e2e7765627068747470733a2f2f62616679626569687232766a36716d69356372787761367272716e7070766e726c673765376f646570376a7778757534336268626d7074646f78712e697066732e7733732e6c696e6b2f44414c4c25433225423745253230323032342d31302d303225323031362e30372e32382532302d253230506978656c2532306172742532306f6625323061253230647261676f6e253243253230726570726573656e74696e672532307468652532304368696e6573652532307a6f646961632e253230546865253230647261676f6e25323073686f756c64253230626525323064697374696e637425324325323076696272616e74253243253230616e6425323073696d706c6966696564253230696e253230636c6173736963253230706978656c2532306172742532307374796c652532432532307375697461626c65253230666f2e7765627068747470733a2f2f62616679626569687232766a36716d69356372787761367272716e7070766e726c673765376f646570376a7778757534336268626d7074646f78712e697066732e7733732e6c696e6b2f44414c4c25433225423745253230323032342d31302d303225323031362e30342e33382532302d253230506978656c2532306172742532306f66253230612532307469676572253243253230726570726573656e74696e672532307468652532304368696e6573652532307a6f646961632e253230546865253230746967657225323073686f756c64253230626525323064697374696e637425324325323076696272616e74253243253230616e6425323073696d706c6966696564253230696e253230636c6173736963253230706978656c2532306172742532307374796c652532432532307375697461626c65253230666f722532302e7765627068747470733a2f2f62616679626569687232766a36716d69356372787761367272716e7070766e726c673765376f646570376a7778757534336268626d7074646f78712e697066732e7733732e6c696e6b2f44414c4c25433225423745253230323032342d31302d303225323031362e31302e31332532302d253230506978656c2532306172742532306f6625323061253230706967253243253230726570726573656e74696e672532307468652532304368696e6573652532307a6f646961632e25323054686525323070696725323073686f756c64253230626525323064697374696e637425324325323076696272616e74253243253230616e6425323073696d706c6966696564253230696e253230636c6173736963253230706978656c2532306172742532307374796c652532432532307375697461626c65253230666f72253230616e2532304e2e7765627068747470733a2f2f62616679626569687232766a36716d69356372787761367272716e7070766e726c673765376f646570376a7778757534336268626d7074646f78712e697066732e7733732e6c696e6b2f44414c4c25433225423745253230323032342d31302d303225323031362e31302e30322532302d253230506978656c2532306172742532306f6625323061253230646f67253243253230726570726573656e74696e672532307468652532304368696e6573652532307a6f646961632e253230546865253230646f6725323073686f756c64253230626525323064697374696e637425324325323076696272616e74253243253230616e6425323073696d706c6966696564253230696e253230636c6173736963253230706978656c2532306172742532307374796c652532432532307375697461626c65253230666f72253230616e2532304e2e7765627068747470733a2f2f6578616d706c652e636f6d2f636f6d62696e65642d696d6167652e6a706768747470733a2f2f62616679626569687232766a36716d69356372787761367272716e7070766e726c673765376f646570376a7778757534336268626d7074646f78712e697066732e7733732e6c696e6b2f44414c4c25433225423745253230323032342d31302d303225323031362e30342e33362532302d253230506978656c2532306172742532306f66253230616e2532306f78253243253230726570726573656e74696e672532307468652532304368696e6573652532307a6f646961632e2532305468652532306f7825323073686f756c64253230626525323064697374696e637425324325323076696272616e74253243253230616e6425323073696d706c6966696564253230696e253230636c6173736963253230706978656c2532306172742532307374796c652532432532307375697461626c65253230666f72253230616e2532304e462e7765627068747470733a2f2f62616679626569687232766a36716d69356372787761367272716e7070766e726c673765376f646570376a7778757534336268626d7074646f78712e697066732e7733732e6c696e6b2f44414c4c25433225423745253230323032342d31302d303225323031362e30382e34312532302d253230506978656c2532306172742532306f6625323061253230736e616b65253243253230726570726573656e74696e672532307468652532304368696e6573652532307a6f646961632e253230546865253230736e616b6525323073686f756c64253230626525323064697374696e637425324325323076696272616e74253243253230616e6425323073696d706c6966696564253230696e253230636c6173736963253230706978656c2532306172742532307374796c652532432532307375697461626c65253230666f722532302e7765627068747470733a2f2f62616679626569687232766a36716d69356372787761367272716e7070766e726c673765376f646570376a7778757534336268626d7074646f78712e697066732e7733732e6c696e6b2f44414c4c25433225423745253230323032342d31302d303225323031362e30382e34352532302d253230506978656c2532306172742532306f6625323061253230686f727365253243253230726570726573656e74696e672532307468652532304368696e6573652532307a6f646961632e253230546865253230686f72736525323073686f756c64253230626525323064697374696e637425324325323076696272616e74253243253230616e6425323073696d706c6966696564253230696e253230636c6173736963253230706978656c2532306172742532307374796c652532432532307375697461626c65253230666f722532302e7765627068747470733a2f2f62616679626569687232766a36716d69356372787761367272716e7070766e726c673765376f646570376a7778757534336268626d7074646f78712e697066732e7733732e6c696e6b2f44414c4c25433225423745253230323032342d31302d303225323031362e30392e34342532302d253230506978656c2532306172742532306f66253230612532306d6f6e6b6579253243253230726570726573656e74696e672532307468652532304368696e6573652532307a6f646961632e2532305468652532306d6f6e6b657925323073686f756c64253230626525323064697374696e637425324325323076696272616e74253243253230616e6425323073696d706c6966696564253230696e253230636c6173736963253230706978656c2532306172742532307374796c652532432532307375697461626c65253230666f2e7765627068747470733a2f2f62616679626569687232766a36716d69356372787761367272716e7070766e726c673765376f646570376a7778757534336268626d7074646f78712e697066732e7733732e6c696e6b2f44414c4c25433225423745253230323032342d31302d303225323031362e30372e32312532302d253230506978656c2532306172742532306f6625323061253230726162626974253243253230726570726573656e74696e672532307468652532304368696e6573652532307a6f646961632e25323054686525323072616262697425323073686f756c64253230626525323064697374696e637425324325323076696272616e74253243253230616e6425323073696d706c6966696564253230696e253230636c6173736963253230706978656c2532306172742532307374796c652532432532307375697461626c65253230666f2e7765627068747470733a2f2f62616679626569687232766a36716d69356372787761367272716e7070766e726c673765376f646570376a7778757534336268626d7074646f78712e697066732e7733732e6c696e6b2f44414c4c25433225423745253230323032342d31302d303225323031362e30392e35322532302d253230506978656c2532306172742532306f6625323061253230726f6f73746572253243253230726570726573656e74696e672532307468652532304368696e6573652532307a6f646961632e253230546865253230726f6f7374657225323073686f756c64253230626525323064697374696e637425324325323076696272616e74253243253230616e6425323073696d706c6966696564253230696e253230636c6173736963253230706978656c2532306172742532307374796c652532432532307375697461626c652532302e77656270",
  "linkReferences": {},
  "deployedLinkReferences": {}
}