{
  "_format": "hh-sol-artifact-1",
  "contractName": "ZodiacTrading",
  "sourceName": "contracts/ZodiacTrading.sol",
  "abi": [
    {
      "inputs": [
        {
          "internalType": "address",
          "name": "_zodiacNFTAddress",
          "type": "address"
        }
      ],
      "stateMutability": "nonpayable",
      "type": "constructor"
    },
    {
      "anonymous": false,
      "inputs": [
        {
          "indexed": true,
          "internalType": "address",
          "name": "previousOwner",
          "type": "address"
        },
        {
          "indexed": true,
          "internalType": "address",
          "name": "newOwner",
          "type": "address"
        }
      ],
      "name": "OwnershipTransferred",
      "type": "event"
    },
    {
      "anonymous": false,
      "inputs": [
        {
          "indexed": false,
          "internalType": "address",
          "name": "account",
          "type": "address"
        }
      ],
      "name": "Paused",
      "type": "event"
    },
    {
      "anonymous": false,
      "inputs": [
        {
          "indexed": false,
          "internalType": "address",
          "name": "account",
          "type": "address"
        }
      ],
      "name": "Unpaused",
      "type": "event"
    },
    {
      "inputs": [],
      "name": "MAX_SPECIAL_SUPPLY",
      "outputs": [
        {
          "internalType": "uint256",
          "name": "",
          "type": "uint256"
        }
      ],
      "stateMutability": "view",
      "type": "function"
    },
    {
      "inputs": [],
      "name": "MINT_PRICE",
      "outputs": [
        {
          "internalType": "uint256",
          "name": "",
          "type": "uint256"
        }
      ],
      "stateMutability": "view",
      "type": "function"
    },
    {
      "inputs": [
        {
          "internalType": "address[]",
          "name": "users",
          "type": "address[]"
        }
      ],
      "name": "addToWhitelist",
      "outputs": [],
      "stateMutability": "nonpayable",
      "type": "function"
    },
    {
      "inputs": [],
      "name": "combineZodiac",
      "outputs": [],
      "stateMutability": "nonpayable",
      "type": "function"
    },
    {
      "inputs": [],
      "name": "mint",
      "outputs": [],
      "stateMutability": "payable",
      "type": "function"
    },
    {
      "inputs": [],
      "name": "owner",
      "outputs": [
        {
          "internalType": "address",
          "name": "",
          "type": "address"
        }
      ],
      "stateMutability": "view",
      "type": "function"
    },
    {
      "inputs": [],
      "name": "pause",
      "outputs": [],
      "stateMutability": "nonpayable",
      "type": "function"
    },
    {
      "inputs": [],
      "name": "paused",
      "outputs": [
        {
          "internalType": "bool",
          "name": "",
          "type": "bool"
        }
      ],
      "stateMutability": "view",
      "type": "function"
    },
    {
      "inputs": [
        {
          "internalType": "address[]",
          "name": "users",
          "type": "address[]"
        }
      ],
      "name": "removeFromWhitelist",
      "outputs": [],
      "stateMutability": "nonpayable",
      "type": "function"
    },
    {
      "inputs": [],
      "name": "renounceOwnership",
      "outputs": [],
      "stateMutability": "nonpayable",
      "type": "function"
    },
    {
      "inputs": [],
      "name": "specialTokenIdCounter",
      "outputs": [
        {
          "internalType": "uint256",
          "name": "",
          "type": "uint256"
        }
      ],
      "stateMutability": "view",
      "type": "function"
    },
    {
      "inputs": [
        {
          "internalType": "address",
          "name": "newOwner",
          "type": "address"
        }
      ],
      "name": "transferOwnership",
      "outputs": [],
      "stateMutability": "nonpayable",
      "type": "function"
    },
    {
      "inputs": [],
      "name": "unpause",
      "outputs": [],
      "stateMutability": "nonpayable",
      "type": "function"
    },
    {
      "inputs": [
        {
          "internalType": "address",
          "name": "",
          "type": "address"
        },
        {
          "internalType": "uint256",
          "name": "",
          "type": "uint256"
        }
      ],
      "name": "userZodiacCollection",
      "outputs": [
        {
          "internalType": "uint256",
          "name": "",
          "type": "uint256"
        }
      ],
      "stateMutability": "view",
      "type": "function"
    },
    {
      "inputs": [
        {
          "internalType": "address",
          "name": "",
          "type": "address"
        }
      ],
      "name": "whitelist",
      "outputs": [
        {
          "internalType": "bool",
          "name": "",
          "type": "bool"
        }
      ],
      "stateMutability": "view",
      "type": "function"
    },
    {
      "inputs": [],
      "name": "withdraw",
      "outputs": [],
      "stateMutability": "nonpayable",
      "type": "function"
    },
    {
      "inputs": [],
      "name": "zodiacNFT",
      "outputs": [
        {
          "internalType": "contract ZodiacNFT",
          "name": "",
          "type": "address"
        }
      ],
      "stateMutability": "view",
      "type": "function"
    }
  ],
  "bytecode": "0x608060405234801561001057600080fd5b50604051611aa2380380611aa28339818101604052810190610032919061024d565b61004e61004361011e60201b60201c565b61012660201b60201c565b60008060146101000a81548160ff021916908315150217905550600073ffffffffffffffffffffffffffffffffffffffff168173ffffffffffffffffffffffffffffffffffffffff16036100d7576040517f08c379a00000000000000000000000000000000000000000000000000000000081526004016100ce906102d7565b60405180910390fd5b80600160006101000a81548173ffffffffffffffffffffffffffffffffffffffff021916908373ffffffffffffffffffffffffffffffffffffffff160217905550506102f7565b600033905090565b60008060009054906101000a900473ffffffffffffffffffffffffffffffffffffffff169050816000806101000a81548173ffffffffffffffffffffffffffffffffffffffff021916908373ffffffffffffffffffffffffffffffffffffffff1602179055508173ffffffffffffffffffffffffffffffffffffffff168173ffffffffffffffffffffffffffffffffffffffff167f8be0079c531659141344cd1fd0a4f28419497f9722a3daafe3b4186f6b6457e060405160405180910390a35050565b600080fd5b600073ffffffffffffffffffffffffffffffffffffffff82169050919050565b600061021a826101ef565b9050919050565b61022a8161020f565b811461023557600080fd5b50565b60008151905061024781610221565b92915050565b600060208284031215610263576102626101ea565b5b600061027184828501610238565b91505092915050565b600082825260208201905092915050565b7f496e76616c6964205a6f646961634e4654206164647265737300000000000000600082015250565b60006102c160198361027a565b91506102cc8261028b565b602082019050919050565b600060208201905081810360008301526102f0816102b4565b9050919050565b61179c806103066000396000f3fe6080604052600436106100fe5760003560e01c80637c9efa89116100955780639b19251a116100645780639b19251a1461027e578063bad66d16146102bb578063c002d23d146102f8578063ea1088b714610323578063f2fde38b1461034e576100fe565b80637c9efa89146101e85780637f649783146102135780638456cb591461023c5780638da5cb5b14610253576100fe565b8063548db174116100d1578063548db17414610152578063581ddf1a1461017b5780635c975abb146101a6578063715018a6146101d1576100fe565b80631249c58b1461010357806338518d651461010d5780633ccfd60b146101245780633f4ba83a1461013b575b600080fd5b61010b610377565b005b34801561011957600080fd5b50610122610560565b005b34801561013057600080fd5b50610139610869565b005b34801561014757600080fd5b506101506108c7565b005b34801561015e57600080fd5b5061017960048036038101906101749190610fe1565b6108d9565b005b34801561018757600080fd5b50610190610970565b60405161019d9190611089565b60405180910390f35b3480156101b257600080fd5b506101bb610996565b6040516101c891906110bf565b60405180910390f35b3480156101dd57600080fd5b506101e66109ac565b005b3480156101f457600080fd5b506101fd6109c0565b60405161020a91906110f3565b60405180910390f35b34801561021f57600080fd5b5061023a60048036038101906102359190610fe1565b6109c6565b005b34801561024857600080fd5b50610251610a5d565b005b34801561025f57600080fd5b50610268610a6f565b604051610275919061111d565b60405180910390f35b34801561028a57600080fd5b506102a560048036038101906102a09190611138565b610a98565b6040516102b291906110bf565b60405180910390f35b3480156102c757600080fd5b506102e260048036038101906102dd9190611191565b610ab8565b6040516102ef91906110f3565b60405180910390f35b34801561030457600080fd5b5061030d610ae0565b60405161031a91906110f3565b60405180910390f35b34801561032f57600080fd5b50610338610aec565b60405161034591906110f3565b60405180910390f35b34801561035a57600080fd5b5061037560048036038101906103709190611138565b610af1565b005b61037f610b74565b67016345785d8a00003410156103ca576040517f08c379a00000000000000000000000000000000000000000000000000000000081526004016103c19061122e565b60405180910390fd5b6000600c42336040516020016103e19291906112b7565b6040516020818303038152906040528051906020012060001c6104049190611312565b90506000600160009054906101000a900473ffffffffffffffffffffffffffffffffffffffff1673ffffffffffffffffffffffffffffffffffffffff1663a144819433846040518363ffffffff1660e01b8152600401610465929190611343565b6020604051808303816000875af1158015610484573d6000803e3d6000fd5b505050506040513d601f19601f820116820180604052508101906104a89190611381565b90506000600460003373ffffffffffffffffffffffffffffffffffffffff1673ffffffffffffffffffffffffffffffffffffffff16815260200190815260200160002083600c81106104fd576104fc6113ae565b5b01540361055c5780600460003373ffffffffffffffffffffffffffffffffffffffff1673ffffffffffffffffffffffffffffffffffffffff16815260200190815260200160002083600c8110610556576105556113ae565b5b01819055505b5050565b610568610b74565b600a600254106105ad576040517f08c379a00000000000000000000000000000000000000000000000000000000081526004016105a490611429565b60405180910390fd5b60005b600c81101561065b576000600460003373ffffffffffffffffffffffffffffffffffffffff1673ffffffffffffffffffffffffffffffffffffffff16815260200190815260200160002082600c811061060c5761060b6113ae565b5b01540361064e576040517f08c379a000000000000000000000000000000000000000000000000000000000815260040161064590611495565b60405180910390fd5b80806001019150506105b0565b5060005b600c8110156107ac57600160009054906101000a900473ffffffffffffffffffffffffffffffffffffffff1673ffffffffffffffffffffffffffffffffffffffff166342966c68600460003373ffffffffffffffffffffffffffffffffffffffff1673ffffffffffffffffffffffffffffffffffffffff16815260200190815260200160002083600c81106106f7576106f66113ae565b5b01546040518263ffffffff1660e01b815260040161071591906110f3565b600060405180830381600087803b15801561072f57600080fd5b505af1158015610743573d6000803e3d6000fd5b505050506000600460003373ffffffffffffffffffffffffffffffffffffffff1673ffffffffffffffffffffffffffffffffffffffff16815260200190815260200160002082600c811061079a576107996113ae565b5b0181905550808060010191505061065f565b50600160009054906101000a900473ffffffffffffffffffffffffffffffffffffffff1673ffffffffffffffffffffffffffffffffffffffff1663a144819433600c6040518363ffffffff1660e01b815260040161080b9291906114f0565b6020604051808303816000875af115801561082a573d6000803e3d6000fd5b505050506040513d601f19601f8201168201806040525081019061084e9190611381565b506002600081548092919061086290611548565b9190505550565b610871610bbe565b600047905061087e610a6f565b73ffffffffffffffffffffffffffffffffffffffff166108fc829081150290604051600060405180830381858888f193505050501580156108c3573d6000803e3d6000fd5b5050565b6108cf610bbe565b6108d7610c3c565b565b6108e1610bbe565b60005b815181101561096c57600060036000848481518110610906576109056113ae565b5b602002602001015173ffffffffffffffffffffffffffffffffffffffff1673ffffffffffffffffffffffffffffffffffffffff16815260200190815260200160002060006101000a81548160ff02191690831515021790555080806001019150506108e4565b5050565b600160009054906101000a900473ffffffffffffffffffffffffffffffffffffffff1681565b60008060149054906101000a900460ff16905090565b6109b4610bbe565b6109be6000610c9e565b565b60025481565b6109ce610bbe565b60005b8151811015610a59576001600360008484815181106109f3576109f26113ae565b5b602002602001015173ffffffffffffffffffffffffffffffffffffffff1673ffffffffffffffffffffffffffffffffffffffff16815260200190815260200160002060006101000a81548160ff02191690831515021790555080806001019150506109d1565b5050565b610a65610bbe565b610a6d610d62565b565b60008060009054906101000a900473ffffffffffffffffffffffffffffffffffffffff16905090565b60036020528060005260406000206000915054906101000a900460ff1681565b600460205281600052604060002081600c8110610ad457600080fd5b01600091509150505481565b67016345785d8a000081565b600a81565b610af9610bbe565b600073ffffffffffffffffffffffffffffffffffffffff168173ffffffffffffffffffffffffffffffffffffffff1603610b68576040517f08c379a0000000000000000000000000000000000000000000000000000000008152600401610b5f90611602565b60405180910390fd5b610b7181610c9e565b50565b610b7c610996565b15610bbc576040517f08c379a0000000000000000000000000000000000000000000000000000000008152600401610bb39061166e565b60405180910390fd5b565b610bc6610dc5565b73ffffffffffffffffffffffffffffffffffffffff16610be4610a6f565b73ffffffffffffffffffffffffffffffffffffffff1614610c3a576040517f08c379a0000000000000000000000000000000000000000000000000000000008152600401610c31906116da565b60405180910390fd5b565b610c44610dcd565b60008060146101000a81548160ff0219169083151502179055507f5db9ee0a495bf2e6ff9c91a7834c1ba4fdd244a5e8aa4e537bd38aeae4b073aa610c87610dc5565b604051610c94919061111d565b60405180910390a1565b60008060009054906101000a900473ffffffffffffffffffffffffffffffffffffffff169050816000806101000a81548173ffffffffffffffffffffffffffffffffffffffff021916908373ffffffffffffffffffffffffffffffffffffffff1602179055508173ffffffffffffffffffffffffffffffffffffffff168173ffffffffffffffffffffffffffffffffffffffff167f8be0079c531659141344cd1fd0a4f28419497f9722a3daafe3b4186f6b6457e060405160405180910390a35050565b610d6a610b74565b6001600060146101000a81548160ff0219169083151502179055507f62e78cea01bee320cd4e420270b5ea74000d11b0c9f74754ebdbfc544b05a258610dae610dc5565b604051610dbb919061111d565b60405180910390a1565b600033905090565b610dd5610996565b610e14576040517f08c379a0000000000000000000000000000000000000000000000000000000008152600401610e0b90611746565b60405180910390fd5b565b6000604051905090565b600080fd5b600080fd5b600080fd5b6000601f19601f8301169050919050565b7f4e487b7100000000000000000000000000000000000000000000000000000000600052604160045260246000fd5b610e7882610e2f565b810181811067ffffffffffffffff82111715610e9757610e96610e40565b5b80604052505050565b6000610eaa610e16565b9050610eb68282610e6f565b919050565b600067ffffffffffffffff821115610ed657610ed5610e40565b5b602082029050602081019050919050565b600080fd5b600073ffffffffffffffffffffffffffffffffffffffff82169050919050565b6000610f1782610eec565b9050919050565b610f2781610f0c565b8114610f3257600080fd5b50565b600081359050610f4481610f1e565b92915050565b6000610f5d610f5884610ebb565b610ea0565b90508083825260208201905060208402830185811115610f8057610f7f610ee7565b5b835b81811015610fa95780610f958882610f35565b845260208401935050602081019050610f82565b5050509392505050565b600082601f830112610fc857610fc7610e2a565b5b8135610fd8848260208601610f4a565b91505092915050565b600060208284031215610ff757610ff6610e20565b5b600082013567ffffffffffffffff81111561101557611014610e25565b5b61102184828501610fb3565b91505092915050565b6000819050919050565b600061104f61104a61104584610eec565b61102a565b610eec565b9050919050565b600061106182611034565b9050919050565b600061107382611056565b9050919050565b61108381611068565b82525050565b600060208201905061109e600083018461107a565b92915050565b60008115159050919050565b6110b9816110a4565b82525050565b60006020820190506110d460008301846110b0565b92915050565b6000819050919050565b6110ed816110da565b82525050565b600060208201905061110860008301846110e4565b92915050565b61111781610f0c565b82525050565b6000602082019050611132600083018461110e565b92915050565b60006020828403121561114e5761114d610e20565b5b600061115c84828501610f35565b91505092915050565b61116e816110da565b811461117957600080fd5b50565b60008135905061118b81611165565b92915050565b600080604083850312156111a8576111a7610e20565b5b60006111b685828601610f35565b92505060206111c78582860161117c565b9150509250929050565b600082825260208201905092915050565b7f496e73756666696369656e74207061796d656e74000000000000000000000000600082015250565b60006112186014836111d1565b9150611223826111e2565b602082019050919050565b600060208201905081810360008301526112478161120b565b9050919050565b6000819050919050565b611269611264826110da565b61124e565b82525050565b60008160601b9050919050565b60006112878261126f565b9050919050565b60006112998261127c565b9050919050565b6112b16112ac82610f0c565b61128e565b82525050565b60006112c38285611258565b6020820191506112d382846112a0565b6014820191508190509392505050565b7f4e487b7100000000000000000000000000000000000000000000000000000000600052601260045260246000fd5b600061131d826110da565b9150611328836110da565b925082611338576113376112e3565b5b828206905092915050565b6000604082019050611358600083018561110e565b61136560208301846110e4565b9392505050565b60008151905061137b81611165565b92915050565b60006020828403121561139757611396610e20565b5b60006113a58482850161136c565b91505092915050565b7f4e487b7100000000000000000000000000000000000000000000000000000000600052603260045260246000fd5b7f4d6178696d756d207370656369616c204e465473207265616368656400000000600082015250565b6000611413601c836111d1565b915061141e826113dd565b602082019050919050565b6000602082019050818103600083015261144281611406565b9050919050565b7f496e636f6d706c657465207a6f6469616320636f6c6c656374696f6e00000000600082015250565b600061147f601c836111d1565b915061148a82611449565b602082019050919050565b600060208201905081810360008301526114ae81611472565b9050919050565b6000819050919050565b60006114da6114d56114d0846114b5565b61102a565b6110da565b9050919050565b6114ea816114bf565b82525050565b6000604082019050611505600083018561110e565b61151260208301846114e1565b9392505050565b7f4e487b7100000000000000000000000000000000000000000000000000000000600052601160045260246000fd5b6000611553826110da565b91507fffffffffffffffffffffffffffffffffffffffffffffffffffffffffffffffff820361158557611584611519565b5b600182019050919050565b7f4f776e61626c653a206e6577206f776e657220697320746865207a65726f206160008201527f6464726573730000000000000000000000000000000000000000000000000000602082015250565b60006115ec6026836111d1565b91506115f782611590565b604082019050919050565b6000602082019050818103600083015261161b816115df565b9050919050565b7f5061757361626c653a2070617573656400000000000000000000000000000000600082015250565b60006116586010836111d1565b915061166382611622565b602082019050919050565b600060208201905081810360008301526116878161164b565b9050919050565b7f4f776e61626c653a2063616c6c6572206973206e6f7420746865206f776e6572600082015250565b60006116c46020836111d1565b91506116cf8261168e565b602082019050919050565b600060208201905081810360008301526116f3816116b7565b9050919050565b7f5061757361626c653a206e6f7420706175736564000000000000000000000000600082015250565b60006117306014836111d1565b915061173b826116fa565b602082019050919050565b6000602082019050818103600083015261175f81611723565b905091905056fea26469706673582212205f24d43182981037db8ede9900eb83b479eefce1842bce32a8d7182116e544cc64736f6c634300081b0033",
  "linkReferences": {},
  "deployedLinkReferences": {}
}