{
  "_format": "hh-sol-artifact-1",
  "contractName": "ZodiacTrading",
  "sourceName": "contracts/ZodiacTrading.sol",
  "abi": [
    {
      "inputs": [
        {
          "internalType": "address",
          "name": "_zodiacNFTAddress",
          "type": "address"
        }
      ],
      "stateMutability": "nonpayable",
      "type": "constructor"
    },
    {
      "anonymous": false,
      "inputs": [
        {
          "indexed": true,
          "internalType": "address",
          "name": "previousOwner",
          "type": "address"
        },
        {
          "indexed": true,
          "internalType": "address",
          "name": "newOwner",
          "type": "address"
        }
      ],
      "name": "OwnershipTransferred",
      "type": "event"
    },
    {
      "anonymous": false,
      "inputs": [
        {
          "indexed": false,
          "internalType": "address",
          "name": "account",
          "type": "address"
        }
      ],
      "name": "Paused",
      "type": "event"
    },
    {
      "anonymous": false,
      "inputs": [
        {
          "indexed": false,
          "internalType": "address",
          "name": "account",
          "type": "address"
        }
      ],
      "name": "Unpaused",
      "type": "event"
    },
    {
      "inputs": [],
      "name": "MAX_SPECIAL_SUPPLY",
      "outputs": [
        {
          "internalType": "uint256",
          "name": "",
          "type": "uint256"
        }
      ],
      "stateMutability": "view",
      "type": "function"
    },
    {
      "inputs": [],
      "name": "MINT_PRICE",
      "outputs": [
        {
          "internalType": "uint256",
          "name": "",
          "type": "uint256"
        }
      ],
      "stateMutability": "view",
      "type": "function"
    },
    {
      "inputs": [],
      "name": "combineZodiac",
      "outputs": [],
      "stateMutability": "nonpayable",
      "type": "function"
    },
    {
      "inputs": [
        {
          "internalType": "address",
          "name": "user",
          "type": "address"
        }
      ],
      "name": "getUserNFTs",
      "outputs": [
        {
          "internalType": "uint256[]",
          "name": "",
          "type": "uint256[]"
        }
      ],
      "stateMutability": "view",
      "type": "function"
    },
    {
      "inputs": [],
      "name": "mint",
      "outputs": [],
      "stateMutability": "payable",
      "type": "function"
    },
    {
      "inputs": [],
      "name": "owner",
      "outputs": [
        {
          "internalType": "address",
          "name": "",
          "type": "address"
        }
      ],
      "stateMutability": "view",
      "type": "function"
    },
    {
      "inputs": [],
      "name": "pause",
      "outputs": [],
      "stateMutability": "nonpayable",
      "type": "function"
    },
    {
      "inputs": [],
      "name": "paused",
      "outputs": [
        {
          "internalType": "bool",
          "name": "",
          "type": "bool"
        }
      ],
      "stateMutability": "view",
      "type": "function"
    },
    {
      "inputs": [],
      "name": "renounceOwnership",
      "outputs": [],
      "stateMutability": "nonpayable",
      "type": "function"
    },
    {
      "inputs": [],
      "name": "specialTokenIdCounter",
      "outputs": [
        {
          "internalType": "uint256",
          "name": "",
          "type": "uint256"
        }
      ],
      "stateMutability": "view",
      "type": "function"
    },
    {
      "inputs": [
        {
          "internalType": "address",
          "name": "newOwner",
          "type": "address"
        }
      ],
      "name": "transferOwnership",
      "outputs": [],
      "stateMutability": "nonpayable",
      "type": "function"
    },
    {
      "inputs": [],
      "name": "unpause",
      "outputs": [],
      "stateMutability": "nonpayable",
      "type": "function"
    },
    {
      "inputs": [],
      "name": "withdraw",
      "outputs": [],
      "stateMutability": "nonpayable",
      "type": "function"
    },
    {
      "inputs": [],
      "name": "zodiacNFT",
      "outputs": [
        {
          "internalType": "contract ZodiacNFT",
          "name": "",
          "type": "address"
        }
      ],
      "stateMutability": "view",
      "type": "function"
    }
  ],
  "bytecode": "0x608060405234801561001057600080fd5b50604051611aaf380380611aaf8339818101604052810190610032919061024d565b61004e61004361011e60201b60201c565b61012660201b60201c565b60008060146101000a81548160ff021916908315150217905550600073ffffffffffffffffffffffffffffffffffffffff168173ffffffffffffffffffffffffffffffffffffffff16036100d7576040517f08c379a00000000000000000000000000000000000000000000000000000000081526004016100ce906102d7565b60405180910390fd5b80600160006101000a81548173ffffffffffffffffffffffffffffffffffffffff021916908373ffffffffffffffffffffffffffffffffffffffff160217905550506102f7565b600033905090565b60008060009054906101000a900473ffffffffffffffffffffffffffffffffffffffff169050816000806101000a81548173ffffffffffffffffffffffffffffffffffffffff021916908373ffffffffffffffffffffffffffffffffffffffff1602179055508173ffffffffffffffffffffffffffffffffffffffff168173ffffffffffffffffffffffffffffffffffffffff167f8be0079c531659141344cd1fd0a4f28419497f9722a3daafe3b4186f6b6457e060405160405180910390a35050565b600080fd5b600073ffffffffffffffffffffffffffffffffffffffff82169050919050565b600061021a826101ef565b9050919050565b61022a8161020f565b811461023557600080fd5b50565b60008151905061024781610221565b92915050565b600060208284031215610263576102626101ea565b5b600061027184828501610238565b91505092915050565b600082825260208201905092915050565b7f496e76616c6964205a6f646961634e4654206164647265737300000000000000600082015250565b60006102c160198361027a565b91506102cc8261028b565b602082019050919050565b600060208201905081810360008301526102f0816102b4565b9050919050565b6117a9806103066000396000f3fe6080604052600436106100dd5760003560e01c8063715018a61161007f5780638da5cb5b116100595780638da5cb5b1461021d578063c002d23d14610248578063ea1088b714610273578063f2fde38b1461029e576100dd565b8063715018a6146101c45780637c9efa89146101db5780638456cb5914610206576100dd565b80633f4ba83a116100bb5780633f4ba83a1461011a57806352de4ee514610131578063581ddf1a1461016e5780635c975abb14610199576100dd565b80631249c58b146100e257806338518d65146100ec5780633ccfd60b14610103575b600080fd5b6100ea6102c7565b005b3480156100f857600080fd5b506101016103fa565b005b34801561010f57600080fd5b50610118610885565b005b34801561012657600080fd5b5061012f6108e3565b005b34801561013d57600080fd5b5061015860048036038101906101539190610f11565b6108f5565b6040516101659190611006565b60405180910390f35b34801561017a57600080fd5b50610183610ac4565b6040516101909190611087565b60405180910390f35b3480156101a557600080fd5b506101ae610aea565b6040516101bb91906110bd565b60405180910390f35b3480156101d057600080fd5b506101d9610b00565b005b3480156101e757600080fd5b506101f0610b14565b6040516101fd91906110e7565b60405180910390f35b34801561021257600080fd5b5061021b610b1a565b005b34801561022957600080fd5b50610232610b2c565b60405161023f9190611111565b60405180910390f35b34801561025457600080fd5b5061025d610b55565b60405161026a91906110e7565b60405180910390f35b34801561027f57600080fd5b50610288610b61565b60405161029591906110e7565b60405180910390f35b3480156102aa57600080fd5b506102c560048036038101906102c09190610f11565b610b66565b005b6102cf610be9565b67016345785d8a000034101561031a576040517f08c379a000000000000000000000000000000000000000000000000000000000815260040161031190611189565b60405180910390fd5b6000600c4233604051602001610331929190611212565b6040516020818303038152906040528051906020012060001c610354919061126d565b9050600160009054906101000a900473ffffffffffffffffffffffffffffffffffffffff1673ffffffffffffffffffffffffffffffffffffffff1663a144819433836040518363ffffffff1660e01b81526004016103b392919061129e565b6020604051808303816000875af11580156103d2573d6000803e3d6000fd5b505050506040513d601f19601f820116820180604052508101906103f691906112f3565b5050565b610402610be9565b600a60025410610447576040517f08c379a000000000000000000000000000000000000000000000000000000000815260040161043e9061136c565b60405180910390fd5b6000610452336108f5565b905061045c610e8b565b60005b8251811015610597576000600160009054906101000a900473ffffffffffffffffffffffffffffffffffffffff1673ffffffffffffffffffffffffffffffffffffffff16633fa1fc6e8584815181106104bb576104ba61138c565b5b60200260200101516040518263ffffffff1660e01b81526004016104df91906110e7565b602060405180830381865afa1580156104fc573d6000803e3d6000fd5b505050506040513d601f19601f8201168201806040525081019061052091906112f3565b9050600c8110610565576040517f08c379a000000000000000000000000000000000000000000000000000000000815260040161055c90611407565b60405180910390fd5b60018382600c811061057a5761057961138c565b5b60200201901515908115158152505050808060010191505061045f565b5060005b600c811015610608578181600c81106105b7576105b661138c565b5b60200201516105fb576040517f08c379a00000000000000000000000000000000000000000000000000000000081526004016105f290611473565b60405180910390fd5b808060010191505061059b565b5060005b82518110156107c6576000600160009054906101000a900473ffffffffffffffffffffffffffffffffffffffff1673ffffffffffffffffffffffffffffffffffffffff16633fa1fc6e8584815181106106685761066761138c565b5b60200260200101516040518263ffffffff1660e01b815260040161068c91906110e7565b602060405180830381865afa1580156106a9573d6000803e3d6000fd5b505050506040513d601f19601f820116820180604052508101906106cd91906112f3565b90508281600c81106106e2576106e161138c565b5b6020020151156107b857600160009054906101000a900473ffffffffffffffffffffffffffffffffffffffff1673ffffffffffffffffffffffffffffffffffffffff166342966c6885848151811061073d5761073c61138c565b5b60200260200101516040518263ffffffff1660e01b815260040161076191906110e7565b600060405180830381600087803b15801561077b57600080fd5b505af115801561078f573d6000803e3d6000fd5b5050505060008382600c81106107a8576107a761138c565b5b6020020190151590811515815250505b50808060010191505061060c565b50600160009054906101000a900473ffffffffffffffffffffffffffffffffffffffff1673ffffffffffffffffffffffffffffffffffffffff1663a144819433600c6040518363ffffffff1660e01b81526004016108259291906114ce565b6020604051808303816000875af1158015610844573d6000803e3d6000fd5b505050506040513d601f19601f8201168201806040525081019061086891906112f3565b506002600081548092919061087c90611526565b91905055505050565b61088d610c33565b600047905061089a610b2c565b73ffffffffffffffffffffffffffffffffffffffff166108fc829081150290604051600060405180830381858888f193505050501580156108df573d6000803e3d6000fd5b5050565b6108eb610c33565b6108f3610cb1565b565b60606000600160009054906101000a900473ffffffffffffffffffffffffffffffffffffffff1673ffffffffffffffffffffffffffffffffffffffff166370a08231846040518263ffffffff1660e01b81526004016109549190611111565b602060405180830381865afa158015610971573d6000803e3d6000fd5b505050506040513d601f19601f8201168201806040525081019061099591906112f3565b905060008167ffffffffffffffff8111156109b3576109b261156e565b5b6040519080825280602002602001820160405280156109e15781602001602082028036833780820191505090505b50905060005b82811015610ab957600160009054906101000a900473ffffffffffffffffffffffffffffffffffffffff1673ffffffffffffffffffffffffffffffffffffffff16632f745c5986836040518363ffffffff1660e01b8152600401610a4c92919061129e565b602060405180830381865afa158015610a69573d6000803e3d6000fd5b505050506040513d601f19601f82011682018060405250810190610a8d91906112f3565b828281518110610aa057610a9f61138c565b5b60200260200101818152505080806001019150506109e7565b508092505050919050565b600160009054906101000a900473ffffffffffffffffffffffffffffffffffffffff1681565b60008060149054906101000a900460ff16905090565b610b08610c33565b610b126000610d13565b565b60025481565b610b22610c33565b610b2a610dd7565b565b60008060009054906101000a900473ffffffffffffffffffffffffffffffffffffffff16905090565b67016345785d8a000081565b600a81565b610b6e610c33565b600073ffffffffffffffffffffffffffffffffffffffff168173ffffffffffffffffffffffffffffffffffffffff1603610bdd576040517f08c379a0000000000000000000000000000000000000000000000000000000008152600401610bd49061160f565b60405180910390fd5b610be681610d13565b50565b610bf1610aea565b15610c31576040517f08c379a0000000000000000000000000000000000000000000000000000000008152600401610c289061167b565b60405180910390fd5b565b610c3b610e3a565b73ffffffffffffffffffffffffffffffffffffffff16610c59610b2c565b73ffffffffffffffffffffffffffffffffffffffff1614610caf576040517f08c379a0000000000000000000000000000000000000000000000000000000008152600401610ca6906116e7565b60405180910390fd5b565b610cb9610e42565b60008060146101000a81548160ff0219169083151502179055507f5db9ee0a495bf2e6ff9c91a7834c1ba4fdd244a5e8aa4e537bd38aeae4b073aa610cfc610e3a565b604051610d099190611111565b60405180910390a1565b60008060009054906101000a900473ffffffffffffffffffffffffffffffffffffffff169050816000806101000a81548173ffffffffffffffffffffffffffffffffffffffff021916908373ffffffffffffffffffffffffffffffffffffffff1602179055508173ffffffffffffffffffffffffffffffffffffffff168173ffffffffffffffffffffffffffffffffffffffff167f8be0079c531659141344cd1fd0a4f28419497f9722a3daafe3b4186f6b6457e060405160405180910390a35050565b610ddf610be9565b6001600060146101000a81548160ff0219169083151502179055507f62e78cea01bee320cd4e420270b5ea74000d11b0c9f74754ebdbfc544b05a258610e23610e3a565b604051610e309190611111565b60405180910390a1565b600033905090565b610e4a610aea565b610e89576040517f08c379a0000000000000000000000000000000000000000000000000000000008152600401610e8090611753565b60405180910390fd5b565b604051806101800160405280600c90602082028036833780820191505090505090565b600080fd5b600073ffffffffffffffffffffffffffffffffffffffff82169050919050565b6000610ede82610eb3565b9050919050565b610eee81610ed3565b8114610ef957600080fd5b50565b600081359050610f0b81610ee5565b92915050565b600060208284031215610f2757610f26610eae565b5b6000610f3584828501610efc565b91505092915050565b600081519050919050565b600082825260208201905092915050565b6000819050602082019050919050565b6000819050919050565b610f7d81610f6a565b82525050565b6000610f8f8383610f74565b60208301905092915050565b6000602082019050919050565b6000610fb382610f3e565b610fbd8185610f49565b9350610fc883610f5a565b8060005b83811015610ff9578151610fe08882610f83565b9750610feb83610f9b565b925050600181019050610fcc565b5085935050505092915050565b600060208201905081810360008301526110208184610fa8565b905092915050565b6000819050919050565b600061104d61104861104384610eb3565b611028565b610eb3565b9050919050565b600061105f82611032565b9050919050565b600061107182611054565b9050919050565b61108181611066565b82525050565b600060208201905061109c6000830184611078565b92915050565b60008115159050919050565b6110b7816110a2565b82525050565b60006020820190506110d260008301846110ae565b92915050565b6110e181610f6a565b82525050565b60006020820190506110fc60008301846110d8565b92915050565b61110b81610ed3565b82525050565b60006020820190506111266000830184611102565b92915050565b600082825260208201905092915050565b7f496e73756666696369656e74207061796d656e74000000000000000000000000600082015250565b600061117360148361112c565b915061117e8261113d565b602082019050919050565b600060208201905081810360008301526111a281611166565b9050919050565b6000819050919050565b6111c46111bf82610f6a565b6111a9565b82525050565b60008160601b9050919050565b60006111e2826111ca565b9050919050565b60006111f4826111d7565b9050919050565b61120c61120782610ed3565b6111e9565b82525050565b600061121e82856111b3565b60208201915061122e82846111fb565b6014820191508190509392505050565b7f4e487b7100000000000000000000000000000000000000000000000000000000600052601260045260246000fd5b600061127882610f6a565b915061128383610f6a565b9250826112935761129261123e565b5b828206905092915050565b60006040820190506112b36000830185611102565b6112c060208301846110d8565b9392505050565b6112d081610f6a565b81146112db57600080fd5b50565b6000815190506112ed816112c7565b92915050565b60006020828403121561130957611308610eae565b5b6000611317848285016112de565b91505092915050565b7f4d6178696d756d207370656369616c204e465473207265616368656400000000600082015250565b6000611356601c8361112c565b915061136182611320565b602082019050919050565b6000602082019050818103600083015261138581611349565b9050919050565b7f4e487b7100000000000000000000000000000000000000000000000000000000600052603260045260246000fd5b7f496e76616c6964207a6f6469616320696e646578000000000000000000000000600082015250565b60006113f160148361112c565b91506113fc826113bb565b602082019050919050565b60006020820190508181036000830152611420816113e4565b9050919050565b7f496e636f6d706c657465207a6f6469616320636f6c6c656374696f6e00000000600082015250565b600061145d601c8361112c565b915061146882611427565b602082019050919050565b6000602082019050818103600083015261148c81611450565b9050919050565b6000819050919050565b60006114b86114b36114ae84611493565b611028565b610f6a565b9050919050565b6114c88161149d565b82525050565b60006040820190506114e36000830185611102565b6114f060208301846114bf565b9392505050565b7f4e487b7100000000000000000000000000000000000000000000000000000000600052601160045260246000fd5b600061153182610f6a565b91507fffffffffffffffffffffffffffffffffffffffffffffffffffffffffffffffff8203611563576115626114f7565b5b600182019050919050565b7f4e487b7100000000000000000000000000000000000000000000000000000000600052604160045260246000fd5b7f4f776e61626c653a206e6577206f776e657220697320746865207a65726f206160008201527f6464726573730000000000000000000000000000000000000000000000000000602082015250565b60006115f960268361112c565b91506116048261159d565b604082019050919050565b60006020820190508181036000830152611628816115ec565b9050919050565b7f5061757361626c653a2070617573656400000000000000000000000000000000600082015250565b600061166560108361112c565b91506116708261162f565b602082019050919050565b6000602082019050818103600083015261169481611658565b9050919050565b7f4f776e61626c653a2063616c6c6572206973206e6f7420746865206f776e6572600082015250565b60006116d160208361112c565b91506116dc8261169b565b602082019050919050565b60006020820190508181036000830152611700816116c4565b9050919050565b7f5061757361626c653a206e6f7420706175736564000000000000000000000000600082015250565b600061173d60148361112c565b915061174882611707565b602082019050919050565b6000602082019050818103600083015261176c81611730565b905091905056fea2646970667358221220576f317873762de4e5c61da4494304a86a8b891956a3cf2eca878e8840459d5864736f6c634300081b0033",
  "linkReferences": {},
  "deployedLinkReferences": {}
}